:020000040800F2
:1000000000800020217C0008C9110008CB110008E5
:10001000CD110008CF110008D11100080000000028
:10002000000000000000000000000000D3110008E4
:10003000D511000800000000D7110008D9110008F0
:10004000717C0008717C0008717C0008717C0008DC
:10005000717C0008717C0008717C0008717C0008CC
:10006000717C0008717C0008717C0008717C0008BC
:10007000E1110008717C0008717C0008717C0008A7
:10008000717C000800000000F1110008717C00087C
:10009000717C0008717C0008717C0008717C00088C
:1000A000717C0008717C0008717C0008717C00087C
:1000B000717C0008717C0008717C0008717C00086C
:1000C000717C0008717C0008717C0008717C00085C
:1000D000717C000801120008717C0008717C000826
:1000E00019120008717C0008717C0008717C0008FE
:1000F000717C0008717C0008717C00080000000021
:1001000000000000717C000800000000717C000805
:10011000717C000800000000717C0008717C000800
:10012000717C0008717C0008717C0008717C0008FB
:10013000717C00080000000000000000717C0008D5
:10014000717C0008717C00080000000000000000C5
:10015000000000000000000000000000000000009F
:10016000000000000000000000000000717C00089A
:10017000717C00080000000000000000000000008A
:1001800000000000717C000800000000000000007A
:10019000000000000000000000000000000000005F
:1001A0000000000000000000717C0008717C000865
:1001B000717C0008717C0008717C00080000000060
:1001C00000000000717C000800000000000000003A
:0801D000717C0008717C00083D
:1001E00010B5054C237833B9044B13B10448AFF371
:1001F00000800123237010BDE401002000000000F6
:10020000ECB6000808B5034B1BB103490348AFF334
:10021000008008BD00000000E8010020ECB60008E6
:10022000034613F8012B002AFBD1181A0138704736
:1002300001F0FF01102A2BDB10F0070F08D010F897
:10024000013B013A8B422DD010F0070F42B3F6D19B
:10025000F0B441EA012141EA014122F007047FF0B4
:1002600000070023F0E80256083C85EA010586EA0B
:10027000010685FA47F5A3FA87F586FA47F6A5FA47
:1002800087F68EB9EED1F0BC01F0FF0102F0070253
:1002900032B110F8013B013A83EA010313B1F8D1FE
:1002A0000020704701387047002D06BF35460338DF
:1002B000073815F0010F07D1013015F4807F02BF18
:1002C000013015F4C03F0130F0BC0138704700BF69
:1002D00081F0004102E000BF83F0004330B54FEAF7
:1002E00041044FEA430594EA050F08BF90EA020F64
:1002F0001FBF54EA000C55EA020C7FEA645C7FEAF7
:10030000655C00F0E2804FEA5454D4EB5555B8BF19
:100310006D420CDD2C4480EA020281EA030382EA8A
:10032000000083EA010180EA020281EA0303362D1C
:1003300088BF30BD11F0004F4FEA01314FF4801CEF
:100340004CEA113102D0404261EB410113F0004F01
:100350004FEA03334CEA133302D0524263EB4303B8
:1003600094EA050F00F0A780A4F10104D5F1200E56
:100370000DDB02FA0EFC22FA05F2801841F10001B1
:1003800003FA0EF2801843FA05F359410EE0A5F185
:1003900020050EF1200E012A03FA0EFC28BF4CF0B6
:1003A000020C43FA05F3C01851EBE37101F000456C
:1003B00007D54FF0000EDCF1000C7EEB00006EEB79
:1003C0000101B1F5801F1BD3B1F5001F0CD3490803
:1003D0005FEA30004FEA3C0C04F101044FEA44525A
:1003E00012F5800F80F09A80BCF1004F08BF5FEAE1
:1003F000500C50F1000041EB045141EA050130BDC1
:100400005FEA4C0C404141EB0101013C28BFB1F5D2
:10041000801FE9D291F0000F04BF01460020B1FA1D
:1004200081F308BF2033A3F10B03B3F120020CDAF0
:100430000C3208DD02F1140CC2F10C0201FA0CF0CE
:1004400021FA02F10CE002F11402D8BFC2F1200C33
:1004500001FA02F120FA0CFCDCBF41EA0C019040E9
:10046000E41AA2BF01EB0451294330BD6FEA040432
:100470001F3C1CDA0C340EDC04F11404C4F120021D
:1004800020FA04F001FA02F340EA030021FA04F32F
:1004900045EA030130BDC4F10C04C4F1200220FA86
:1004A00002F001FA04F340EA0300294630BD21FAC4
:1004B00004F0294630BD94F0000F83F4801306BF8A
:1004C00081F480110134013D4EE77FEA645C18BF7E
:1004D0007FEA655C29D094EA050F08BF90EA020F15
:1004E00005D054EA000C04BF1946104630BD91EA0D
:1004F000030F1EBF0021002030BD5FEA545C05D110
:100500004000494128BF41F0004130BD14F580044E
:100510003CBF01F5801130BD01F0004545F0FE41C2
:1005200041F470014FF0000030BD7FEA645C1ABFF7
:10053000194610467FEA655C1CBF0B46024650EA2E
:10054000013406BF52EA033591EA030F41F400215A
:1005500030BD00BF90F0000F04BF0021704730B5E0
:100560004FF4806404F132044FF000054FF00001B5
:1005700050E700BF90F0000F04BF0021704730B576
:100580004FF4806404F1320410F0004548BF40424B
:100590004FF000013EE700BF42004FEAE2014FEAA0
:1005A00031014FEA02701FBF12F07F4393F07F4F7B
:1005B00081F06051704732F07F4208BF704793F07E
:1005C0007F4F04BF41F40021704730B54FF4607491
:1005D00001F0004521F000411CE700BF50EA010294
:1005E00008BF704730B54FF000050AE050EA01023D
:1005F00008BF704730B511F0004502D5404261EBAD
:1006000041014FF4806404F132045FEA915C3FF4ED
:10061000D8AE4FF003025FEADC0C18BF03325FEA8A
:10062000DC0C18BF033202EBDC02C2F1200300FA3B
:1006300003FC20FA02F001FA03FE40EA0E0021FA60
:1006400002F11444BDE600BF70B54FF0FF0C4CF44E
:10065000E06C1CEA11541DBF1CEA135594EA0C0F00
:1006600095EA0C0F00F0DEF82C4481EA030621EA3B
:100670004C5123EA4C5350EA013518BF52EA033576
:1006800041F4801143F4801338D0A0FB02CE4FF028
:100690000005E1FB02E506F00042E0FB03E54FF058
:1006A0000006E1FB03569CF0000F18BF4EF0010E50
:1006B000A4F1FF04B6F5007F64F5407404D25FEA4C
:1006C0004E0E6D4146EB060642EAC62141EA5551FF
:1006D0004FEAC52040EA5E504FEACE2EB4F1FD0C41
:1006E00088BFBCF5E06F1ED8BEF1004F08BF5FEABF
:1006F000500E50F1000041EB045170BD06F0004671
:1007000046EA010140EA020081EA0301B4EB5C041D
:10071000C2BFD4EB0C0541EA045170BD41F4801115
:100720004FF0000E013C00F3AB8014F1360FDEBF3A
:10073000002001F0004170BDC4F10004203C35DA16
:100740000C341BDC04F11404C4F1200500FA05F399
:1007500020FA04F001FA05F240EA020001F000423A
:1007600021F0004110EBD37021FA04F642EB0601B0
:100770005EEA430E08BF20EAD37070BDC4F10C04DA
:10078000C4F1200500FA04F320FA05F001FA04F29E
:1007900040EA020001F0004110EBD37041F100018A
:1007A0005EEA430E08BF20EAD37070BDC4F1200595
:1007B00000FA05F24EEA020E20FA04F301FA05F2FD
:1007C00043EA020321FA04F001F0004121FA04F2A5
:1007D00020EA020000EBD3705EEA430E08BF20EA75
:1007E000D37070BD94F0000F0FD101F000464000AF
:1007F00041EB010111F4801F08BF013CF7D041EA31
:10080000060195F0000F18BF704703F00046520034
:1008100043EB030313F4801F08BF013DF7D043EA05
:100820000603704794EA0C0F0CEA135518BF95EABB
:100830000C0F0CD050EA410618BF52EA4306D1D142
:1008400081EA030101F000414FF0000070BD50EA61
:10085000410606BF1046194652EA430619D094EAEB
:100860000C0F02D150EA013613D195EA0C0F05D1D5
:1008700052EA03361CBF104619460AD181EA030129
:1008800001F0004141F0FE4141F470014FF00000E1
:1008900070BD41F0FE4141F4780170BD70B54FF07C
:1008A000FF0C4CF4E06C1CEA11541DBF1CEA1355FC
:1008B00094EA0C0F95EA0C0F00F0A7F8A4EB0504DE
:1008C00081EA030E52EA03354FEA013100F08880D5
:1008D0004FEA03334FF0805545EA131343EA12639E
:1008E0004FEA022245EA111545EA10654FEA002653
:1008F0000EF000419D4208BF964244F1FD0404F50C
:10090000407402D25B084FEA3202B61A65EB030567
:100910005B084FEA32024FF480104FF4002CB6EB24
:10092000020E75EB030E22BFB61A754640EA0C00A4
:100930005B084FEA3202B6EB020E75EB030E22BFE4
:10094000B61A754640EA5C005B084FEA3202B6EB25
:10095000020E75EB030E22BFB61A754640EA9C00E4
:100960005B084FEA3202B6EB020E75EB030E22BFB4
:10097000B61A754640EADC0055EA060E18D04FEA72
:10098000051545EA16754FEA06164FEAC30343EA12
:1009900052734FEAC2025FEA1C1CC0D111F4801FDF
:1009A0000BD141EA00014FF000004FF0004CB6E7D8
:1009B00011F4801F04BF01430020B4F1FD0C88BF77
:1009C000BCF5E06F3FF6AFAEB5EB030C04BFB6EB82
:1009D000020C5FEA500C50F1000041EB045170BD75
:1009E0000EF0004E4EEA113114EB5C04C2BFD4EBA2
:1009F0000C0541EA045170BD41F480114FF0000E26
:100A0000013C90E645EA060E8DE60CEA135594EAA1
:100A10000C0F08BF95EA0C0F3FF43BAF94EA0C0FA4
:100A20000AD150EA01347FF434AF95EA0C0F7FF419
:100A300025AF104619462CE795EA0C0F06D152EA6D
:100A400003353FF4FDAE1046194622E750EA410651
:100A500018BF52EA43067FF4C5AE50EA41047FF462
:100A60000DAF52EA43057FF4EBAE12E74FF0FF3CC7
:100A700006E000BF4FF0010C02E000BF4FF0010C98
:100A80004DF804CD4FEA410C7FEA6C5C4FEA430C11
:100A900018BF7FEA6C5C1BD001B050EA410C0CBF60
:100AA00052EA430C91EA030F02BF90EA020F0020C2
:100AB000704710F1000F91EA030F58BF994208BF29
:100AC00090422CBFD8176FEAE37040F001007047E6
:100AD0004FEA410C7FEA6C5C02D150EA013C07D13D
:100AE0004FEA430C7FEA6C5CD6D152EA033CD3D088
:100AF0005DF8040B704700BF8446104662468C4682
:100B00001946634600E000BF01B5FFF7B7FF0028B4
:100B100048BF10F1000F01BD4DF808EDFFF7F4FFDD
:100B20000CBF012000205DF808FB00BF4DF808ED68
:100B3000FFF7EAFF34BF012000205DF808FB00BF8B
:100B40004DF808EDFFF7E0FF94BF012000205DF8AD
:100B500008FB00BF4DF808EDFFF7CEFF94BF012062
:100B600000205DF808FB00BF4DF808EDFFF7C4FF5B
:100B700034BF012000205DF808FB00BF4FEA410CA4
:100B80007FEA6C5C02D150EA013C0AD14FEA430C87
:100B90007FEA6C5C02D152EA033C02D14FF00000C4
:100BA00070474FF0010070474FEA410212F5001202
:100BB00015D211D56FF47873B3EB625212D94FEAA4
:100BC000C12343F0004343EA505311F0004F23FA8E
:100BD00002F018BF404270474FF00000704750EAE3
:100BE000013005D111F0004008BF6FF000407047A0
:100BF0004FF00000704700BF4FEA4102B2F1E043FE
:100C000024BFB3F5001CDCF1FE5C0DD901F0004CF3
:100C10004FEAC0024CEA5070B2F1004F40EB830043
:100C200008BF20F00100704711F0804F21D113F16F
:100C30003872BCBF01F00040704741F480114FEAA8
:100C40005252C2F11802C2F1200C10FA0CF320FA31
:100C500002F018BF40F001004FEAC1234FEAD3234E
:100C600003FA0CFC40EA0C0023FA02F34FEA4303B8
:100C7000CCE77FEA625307D150EA01331EBF4FF041
:100C8000FE4040F44000704701F0004040F0FE405C
:100C900040F40000704700BF53B94AB9002908BFAB
:100CA00000281CBF4FF0FF314FF0FF3000F074B947
:100CB000ADF1080C6DE904CE00F006F8DDF804E0B3
:100CC000DDE9022304B070472DE9F047089D044692
:100CD0008E46002B4DD18A42944669D9B2FA82F2EF
:100CE00052B101FA02F3C2F1200120FA01F10CFA2B
:100CF00002FC41EA030E94404FEA1C48210CBEFB63
:100D0000F8F61FFA8CF708FB16E341EA034306FBEB
:100D100007F199420AD91CEB030306F1FF3080F07A
:100D20001F81994240F21C81023E63445B1AA4B2C7
:100D3000B3FBF8F008FB103344EA034400FB07F769
:100D4000A7420AD91CEB040400F1FF3380F00A81AA
:100D5000A74240F207816444023840EA0640E41B9F
:100D600000261DB1D4400023C5E900433146BDE84B
:100D7000F0878B4209D9002D00F0EF800026C5E9ED
:100D8000000130463146BDE8F087B3FA83F6002E05
:100D90004AD18B4202D3824200F2F980841A61EB7D
:100DA000030301209E46002DE0D0C5E9004EDDE79B
:100DB00002B9FFDEB2FA82F2002A40F09280A1EB83
:100DC0000C014FEA1C471FFA8CFE0126200CB1FBD8
:100DD000F7F307FB131140EA01410EFB03F08842D1
:100DE00008D91CEB010103F1FF3802D2884200F25E
:100DF000CB804346091AA4B2B1FBF7F007FB1011F0
:100E000044EA01440EFB00FEA64508D91CEB04048D
:100E100000F1FF3102D2A64500F2BB800846A4EBE8
:100E20000E0440EA03409CE7C6F12007B34022FAD3
:100E300007FC4CEA030C20FA07F401FA06F31C4302
:100E4000F9404FEA1C4900FA06F3B1FBF9F8200C0F
:100E50001FFA8CFE09FB181140EA014108FB0EF055
:100E6000884202FA06F20BD91CEB010108F1FF3AA5
:100E700080F08880884240F28580A8F102086144B1
:100E8000091AA4B2B1FBF9F009FB101144EA0141BF
:100E900000FB0EFE8E4508D91CEB010100F1FF346A
:100EA0006CD28E456AD90238614440EA0840A0FB02
:100EB0000294A1EB0E01A142C846A64656D353D0D8
:100EC0005DB1B3EB080261EB0E0101FA07F722FAFC
:100ED00006F3F1401F43C5E9007100263146BDE825
:100EE000F087C2F12003D8400CFA02FC21FA03F388
:100EF000914001434FEA1C471FFA8CFEB3FBF7F009
:100F000007FB10360B0C43EA064300FB0EF69E422D
:100F100004FA02F408D91CEB030300F1FF382FD2C6
:100F20009E422DD9023863449B1B89B2B3FBF7F66E
:100F300007FB163341EA034106FB0EF38B4208D947
:100F40001CEB010106F1FF3816D28B4214D9023E88
:100F50006144C91A46EA004638E72E46284605E7A6
:100F60000646E3E61846F8E64B45A9D2B9EB020877
:100F700064EB0C0E0138A3E74646EAE7204694E707
:100F80004046D1E7D0467BE7023B614432E730463A
:100F900009E76444023842E7704700BF024A136819
:100FA00043F0010313607047B01B002008B5144ADA
:100FB000136801331360127952B9124AA2FB03126B
:100FC000120B41F2883101FB123212B90C4B1A603C
:100FD00008BD0D4AA2FB0312120902EB8202910026
:100FE0008B4207D0064B1B6813F0010FF0D105F0C0
:100FF000F7FFEDE74FF40051044801F0CCFEF1E7B4
:10100000000200205917B7D1CDCCCCCC0008004845
:1010100072B6FEE700B595B03822002106A806F0AA
:101020005BFE00200190029003900490059000F078
:101030005BFF012306934FF48033079302230D9344
:1010400003220E9208220F925522109211931293AE
:10105000139306A801F060F880B90F2301930323CE
:101060000293002303930493059304210DEB0100E5
:1010700001F00AFB20B915B05DF804FBFFF7C8FFCB
:10108000FFF7C6FF08B500F0E5FFFFF7C3FF00F06C
:101090002FF804F0F7F902F06FF902F0B7FA03F055
:1010A0009FFE04F011FA06F066FD0E49002006F0DE
:1010B00053FD05F0C3FE01224FF400510A4801F030
:1010C00065FE0A49002006F047FDFFF76FFF05F0B7
:1010D000E1FF05F0DFFC05F0C3FE012000F0DCFFBE
:1010E000F3E700BF08B700080008004818B7000879
:1010F00070B58AB000240594069407940894099466
:101100002F4BDA6C42F00402DA64DA6C02F004026B
:101110000192019ADA6C42F02002DA64DA6C02F091
:1011200020020292029ADA6C42F00102DA64DA6C6E
:1011300002F001020392039ADA6C42F00202DA64CE
:10114000DB6C03F002030493049B1E4E22464FF413
:101150000051304601F01AFE22464FF400414FF094
:10116000904001F013FE4FF40053059301250695BE
:101170000794089405A9304601F01EFD4FF48053F2
:1011800005934FF488130693079405A94FF09040F8
:1011900001F012FD4FF4004305930695079408945F
:1011A00005A94FF0904001F007FD224603212820B9
:1011B00002F004F8282002F039F80AB070BD00BF30
:1011C0000010024000080048FEE7FEE7FEE7FEE7E9
:1011D000FEE770477047704708B500F04BFF08BD49
:1011E00008B5024801F073FF08BD00BF8803002066
:1011F00008B5024802F052FC08BD00BF58020020AA
:1012000010B5044C204604F0D9FB204604F032FA15
:1012100010BD00BFE803002008B54FF4805001F076
:10122000C3FD08BD00B583B00B4B1A6E42F001023E
:101230001A661A6E02F001020092009A9A6D42F04C
:1012400080529A659B6D03F080530193019B00F0DF
:10125000D1FE03B05DF804FB0010024030B4036A15
:1012600023F001030362036A4568826922F4803235
:1012700022F073020C68224323F002038C6823439C
:101280001D4CA0420FD004F50064A0420BD004F521
:101290004064A04207D004F58064A04203D004F566
:1012A0008064A04205D123F00803CC68234323F0D7
:1012B0000403114CA0420FD004F50064A0420BD0EF
:1012C00004F54064A04207D004F58064A04203D036
:1012D00004F58064A04207D125F4407C4C6944EABF
:1012E0000C0C8D6945EA0C05456082614A684263D1
:1012F000036230BC704700BF002C014030B4036A69
:1013000023F480730362036A4468C26922F4803262
:1013100022F073020D682A4323F400738D6843EAB8
:101320000523184DA84203D005F50065A84206D153
:1013300023F40063CD6843EA052323F48063114D51
:10134000A8420FD005F50065A8420BD005F5406511
:10135000A84207D005F58065A84203D005F5806551
:10136000A84207D124F4405C4C694CEA041C8C6907
:101370004CEA04144460C2614A68C263036230BC30
:10138000704700BF002C014030B4036A23F480533F
:101390000362036A4468C26922F0807222F4E64262
:1013A0000D6842EA052223F400538D6843EA0533B1
:1013B000174DA84203D005F50065A84206D123F4D5
:1013C0000043CD6843EA053323F48043104DA8421F
:1013D0000FD005F50065A8420BD005F54065A84281
:1013E00007D005F58065A84203D005F58065A842C1
:1013F00007D124F4404C4C694CEA841C8C694CEABB
:1014000084144460C2614A680264036230BC70475D
:10141000002C014030B4036A23F480330362036A72
:101420004468026D22F4803222F070020D682A4373
:1014300023F400338D6843EA05430F4DA8420FD0D3
:1014400005F50065A8420BD005F54065A84207D018
:1014500005F58065A84203D005F58065A84204D152
:1014600024F480344D6944EA0524446002654A68E6
:101470008264036230BC7047002C014030B4036AC0
:1014800023F480130362036A4468026D22F08072C1
:1014900022F4E0420D6842EA052223F400138D682D
:1014A00043EA05530F4DA8420FD005F50065A84249
:1014B0000BD005F54065A84207D005F58065A84228
:1014C00003D005F58065A84204D124F480244D6939
:1014D00044EA8524446002654A68C264036230BC01
:1014E000704700BF002C014010B4036A046A24F066
:1014F00001040462846924F0F00C4CEA021223F027
:101500000A030B43826103625DF8044B704710B419
:10151000046A24F0100404628469036A24F4704CA1
:101520004CEA023223F0A00343EA01138261036212
:101530005DF8044B7047836823F4401323F0700375
:101540000B4343F0070383607047704703682C4ADE
:1015500090420ED0B0F1804F0BD0A2F59432904261
:1015600007D002F58062904203D002F59632904295
:1015700003D123F070034A681343214A90421AD0E2
:10158000B0F1804F17D0A2F59432904213D002F5FB
:10159000806290420FD002F5963290420BD002F555
:1015A0004062904207D002F58062904203D002F57B
:1015B0008062904203D123F44073CA68134323F03E
:1015C00080034A69134303608B68C3620B688362BC
:1015D0000B4B98420FD003F5006398420BD003F5F4
:1015E0004063984207D003F58063984203D003F527
:1015F0008063984201D10B69036301234361704703
:10160000002C014060B310B5044690F83D3013B390
:10161000022384F83D30214651F8040BFFF796FF72
:10162000012384F8483084F83E3084F83F3084F851
:10163000403084F8413084F8423084F8433084F8F4
:10164000443084F8453084F8463084F8473084F8D4
:101650003D30002010BD80F83C3001F01DFED7E782
:101660000120704760B310B5044690F83D3013B3C5
:10167000022384F83D30214651F8040BFFF766FF42
:10168000012384F8483084F83E3084F83F3084F8F1
:10169000403084F8413084F8423084F8433084F894
:1016A000443084F8453084F8463084F8473084F874
:1016B0003D30002010BD80F83C30FFF746FFD7E7F3
:1016C0000120704730B4036A23F010030362036AF9
:1016D0004468826922F0807222F4E6420D6842EA90
:1016E000052223F020038D6843EA0513174DA84215
:1016F00003D005F50065A84206D123F08003CD682C
:1017000043EA051323F04003104DA8420FD005F51E
:101710000065A8420BD005F54065A84207D005F545
:101720008065A84203D005F58065A84207D124F45E
:10173000406C4C694CEA840C8C694CEA840444602B
:1017400082614A688263036230BC7047002C0140AA
:1017500038B590F83C30012B00F0958004460D46DA
:10176000012380F83C30142A00F28880DFE802F080
:101770000B8686861F86868634868686488686867B
:101780005D86868671000068FFF768FD22689369B0
:1017900043F0080393612268936923F00403936183
:1017A0002268936929690B439361002067E0006810
:1017B000FFF788FF2268936943F40063936122680E
:1017C000936923F48063936122689369296943EAEA
:1017D00001239361002052E00068FFF78FFD22682B
:1017E000D36943F00803D3612268D36923F004036B
:1017F000D3612268D36929690B43D36100203EE09D
:101800000068FFF7C1FD2268D36943F40063D36128
:101810002268D36923F48063D3612268D36929697C
:1018200043EA0123D361002029E00068FFF7F2FDBD
:101830002268136D43F0080313652268136D23F0CB
:10184000040313652268136D29690B431365002097
:1018500015E00068FFF712FE2268136D43F4006381
:1018600013652268136D23F4806313652268136D7A
:10187000296943EA01231365002000E001200023C9
:1018800084F83C3038BD0220FCE710B4846824F4AE
:101890007F4C42EA03220A4342EA0C0282605DF86E
:1018A000044B704790F83C30012B00F08F8010B54E
:1018B0000446012380F83C30022380F83D30026862
:1018C0009068434B034093600B68702B55D031D820
:1018D000502B6CD00CD9602B2AD1CA68496820687B
:1018E000FFF715FE60212068FFF725FE002035E098
:1018F000402B0AD1CA6849682068FFF7F5FD4021EE
:101900002068FFF718FE002028E05BD8202B07D0C6
:1019100003D9302B04D0012020E00BB1102B05D1CE
:1019200019462068FFF707FE002017E0012015E0A8
:10193000012013E0B3F5005F2CD00BD9254A934268
:10194000EED012D9244A9342EAD030329342E7D003
:10195000012003E0B3F5805F36D10020012384F835
:101960003D30002384F83C3010BDB3F1101FD7D0B8
:10197000103A9342D4D00120F0E7CB684A688968D6
:101980002068FFF782FF2268936843F07703936033
:101990000020E3E7CB684A6889682068FFF775FF95
:1019A0002268936843F4804393600020D6E7CA68B6
:1019B00049682068FFF798FD50212068FFF7BBFDBC
:1019C0000020CBE70120C9E70120C7E702207047CC
:1019D0008800CEFF300010004000100001F01F0111
:1019E000012303FA01FC036A23EA0C030362036A7E
:1019F00002FA01F10B4303627047000010B5044680
:101A00000846002947D194F83E30DBB2013B18BFAD
:101A10000123002B40F09480002867D1022384F832
:101A20003E30012201462068FFF7D8FF2368474A6D
:101A300093420FD002F5006293420BD002F5406250
:101A4000934207D002F58062934203D002F5806290
:101A5000934203D15A6C42F400425A6423683B4AD1
:101A600093425FD0B3F1804F5CD0A2F594329342A1
:101A700058D002F58062934254D002F596329342D8
:101A800050D002F5406293424CD01A6842F00102F5
:101A90001A60002055E004290CD0082911D00C2927
:101AA00016D010291BD094F84330DBB2013B18BF8D
:101AB0000123AEE794F83F30DBB2013B18BF0123AE
:101AC000A7E794F84030DBB2013B18BF0123A0E741
:101AD00094F84130DBB2013B18BF012399E794F839
:101AE0004230DBB2013B18BF012392E7042809D042
:101AF00008280BD00C280DD010280FD0022384F812
:101B000043308EE7022384F83F308AE7022384F8CB
:101B1000403086E7022384F8413082E7022384F8CC
:101B200042307EE799680A4A0A40062A0AD0B2F58E
:101B3000803F09D01A6842F001021A60002000E0DC
:101B4000012010BD0020FCE70020FAE7002C014036
:101B50000700010038B504460D4600220068FFF773
:101B60003DFF2368284A93420FD002F5006293425A
:101B70000BD002F54062934207D002F58062934297
:101B800003D002F5806293420DD1196A41F211121D
:101B9000114208D1196A44F24442114203D15A6CED
:101BA00022F400425A642368196A41F21112114268
:101BB00008D1196A44F24442114203D11A6822F052
:101BC00001021A6025B9012384F83E30002038BD97
:101BD000042D09D0082D0BD00C2D0DD0102D0FD0B9
:101BE000012384F84330F1E7012384F83F30EDE727
:101BF000012384F84030E9E7012384F84130E5E728
:101C0000012384F84230E1E7002C014001F01F017C
:101C1000042303FA01FC036A23EA0C030362036A48
:101C200002FA01F10B4303627047000010B504464D
:101C30000846002933D194F84430DBB2013B18BF89
:101C40000123002B62D1002842D1022384F84430C2
:101C5000042201462068FFF7D9FF2268536C43F441
:101C60000043536423682C4A934241D0B3F1804F20
:101C70003ED0A2F5943293423AD002F5806293426C
:101C800036D002F59632934232D002F5406293424A
:101C90002ED01A6842F001021A60002037E00429B1
:101CA00008D008290DD094F84730DBB2013B18BFAB
:101CB0000123C6E794F84530DBB2013B18BF01238E
:101CC000BFE794F84630DBB2013B18BF0123B8E709
:101CD000042805D0082807D0022384F84730B7E746
:101CE000022384F84530B3E7022384F84630AFE797
:101CF00099680A4A0A40062A0AD0B2F5803F09D0FC
:101D00001A6842F001021A60002000E0012010BDB4
:101D10000020FCE70020FAE7002C0140070001004A
:101D200038B504460D4600220068FFF76FFF2368B0
:101D3000196A41F21112114208D1196A44F244425F
:101D4000114203D15A6C22F400425A642368196A82
:101D500041F21112114208D1196A44F2444211426F
:101D600003D11A6822F001021A6025B9012384F810
:101D70004430002038BD042D05D0082D07D00123A4
:101D800084F84730F5E7012384F84530F1E7012373
:101D900084F84630EDE7000090F83C30012B40D04D
:101DA00030B4012380F83C30022380F83D300268D3
:101DB000536894681C4DAA4203D005F50065AA42F9
:101DC00003D123F470034D682B4323F0007323F0F9
:101DD00070030D682B4353600368134A934212D07B
:101DE000B3F1804F0FD0A2F5943293420BD002F59D
:101DF0008062934207D002F59632934203D002F5F7
:101E00004062934204D124F080048A6814439C60A9
:101E1000012380F83D30002380F83C30184630BC68
:101E200070470220704700BF002C014090F83C3002
:101E3000012B55D010B4012380F83C30CB6823F43B
:101E400040738A68134323F480634A68134323F47E
:101E500000630A68134323F480530A69134323F48D
:101E600000534A69134323F480430A6B134323F45A
:101E700070238A6943EA024302681A4CA24203D0E3
:101E800004F50064A24203D123F08053CC692343BC
:101E9000144CA2420BD004F50064A24207D0536454
:101EA000002380F83C3018465DF8044B704723F45B
:101EB00070038C6A43EA045323F080730C6A234353
:101EC00023F000734C6A2343064CA24203D004F56E
:101ED0000064A242E3D123F00053C96A0B43DEE75A
:101EE00002207047002C0140002836D13E4B1B6871
:101EF00003F4C063B3F5806F08D03B4AD2F880305A
:101F000023F48073C2F8803000207047364AD2F83C
:101F1000803023F48073C2F88030136823F4C063E8
:101F200043F400731360314B1B68322202FB03F34E
:101F30002F4AA2FB03239B0C013300E0013B2A4AFA
:101F4000526912F4806F01D0002BF7D1264B5B69E8
:101F500013F4806F44D100207047B0F5007F08D0A3
:101F6000214A136823F4C06343F4806313600020A4
:101F700070471D4B1B6803F4C063B3F5806F08D036
:101F8000194AD2F8803043F48073C2F880300020C0
:101F90007047154AD2F8803043F48073C2F880301D
:101FA000136823F4C06343F4007313600F4B1B6882
:101FB000322202FB03F30E4AA2FB03239B0C0133E4
:101FC00000E0013B084A526912F4806F01D0002BF7
:101FD000F7D1054B5B6913F4806F03D10020704784
:101FE0000320704703207047007000400800002065
:101FF00083DE1B43024A936843F480439360704737
:1020000000700040104B1B680BB90120704710B5E1
:1020100004464FF47A70B0FBF3F30C4A1068B0FB3F
:10202000F3F001F011F968B90F2C01D901200AE091
:10203000002221464FF0FF3001F0C0F8044B1C6035
:10204000002000E0012010BD00000020080000205A
:102050000400002010B5032001F09EF80F20FFF7C8
:10206000D1FF10B10124204610BD0446FFF7DAF875
:10207000F9E70000034A1368034909680B44136039
:10208000704700BF0802002000000020014B1868C4
:10209000704700BF0802002038B50446FFF7F6FF7E
:1020A0000546B4F1FF3F02D0044B1B681C44FFF708
:1020B000EDFF401BA042FAD338BD00BF0000002056
:1020C000124BDA6802F00302D868C0F30310431C15
:1020D000032A11D00E48B0FBF3F00C4BDB68C3F3BE
:1020E000062303FB00F0094BDB68C3F341630133B4
:1020F0005B00B0FBF3F070470648B0FBF3F0034B16
:10210000DB68C3F3062303FB00F0ECE7001002409A
:102110000024F4000048E801002800F0548270B563
:1021200082B00446036813F0010F37D0A44A9368C5
:1021300003F00C03D26802F003020C2B23D0082B0F
:1021400023D06368B3F5803F4ED0B3F5A02F51D0B4
:102150009B4B1A6822F480321A601A6822F480229B
:102160001A606368002B52D0FFF790FF0546944B2E
:102170001B6813F4003F11D1FFF788FF401B642850
:10218000F5D9032028E2032AD9D18D4B1B6813F41B
:10219000003F03D06368002B00F01782236813F020
:1021A000020F5DD0864A936803F00C03D26802F0F8
:1021B00003020C2B3AD0042B3AD0E368002B75D0E5
:1021C0007F4A136843F480731360FFF75FFF05468F
:1021D0007B4B1B6813F4806F5FD1FFF757FF401BE9
:1021E0000228F5D90320F7E1754A136843F48033D8
:1021F0001360B6E703F18043A3F53C331A6842F459
:1022000080221A601A6842F480321A60A9E7FFF748
:102210003DFF05466A4B1B6813F4003FBED0FFF735
:1022200035FF401B6428F5D90320D5E1022AC2D12D
:10223000634B1B6813F4806F03D0E368002B00F03E
:10224000C6815F4A536823F0FE43216943EA016374
:1022500053605C4B1868FFF7D5FE002840F0B98149
:10226000236813F0080F4CD063699BB3544AD2F82B
:10227000943043F00103C2F89430FFF707FF05469E
:102280004F4BD3F8943013F0020F3AD1FFF7FEFE14
:10229000401B0228F4D903209EE1494A536823F0E9
:1022A000FE43216943EA01635360D9E7444A136856
:1022B00023F480731360FFF7E9FE0546404B1B686B
:1022C00013F4806FCCD0FFF7E1FE401B0228F5D954
:1022D000032081E13A4AD2F8943023F00103C2F896
:1022E0009430FFF7D3FE0546354BD3F8943013F006
:1022F000020F06D0FFF7CAFE401B0228F4D90320C4
:102300006AE1236813F0040F00F081802C4B9B6D71
:1023100013F0805F36D12A4B9A6D42F080529A6555
:102320009B6D03F080530193019B0125264B1B6895
:1023300013F4807F28D0A368012B39D0052B45D01A
:102340001F4BD3F8902022F00102C3F89020D3F85D
:10235000902022F00402C3F89020A368002B43D001
:10236000FFF794FE0646164BD3F8903013F0020F99
:102370004CD1FFF78BFE801B41F288339842F2D993
:10238000032029E10025D1E70F4A136843F4807345
:102390001360FFF77BFE06460B4B1B6813F4807F30
:1023A000C9D1FFF773FE801B0228F5D9032013E182
:1023B000034AD2F8903043F00103C2F89030CCE7E2
:1023C0000010024004000020007000408A4BD3F847
:1023D000902042F00402C3F89020D3F8902042F0FD
:1023E0000102C3F89020B8E7FFF750FE0646824B83
:1023F000D3F8903013F0020F08D0FFF747FE801B90
:1024000041F288339842F2D90320E5E0E5B9236828
:1024100013F0200F35D0A369E3B1774AD2F8983092
:1024200043F00103C2F89830FFF730FE0546724BC7
:10243000D3F8983013F0020F23D1FFF727FE401B8B
:102440000228F4D90320C7E06B4A936D23F0805330
:102450009365DCE7684AD2F8983023F00103C2F8AC
:102460009830FFF713FE0546634BD3F8983013F00E
:10247000020F06D0FFF70AFE401B0228F4D9032002
:10248000AAE0E369002B00F0A6805B4A926802F0A4
:102490000C020C2A69D0022B1DD0574B1A6822F06F
:1024A00080721A60DA6822F00302DA60DA6822F0D9
:1024B000887222F48032DA60FFF7E8FD04464E4B62
:1024C0001B6813F0007F4ED0FFF7E0FD001B0228D1
:1024D000F5D9032080E0484A136823F08073136025
:1024E000FFF7D4FD0546444B1B6813F0007F06D070
:1024F000FFF7CCFD401B0228F5D903206CE03E4AD3
:10250000D3683E491940236A606A013843EA0013E0
:10251000A06A43EA0023206B4008013843EA405395
:10252000606B4008013843EA4063E06A43EAC063F5
:102530000B43D360136843F080731360D36843F098
:102540008073D360FFF7A2FD04462B4B1B6813F08A
:10255000007F06D1FFF79AFD001B0228F5D9032062
:102560003AE0002038E0002036E0012B36D0224B44
:10257000DB6803F00301226A914231D103F0F002DB
:10258000616A0139B2EB011F2CD103F4FE42A16A4A
:10259000B2EB012F28D103F07842E16AB2EBC16FB0
:1025A00024D103F4C001226B5208013AB1EB425F1F
:1025B0001ED103F0C063626B5208013AB3EB426F65
:1025C00018D1002008E001207047012004E001201C
:1025D00002E0012000E0002002B070BD0120FBE716
:1025E0000120F9E70120F7E70120F5E70120F3E7F3
:1025F0000120F1E70120EFE7001002400C809F016D
:102600001E4B9B6803F00C03042B33D01B4B9B68C1
:1026100003F00C03082B2FD0184B9B6803F00C031E
:102620000C2B01D000207047144BDA6802F0030233
:10263000D868C0F30310431C032A11D01048B0FB24
:10264000F3F00E4BDB68C3F3062303FB00F00B4BE8
:10265000DB68C3F3416301335B00B0FBF3F0704709
:102660000848B0FBF3F0054BDB68C3F3062303FB1C
:1026700000F0ECE702487047024870470010024043
:102680000024F4000048E801002800F0E680F8B5D6
:102690000C460546744B1B6803F00F038B420BD2AC
:1026A000714A136823F00F030B431360136803F0A0
:1026B0000F038B4240F0D3802E6816F001065FD0E6
:1026C0006B68032B2FD0022B4DD0684B1B6813F483
:1026D000806F00F0C680FFF793FF654B98424DD99D
:1026E000624A936823F0F00343F0800393608026EE
:1026F0005E4A936823F0030369680B439360FFF716
:10270000C5FC0746594B9B6803F00C036A68B3EBA2
:10271000820F35D0FFF7BAFCC01B41F288339842D4
:10272000F0D9032078E0514B1B6813F0007F01D1F2
:10273000012071E0FFF7C4FC4D4B98421AD94B4B76
:102740009B6813F0F00F05D02E6816F00206CFD06C
:10275000AB688BB9454A936823F0F00343F08003DC
:1027600093608026C4E7414B1B6813F4003FB2D14D
:10277000012051E00026BBE70026B9E70026B7E7B5
:102780002B6813F0020F48D013F0040F04D0374A1F
:10279000936843F4E06393602B6813F0080F06D04E
:1027A000324A936823F47C5343F4E06393602F4AE6
:1027B000936823F0F003A9680B4393602A4B1B68CE
:1027C00003F00F03A34230D82B6813F0040F06D098
:1027D000264A936823F4E063E9680B4393602B680F
:1027E00013F0080F07D0214A936823F46053296936
:1027F00043EAC1039360FFF703FF1C4B9B68C3F3DD
:1028000003131C4AD35C03F01F03D8401A4B186013
:102810001A4B1868FFF7F6FBF8BD802ECED1134A8D
:10282000936823F0F0039360C8E70F4A136823F01E
:102830000F0323431360FFF729FC06460A4B1B686E
:1028400003F00F03A342BFD0FFF720FC801B41F22F
:1028500088339842F2D90320DEE701207047012037
:10286000DAE70120D8E700BF002002400010024054
:1028700000B4C4042CB700080800002004000020A5
:10288000014B1868704700BF0800002008B5FFF72B
:10289000F7FF054B9B68C3F30223044AD35C03F0A4
:1028A0001F03D84008BD00BF001002403CB700081D
:1028B00008B5FFF7E5FF054B9B68C3F3C223044A45
:1028C000D35C03F01F03D84008BD00BF00100240D6
:1028D0003CB70008F0B583B00446036813F4002F3A
:1028E00069D0AE4B9B6D13F0805F1ED1AB4B9A6DE0
:1028F00042F080529A659B6D03F080530193019BD7
:102900000126A74A136843F480731360FFF7BEFBE8
:102910000546A34B1B6813F4807F08D1FFF7B6FB75
:10292000401B0228F5D9032502E00026E9E700252F
:1029300045BB9A4BD3F8903013F4407315D0226CFA
:102940009A4212D0954AD2F8903023F44073D2F8CC
:10295000901041F48031C2F89010D2F8901021F418
:102960008031C2F89010C2F8903013F0010F10D1EE
:1029700045B98A4AD2F8903023F44073216C0B4356
:10298000C2F89030C6B1854A936D23F080539365A9
:1029900012E0FFF77BFB0746804BD3F8903013F033
:1029A000020FE5D1FFF772FBC01B41F2883398425A
:1029B000F2D90325DCE70025236813F0010F08D0C6
:1029C000764AD2F8883023F0030361680B43C2F8DB
:1029D0008830236813F0020F08D0704AD2F888308C
:1029E00023F00C03A1680B43C2F88830236813F06E
:1029F000040F08D0694AD2F8883023F03003E16828
:102A00000B43C2F88830236813F0080F08D0634ADC
:102A1000D2F8883023F0C00321690B43C2F8883014
:102A2000236813F0200F08D05C4AD2F8883023F4D2
:102A3000406361690B43C2F88830236813F0400F8C
:102A400008D0564AD2F8883023F44053A1690B438A
:102A5000C2F88830236813F0800F08D04F4AD2F8AC
:102A6000883023F44043E1690B43C2F8883023687F
:102A700013F4807F08D0494AD2F8883023F44033D9
:102A8000216A0B43C2F88830236813F4007F08D012
:102A9000424AD2F8883023F44023616A0B43C2F8DB
:102AA0008830236813F4806F0CD03C4AD2F8883009
:102AB00023F44013A16A0B43C2F88830A36AB3F52C
:102AC000801F57D0236813F4006F0CD0334AD2F81C
:102AD000883023F44003E16A0B43C2F88830E36A8C
:102AE000B3F5800F4BD0236813F4805F0CD02B4AD2
:102AF000D2F8883023F04073216B0B43C2F8883042
:102B0000236BB3F1807F3FD0236813F4005F0CD0B8
:102B1000224AD2F8883023F04063616B0B43C2F83D
:102B20008830636BB3F1006F33D0236813F4804FA8
:102B30000CD01A4AD2F8883023F04063A16B0B43C3
:102B4000C2F88830A36BB3F1006F2BD0236813F465
:102B5000004F0CD0114AD2F8883023F04053E16B7B
:102B60000B43C2F88830E36BB3F1805F1FD0284677
:102B700003B0F0BDD36843F48013D360A2E7D368F9
:102B800043F48013D360AEE7D36843F48013D3607B
:102B9000BAE7D36843F48013D360C6E7001002405D
:102BA00000700040D36843F48013D360CEE7D3684D
:102BB00043F48033D360DAE7F0B583B0002362E0FA
:102BC00085685E000324B44025EA0405CC68B4405F
:102BD0002C438460446824EA0C0C4C68C4F3001451
:102BE0009C4044EA0C0444605EE0DD08083550F87F
:102BF000256003F007044FEA840C0F2404FA0CF458
:102C000026EA040E0C6904FA0CF444EA0E0440F8B7
:102C1000254060E0052400E0002404FA0EF42C4373
:102C20000CF1020C554D45F82C40554CA568D44389
:102C300025EA02064F6817F4801F01D042EA050614
:102C40004F4DAE60ED6804EA05064F6817F4001FAB
:102C500001D042EA05064A4DEE606D6804EA0506B9
:102C60004F6817F4003F01D042EA0506444D6E60FC
:102C70002D682C404E6816F4803F01D042EA0504CE
:102C80003F4A146001330A6832FA03F474D04FF0FB
:102C9000010C0CFA03FC1CEA0202F3D04C6804F0AD
:102CA0000304013C012C8BD94C6804F00304032C71
:102CB0000CD0C4685D004FF0030C0CFA05FC24EA4C
:102CC0000C0C8C68AC4044EA0C04C4604C6804F002
:102CD0000304022C89D004684FEA430E4FF0030C22
:102CE0000CFA0EFC24EA0C0C4C6804F0030404FA01
:102CF0000EF444EA0C0404604C6814F4403FC1D064
:102D0000204C256E45F001052566246E04F0010473
:102D10000194019C4FEA930C0CF10205174C54F8F6
:102D2000255003F003044FEA840E0F2404FA0EF436
:102D300025EA0405B0F1904F3FF46EAF124CA0426B
:102D400012D004F58064A04210D004F58064A04243
:102D50000ED004F58064A0420CD004F58064A0423B
:102D60003FF458AF062458E7012456E7022454E7FD
:102D7000032452E7042450E703B0F0BD00000140F3
:102D80000004014000100240000400480AB18161C3
:102D9000704781627047436901EA030221EA030137
:102DA00041EA02418161704708B5054B5B69034206
:102DB00000D108BD024B5861FEF7F0F8F9E700BFFB
:102DC0000004014030B4C46C056D6560446D14B1FD
:102DD000846DC56D6560446C04F01F0C012404FA19
:102DE0000CF4056C6C60046863608368102B05D07C
:102DF000036899600368DA6030BC704703689A60C2
:102E00000368D960F8E7000003680C4A934213D8BE
:102E10000B49DBB2083B0B4AA2FB0323426C22F0B6
:102E200003020A448264084AC264C3F30413012201
:102E300002FA03F3036570470449EAE70704024016
:102E400000080240CDCCCCCC8008024020080240D3
:102E50000379074A1A4492004265064A8265013B9B
:102E600003F01F03012202FA03F3C365704700BF9A
:102E70003F8200104009024000285BD010B5044694
:102E800001682D4B99423DD82C4B0B442C4AA2FB98
:102E900003231B099B0043642A4B0364022384F829
:102EA00025300A6822F4FF4222F07002A368E0682D
:102EB00003432069034360690343A0690343E06956
:102EC0000343206A034313430B602046FFF79CFF34
:102ED000A368B3F5804F20D0A36C22791A60E36C0D
:102EE000226D5A606368013B032B19D90023636587
:102EF000A365E3650020E063012384F8253084F8AE
:102F0000240010BD104B0B440D4AA2FB03231B09E8
:102F10009B0043640D4B0364C0E700236360DBE761
:102F20002046FFF795FF636D00221A60A36DE26DE6
:102F30005A60DFE70120704707040240F8FFFDBF39
:102F4000CDCCCCCC00000240F8FBFDBF0004024019
:102F500038B5044690F82400012841D0012084F8B7
:102F6000240094F82500C0B2012804D0002384F87E
:102F70002430022038BD022084F825000020E063C0
:102F80002568286820F0010028602046FFF71AFF16
:102F9000236BD3B12268136843F00E031360A36C54
:102FA0001A6812F4803F03D01A6842F480721A60E3
:102FB000636D1BB11A6842F480721A60226813684C
:102FC00043F0010313600020D4E72268136823F064
:102FD000040313602268136843F00A031360DEE7FA
:102FE0000220C7E7034690F82520D2B2022A09D072
:102FF0000422C2630120012283F82520002283F8E5
:103000002420704701680A6822F00E020A60816C71
:103010000A6822F480720A6001680A6822F00102DC
:103020000A60426C02F01F01006C01228A4042607B
:10303000DA6C196D51605A6D42B1116821F48071DA
:1030400011609A6DD96D51600020D4E70020D2E75D
:1030500008B590F82530DBB2022B09D00423C363F6
:10306000012380F82530002280F82420184608BD6E
:103070000268136823F00E0313600268136823F0DC
:1030800001031360826C136823F480731360436C34
:1030900003F01F02016C012393404B60C36C026D6F
:1030A0005A60436D33B11A6822F480721A60836DDE
:1030B000C26D5A60012380F82530002380F8243047
:1030C000836B13B198470020D1E70020CFE738B5D4
:1030D000036C196804682568436C03F01F0304221D
:1030E0009A400A4215D015F0040F12D0236813F04D
:1030F000200F03D1236823F004032360436C03F003
:103100001F02016C042393404B60036B03B198478B
:1031100038BD02229A400A421CD015F0020F19D085
:10312000236813F0200F06D1236823F00A032360DD
:10313000012380F82530436C03F01F02016C022349
:1031400093404B60002380F82430C36A002BDFD00B
:103150009847DDE7082202FA03F30B42D8D015F0B6
:10316000080FD5D0236823F00E032360436C03F0CF
:103170001F03016C012202FA03F34B60C26380F863
:103180002520002380F82430436B002BC0D09847C3
:10319000BEE7C06B70470000074AD36823F4E063C2
:1031A0001B041B0C000200F4E060034343F0BF6308
:1031B00043F40033D360704700ED00E000B5194BD5
:1031C000DB68C3F30223C3F1070CBCF1040F28BF73
:1031D0004FF0040C03F1040EBEF1060F18D9033BA7
:1031E0004FF0FF3E0EFA0CFC21EA0C0199400EFA5A
:1031F00003F322EA0303194300280BDB0901C9B2D8
:1032000000F1604000F5614080F800135DF804FBB8
:103210000023E5E700F00F000901C9B2024B195481
:10322000F4E700BF00ED00E014ED00E0002807DB4C
:1032300000F01F02400901239340024A42F8203067
:10324000704700BF00E100E00138B0F1807F0BD291
:103250004FF0E0235861054AF02182F82310002046
:10326000986107221A6170470120704700ED00E065
:10327000034AD2F8883043F47003C2F888307047AC
:1032800000ED00E0884205D900B2824200DD10B2B4
:1032900080B2704708B2F8E70268094B9A4200D042
:1032A000704782B003F564431A6E42F400621A66F6
:1032B0001B6E03F400630193019B02B0704700BFD3
:1032C000002C0140F0B589B00023039304930593CB
:1032D000069307930268264B9A4201D009B0F0BDCD
:1032E00003F56443DA6C42F00202DA64DA6C02F04D
:1032F00002020192019ADA6C42F00102DA64DB6C9C
:1033000003F001030293029B4FF4C0430393022591
:10331000049506260796174F03A93846FFF74CFC7D
:103320004FF400430393049500240594069404236A
:10333000079303A93846FFF73FFC4FF4E06303937C
:10334000049505940694079603A94FF09040FFF763
:1033500033FC4FF4006303930495059406940B2308
:10336000079303A94FF09040FFF726FCB6E700BF94
:10337000002C01400004004810B59CB000241894B3
:1033800019941A941B941594169417940E940F94F0
:10339000109411941294139414943422214601A889
:1033A00004F09AFC4648474B036044602023836046
:1033B00042F23313C3604FF480730361446184614C
:1033C000FEF720F900285FD14FF48053189318A915
:1033D0003B48FEF767FA002859D13948FEF742F911
:1033E000002857D1002315931693179315A9344835
:1033F000FEF7D2FC002850D160230E9300220F92DA
:10340000109211921292139214920EA92C48FEF768
:103410009FF9002844D140F23F630F9304220EA984
:103420002748FEF795F900283DD100230F93082285
:103430000EA92348FEF78CF9002837D14FF4966384
:103440000F930C220EA91E48FEF782F9002830D1F6
:103450000023019302930393049305934FF40052C6
:1034600006920793089309934FF000720A920B9308
:103470000C930D9301A91248FEF7D8FCE0B910484F
:10348000FFF720FF1CB010BDFDF7C2FD9CE7FDF764
:10349000BFFDA2E7FDF7BCFDA4E7FDF7B9FDABE773
:1034A000FDF7B6FDB7E7FDF7B3FDBEE7FDF7B0FDED
:1034B000C4E7FDF7ADFDCBE7FDF7AAFDDFE700BFF1
:1034C0000C020020002C014010B5DFED117A20EE37
:1034D000270A60EEA70A21EE271ABCEEC00A10EEFA
:1034E000103A98B20B4B1C686063FCEEE00A10EED9
:1034F000903A99B2A163BCEEC11A11EE103A9AB299
:10350000E263FFF7BFFE3C3080B2206410BD00BF15
:1035100000D004460C02002038B50F4C236800256B
:103520005D639D63DD6329462046FEF767FA294601
:103530002046FEF77BFB04212046FEF75FFA0421BC
:103540002046FEF773FB08212046FEF757FA0821B4
:103550002046FEF76BFB38BD0C02002038B5134C3B
:1035600000212046FEF74AFA00212046FEF75EFBC6
:1035700004212046FEF742FA04212046FEF756FBBE
:1035800008212046FEF73AFA08212046FEF74EFBB6
:10359000074D7F21284600F053FF284600F09EFF8C
:1035A0000C212046FEF72AFA38BD00BF0C0200208D
:1035B0005802002038B5134C236800255D639D63D5
:1035C000DD6329462046FEF7C5FA29462046FEF768
:1035D000A7FB04212046FEF7BDFA04212046FEF792
:1035E0009FFB08212046FEF7B5FA08212046FEF78A
:1035F00097FB054801F00CF80C212046FEF7AAFACB
:1036000038BD00BF0C0200205802002010B59AB04F
:103610000024179418941994202221460FA804F02E
:103620005BFB3C222146684604F056FB45484FF0C0
:10363000A04303604FF4002343608460C4600461CE
:1036400001234361042383610477447702230362E7
:1036500080F82440C462046380F83840C46380F872
:10366000404000F0F7F8002857D10023179317A91E
:10367000344801F02BFB002852D1334B0F93062323
:103680001093002311937F22129204221392149319
:103690000FA92C4800F04CFB002844D12B4B0F9372
:1036A0000C2310930FA9274800F042FB00283DD1BE
:1036B000274B009309230193002302937F22039257
:1036C000042204920593032208928DF824308DF889
:1036D00025308DF8263084220A924FF480720B92A6
:1036E0008DF830306946174800F0E2FF08BB194BEF
:1036F000009340F20F1301936946124800F0D8FF7F
:10370000D0B9154B009340F21523019369460D483B
:1037100000F0CEFF98B91AB010BDFDF779FCA4E710
:10372000FDF776FCA9E7FDF773FCB7E7FDF770FC42
:10373000BEE7FDF76DFCDAE7FDF76AFCE1E7FDF7B0
:1037400067FCE8E758020020001060320080F03E7D
:10375000040060080800900C1000C01030B59BB049
:103760000446002115911691179118911991442240
:1037700004A804F0B1FA2368B3F1A04F01D01BB044
:1037800030BD4FF4004304934FF00053139304A84B
:10379000FFF7A0F8002836D11C4BDA6C42F4005237
:1037A000DA64DA6C02F400520192019ADA6C42F0A7
:1037B0000102DA64DA6C02F001020292029ADA6C17
:1037C00042F00202DA64DB6C03F002030393039B12
:1037D0000E231593032516950024179415A94FF071
:1037E0009040FFF7E9F915951695179415A9084823
:1037F000FFF7E2F9224621461220FFF7DFFC1220F4
:10380000FFF714FDBBE7FDF703FCC5E7001002401E
:103810000004004810B584B00C4C0921204600F08B
:1038200026FF019040F20F11204600F020FF029089
:1038300040F21521204600F01AFF03909FED040A84
:1038400001A803F073F904B010BD00BF58020020B6
:103850000000000030B583B000230193002800F081
:103860000D810446C36D13B323689A6812F0005F9C
:1038700005D09A6822F0204222F03F029A60226826
:10388000936813F0805F1FD1936823F0104323F0F7
:103890003F0343F080539360794B1B689B09794A3F
:1038A000A2FB03239B0901335B00019309E0FFF7AF
:1038B00055FF0023236684F85830D5E7019B013B70
:1038C0000193019B002BF9D12268936813F0805F6C
:1038D00040F09C80E36D43F01003E365236E43F0FA
:1038E000010323660120936813F0040300D0012331
:1038F000E16D11F0100F40F0BA80002B40F0B7805E
:10390000E36D23F4817343F00203E365936813F0DE
:10391000010F15D14FF0A0439B6813F0010300D0B5
:103920000123594A926812F0010200D00122134388
:1039300006D1636855498A6822F47C1213438B6070
:10394000627FE36B43EA4233E2681343A2681343A6
:1039500094F8242043EA0243012A59D0E26A22B1B2
:1039600002F47872216B0A4313432168CD68484AF8
:103970002A401343CB602268136923F04063616BD4
:103980000B43136121688B6813F0040300D00123FB
:103990008A6812F0080200D0012243BB3ABB227FA2
:1039A00094F838305B0043EA8232CB6823F48043DA
:1039B00023F002031343CB60236973B322681369B6
:1039C00043F4803313612268D2F8C03023F47F536C
:1039D00023F03F0321690B43C2F8C03094F8403014
:1039E000012B29D02268136923F001031361636955
:1039F000012B33D02268136B23F00F031363E36DA5
:103A000023F0030343F00103E36535E000206AE798
:103A1000A26A013A43EA4243A0E72268136923F409
:103A2000803313612268D2F8C03023F47F5323F02F
:103A30003F03C2F8C030D1E721680B6923F4FF636C
:103A400023F00403626CA56C2A43E56C2A43256DC0
:103A50002A43134343F001030B61C8E721680B6B52
:103A600023F00F03226A013A13430B63C7E7E36DA8
:103A700043F01003E365012003B030BD0120FBE7F4
:103A800008000020632D3E05000100500003005097
:103A90000740F0FF7047704770470000F8B50446D4
:103AA00003681F685D68984B9E6806F01F0617F054
:103AB000020F10D015F0020F0DD0C36D13F0100FD0
:103AC00003D1C36D43F40063C365204600F0EEFDEF
:103AD000236802221A6017F0040F02D015F0040FB9
:103AE00005D117F0080F4AD015F0080F47D0E36D45
:103AF00013F0100F03D1E36D43F40073E365236803
:103B0000DA6812F4406F34D1804A934209D01A46E1
:103B1000934209D046B1052E06D0092E04D0D268B2
:103B200003E04FF0A042F3E7DA6812F4005F20D11F
:103B30001A6812F0080F1CD09A6812F0040F10D106
:103B40005A6822F00C025A60E36D23F48073E36537
:103B5000E36D13F4805F0CD1E36D43F00103E36583
:103B600007E0E36D43F01003E365236E43F00103C8
:103B700023662046FFF78EFF23680C221A6017F099
:103B8000200F02D015F0200F05D117F0400F5CD0A8
:103B900015F0400F59D0E36D13F0100F03D1E36D12
:103BA00043F40053E3652368DA6C12F4C07F12D14A
:103BB0000121DA6812F4406F0FD10120534A934279
:103BC0000DD01A4693420DD066B1062E0AD0072EAC
:103BD00008D0D26807E00021EBE70020EEE74FF0C5
:103BE000A042EFE7DA6851B312F0007F03D030B3A0
:103BF00012F4005F23D1196811F0400F1FD012F4A6
:103C0000001F1CD19A6812F0080F10D15A6822F0D8
:103C100060025A60E36D23F48053E365E36D13F4AF
:103C2000807F0CD1E36D43F00103E36507E0E36DB2
:103C300043F01003E365236E43F00103236620463F
:103C4000FFF7E8FD236860221A6017F0800F02D0AA
:103C500015F0800F2FD117F4807F02D015F4807FEC
:103C600034D117F4007F02D015F4007F3AD117F059
:103C7000100F19D015F0100F16D0E36B33B1002ED2
:103C80003CD0214B9B6813F4604F0AD0E36D43F4A2
:103C90008063E365236E43F0020323662046FFF74B
:103CA000FBFE236810221A6017F4806F02D015F40F
:103CB000806F2DD1F8BDE36D43F48033E36520467A
:103CC000FFF7E9FE236880221A60C4E7E36D43F43E
:103CD0000033E365204600F0E7FC23684FF4807270
:103CE0001A60BEE7E36D43F48023E365204600F0ED
:103CF000DCFC23684FF400721A60B8E72368DB68C5
:103D000013F0010FCDD0C1E70003005000010050B7
:103D1000E36D43F48043E365236E43F008032366B9
:103D200023684FF480621A60204600F0BCFCC1E7B3
:103D3000F0B583B00022019290F85820012A00F0DB
:103D40005E820346012280F858200568A86810F0BA
:103D5000040F09D0DA6D42F02002DA65012000225A
:103D600083F8582003B0F0BD4C683035220A920029
:103D700002F00C02A85804F01F0E1F2404FA0EF4DF
:103D800020EA04000C68C4F3846C0CFA0EFC40EAD0
:103D90000C00A8501868826812F0040200D00122BA
:103DA000846814F0080400D00124002A4FD1002CAC
:103DB0004DD18D68B5F1004F7CD00F6814307A0E6C
:103DC000920002F004028658C7F3045E4FF0070C1D
:103DD0000CFA0EFC26EA0C0C05FA0EF54CEA050569
:103DE00085501868426922F0004242614D691868A6
:103DF000C268C2F3C102520005FA02F20E69042E33
:103E000070D0603050F82670A94D3D400F6807F023
:103E1000F8473A43154345F0004540F826501A68E4
:103E20000E698869603252F8265025F08075284363
:103E300042F826001A680D69087F01284FD06032C9
:103E400052F8250020F00070044342F825401A681B
:103E5000906810F0010F12D10868CD68954CA5420A
:103E600000F0A780D2F8B040C0F3120024EA0000AE
:103E7000C2F8B000C8688F4A904200F0A2800A6879
:103E80008D490A4200F0B3818C49896801F0E070E5
:103E90008B4CA24200F062818A4CA24200F05E810B
:103EA000894CA24200F08081884CA24200F08E81B1
:103EB000002054E70D6814306A0E920002F00402EC
:103EC0008658C5F30455072707FA05F526EA0505C0
:103ED00085501868426942F00042426186E74FF01F
:103EE0000074ACE7026E046EC4F384640A68C2F323
:103EF00012057DBBC2F38462944233D01C68626EAB
:103F0000606EC0F384600A68C2F312057DBBC2F321
:103F10008462904233D01C68A26EA06EC0F38460AD
:103F20000A68C2F312057DBBC2F38462904233D0AB
:103F30001C68E26EE06EC0F384600A68C2F312058A
:103F40007DBBC2F38462904281D1E26E22F00042D6
:103F5000E2667CE792FAA2F212B1B2FA82F2CBE701
:103F60002022C9E7026E22F000420266C6E792FAFA
:103F7000A2F212B1B2FA82F2CBE72022C9E7626E56
:103F800022F000426266C6E792FAA2F212B1B2FAD9
:103F900082F2CBE72022C9E7A26E22F00042A2669D
:103FA000C6E792FAA2F212B1B2FA82F2CBE720226D
:103FB000C9E7D2F8B040C0F312002043C2F8B00005
:103FC00058E71C680A68C2F31205002D38D1900E1C
:103FD000013000F01F0009288CBF002001200028BC
:103FE00076D0002D3BD1900E0130800600F0F840D5
:103FF000002D40D1960E013606F01F070126BE4067
:104000003043002D45D1920E013202F01F0202EB27
:10401000420212050243886804F11406550EAD00F1
:1040200005F004057459C2F304524FF0070C0CFA62
:1040300002FC24EA0C0C90404CEA000070511EE790
:1040400092FAA2F048B1B0FA80F0013000F01F00FF
:1040500009288CBF00200120C1E72020F5E792FA53
:10406000A2F030B1B0FA80F00130800600F0F840E4
:10407000BEE72020F8E792FAA2F646B1B6FA86F635
:10408000013606F01F06012707FA06F6B8E72026D4
:10409000F6E792FAA2F242B1B2FA82F2013202F0EB
:1040A0001F0202EB42021205B4E72022F6E700BF2E
:1040B00000F0FF0300007F40000008800003005074
:1040C000000021C31000C090000052C7000084CB44
:1040D000CDB9900E0130800600F0F840FDB9960E83
:1040E000013606F01F070126BE4030432DBB920E5D
:1040F000013202F01F0202EB42021E3A120542F0A8
:104100000072024387E792FAA2F030B1B0FA80F071
:104110000130800600F0F840E0E72020F8E792FA4E
:10412000A2F646B1B6FA86F6013606F01F0601275A
:1041300007FA06F6D9E72026F6E792FAA2F25AB174
:10414000B2FA82F2013202F01F0202EB42021E3A80
:10415000120542F00072D4E72022F3E711F4000FB9
:104160007FF49EAE1A68B2F1A04F01D00020F6E5B0
:1041700040F4000023498A6822F0E072104388600E
:10418000214A126892092149A1FB021292090132C7
:1041900002EB420292000192019A1AB1019A013A8D
:1041A0000192F9E70020DAE511F0807F7FF47CAE20
:1041B0001968174A91421CD040F0807011498A68F2
:1041C00022F0E072104388600020C8E511F4800FEF
:1041D00011D119680E4A91420FD040F4800209486B
:1041E000816821F0E0710A4382600020B7E5002079
:1041F000B5E50020B3E50020B1E50020AFE50220E1
:10420000B0E500BF0003005008000020632D3E050C
:104210000001005070B5044603689A6812F0040269
:1042200000D00122986810F0080000D001200AB9DF
:1042300000286BD0DA6812F0007F04D0A08B40F227
:10424000011290424ED0022910D023689A6812F0D1
:10425000040F0BD09A6812F0020F07D19A6822F06F
:10426000004222F03F0242F010029A60012910D071
:1042700023689A6812F0080F0BD09A6812F0020FA8
:1042800007D19A6822F0004222F03F0242F0200259
:104290009A60022934D0032934D10C25FDF7F6FEAB
:1042A000064623689B682B422ED0FDF7EFFE801B4D
:1042B0000528F6D923689B682B42F2D0E36D43F0C2
:1042C0001003E365236E43F00103236601201CE025
:1042D000E36D43F01003E365236E43F001032366AF
:1042E000012012E00022196811F0400F04D10849A2
:1042F0008A42EDD80132F6E740221A600121A4E794
:104300000825CBE70425C9E7002070BD0020FCE7A5
:10431000FFFF3FA338B503689A6812F0010F40D140
:1043200004469968204A114209D0C36D43F0100336
:10433000C365036E43F001030366012032E09A680F
:1043400022F0004222F03F0242F001029A60FDF7A3
:104350009DFE054623681A6812F0010F1FD19A6866
:1043600012F0010F07D19A6822F0004222F03F02BA
:1043700042F001029A60FDF789FE431B022BE9D946
:1043800023681B6813F0010FE4D1E36D43F01003C1
:10439000E365236E43F001032366012002E0002061
:1043A00000E0002038BD00BF3F00008038B5044663
:1043B0000268936813F0020300D00123916811F0A2
:1043C000010F39D0002B39D1936803F00D03012B75
:1043D00009D0E36D43F01003E365236E43F001035E
:1043E0002366012029E0936823F0004323F03F0374
:1043F00043F002039360236803221A60FDF746FE30
:10440000054623689B6813F0010F13D0FDF73EFEAD
:10441000401B0228F5D923689B6813F0010FF0D0E8
:10442000E36D43F01003E365236E43F0010323665D
:10443000012002E0002000E0002038BD0020FCE761
:1044400030B583B00023019390F85830012B41D050
:1044500004460D46012380F85830FFF7A7FF80BBC4
:10446000E36D23F4885323F0020343F00203E36572
:104470002268936823F0404323F03F0305F0804512
:104480002B4343F00043936023689B68002B06DBBB
:10449000E36D23F0030343F00103E36515E0019BA3
:1044A00001330193019A0C4B9A42EDD9E36D23F04D
:1044B000120343F01003E365002384F85830012011
:1044C00006E0E36D43F01003E365002384F8583001
:1044D00003B030BD0220FBE701DE040038B54A4BD3
:1044E0009D6803689A6812F0080F40F089800446BE
:1044F00005F01F05DA68DB6C13F4C07F01D1002AD8
:1045000053DA94F85830012B7CD0012384F85830CA
:104510002046FFF7FFFE00286ED1E36D13F4807F85
:1045200049D0236E23F008032366E36D23F4405340
:1045300023F0010343F48053E3652368334A934235
:104540003CD01A46934200D01DB9E26D22F480128D
:10455000E26560221A60002384F858302368DA6824
:1045600012F4001F03D05A6842F480625A60A369B3
:10457000082B26D02268536823F04003536022683A
:10458000536843F0200353602368204A934223D0AA
:104590001A46934223D015B3062D20D0072D1ED0E6
:1045A000E36D43F48013E3652BE0C36D43F0200318
:1045B000C365012025E000232366B6E74FF0A04243
:1045C000C0E72268536823F02003536022685368D1
:1045D00043F040035360D7E74FF0A042D9E7DA68D1
:1045E00012F0007F0DD19A6822F0004222F03F02C3
:1045F00042F008029A6004E0002384F8583000E09A
:10460000022038BD0220FCE70003005000010050EA
:1046100090F85830012B28D010B50446012380F8BB
:1046200058300221FFF7F6FD68B92268536823F479
:104630008C63536023689B6813F0040F07D0E36D0D
:1046400023F48053E365002384F8583010BD2046DE
:10465000FFF7ACFE0028F6D1E36D23F4885323F076
:10466000010343F00103E365EDE70220704740F2E8
:10467000152399420FD040F21B33994207D040F2E4
:104680000F1399420BD00368D3F88000704703687A
:10469000D3F88C0070470368D3F88800704703682C
:1046A000D3F8840070477047704770477047000028
:1046B000F0B583B0034600220192406993F8582078
:1046C000012A00F0F882012283F85820A8B10A6A72
:1046D000012A12D0986E002840F0CD809A66002200
:1046E0005A668C6A002C00F0C3800A6A013A04F012
:1046F0007C042243CC6A1443BEE04A68092A00F0D5
:1047000097801A68906810F0080F10D191F8250072
:10471000002840F0D080D06820F4401091F8265056
:1047200091F82440240544EA45542043D0601C6895
:10473000A26812F0040200D00122A56815F0080555
:1047400000D00125002A40F06181002D40F09281C7
:104750008A6A1AB1CA6A002A40F0BC8091F8252002
:10476000012A00F0B180E26822F00072E2600020CD
:1047700091F83020012A00F0BC801C68226922F0E8
:10478000020222618C68B4F1004F00F0BE801A680A
:104790000F6802F1140C7A0E920002F004025CF829
:1047A0000260C7F304574FF0070E0EFA07FE26EA21
:1047B0000E06BC4034434CF802401C68626922F08B
:1047C000004262614C691E68F268C2F3C102520085
:1047D00004FA02F2D1F810C0BCF1040F00F0AF806F
:1047E000603656F82C40A84F27400C6804F0F84477
:1047F0002243174347F0004746F82C701A680F69A8
:104800008C69603252F8276026F08076344342F893
:1048100027401A680E690C7F012C00F08D806032F1
:1048200052F8264024F00074254342F82650EEE06A
:104830008C6ABCB10868820E520202F4785204F00D
:104840007C042243C86A02431C68E06C20F07B4071
:1048500020F46F0020F43F4020F0FF001043E0649C
:104860005A664EE70A68920E520202F47852EBE75B
:104870000A6A541E00E000240868C0F384604A6895
:1048800002F01F0200FA02F22243986E0138986685
:104890005C6E22435A6600287FF433AF1C68E06CDC
:1048A00020F07B4020F46F0020F43F4020F0FF0018
:1048B0000243E26425E7D06820F4401091F82640D6
:1048C00040EA4450D06032E7E26842F00072E260B1
:1048D00000204DE791F82500012805D0E26822F07C
:1048E0000072E260002043E7DA6D42F02002DA65F0
:1048F0003EE71E68326922F4FF724C6B8F6B3C43BB
:10490000224342F0020232613CE71C680E68143414
:10491000720E920002F00402A758C6F304564FF03C
:10492000070C0CFA06F627EA0606A6501C68626910
:1049300042F00042626145E74FF000756FE7326E6A
:10494000346EC4F384640A68C2F312057DBBC2F3FB
:104950008462944233D01D686A6E6C6EC4F38464C2
:104960000A68C2F312067EBBC2F38462944233D05B
:104970001D68AA6EAC6EC4F384640A68C2F31206A2
:104980007EBBC2F38462944233D01D68EA6EEC6E43
:10499000C4F384640A68C2F312067EBBC2F3846265
:1049A000944234D1EA6E22F00042EA662FE092FA95
:1049B000A2F212B1B2FA82F2CBE72022C9E7326E3C
:1049C00022F000423266C6E792FAA2F212B1B2FABF
:1049D00082F2CBE72022C9E76A6E22F000426A66C3
:1049E000C6E792FAA2F212B1B2FA82F2CBE7202223
:1049F000C9E7AA6E22F00042AA66C6E792FAA2F2BE
:104A000012B1B2FA82F2CBE72022C9E700201A687D
:104A1000946814F0010F10D10C68CE681B4DAE42A3
:104A20002AD0D2F8B050C4F3120425EA0404C2F824
:104A3000B040CC68154A944236D00A6814490A42FC
:104A400013D01449896801F0E074134DAA4200F0B4
:104A5000E980124DAA4200F0E580114DAA4200F013
:104A60000681104DAA4200F01481002283F85820DC
:104A700003B0F0BD0020CAE7D2F8B050C4F312046E
:104A80002C43C2F8B040D4E700F0FF0300007F40A1
:104A90000000088000030050000021C31000C090F7
:104AA000000052C7000084CB1D680A68C2F31206DA
:104AB000002E37D1940E013404F01F04092C8CBF52
:104AC00000240124002C65D0002E3AD1940E01342C
:104AD000A40604F0F844002E3FD1970E013707F0EA
:104AE0001F0C012707FA0CF73C43002E44D1920E0D
:104AF000013202F01F0202EB4202120522438C68CF
:104B00001435560EB60006F00406AF59C2F304522F
:104B10004FF0070C0CFA02FC27EA0C0794403C43C8
:104B2000AC518AE792FAA2F44CB1B4FA84F401349D
:104B300004F01F04092C8CBF00240124C2E72024A8
:104B4000F5E792FAA2F434B1B4FA84F40134A4067D
:104B500004F0F844BFE72024F8E792FAA2F74FB137
:104B6000B7FA87F7013707F01F074FF0010C0CFA6F
:104B700007F7B9E72027F5E792FAA2F242B1B2FAB5
:104B800082F2013202F01F0202EB42021205B5E787
:104B90002022F6E7D6B9940E0134A40604F0F844B6
:104BA00006BB970E013707F01F0C012707FA0CF719
:104BB0003C4336BB920E013202F01F0202EB42026E
:104BC0001E3A120542F00072224398E792FAA2F4CC
:104BD00034B1B4FA84F40134A40604F0F844DFE7F5
:104BE0002024F8E792FAA2F74FB1B7FA87F7013716
:104BF00007F01F074FF0010C0CFA07F7D8E7202742
:104C0000F5E792FAA2F25AB1B2FA82F2013202F058
:104C10001F0202EB42021E3A120542F00072D3E775
:104C20002022F3E711F4000F7FF417AF1A68B2F1F6
:104C3000A04F7FF41AAF44F4000420498A6822F0A0
:104C4000E07214438C601E4A126892091D49A1FB50
:104C50000212920902EB420292001832019202E023
:104C6000019A013A0192019A002AF9D1FDE611F068
:104C7000807F7FF4F6AE1968134A91423FF4F5AE97
:104C800044F080740D498A6822F0E07214438C600D
:104C9000EBE611F4800F7FF4E8AE19680A4A9142FE
:104CA0003FF4E3AE44F4800404498A6822F0E072E1
:104CB00014438C60D9E60220DAE600BF00030050FE
:104CC00008000020632D3E050001005090F8582098
:104CD000012A7FD010B49DB00346012280F85820ED
:104CE0000022189219920068B0F1A04F39D000222A
:104CF0000192019A002A37D0926812F0040200D083
:104D00000122806810F0040F54D1002A52D10A68A1
:104D1000002A32D0304CA26822F46042486893F8EE
:104D200038C040EA4C300243A2604FF0A042926883
:104D300012F0010200D001222848806810F0010022
:104D400000D00120024341D1234CA26822F47162B9
:104D500022F00F020868896801430A43A26000201C
:104D60002DE01E4A0192C4E7DA6D42F02002DA65B6
:104D7000002283F85820012024E017498A6822F491
:104D800060428A604FF0A042926812F0010200D0A7
:104D900001221249896811F0010100D001210A4362
:104DA00016D10D498A6822F4716222F00F028A60DE
:104DB000002004E0DA6D42F02002DA6501200022D2
:104DC00083F858201DB05DF8044B70470020F6E7CB
:104DD0000020F4E70220704700030050000100505B
:104DE00008B51148114B03604FF4827343600023F0
:104DF00083604FF4E062C2600222026101224261DC
:104E00004FF4007282611822C261036243628362BE
:104E10000722C2620363436300F051F900B908BD81
:104E2000FCF7F6F8FBE700BFC402002000300140A9
:104E300000B589B000230393049305930693079369
:104E40000268124B9A4202D009B05DF804FB03F5E8
:104E500060431A6E42F480521A661A6E02F480524F
:104E60000192019ADA6C42F00202DA64DB6C03F020
:104E700002030293029B3823039302230493052326
:104E8000079303A90248FDF797FEDDE700300140D4
:104E9000000400482DE9F04782B0054688461746D1
:104EA0001E46FDF7F3F80A9B1B1A03EB0609FDF7F4
:104EB000EDF882462B4B1B68C3F3CB3309FB03F39E
:104EC00001932B689C6838EA04030CBF4FF0010C77
:104ED0004FF0000CBC4540D0B6F1FF3FF1D0FDF7DC
:104EE000D5F8A0EB0A0048450AD2B9F1000F07D067
:104EF000019A02B14A46019B013B01939146E0E7CA
:104F00002A68536823F0E00353606B68B3F5827F2F
:104F10000BD0AB6AB3F5005F14D0012385F85D3088
:104F2000002385F85C30032018E0AB68B3F5004F30
:104F300002D0B3F5806FECD12A68136823F04003E8
:104F40001360E6E72A68136823F4005313602A68A5
:104F5000136843F400531360DFE7002002B0BDE89C
:104F6000F08700BF080000202DE9F04782B0064618
:104F70000C4615461F4600238DF80330FDF786F8D2
:104F80000A9B1B1A03EB0708FDF780F88146D6F849
:104F900000A0314B1B6803EB8303C3EBC3031B0D62
:104FA00008FB03F3019302E0B7F1FF3F12D133682E
:104FB0009B6803EA040CAC454AD0B4F5C06FF3D14A
:104FC000002DF1D19AF80C30DBB28DF803309DF84A
:104FD0000330E9E7FDF75AF8A0EB090040450AD293
:104FE000B8F1000F07D0019A02B14246019B013B84
:104FF00001939046DBE73268536823F0E003536087
:105000007368B3F5827F0BD0B36AB3F5005F14D039
:10501000012386F85D30002386F85C30032018E019
:10502000B368B3F5004F02D0B3F5806FECD13268AE
:10503000136823F040031360E6E73268136823F433
:10504000005313603268136843F400531360DFE7C2
:10505000002002B0BDE8F0870800002070B582B0E3
:1050600004460D46164600920B4600224FF4C051EE
:10507000FFF77AFFB0B900962B4600228021204628
:10508000FFF708FFA8B900962B4600224FF4C06135
:105090002046FFF769FF50B1236E43F020032366DB
:1050A000032004E0236E43F020032366032002B0B4
:1050B00070BD236E43F0200323660320F7E700282A
:1050C0006FD010B50446436A33B94368B3F5827FA5
:1050D00005D00023C36102E0002303614361002384
:1050E000A36294F85D30002B52D0022384F85D3027
:1050F0002268136823F040031360E368B3F5E06FA0
:105100004CD90022B3F5706F04D0B3F5E06F01D035
:105110000023A362636803F48273A16801F404416D
:105120000B43216901F002010B43616901F00101A8
:105130000B43A16901F400710B43E16901F03801EF
:105140000B43216A01F080010B43A16A01F4005175
:1051500020680B430360638B03F00403616A01F072
:1051600010010B43616B01F008010B43E16801F48E
:1051700070610B43216813434B602268D36923F4A9
:105180000063D36100202066012384F85D3010BDE8
:1051900084F85C302046FFF74BFEA6E74FF48052C0
:1051A000B0E7012070472DE9F8431F46089D90F8AD
:1051B0005C30012B00F0648104468846914601234F
:1051C00080F85C30FCF762FF064694F85D30DBB295
:1051D0006268012B0AD0B2F5827F40F03881A26864
:1051E000002A40F03D81042B40F03C81B8F1000FD3
:1051F00000F03A81B9F1000F00F03881002F00F083
:10520000378194F85D30DBB2042B02D0052384F89B
:105210005D3000232366C4F84090A4F84670A4F8DB
:105220004470C4F83880E787A787E3642365E368A0
:10523000B3F5E06F01D8012F23D92268536823F416
:105240008053536023681A6812F0400F03D11A6824
:1052500042F040021A60E368B3F5E06F58D9636822
:105260000BB1012F0BD1A26B23681288DA60A36BFC
:105270000233A363E38F9BB2013B9BB2E387012719
:1052800031E02268536843F480535360DAE7A26B3D
:105290001288DA60A36B0233A363E38F9BB2013BF6
:1052A0009BB2E387002723689A6812F0010F11D0A0
:1052B000B4F8462092B26AB1DA68236C1A80236C83
:1052C00002332364B4F846309BB2013B9BB2A4F88E
:1052D00046300127FCF7DAFE831BAB4203D3B5F15E
:1052E000FF3F40F0C780E38F9BB22BB9B4F8463044
:1052F0009BB2002B00F0A18023689A6812F0020F85
:10530000D1D0E28F92B2002ACDD0002FCBD0BEE711
:1053100063680BB1012F0FD1E38F9BB2012B0DD925
:10532000A26B23681288DA60A36B0233A363E38F56
:105330009BB2023B9BB2E387012749E0A26B236843
:1053400012781A73A36B0133A363E38F9BB2013B03
:105350009BB2E387F0E7E28F92B2012A0CD9A26BED
:105360001288DA60A36B0233A363E38F9BB2023B24
:105370009BB2E38700273DE0A26B12781A73A36B00
:105380000133A363E38F9BB2013B9BB2E38700270A
:1053900030E02268536843F48053536001270DE0E6
:1053A000226C1B7B1370236C01332364B4F84630EA
:1053B0009BB2013B9BB2A4F846300127FCF766FE86
:1053C000801BA84202D3B5F1FF3F55D1002D55D027
:1053D000E38F9BB223B9B4F846309BB2002B2CD09C
:1053E00023689A6812F0020F04D0E28F92B20AB1D9
:1053F000002FB0D123689A6812F0010FDED0B4F804
:10540000462092B2002AD9D0B4F8462092B2012A9E
:10541000C6D9DA68236C1A80236C02332364B4F88B
:1054200046309BB2023B9BB2A4F84630B4F84630FB
:105430009BB2012BADD90127C0E732462946204651
:10544000FFF70CFE20B120232366012000E002209C
:10545000012384F85D30002384F85C30BDE8F883D4
:105460000220F5E70220F3E70120F1E70120EFE752
:105470000120EDE70320EBE70320E9E70320E7E75E
:105480000220EBE700B583B00E4B9A6C42F00402A9
:105490009A649A6C02F004020092009A9A6C42F0AC
:1054A00001029A649B6C03F001030193019B0022AB
:1054B00003210C20FDF782FE0C20FDF7B7FE03B0A0
:1054C0005DF804FB0010024008B51D481D4B036049
:1054D0004FF4E133436000238360C36003610C2217
:1054E00042618361C36103624362836200F005FF2E
:1054F000C8B90021124801F003F8B8B900211048DA
:1055000001F023F8A8B90E4800F0DBFFA0B90C4861
:105510000268136843F0100313604FF480720A4965
:1055200000F078FF08BDFBF773FDE2E7FBF770FDC5
:10553000E4E7FBF76DFDE6E7FBF76AFDE7E700BF91
:10554000E8030020003801407804002030B599B00D
:10555000044600211391149115911691179144223C
:1055600002A802F0B9FB2268324B9A4201D019B06E
:1055700030BD0123029302A8FDF7ACF9002850D1F9
:105580002D4B1A6E42F480421A661A6E02F4804263
:105590000092009ADA6C42F00202DA64DB6C03F0EB
:1055A00002030193019BC02313930223149300254C
:1055B000159516950723179313A92048FDF7FCFAB4
:1055C0001F48204B0360182343608560C56080231B
:1055D000036145618561C5610562FDF74DFC18BB3E
:1055E000174BE3679C621848184B0360192343600C
:1055F000102383600023C3608022026143618361C2
:10560000C3610362FDF738FC88B90F4BA3679C6246
:10561000002211462520FDF7D1FD2520FDF706FECD
:10562000A5E7FBF7F5FCABE7FBF7F2FCD8E7FBF7E8
:10563000EFFCEAE700380140001002400004004897
:105640002803002008000240880300201C000240BC
:1056500038B50C46054D0A460146284602F02EFB99
:1056600022462946024800F07BF838BD7805002024
:10567000E8030020144B1B68144A934200D0704783
:10568000DA6912F0100FFAD070B510221A620E4EBD
:10569000304600F0C5F80E4B1B685C68A4B2C4F538
:1056A0008074A4B20B4D2146284601F011FB22461E
:1056B0000021284602F010FB4FF480722946304644
:1056C00000F0A8FE70BD00BFE803002000380140D4
:1056D0002803002078040020026852E8003F23F0ED
:1056E000C00342E800310029F6D1026802F1080344
:1056F00053E8003F23F40003083242E80031002958
:10570000F3D12023C0F884307047026852E8003F8C
:1057100023F4907342E800310029F6D1026802F1C7
:10572000080353E8003F23F0805323F001030832BD
:1057300042E800310029F1D1C36E012B06D02023AD
:10574000C0F888300023C36603677047026852E8D8
:10575000003F23F0100342E800310029F6D1EEE7C4
:10576000D0F88430202B4CD110B5044600294AD003
:10577000002A4AD090F88030012B48D0012380F8CD
:1057800080300165A0F85420A0F856200023C0F80E
:105790008C302123C0F88430836FF3B11D49D96266
:1057A000836F1D491963836F1C495963836F0021FF
:1057B00099630168134601F12802016D806FFDF7BE
:1057C000C7FB50B11023C4F88C30002384F880301C
:1057D0002023C4F88430012012E0236840221A629A
:1057E000002384F88030226802F1080353E8003F68
:1057F00043F08003083242E800310029F3D1002051
:1058000010BD022070470120FAE70120F8E70220CE
:10581000F6E700BFD15800083F5900084F5900086B
:1058200038B50446D0F88420D0F8885003689B68C7
:1058300013F0800F01D0212A08D023689B6813F051
:10584000400F42D0222D20D000203FE0226802F1FC
:10585000080353E8003F23F08003083242E8003198
:105860000029F3D1A06F10B1FDF7BCFB18B9204699
:10587000FFF732FFE1E7A06FFDF78BFC2028F6D1A0
:105880001023C4F88C30032020E0226802F10803C2
:1058900053E8003F23F04003083242E8003100297A
:1058A000F3D1E06F10B1FDF79DFB20B92046FFF763
:1058B0002CFF00200AE0E06FFDF76BFC2028F5D1FB
:1058C0001023C4F88C30032000E0002038BD70475E
:1058D00008B50346806A1B681B6813F0200F18D1B7
:1058E0000023A0F85630026802F1080353E8003F95
:1058F00023F08003083242E800310029F3D1026826
:1059000052E8003F43F0400342E800310029F6D15D
:1059100008BDFFF7DCFFFBE708B5026852E8003F6F
:1059200023F0400342E800310029F6D12023C0F8DB
:10593000843000234367FFF7CAFF08BD704708B5EE
:10594000806AFFF7FBFF08BD70477047704738B5A6
:10595000846AD4F88420D4F8885023689B6813F0B4
:10596000800F01D0212A10D023689B6813F0400FCC
:1059700001D0222D10D0D4F88C3043F01003C4F89D
:105980008C302046FFF7E2FF38BD0023A4F85630E4
:105990002046FFF7A1FEE7E70023A4F85E3020468B
:1059A000FFF7B3FEE7E708B5806A0023A0F85E3092
:1059B000A0F85630FFF7CAFF08BD704770B504461F
:1059C0000168CB6908688D6840F60F021A4008D15B
:1059D00013F0200F05D010F0200F34D115F0805FA8
:1059E00031D12AB1954A2A4033D1954E304230D137
:1059F000E26E012A00F0C38013F4801F03D015F477
:105A0000800F40F05B8113F0800F07D010F0800F03
:105A100040F05B8115F4000F40F0578113F0400F08
:105A200003D010F0400F40F0578113F4000F03D063
:105A300010F0804F40F0548113F0807F02D0002896
:105A4000C0F2528170BD236F002BFBD020469847D7
:105A5000F8E713F0010F09D010F4807F06D001267B
:105A60000E62D4F88C103143C4F88C1013F0020F7E
:105A70000BD015F0010F08D0216802260E62D4F871
:105A80008C1041F00401C4F88C1013F0040F0BD0FB
:105A900015F0010F08D0216804260E62D4F88C108E
:105AA00041F00201C4F88C1013F0080F0BD010F075
:105AB000200F00D13AB1226808211162D4F88C205D
:105AC0000A43C4F88C2013F4006F0CD010F0806FE0
:105AD00009D022684FF400611162D4F88C2042F0A2
