:020000040800F2
:1000000000000220054D0008A1110008A3110008FE
:10001000A5110008A7110008A911000800000000A0
:10002000000000000000000000000000AB1100080C
:10003000AD11000800000000AF110008B111000868
:10004000554D0008554D0008554D0008554D000808
:10005000554D0008554D0008554D0008554D0008F8
:10006000554D0008554D0008554D0008554D0008E8
:10007000554D0008554D0008554D0008554D0008D8
:10008000554D0008554D0008B9110008554D0008A0
:10009000554D0008554D0008554D0008554D0008B8
:1000A000554D0008554D0008554D0008554D0008A8
:1000B000554D0008554D0008554D0008554D000898
:1000C000554D0008554D0008554D0008554D000888
:1000D000554D0008554D0008554D0008554D000878
:1000E000554D0008554D0008554D0008554D000868
:1000F000554D0008554D0008554D0008554D000858
:10010000554D0008554D0008554D0008554D000847
:10011000554D0008554D0008554D0008554D000837
:10012000554D0008554D0008554D0008554D000827
:10013000554D00080000000000000000554D00086B
:10014000554D0008554D0008554D0008554D000807
:10015000554D0008554D0008554D0008554D0008F7
:10016000554D0008554D0008554D0008554D0008E7
:10017000554D0008554D000800000000000000002B
:08018000554D0008554D000823
:1001900010B5054C237833B9044B13B10448AFF3C1
:1001A00000800123237010BD6002002000000000C9
:1001B000508E000808B5034B1BB103490348AFF349
:1001C000008008BD0000000064020020508E00087E
:1001D000034613F8012B002AFBD1181A0138704787
:1001E00001F0FF01102A2BDB10F0070F08D010F8E8
:1001F000013B013A8B422DD010F0070F42B3F6D1EC
:10020000F0B441EA012141EA014122F007047FF004
:1002100000070023F0E80256083C85EA010586EA5B
:10022000010685FA47F5A3FA87F586FA47F6A5FA97
:1002300087F68EB9EED1F0BC01F0FF0102F00702A3
:1002400032B110F8013B013A83EA010313B1F8D14E
:100250000020704701387047002D06BF354603382F
:10026000073815F0010F07D1013015F4807F02BF68
:10027000013015F4C03F0130F0BC0138704700BFB9
:1002800081F0004102E000BF83F0004330B54FEA47
:1002900041044FEA430594EA050F08BF90EA020FB4
:1002A0001FBF54EA000C55EA020C7FEA645C7FEA47
:1002B000655C00F0E2804FEA5454D4EB5555B8BF6A
:1002C0006D420CDD2C4480EA020281EA030382EADB
:1002D000000083EA010180EA020281EA0303362D6D
:1002E00088BF30BD11F0004F4FEA01314FF4801C40
:1002F0004CEA113102D0404261EB410113F0004F52
:100300004FEA03334CEA133302D0524263EB430308
:1003100094EA050F00F0A780A4F10104D5F1200EA6
:100320000DDB02FA0EFC22FA05F2801841F1000101
:1003300003FA0EF2801843FA05F359410EE0A5F1D5
:1003400020050EF1200E012A03FA0EFC28BF4CF006
:10035000020C43FA05F3C01851EBE37101F00045BC
:1003600007D54FF0000EDCF1000C7EEB00006EEBC9
:100370000101B1F5801F1BD3B1F5001F0CD3490853
:100380005FEA30004FEA3C0C04F101044FEA4452AA
:1003900012F5800F80F09A80BCF1004F08BF5FEA31
:1003A000500C50F1000041EB045141EA050130BD11
:1003B0005FEA4C0C404141EB0101013C28BFB1F523
:1003C000801FE9D291F0000F04BF01460020B1FA6E
:1003D00081F308BF2033A3F10B03B3F120020CDA41
:1003E0000C3208DD02F1140CC2F10C0201FA0CF01F
:1003F00021FA02F10CE002F11402D8BFC2F1200C84
:1004000001FA02F120FA0CFCDCBF41EA0C01904039
:10041000E41AA2BF01EB0451294330BD6FEA040482
:100420001F3C1CDA0C340EDC04F11404C4F120026D
:1004300020FA04F001FA02F340EA030021FA04F37F
:1004400045EA030130BDC4F10C04C4F1200220FAD6
:1004500002F001FA04F340EA0300294630BD21FA14
:1004600004F0294630BD94F0000F83F4801306BFDA
:1004700081F480110134013D4EE77FEA645C18BFCE
:100480007FEA655C29D094EA050F08BF90EA020F65
:1004900005D054EA000C04BF1946104630BD91EA5D
:1004A000030F1EBF0021002030BD5FEA545C05D160
:1004B0004000494128BF41F0004130BD14F580049F
:1004C0003CBF01F5801130BD01F0004545F0FE4113
:1004D00041F470014FF0000030BD7FEA645C1ABF48
:1004E000194610467FEA655C1CBF0B46024650EA7F
:1004F000013406BF52EA033591EA030F41F40021AB
:1005000030BD00BF90F0000F04BF0021704730B530
:100510004FF4806404F132044FF000054FF0000105
:1005200050E700BF90F0000F04BF0021704730B5C6
:100530004FF4806404F1320410F0004548BF40429B
:100540004FF000013EE700BF42004FEAE2014FEAF0
:1005500031014FEA02701FBF12F07F4393F07F4FCB
:1005600081F06051704732F07F4208BF704793F0CE
:100570007F4F04BF41F40021704730B54FF46074E1
:1005800001F0004521F000411CE700BF50EA0102E4
:1005900008BF704730B54FF000050AE050EA01028D
:1005A00008BF704730B511F0004502D5404261EBFD
:1005B00041014FF4806404F132045FEA915C3FF43E
:1005C000D8AE4FF003025FEADC0C18BF03325FEADB
:1005D000DC0C18BF033202EBDC02C2F1200300FA8C
:1005E00003FC20FA02F001FA03FE40EA0E0021FAB1
:1005F00002F11444BDE600BF70B54FF0FF0C4CF49F
:10060000E06C1CEA11541DBF1CEA135594EA0C0F50
:1006100095EA0C0F00F0DEF82C4481EA030621EA8B
:100620004C5123EA4C5350EA013518BF52EA0335C6
:1006300041F4801143F4801338D0A0FB02CE4FF078
:100640000005E1FB02E506F00042E0FB03E54FF0A8
:100650000006E1FB03569CF0000F18BF4EF0010EA0
:10066000A4F1FF04B6F5007F64F5407404D25FEA9C
:100670004E0E6D4146EB060642EAC62141EA55514F
:100680004FEAC52040EA5E504FEACE2EB4F1FD0C91
:1006900088BFBCF5E06F1ED8BEF1004F08BF5FEA0F
:1006A000500E50F1000041EB045170BD06F00046C1
:1006B00046EA010140EA020081EA0301B4EB5C046E
:1006C000C2BFD4EB0C0541EA045170BD41F4801166
:1006D0004FF0000E013C00F3AB8014F1360FDEBF8B
:1006E000002001F0004170BDC4F10004203C35DA67
:1006F0000C341BDC04F11404C4F1200500FA05F3EA
:1007000020FA04F001FA05F240EA020001F000428A
:1007100021F0004110EBD37021FA04F642EB060100
:100720005EEA430E08BF20EAD37070BDC4F10C042A
:10073000C4F1200500FA04F320FA05F001FA04F2EE
:1007400040EA020001F0004110EBD37041F10001DA
:100750005EEA430E08BF20EAD37070BDC4F12005E5
:1007600000FA05F24EEA020E20FA04F301FA05F24D
:1007700043EA020321FA04F001F0004121FA04F2F5
:1007800020EA020000EBD3705EEA430E08BF20EAC5
:10079000D37070BD94F0000F0FD101F000464000FF
:1007A00041EB010111F4801F08BF013CF7D041EA81
:1007B000060195F0000F18BF704703F00046520085
:1007C00043EB030313F4801F08BF013DF7D043EA56
:1007D0000603704794EA0C0F0CEA135518BF95EA0C
:1007E0000C0F0CD050EA410618BF52EA4306D1D193
:1007F00081EA030101F000414FF0000070BD50EAB2
:10080000410606BF1046194652EA430619D094EA3B
:100810000C0F02D150EA013613D195EA0C0F05D125
:1008200052EA03361CBF104619460AD181EA030179
:1008300001F0004141F0FE4141F470014FF0000031
:1008400070BD41F0FE4141F4780170BD70B54FF0CC
:10085000FF0C4CF4E06C1CEA11541DBF1CEA13554C
:1008600094EA0C0F95EA0C0F00F0A7F8A4EB05042E
:1008700081EA030E52EA03354FEA013100F0888025
:100880004FEA03334FF0805545EA131343EA1263EE
:100890004FEA022245EA111545EA10654FEA0026A3
:1008A0000EF000419D4208BF964244F1FD0404F55C
:1008B000407402D25B084FEA3202B61A65EB0305B8
:1008C0005B084FEA32024FF480104FF4002CB6EB75
:1008D000020E75EB030E22BFB61A754640EA0C00F5
:1008E0005B084FEA3202B6EB020E75EB030E22BF35
:1008F000B61A754640EA5C005B084FEA3202B6EB76
:10090000020E75EB030E22BFB61A754640EA9C0034
:100910005B084FEA3202B6EB020E75EB030E22BF04
:10092000B61A754640EADC0055EA060E18D04FEAC2
:10093000051545EA16754FEA06164FEAC30343EA62
:1009400052734FEAC2025FEA1C1CC0D111F4801F2F
:100950000BD141EA00014FF000004FF0004CB6E728
:1009600011F4801F04BF01430020B4F1FD0C88BFC7
:10097000BCF5E06F3FF6AFAEB5EB030C04BFB6EBD2
:10098000020C5FEA500C50F1000041EB045170BDC5
:100990000EF0004E4EEA113114EB5C04C2BFD4EBF2
:1009A0000C0541EA045170BD41F480114FF0000E76
:1009B000013C90E645EA060E8DE60CEA135594EAF2
:1009C0000C0F08BF95EA0C0F3FF43BAF94EA0C0FF5
:1009D0000AD150EA01347FF434AF95EA0C0F7FF46A
:1009E00025AF104619462CE795EA0C0F06D152EABE
:1009F00003353FF4FDAE1046194622E750EA4106A2
:100A000018BF52EA43067FF4C5AE50EA41047FF4B2
:100A10000DAF52EA43057FF4EBAE12E74FF0FF3C17
:100A200006E000BF4FF0010C02E000BF4FF0010CE8
:100A30004DF804CD4FEA410C7FEA6C5C4FEA430C61
:100A400018BF7FEA6C5C1BD001B050EA410C0CBFB0
:100A500052EA430C91EA030F02BF90EA020F002012
:100A6000704710F1000F91EA030F58BF994208BF79
:100A700090422CBFD8176FEAE37040F00100704736
:100A80004FEA410C7FEA6C5C02D150EA013C07D18D
:100A90004FEA430C7FEA6C5CD6D152EA033CD3D0D8
:100AA0005DF8040B704700BF8446104662468C46D2
:100AB0001946634600E000BF01B5FFF7B7FF002805
:100AC00048BF10F1000F01BD4DF808EDFFF7F4FF2E
:100AD0000CBF012000205DF808FB00BF4DF808EDB9
:100AE000FFF7EAFF34BF012000205DF808FB00BFDC
:100AF0004DF808EDFFF7E0FF94BF012000205DF8FE
:100B000008FB00BF4DF808EDFFF7CEFF94BF0120B2
:100B100000205DF808FB00BF4DF808EDFFF7C4FFAB
:100B200034BF012000205DF808FB00BF4FEA410CF4
:100B30007FEA6C5C02D150EA013C0AD14FEA430CD7
:100B40007FEA6C5C02D152EA033C02D14FF0000014
:100B500070474FF0010070474A0011D212F50012A1
:100B600011D20DD56FF47873B3EB62520ED44FEA05
:100B7000C12343F0004343EA505323FA02F0704785
:100B80004FF00000704750EA013002D14FF0FF30C3
:100B900070474FF0000070474FEA4102B2F1E04366
:100BA00024BFB3F5001CDCF1FE5C0DD901F0004C54
:100BB0004FEAC0024CEA5070B2F1004F40EB8300A4
:100BC00008BF20F00100704711F0804F21D113F1D0
:100BD0003872BCBF01F00040704741F480114FEA09
:100BE0005252C2F11802C2F1200C10FA0CF320FA92
:100BF00002F018BF40F001004FEAC1234FEAD323AF
:100C000003FA0CFC40EA0C0023FA02F34FEA430318
:100C1000CCE77FEA625307D150EA01331EBF4FF0A1
:100C2000FE4040F44000704701F0004040F0FE40BC
:100C300040F40000704700BF53B94AB9002908BF0B
:100C400000281CBF4FF0FF314FF0FF3000F0AAB971
:100C5000ADF1080C6DE904CE00F03CF8DDF804E0DD
:100C6000DDE9022304B0704738B5002200230446B2
:100C70000D46FFF733FF28B920462946BDE8384026
:100C800000F00AB8204605F1004100F005F84042A6
:100C900061EB410138BD00BFD0B50C4B00220646C8
:100CA0000F46FFF7A9FCFFF757FF0446FFF72AFCA2
:100CB000074B0022FFF7A0FC02460B4630463946A0
:100CC000FFF7E2FAFFF748FF2146D0BD0000F03DF4
:100CD0000000F0412DE9F047089D04468E46002BA8
:100CE0004DD18A42944669D9B2FA82F252B101FAE0
:100CF00002F3C2F1200120FA01F10CFA02FC41EAF0
:100D0000030E94404FEA1C48210CBEFBF8F61FFA74
:100D10008CF708FB16E341EA034306FB07F199420F
:100D20000AD91CEB030306F1FF3080F01F819942C2
:100D300040F21C81023E63445B1AA4B2B3FBF8F09C
:100D400008FB103344EA034400FB07F7A7420AD923
:100D50001CEB040400F1FF3380F00A81A74240F24B
:100D600007816444023840EA0640E41B00261DB1B6
:100D7000D4400023C5E900433146BDE8F0878B42EB
:100D800009D9002D00F0EF800026C5E900013046AA
:100D90003146BDE8F087B3FA83F6002E4AD18B4284
:100DA00002D3824200F2F980841A61EB030301202E
:100DB0009E46002DE0D0C5E9004EDDE702B9FFDE1A
:100DC000B2FA82F2002A40F09280A1EB0C014FEAC5
:100DD0001C471FFA8CFE0126200CB1FBF7F307FB22
:100DE000131140EA01410EFB03F0884208D91CEBC5
:100DF000010103F1FF3802D2884200F2CB80434662
:100E0000091AA4B2B1FBF7F007FB101144EA014440
:100E10000EFB00FEA64508D91CEB040400F1FF31CF
:100E200002D2A64500F2BB800846A4EB0E0440EABD
:100E300003409CE7C6F12007B34022FA07FC4CEAC6
:100E4000030C20FA07F401FA06F31C43F9404FEAB9
:100E50001C4900FA06F3B1FBF9F8200C1FFA8CFECE
:100E600009FB181140EA014108FB0EF0884202FA22
:100E700006F20BD91CEB010108F1FF3A80F08880E3
:100E8000884240F28580A8F102086144091AA4B2A0
:100E9000B1FBF9F009FB101144EA014100FB0EFE21
:100EA0008E4508D91CEB010100F1FF346CD28E4550
:100EB0006AD90238614440EA0840A0FB0294A1EBE1
:100EC0000E01A142C846A64656D353D05DB1B3EB3E
:100ED000080261EB0E0101FA07F722FA06F3F1406E
:100EE0001F43C5E9007100263146BDE8F087C2F115
:100EF0002003D8400CFA02FC21FA03F3914001438D
:100F00004FEA1C471FFA8CFEB3FBF7F007FB1036C5
:100F10000B0C43EA064300FB0EF69E4204FA02F471
:100F200008D91CEB030300F1FF382FD29E422DD9C4
:100F3000023863449B1B89B2B3FBF7F607FB1633F9
:100F400041EA034106FB0EF38B4208D91CEB010179
:100F500006F1FF3816D28B4214D9023E6144C91AF9
:100F600046EA004638E72E46284605E70646E3E609
:100F70001846F8E64B45A9D2B9EB020864EB0C0E13
:100F80000138A3E74646EAE7204694E74046D1E722
:100F9000D0467BE7023B614432E7304609E76444D0
:100FA000023842E7704700BF08B5104A13680133A2
:100FB0001360127952B90E4AA2FB0312120B41F2CE
:100FC000883101FB123212B9084B1A6008BD094A78
:100FD000A2FB0312120902EB820291008B42F5D1AF
:100FE0000421054801F0C4F9F0E700BF7C020020AD
:100FF0005917B7D1CDCCCCCC000C024072B6FEE76D
:1010000000B595B03022002108A803F0D7FE0023D8
:101010000393049305930693079301931F4A116C5E
:1010200041F080511164126C02F080520192019AD9
:1010300002931B4A116841F480411160126802F466
:1010400080420292029A0222089201210B91102101
:101050000C910E920F9308231093A82311931292D0
:101060000423139308A800F08DFD98B90F23039370
:1010700002230493002305934FF4A05306934FF4E7
:1010800080530793052103A800F0CAFF20B915B0CB
:101090005DF804FBFFF7B2FFFFF7B0FF0038024036
:1010A0000070004008B501F0FFF9FFF7A9FF00F05C
:1010B0001FF801F043FA01F011FD01F011FE02F0FA
:1010C000BBFE0A49002002F0A7FE02F033FF40F207
:1010D000DC5001F015FA012001F012FAFFF764FF6D
:1010E00002F030FF03F058FDF5E700BF688E0008FE
:1010F000F0B58BB0002405940694079408940994E5
:101100000194244B1A6B42F004021A631A6B02F02A
:1011100004020192019A02941A6B42F001021A63CE
:101120001A6B02F001020292029A03941A6B42F0C7
:1011300002021A631A6B02F002020392039A0494E9
:101140001A6B42F008021A631B6B03F00803049346
:10115000049B114F22460121384601F003F90F4E3E
:1011600022460421304601F0FDF80125059506953B
:101170000794089405A9384601F002F80423059362
:1011800006950794089405A9304600F0F9FF0BB0C6
:10119000F0BD00BF0038024000000240000C0240D9
:1011A000FEE7FEE7FEE7FEE7FEE7704770477047A1
:1011B00008B501F093F908BD08B5024801F01AFF1F
:1011C00008BD00BF2803002082B0002100910B4B16
:1011D0005A6C42F480425A645A6C02F48042009283
:1011E000009A01911A6C42F080521A641B6C03F051
:1011F00080530193019B02B0704700BF003802404A
:1012000030B4036A23F001030362036A426884690D
:1012100024F073040D682C4323F0020C8B6843EA1E
:101220000C03104DA84203D005F58065A84205D1F6
:1012300023F00803CD682B4323F00403094DA84293
:1012400003D005F58065A84205D122F440724D69AE
:101250002A438D692A43426084614A68426303627B
:1012600030BC70470000014030B4036A23F480733F
:101270000362036A4268C46924F0730C0C6844EA90
:101280000C0523F400738C6843EA0423114CA0423C
:1012900003D004F58064A04206D123F40063CC6837
:1012A00043EA042323F480630A4CA04203D004F5EC
:1012B0008064A04207D122F440524C6942EA0412F1
:1012C0008C6942EA04124260C5614A68C2630362E3
:1012D00030BC70470000014030B4036A23F48053EF
:1012E0000362036A4468C26922F4E6420D6842EA76
:1012F000052223F400538D6843EA0533094DA842C3
:1013000003D005F58065A84204D124F480444D69DA
:1013100044EA85144460C2614A680264036230BCD6
:10132000704700BF0000014010B4036A046A24F053
:1013300001040462846924F0F00C4CEA021223F0E8
:101340000A030B43826103625DF8044B704710B4DB
:10135000046A24F0100404628469036A24F4704C63
:101360004CEA023223F0A00343EA011382610362D4
:101370005DF8044B7047836823F070030B4343F020
:1013800007038360704770470368304A904212D069
:10139000B0F1804F0FD0A2F57C4290420BD002F505
:1013A0008062904207D002F58062904203D002F53D
:1013B0007842904203D123F070034A681343234AD2
:1013C00090422AD0B0F1804F27D0A2F57C429042C3
:1013D00023D002F5806290421FD002F580629042D5
:1013E0001BD002F57842904217D002F5705290421D
:1013F00013D002F5806290420FD002F580629042D5
:101400000BD0A2F59832904207D002F5806290424C
:1014100003D002F58062904203D123F44073CA687E
:10142000134323F080034A69134303608B68C3624C
:101430000B688362054B984203D003F580639842A2
:1014400001D10B6903630123436170470000014030
:1014500040B310B5044690F83D30F3B1022384F850
:101460003D30214651F8040BFFF78EFF012384F82D
:10147000463084F83E3084F83F3084F8403084F8B9
:10148000413084F8423084F8433084F8443084F8A2
:10149000453084F83D30002010BD80F83C3001F02C
:1014A000C3FADBE70120704740B310B5044690F85B
:1014B0003D30F3B1022384F83D30214651F8040B4E
:1014C000FFF762FF012384F8463084F83E3084F849
:1014D0003F3084F8403084F8413084F8423084F85A
:1014E000433084F8443084F8453084F83D3000209F
:1014F00010BD80F83C30FFF746FFDBE70120704766
:1015000030B4036A23F010030362036A44688269FB
:1015100022F4E6420D6842EA052223F020038D689A
:1015200043EA0513114DA84203D005F58065A84292
:1015300006D123F08003CD6843EA051323F040036E
:101540000A4DA84203D005F58065A84207D124F4CE
:1015500040644D6944EA85048D6944EA8504446029
:1015600082614A688263036230BC704700000140B8
:1015700038B590F83C30012B66D004460D46012367
:1015800080F83C300C2A5AD8DFE802F00759595944
:101590001B5959593059595944000068FFF730FE1A
:1015A0002268936943F0080393612268936923F0EA
:1015B000040393612268936929690B4393610020B6
:1015C0003EE00068FFF79CFF2268936943F40063E4
:1015D00093612268936923F480639361226893691D
:1015E000296943EA01239361002029E00068FFF79D
:1015F0003BFE2268D36943F00803D3612268D369B4
:1016000023F00403D3612268D36929690B43D361B2
:10161000002015E00068FFF75FFE2268D36943F4FD
:101620000063D3612268D36923F48063D3612268A5
:10163000D369296943EA0123D361002000E0012036
:10164000002384F83C3038BD0220FCE710B48468E5
:1016500024F47F4C42EA03220A4342EA0C028260ED
:101660005DF8044B704790F83C30012B78D010B5F2
:101670000446012380F83C30022380F83D300268A4
:10168000936823F47F4323F0770393600B68602B08
:101690004CD029D8402B54D00CD9502B22D1CA6819
:1016A00049680068FFF740FE50212068FFF763FE9D
:1016B000002005E0202B0DD009D9302B0AD00120C5
:1016C000012384F83D30002384F83C3010BD0BB179
:1016D000102B05D119462068FFF74DFE0020EFE7DB
:1016E0000120EDE70120EBE7B3F5805F34D0B3F5DF
:1016F000005F0CD1CB684A6889680068FFF7A6FFD5
:101700002268936843F4804393600020D8E7702BED
:1017100024D1CB684A6889680068FFF797FF226880
:10172000936843F0770393600020C9E7CA6849686B
:101730000068FFF70CFE60212068FFF71CFE002008
:10174000BEE7CA6849680068FFF7EEFD40212068DF
:10175000FFF711FE0020B3E70020B1E70120AFE75B
:101760000220704701F01F01012303FA01FC036A04
:1017700023EA0C030362036A02FA01F10B430362DA
:101780007047000010B504460846002942D194F87D
:101790003E30DBB2013B18BF0123002B6ED1002885
:1017A00051D1022384F83E30012201462068FFF720
:1017B000D9FF2368334A934203D002F580629342F3
:1017C00003D15A6C42F400425A6423682D4A934272
:1017D00049D0B3F1804F46D0A2F57C42934242D02B
:1017E00002F5806293423ED002F5806293423AD085
:1017F00002F57842934236D002F57052934232D0CD
:10180000A2F5943293422ED01A6842F001021A6077
:10181000002032E0042908D008290DD094F8413086
:10182000DBB2013B18BF0123B7E794F83F30DBB2CE
:10183000013B18BF0123B0E794F84030DBB2013B15
:1018400018BF0123A9E7042805D0082807D00223E0
:1018500084F84130A8E7022384F83F30A4E702234C
:1018600084F84030A0E79A6802F00702062A07D001
:101870001A6842F001021A60002010BD0120FCE746
:101880000020FAE70000014038B504460D4600226A
:101890000068FFF767FF23681D4A934218D002F5DE
:1018A0008062934214D02368196A41F211121142E6
:1018B00008D1196A40F24442114203D11A6822F059
:1018C00001021A609DB9012384F83E30002038BD22
:1018D000196A41F211121142E5D1196A40F24442EB
:1018E0001142E0D15A6C22F400425A64DBE7042D25
:1018F00005D0082D07D0012384F84130E6E7012305
:1019000084F83F30E2E7012384F84030DEE700BF8F
:101910000000014001F01F01042303FA01FC036AE7
:1019200023EA0C030362036A02FA01F10B43036228
:101930007047000010B50446084600293BD194F8D2
:101940004230DBB2013B18BF0123002B67D10028D6
:101950004AD1022384F84230042201462068FFF76E
:10196000D9FF2268536C43F40043536423682E4A22
:10197000934249D0B3F1804F46D0A2F57C429342C6
:1019800042D002F5806293423ED002F580629342DB
:101990003AD002F57842934236D002F57052934223
:1019A00032D0A2F5943293422ED01A6842F001024E
:1019B0001A60002032E0042908D008290DD094F8DC
:1019C0004530DBB2013B18BF0123BEE794F843303A
:1019D000DBB2013B18BF0123B7E794F84430DBB218
:1019E000013B18BF0123B0E7042805D0082807D021
:1019F000022384F84530AFE7022384F84330ABE795
:101A0000022384F84430A7E79A6802F00702062A06
:101A100007D01A6842F001021A60002010BD0120B0
:101A2000FCE70020FAE700BF0000014038B504469B
:101A30000D4600220068FFF76DFF2368196A41F226
:101A40001112114208D1196A40F24442114203D1E5
:101A50005A6C22F400425A642368196A41F2111246
:101A6000114208D1196A40F24442114203D11A6866
:101A700022F001021A6025B9012384F842300020C7
:101A800038BD042D05D0082D07D0012384F845303A
:101A9000F5E7012384F84330F1E7012384F844306B
:101AA000EDE7000090F83C30012B3DD010B401234D
:101AB00080F83C30022380F83D3003685A689C6807
:101AC00022F0700C0A6842EA0C025A600368174A56
:101AD00093421AD0B3F1804F17D0A2F57C429342C3
:101AE00013D002F5806293420FD002F580629342D8
:101AF0000BD002F57842934207D002F57052934220
:101B000003D0A2F59432934204D124F080044A68B1
:101B100014439C60012380F83D30002380F83C3062
:101B200018465DF8044B70470220704700000140E2
:101B300090F83C30012B22D0012380F83C30CB6858
:101B400023F440738A68134323F480634A68134381
:101B500023F400630A68134323F480530A69134390
:101B600023F400534A69134323F48043CA6913439F
:101B700002685364002380F83C3018467047022006
:101B800070470000002800F0E08170B582B0044684
:101B9000036813F0010F3BD09F4B9B6803F00C03CD
:101BA000042B2CD09C4B9B6803F00C03082B21D0FA
:101BB0006368B3F5803F4FD0B3F5A02F52D0964B5A
:101BC0001A6822F480321A601A6822F480221A609D
:101BD0006368002B50D000F08DFC05468E4B1B68CF
:101BE00013F4003F14D100F085FC401B6428F5D9A4
:101BF0000320B1E1884B5B6813F4800FD8D0864B8B
:101C00001B6813F4003F03D06368002B00F09F8132
:101C1000236813F0020F54D07F4B9B6813F00C0F16
:101C20003ED07D4B9B6803F00C03082B33D0E36858
:101C3000002B68D0794B01221A6000F05BFC05464E
:101C4000754B1B6813F0020F54D100F053FC401B7E
:101C50000228F5D903207FE16F4A136843F48033EB
:101C60001360B5E76C4B1A6842F480221A601A6858
:101C700042F480321A60ABE700F03CFC0546664B4C
:101C80001B6813F4003FC3D000F034FC401B6428F1
:101C9000F5D9032060E1604B5B6813F4800FC6D177
:101CA0005D4B1B6813F0020F03D0E368012B40F07B
:101CB0005081594A136823F0F803216943EAC103AC
:101CC0001360236813F0080F42D063696BB3534B62
:101CD0000122C3F8802E00F00DFC05464E4B5B6FD1
:101CE00013F0020F34D100F005FC401B0228F5D997
:101CF000032031E1484A136823F0F803216943EADD
:101D0000C1031360DDE7454B00221A6000F0F2FBCF
:101D10000546414B1B6813F0020FD2D000F0EAFBDE
:101D2000401B0228F5D9032016E13C4B0022C3F8E2
:101D3000802E00F0DFFB0546374B5B6F13F0020F80
:101D400006D000F0D7FB401B0228F5D9032003E1A1
:101D5000236813F0040F77D02F4B1B6C13F0805FB8
:101D600033D1002301932C4B1A6C42F080521A6439
:101D70001B6C03F080530193019B0125284B1B68CA
:101D800013F4807F23D0A368012B34D0052B38D0E7
:101D9000214B1A6F22F001021A671A6F22F0040217
:101DA0001A67A368002B3DD000F0A4FB06461A4B2F
:101DB0001B6F13F0020F46D100F09CFB801B41F219
:101DC00088339842F3D90320C6E00025D6E7144AA9
:101DD000136843F48073136000F08CFB0646104BCD
:101DE0001B6813F4807FCED100F084FB801B022897
:101DF000F5D90320B0E0084A136F43F001031367DD
:101E0000CFE7054B1A6F42F004021A671A6F42F0CF
:101E100001021A67C5E700BF0038024000004742D0
:101E20000070004000F066FB0646524B1B6F13F03B
:101E3000020F08D000F05EFB801B41F2883398420D
:101E4000F3D9032088E0EDB9A369002B00F083806B
:101E5000484A926802F00C02082A51D0022B17D08F
:101E6000454B00221A6600F045FB0446414B1B68B7
:101E700013F0007F42D000F03DFB001B0228F5D993
:101E8000032069E03B4A136C23F080531364DBE7C3
:101E9000394B00221A6600F02DFB0546354B1B68B6
:101EA00013F0007F06D000F025FB401B0228F5D977
:101EB000032051E0E369226A1343626A43EA821312
:101EC000A26A5208013A43EA0243E26A43EA026321
:101ED000284A5360284B01221A6600F00BFB044687
:101EE000244B1B6813F0007F06D100F003FB001B9E
:101EF0000228F5D903202FE000202DE000202BE060
:101F0000012B2BD01B4B5B6803F48001E2699142EB
:101F100026D103F03F02216A8A4223D1616A47F643
:101F2000C0721A40B2EB811F1ED103F44031A26A85
:101F30005208013AB1EB024F18D103F07063E26A24
:101F4000B3EB026F14D1002006E00120704701209E
:101F500002E0012000E0002002B070BD0120FBE79C
:101F60000120F9E70120F7E70120F5E70120F3E779
:101F70000120F1E7003802400000474208B5254B38
:101F80009B6803F00C03042B3FD0082B3FD1214B5F
:101F90005A6802F03F025B6813F4800F12D01D4BA9
:101FA0005968C1F388111C480023A1FB0001FEF70A
:101FB00043FE184B5B68C3F3014301335B00B0FB86
:101FC000F3F025E0134B5968C1F3881C4FEA4C111C
:101FD000B1EB0C006EEB0E0E4FEA8E1343EA9063EA
:101FE0008101091A63EB0E03DB0043EA5173C90058
:101FF00011EB0C0C43F10003990200234FEA8C20F3
:1020000041EA9C51FEF718FED3E7034800E003487D
:1020100008BD00BF0038024040787D010024F40074
:10202000002800F09B8070B50D4604464F4B1B689E
:1020300003F007038B4208D2CBB24C4A13701368EB
:1020400003F007038B4240F08B80236813F0020FEC
:1020500017D013F0040F04D0454A936843F4E053BB
:102060009360236813F0080F04D0414A936843F447
:10207000604393603E4A936823F0F003A1680B43EA
:102080009360236813F0010F32D06368012B21D0D5
:102090009A1E012A25D9364A126812F0020F61D021
:1020A00033498A6822F0030213438B6000F022FA5E
:1020B00006462F4B9B6803F00C036268B3EB820F5C
:1020C00016D000F017FA801B41F288339842F0D9FD
:1020D000032042E0264A126812F4003FE0D10120BA
:1020E0003BE0234A126812F0007FD9D1012034E08E
:1020F0001E4B1B6803F00703AB4207D9EAB21B4B28
:102100001A701B6803F00703AB422DD1236813F04C
:10211000040F06D0164A936823F4E053E1680B439A
:102120009360236813F0080F07D0114A936823F4D3
:102130006043216943EAC1039360FFF71FFF0C4B23
:102140009B68C3F303130B4AD35CD8400A4B186057
:102150000A4B186800F082F9002070BD012070471A
:102160000120FAE70120F8E70120F6E7003C0240F1
:10217000003802407C8E0008080000200400002087
:1021800000230F2B00F2E48070B582B060E0856818
:102190005E000324B44025EA0405CC68B4402C4317
:1021A0008460456825EA02054C68C4F300129A4031
:1021B0002A4342605AE0DC08083450F8246003F0F7
:1021C000070295000F22AA4026EA020E0A69AA40D9
:1021D00042EA0E0240F824205CE0072200E00022E0
:1021E00002FA0EF22A4302345A4D45F824205A4A84
:1021F00094686FEA0C0224EA0C054E6816F4801FFE
:1022000001D04CEA0405544CA560E46802EA0405D8
:102210004E6816F4001F01D04CEA04054E4CE560F0
:10222000646802EA04054E6816F4003F01D04CEAE7
:102230000405494C6560246822404D6815F4803FD0
:1022400001D04CEA0402444C226001330F2B7DD8AC
:1022500001229A400C6804EA020C32EA0404F4D128
:102260004C6804F00304013C012C90D94A6802F048
:102270000302032A09D0C4685D000322AA4024EAAD
:1022800002048A68AA402243C2604A6802F003023C
:10229000022A90D004684FEA430E032202FA0EF29B
:1022A00024EA02044A6802F0030202FA0EF2224310
:1022B00002604A6812F4403FC7D000220192274AC8
:1022C000546C44F480445464526C02F48042019291
:1022D000019A9C08A51C1F4A52F8255003F00302DE
:1022E0004FEA820E0F2202FA0EF225EA02051C4A7C
:1022F00090423FF474AF02F5806290421AD002F52A
:102300008062904218D002F58062904216D002F5A9
:102310008062904214D002F58062904212D002F5A1
:102320008062904210D002F5806290423FF455AF37
:10233000082255E7012253E7022251E703224FE723
:1023400004224DE705224BE7062249E702B070BDA3
:10235000704700BF00380140003C01400038024097
:10236000000002400AB18161704709048161704731
:10237000436901EA030221EA030141EA0241816162
:1023800070470000074AD36823F4E0631B041B0C6A
:10239000000200F4E060034343F0BF6343F4003302
:1023A000D360704700ED00E000B5194BDB68C3F364
:1023B0000223C3F1070CBCF1040F28BF4FF0040C3B
:1023C00003F1040EBEF1060F18D9033B4FF0FF3E98
:1023D0000EFA0CFC21EA0C0199400EFA03F322EAF2
:1023E0000303194300280BDB0901C9B200F1604067
:1023F00000F5614080F800135DF804FB0023E5E779
:1024000000F00F000901C9B2024B1954F4E700BFF4
:1024100000ED00E014ED00E0002807DB00F01F02F3
:10242000400901239340024A42F82030704700BF20
:1024300000E100E00138B0F1807F0BD24FF0E023E3
:102440005861054AF02182F8231000209861072284
:102450001A6170470120704700ED00E010B5044696
:102460000E4B18784FF47A73B3FBF0F30C4A1068F4
:10247000B0FBF3F0FFF7DEFF68B90F2C01D90120A4
:102480000AE0002221464FF0FF30FFF78DFF054B99
:102490001C60002000E0012010BD00BF00000020F3
:1024A000080000200400002008B50B4B1A6842F415
:1024B00000721A601A6842F480621A601A6842F464
:1024C00080721A600320FFF75DFF0F20FFF7C6FF41
:1024D000FEF77AFE002008BD003C0240034A116866
:1024E000034B1B780B441360704700BF840200202D
:1024F00000000020014B1868704700BF84020020D4
:1025000038B50446FFF7F6FF0546B4F1FF3F02D0A9
:10251000044B1B781C44FFF7EDFF401BA042FAD38D
:1025200038BD00BF00000020034AD2F8883043F4D1
:102530007003C2F88830704700ED00E008B50F481E
:102540000F4B03604FF482734360002383604FF4AA
:102550000062C2600361012242614FF40072826135
:102560000822C2610362436283620A23C36200F0ED
:10257000DFF800B908BDFEF741FDFBE78802002047
:10258000003C004000B589B00023039304930593F9
:10259000069307930268154B9A4202D009B05DF882
:1025A00004FB0021019103F5FE331A6C42F4004252
:1025B0001A641A6C02F400420192019A02911A6B99
:1025C00042F004021A631B6B03F004030293029BA4
:1025D0004FF4E0530393022304930323069306234B
:1025E000079303A90248FFF7CBFDD7E7003C004063
:1025F000000802402DE9F04782B00546884617469C
:102600001E46FFF777FF0A9B1B1A03EB0609FFF72D
:1026100071FF82462B4B1B68C3F3CB3309FB03F3DB
:1026200001932B689C6838EA04030CBF4FF0010C3F
:102630004FF0000CBC4540D0B6F1FF3FF1D0FFF7A2
:1026400059FFA0EB0A0048450AD2B9F1000F07D0A4
:10265000019A02B14A46019B013B01939146E0E792
:102660002A68536823F0E00353606B68B3F5827FF8
:102670000BD0AB6AB3F5005F14D0012385F851305D
:10268000002385F85030032018E0AB68B3F5004F05
:1026900002D0B3F5806FECD12A68136823F04003B1
:1026A0001360E6E72A68136823F4005313602A686E
:1026B000136843F400531360DFE7002002B0BDE865
:1026C000F08700BF0800002010B584B00446164B08
:1026D0001868164BA3FB0030400D4FF47A7303FBD0
:1026E00000F003906368B3F5827F0BD0039BBBB10E
:1026F000039B013B039323689B6813F0800FF5D184
:1027000000200EE000920B46002280212046FFF7B9
:1027100071FF30B1636D43F020036365032000E077
:10272000002004B010BD00BF08000020819F5E168D
:1027300000285AD010B50446436A33B94368B3F54C
:10274000827F05D00023C36102E00023036143615F
:102750000023A36294F85130002B40D0022384F868
:1027600051302268136823F040031360636803F458
:102770008273A26802F404421343E26802F4006226
:102780001343226902F002021343626902F001025C
:102790001343A26902F400721343E26902F03802A3
:1027A0001343226A02F080021343A26A02F4005229
:1027B000216813430B60638B03F00403626A02F029
:1027C0001002216813434B602268D36923F400632D
:1027D000D36100206065012384F8513010BD84F876
:1027E00050302046FFF7CEFEB8E7012070472DE9B4
:1027F000F04383B01F460A9D90F85030012B00F043
:102800001081044688469146012380F85030FFF736
:1028100071FE064694F85130DBB26268012B0AD093
:10282000B2F5827F40F0E380A268002A40F0E980A0
:10283000042B40F0E880B8F1000F00F0E680B9F119
:10284000000F00F0E480002F00F0E38094F8513096
:10285000DBB2042B02D0052384F8513000236365DA
:10286000C4F83890E787A787C4F83080E786A78642
:102870002364636423681A6812F0400F03D11A6856
:1028800042F040021A60E368B3F5006F11D063684C
:102890000BB1012F0BD1226B236812781A73236BB3
:1028A00001332363E38E9BB2013B9BB2E386012796
:1028B0006BE063680BB1012F0BD1226B2368128888
:1028C000DA60236B02332363E38E9BB2013B9BB23E
:1028D000E38601271CE023689A6812F0010F0ED0EE
:1028E000E28F92B25AB1DA68A36B1A80A36B0233FB
:1028F000A363E38F9BB2013B9BB2E3870127FFF702
:10290000F9FD801BA84203D3B5F1FF3F40F083805F
:10291000E38E9BB21BB9E38F9BB2002B53D023688D
:102920009A6812F0020FD6D0E28E92B2002AD2D06C
:10293000002FD0D0226B1288DA60236B023323631E
:10294000E38E9BB2013B9BB2E3860027C3E723687B
:102950009A6812F0010F0ED0E28F92B25AB1DA6883
:10296000A36B1A70A36B0133A363E38F9BB2013B8C
:102970009BB2E3870127FFF7BDFD831BAB4202D368
:10298000B5F1FF3F49D1002D49D0E38E9BB213B979
:10299000E38F9BB2BBB123689A6812F0020FD6D0C6
:1029A000E28E92B2002AD2D0002FD0D0226B1278C1
:1029B0001A73236B01332363E38E9BB2013B9BB2FB
:1029C000E3860027C3E7324629462046FFF77CFE10
:1029D00048B9A36863B901932368DA6801929B68D8
:1029E0000193019B04E020236365012000E00220A5
:1029F000012384F85130002384F8503003B0BDE83F
:102A0000F0830220F4E70220F2E70120F0E7012042
:102A1000EEE70120ECE70320EAE70320E8E70320E4
:102A2000E6E70220EAE700000268094B9A4200D07C
:102A3000704782B000230193064B5A6C42F00102AA
:102A40005A645B6C03F001030193019B02B0704771
:102A5000000001400038024070B588B000230393A5
:102A600004930593069307930268194B9A4201D089
:102A700008B070BD0024019403F59C331A6B42F03A
:102A800002021A631A6B02F002020192019A029486
:102A90001A6B42F001021A631B6B03F001030293ED
:102AA000029B4FF460430393022604960125079589
:102AB00003A90848FFF764FB4FF4E063039304960F
:102AC00005940694079503A90348FFF759FBCFE740
:102AD00000000140000402400000024030B597B001
:102AE000002412941394149415941094119409943E
:102AF0000A940B940C940D940E940F9420252A465E
:102B0000214601A802F05AF93B483C4B036044605F
:102B1000856042F2D003C360046144618461FEF7C2
:102B200097FC00284CD14FF48053129312A93248DD
:102B3000FEF799FD002846D12F48FEF7B5FC002886
:102B400044D100231093119310A92B48FEF7AAFF3C
:102B500000283ED16023099300220A920B920C9226
:102B60000D920E920F9209A92348FEF701FD00284D
:102B700032D1042209A92048FEF7FAFC78BB0822CA
:102B800009A91D48FEF7F4FC60BB0C2209A91A48EC
:102B9000FEF7EEFC48BB002301930293039314223B
:102BA000049205934FF400520692089301A912482B
:102BB000FEF7BEFFE0B91048FFF74EFF17B030BD7B
:102BC000FEF71CFAAFE7FEF719FAB5E7FEF716FABB
:102BD000B7E7FEF713FABDE7FEF710FAC9E7FEF70D
:102BE0000DFACCE7FEF70AFACFE7FEF707FAD2E7CD
:102BF000FEF704FADFE700BFE0020020000001401A
:102C0000DFED0F7A20EE270A60EEA70A21EE271AE1
:102C10000C4B1A68BCEEC00A10EE103A9BB253631C
:102C2000FCEEE00A10EE903A9BB29363BCEEC11A40
:102C300011EE103A9BB2D36341F2680313647047FC
:102C400000400346E002002010B50D4C0021204654
:102C5000FEF798FD00212046FEF76CFE0421204679
:102C6000FEF790FD04212046FEF764FE0821204671
:102C7000FEF788FD08212046FEF75CFE10BD00BF70
:102C8000E002002010B50F4C00212046FEF7FCFDAD
:102C900000212046FEF7CAFE04212046FEF7F4FD7F
:102CA00004212046FEF7C2FE08212046FEF7ECFD77
:102CB00008212046FEF7BAFE0C212046FEF7E4FD6F
:102CC00010BD00BFE002002008B50448036841F2CF
:102CD00068021A640C21FEF755FD08BDE0020020D1
:102CE00010B58CB00024089409940A940B94202207
:102CF0002146684602F062F82648274B03604FF4ED
:102D000080334360846001230361047680F82040AF
:102D1000C462224A8262C460C36180F83040436169
:102D200000F03AF948BB0A230893012309930023D2
:102D30000A9308A9174800F0FFF908BB0A2300937B
:102D40000123019302230493002302934FF4001202
:102D5000079206938DF815308DF814300393694669
:102D60000C4800F091FB70B90223019369460948B1
:102D700000F08AFB50B90CB010BDFEF73FF9D2E766
:102D8000FEF73CF9DAE7FEF739F9EDE7FEF736F939
:102D9000F1E700BF28030020002101400100000FDF
:102DA00010B588B00023039304930593069307930B
:102DB0000268154B9A4201D008B010BD002401945E
:102DC000124B5A6C42F400725A645A6C02F400724C
:102DD0000192019A02941A6B42F004021A631B6B6F
:102DE00003F004030293029B03230393049303A9B8
:102DF0000748FFF7C5F9224621461220FFF7D4FA0B
:102E00001220FFF709FBD7E70021014000380240FC
:102E10000008024008B5024800F05AFA08BD00BF99
:102E20002803002008B5024800F0D8FA08BD00BF0A
:102E30002803002010B584B0084C0121204600F082
:102E400002FB01900221204600F0FDFA02909FED66
:102E5000040A01A801F03EFD04B010BD28030020C3
:102E6000000000004A4B5A6822F440325A605A6807
:102E700041680A435A600268536823F480735360C0
:102E800002685368016943EA01235360026853688A
:102E900023F0407353600268536881680B435360AA
:102EA0000268936823F40063936002689368C168C2
:102EB0000B439360826A374B9A4257D002689368FB
:102EC00023F07063936002689368816A0B43936098
:102ED0000268936823F04053936002689368C16A64
:102EE0000B4393600268936823F0020393600268C7
:102EF0009368017E43EA4103936090F82030002BF1
:102F00003FD00268536843F400635360026853681B
:102F100023F46043536001684B68426A013A43EA14
:102F200042334B600268D36A23F47003D3620168B2
:102F3000CB6AC269013A43EA0253CB6202689368E2
:102F400023F4007393600268936890F8301043EAAA
:102F5000412393600268936823F48063936002685E
:102F60009368416943EA81239360704702689368DC
:102F700023F0706393600268936823F0405393607A
:102F8000B0E70268536823F400635360CAE700BFE8
:102F9000002301400100000F38B310B50446036C54
:102FA00043B1236C13F0100F0BD00120002384F8E1
:102FB0003C3010BDFFF7F4FE0023636484F83C301E
:102FC000EFE7236C23F4885323F0020343F002035A
:102FD00023642046FFF746FF00206064236C23F043
:102FE000030343F001032364E0E7012070477047C7
:102FF0007047704770B5044603681E685D6816F038
:10300000020F2FD005F0200262B3026C12F0100FF5
:1030100003D1026C42F4007202649A6812F0405FBD
:1030200019D1227EBAB9DA6A12F4700F03D09A6805
:1030300012F4806F0FD15A6822F020025A60236C7C
:1030400023F480732364236C13F4805F03D1236C17
:1030500043F0010323642046FFF7C9FF23686FF0A4
:1030600012021A6005F0800316F0040F37D0002B0F
:1030700035D0236C13F0100F03D1236C43F40053AD
:10308000236423689A6812F4401F21D19A6B12F4CA
:10309000401F03D09A6812F4806F19D15A6812F455
:1030A000806F15D19A6812F0405F11D1227E7AB9F3
:1030B0005A6822F080025A60236C23F48053236400
:1030C000236C13F4807F03D1236C43F0010323644A
:1030D0002046FFF7AFFE23686FF00C021A6005F080
:1030E000400316F0010F05D023B123681B6813F0CD
:1030F000010F06D105F0806516F0200F00D065B9EC
:1031000070BD236C43F4803323642046FFF770FFC7
:1031100023686FF001021A60ECE7636C43F002036E
:10312000636423686FF020051D602046FFF761FF90
:1031300023681D60E4E7000030B482B000230193EF
:1031400090F83C30012B00F0BB80012380F83C302C
:103150000B68092B41D90468E2689BB203EB430377
:103160001E3B4FF0070C0CFA03F322EA0303E36063
:103170000468E2680B8803EB43031E3B8D6805FA85
:1031800003F31343E3604B68062B3DD80468626B7E
:1031900003EB8303053B4FF01F0C0CFA03F322EA09
:1031A000030363630468626B4B6803EB8303053BB3
:1031B000B1F800C00CFA03F3134363630268414B98
:1031C0009A4251D002683F4B9A4256D0002380F871
:1031D0003C30184602B030BC7047046822699BB28C
:1031E00003EB43034FF0070C0CFA03F322EA03034B
:1031F0002361046822690B8803EB43038D6805FA99
:1032000003F313432361BEE70C2B16D805682A6B22
:1032100003EB8303233B1F2404FA03F322EA030393
:103220002B6305682A6B4B6803EB8303233B0C88F5
:1032300004FA03F313432B63C0E70568EA6A03EB60
:103240008303413B1F2404FA03F322EA0303EB62E6
:103250000568EA6A4B6803EB8303413B0C8804FA78
:1032600003F31343EB62A9E70B68122BAAD1164AAA
:10327000536843F480035360A4E70B68103B012BB1
:10328000A4D8114A536843F4000353600B68102B11
:103290009CD10E4B1B6802F1467202F52E3202F2EF
:1032A0008332A2FB03239B0C03EB83035B0001939C
:1032B00002E0019B013B0193019B002BF9D185E7C3
:1032C000022087E700200140002301400800002081
:1032D00082B00023019390F83C30012B6CD0012385
:1032E00080F83C3003689A6812F0010F13D19A6895
:1032F00042F001029A60354B1B68354AA2FB03235A
:103300009B0C03EB4303019302E0019B013B019300
:10331000019B002BF9D10268936813F0010F40D094
:10332000036C23F4405323F0010343F480530364FC
:10333000036C13F4807F01D100234364002380F8E1
:103340003C306FF0040313600268536843F080035D
:103350005360204B5B6813F01F0F0ED10268916819
:10336000536803F4806311F4401F27D143BB936873
:1033700043F48003936000201CE003689A6802F421
:103380004012596801F480611348834201D0002043
:1033900010E0BAB9C1B99A6842F480029A6000207C
:1033A00008E0036C43F010030364436C43F0010333
:1033B0004364002002B070470220FBE70020F9E7D9
:1033C0000020F7E70020F5E70020F3E708000020E1
:1033D00083DE1B430023014000200140034690F898
:1033E0003C20012A2DD0012280F83C20026C12F4EE
:1033F000807F1BD10268516811F4806F16D19168EB
:1034000021F0010191600268916811F0010F16D15D
:10341000516821F080015160026C22F4885222F040
:10342000010242F001020264002004E01A6C42F042
:1034300020021A640120002283F83C2070470020FB
:10344000F9E70220704782B00023019303686FF010
:1034500004021A600139032906D8DFE801F0100CD4
:10346000080203689B6C0193019802B070470368DF
:103470005B6C0193F8E703681B6C0193F4E7036846
:10348000DB6B0193F0E7000090F83C30012B00F07B
:10349000FB8030B4012380F83C300B68092B7FD9C6
:1034A0000568EA689BB203EB43031E3B072404FA5A
:1034B00003F322EA0303EB600568EA688C680B8873
:1034C00003EB43031E3B04FA03F31343EB60026870
:1034D000936B23F4401393630468A36B0A69013A66
:1034E00043EA0253A3630468A26B4B680D695B1B3C
:1034F000DBB20333DBB203EB83034FF01F0C0CFA98
:1035000003F322EA0303A3630468A26B4B680D690B
:103510005B1BDBB20333DBB203EB8303B1F800C008
:103520000CFA03F31343A3638A69584B9A424DD0B4
:103530000268936823F470239360026893688C692F
:10354000234393600268936823F4401393600268F6
:103550009368CC69234393604B7D002B41D0026874
:10356000536843F4806353600B7D002B3FD00268A7
:10357000536843F4805353604B68022B57D0032B9E
:1035800062D0012B39D00268136A23F47F6323F0E1
:103590000F0313620268136ACC682343136238E096
:1035A00005682A699BB203EB4303072404FA03F37B
:1035B00022EA03032B6105682A698C680B8803EBF8
:1035C000430304FA03F313432B6180E70268936813
:1035D00023F4702393600268936823F4401393608C
:1035E000BAE70268536823F480635360BCE702685B
:1035F000536823F480535360BEE70268536923F491
:103600007F6323F00F03536102685369CC6823433F
:10361000536102681E4B9A4223D002681C4B9A42A7
:1036200028D0002380F83C30184630BC7047026830
:10363000936923F47F6323F00F0393610268936916
:10364000CC6823439361E4E70268D36923F47F6382
:1036500023F00F03D3610268D369CC682343D3619D
:10366000D7E70B68122BD8D10A4A536843F480037A
:103670005360D2E70B68103B012BD2D8054A536840
:1036800043F400035360CCE70220704701000F00B1
:1036900000200140002301400369C268934204D81E
:1036A0008068801A0344581E70479B1A581E704742
:1036B0002DE9F843044688461646C5688768A7EB97
:1036C0000509914509D94068284401F069FBBFF319
:1036D0005F8F3544E560BDE8F88340684A4628447A
:1036E00001F05EFBED1B35442A4608EB09016068DA
:1036F00001F056FBBFF35F8FE560ECE72DE9F8437F
:10370000064688461746C5684FF000091AE0641B54
:10371000621EB3685C1B944228BF1446BC4228BF9B
:103720003C46706822464146284401F039FBA144DA
:10373000A0443F1B2544B368AB420BD0BFF35F8F5F
:10374000F5604FB13469A542E1D3B268641B1444FB
:10375000621EDEE70025F1E74846BDE8F883000079
:1037600010B5154CA8220021204601F027FB0323A9
:1037700023616361114AA261114BE3614FF48063DD
:1037800023620023A3626362E36222660D4A6266DB
:103790004022A2662367E3666367BFF35F8F06E09C
:1037A000C3F10F020849895C034AD15401330F2B3E
:1037B000F6D9BFF35F8F10BD700300208C8E000818
:1037C0005804002018040020988E0008F8B50F4611
:1037D0001646184B451C05EB450503EBC50500EBEC
:1037E000400003EBC000C46A012C11D0022C1CD095
:1037F00014B100242046F8BD2846FFF74DFF86424D
:10380000F8D8324639462846FFF752FF3446F1E7EA
:103810002846FFF741FF3446864228BF0446224629
:1038200039462846FFF744FFE4E72846FFF766FFDE
:103830000446DFE770030020F8B504460D4616463F
:103840000A4B1B78DBB2532B0DD1EFF311874FF0EE
:10385000200181F31188324629462046FFF7B6FF42
:1038600087F31188F8BDFFF77BFFEEE770030020B8
:10387000F8B504460F4616461D46194B1878C0B2D7
:10388000532826D1022C27D8EFF311834FF02001C3
:1038900081F3118894B1124A601C00EB4001C90009
:1038A000575000EB400002EBC000466004EB4401BF
:1038B00002EBC102156200219162516204EB4404E3
:1038C000074800EBC404069AE26283F311880020E3
:1038D000F8BDFFF745FFD5E74FF0FF30F8E700BF31
:1038E000700300202DE9F0410446884617461E4625
:1038F000164B1878C0B2532822D1022C23D8EFF3EC
:1039000011834FF0200181F311885CB104EB440076
:103910000E4D05EBC000C0F8608047668666002249
:103920000267C26604EB4404084800EBC404069A2C
:103930006267BFF35F8F83F311880020BDE8F081D9
:10394000FFF70EFFD9E74FF0FF30F7E770030020D5
:1039500010B504468268531C4068834205D820682D
:103960008154A360E3680133E360A26863689A420C
:1039700000D010BD21682069FFF75EFFA368984260
:1039800003D04FF0FF33E360F3E70023A360F0E7D9
:103990002DE9F84F81460F4615461E46DDF828A052
:1039A0000B9A0B464FF0010803E0B3FBF5F308F167
:1039B0000108AB42F9D2B04500D2B04612F0010B7B
:1039C00018D1BAF1000F15D012F0020F02D0BEB11B
:1039D000202400E02024BAF1000F0BD0C24509D901
:1039E0000AF1FF3A21464846FFF7B2FFD9F80C30FA
:1039F000002BF0DAD9F80C30002B25DB012404E091
:103A00003024E8E7013E05FB04F4012EFAD8B7FBA9
:103A1000F4F39D42F7D900E01C46B7FBF4F304FB36
:103A20001377124AD15C4846FFF792FFD9F80C3061
:103A3000002B03DBB4FBF5F3AC42EDD2BBF1000F7E
:103A400002D0BAF1000F01D1BDE8F88FBAF1000F32
:103A5000FAD0C245F8D90AF1FF3A20214846FFF7CB
:103A600077FFD9F80C30002BF0DAEDE7AC8E0008C8
:103A70002DE9F04782B007468846154699460A9ECA
:103A8000DDF82CA081EAE17CACEBE17C012402E0D2
:103A90009CFBF5FC01346545FADD4C4500D24C46F3
:103AA00036B1B8F1000F02DB1AF0040F00D0013E6E
:103AB0001AF0020F02D0B9F1000F03D01AF0010F73
:103AC00000D1AEB9FB68002B0FDBB8F1000F1CDB97
:103AD0001AF0040F20D1FB68002B06DB0AF0030369
:103AE000022B1ED0FB68002B2DDA02B0BDE8F08758
:103AF000002EE7D0A642E5D9013E20213846FFF747
:103B000027FFFB68002BF3DADCE7C8F100082D2162
:103B10003846FFF71DFFDEE72B213846FFF718FF79
:103B2000D9E7B9F1000FDDD1002EDBD0002ED9D0BE
:103B3000A642D7D9013E30213846FFF709FFFB687E
:103B4000002BF3DACEE7CDF804A000964B462A46C8
:103B500041463846FFF71CFFC7E700002DE9F04358
:103B60002DED028B99B007460C46164603AB139316
:103B700040231493002315931790169397E0002584
:103B8000012211E045F0010501340CE045F0020589
:103B9000013408E045F00405013404E045F008056F
:103BA000013400E000221AB32378233B0D2BF9D80F
:103BB00001A151F823F000BF9D3B0008A53B000880
:103BC000A53B0008A53B0008A53B0008A53B000855
:103BD000A53B0008A53B0008953B0008A53B000855
:103BE000853B0008A53B0008A53B00088D3B00086D
:103BF0004FF0000806E0013408EB880803EB4803A7
:103C0000A3F130082378A3F13002D2B2092AF2D905
:103C10002E2B03D04FF00009237812E001344FF02F
:103C200000092378A3F13002D2B2092AF4D8013472
:103C300009EB890903EB4909A9F13009F1E714F807
:103C4000013F6C2BFBD0682BF9D0252B7ED029D3DC
:103C5000782B27D8462B25D3463B322B22D8DFE8BA
:103C600003F07A212121212121212121212121213A
:103C7000212121214C212121212121212121211A10
:103C800032217A212121212121212121682121593B
:103C9000213F21214C0033681A1D3260197813A886
:103CA000FFF756FE0134169B002BC0F29C8014F8DF
:103CB000011B002900F0978025293FF460AF13A86D
:103CC000FFF746FEEFE733681A1D32601968019569
:103CD000CDF800804B460A2213A8FFF7C9FEE1E7A2
:103CE00033681A1D326019680195CDF800804B4683
:103CF0000A2213A8FFF74CFED4E733681A1D32607E
:103D000019680195CDF800804B46102213A8FFF7E3
:103D10003FFEC7E733681A1D32601D6815F8011BA6
:103D20000029BFD013A8FFF713FE169B002BF5DA6E
:103D3000B8E733681A1D326019680023019308231D
:103D40000093102213A8FFF723FEABE7252113A849
:103D5000FFF7FEFDA6E73368073323F0070303F1FF
:103D600008023260D3E90001FCF716FF08EE100AE2
:103D7000B5EEC08AF1EE10FA30D4FDEEC87A17EE37
:103D8000901A0195CDF800804B460A220029B8BF51
:103D9000494213A8FFF76CFE2E2113A8FFF7D8FDA8
:103DA000DFED1B7A28EE278ABDEEC88A18EE100ACE
:103DB0000028B8BF4042174B83FB0023C117C1EB5B
:103DC000A3110195CDF8008003230A224FF47A75E0
:103DD00005FB110113A8FFF74BFE63E72D2113A884
:103DE000FFF7B6FDC9E7169B002B05DD159A4AB90A
:103DF000159A169B13441693169819B0BDEC028BB6
:103E0000BDE8F08303A93846FFF716FDF0E700BFD1
:103E100000007A44D34D62100EB400B582B003ABFB
:103E200053F8041B019301AAFFF798FE02B05DF856
:103E300004EB03B07047000000B583B00223009389
:103E400000231A4619461846FFF712FD002000907D
:103E50004FF48063034A0449FFF744FD03B05DF863
:103E600004FB00BF58080020BC8E0008002301E0BE
:103E7000434040080028FBD103F0010070470000D8
:103E800000B587B0ADF80E00002201210D48FEF705
:103E900069FA4FF47A73009301230DF116020DF1C4
:103EA0000E010948FEF7A3FC10B10023ADF816304F
:103EB000012211460348FEF755FABDF8160007B077
:103EC0005DF804FB000002408802002008B547F6B8
:103ED000FE70FFF7CBFF012813D047F6FE70FFF707
:103EE000CFFF4FF48040FFF7CBFFC0F30D00064B30
:103EF00018604FF4C97303FB00F0044B18600448CA
:103F000008BD4FF6FE70EAE7600C0020580C002058
:103F1000640C0020034B044A1A60044A5A60044AA5
:103F20009A607047640C0020600C0020580C002040
:103F30005C0C002008B50021014800F007F808BD1E
:103F40000C00002008B500F00DF808BDCBB2012B25
:103F500005D8034B03EB011C0FC88CE80F0070471A
:103F60009C0C002038B51D4B1B7983B1032B10D05E
:103F700038BD1B4B03EB0413DB6803B198470134D6
:103F800064B2002CF5DD154B03221A71F0E7002412
:103F9000F7E7124A136801331360002401E001348B
:103FA00064B2002CE4DC0E4B03EB041359680029C7
:103FB000F5D023010A4AD25A002AF0D0074B1B68D9
:103FC000B3FBF2F002FB1033002BE8D18847054B1E
:103FD00003EB04150FC885E80F00E0E7940C002000
:103FE0009C0C0020740C002038B5C3B2012B22D8E1
:103FF0000C460301114AD35A7BB902EB0010436807
:1040000098470F4D0FC885E80F00012C0DD07CB1EB
:10401000022C11D10A4B98680EE0094D094B03EBB5
:1040200000100FC885E80F00EFE7054B586803E064
:10403000034B186800E0002038BD00BF9C0C002036
:10404000BC0C0020740C00208AB0F5EEC00AF1EE22
:1040500010FA2BDD0123DFED967A60EE277A77EEFA
:10406000E07AF6EE006A67EEA67AF5EEC07AF1EE37
:1040700010FA01DD0233DBB2DFED8E7A60EE277AD3
:1040800077EEE07AF6EE006A67EEA67AF5EEC07A91
:10409000F1EE10FA01DD0433DBB25A1E042A00F2FD
:1040A0009C80DFE802F005465B7085000023D2E7C4
:1040B000FFEE087A60EE277ADFED7F6A60EEA60AEF
:1040C00077EEA07ADFED7D6A67EEA67AB7EE087A22
:1040D00020EE077A30EE877A27EE267A77EE276A87
:1040E0009FED776AF4EEC66AF1EE10FA05DDC7EED1
:1040F000A67A77EE276A87EE267A37EE276ADFED13
:10410000706A76EEC66AB5EE006A66EE866AB6EE4C
:10411000006A67EE867A77EEA67A27EE067A37EEA1
:10412000277A013B052B6DD8DFE803F07B73A3AA48
:10413000B3BAF7EE087A20EE270ADFED5F7A60EE79
:10414000A77A70EE277A9FED5D7A67EE877ADFEDCA
:10415000586A60EEA60A27EE607ABFE7FFEE087A9B
:1041600020EE270ADFED547A60EEA77A70EE277A08
:104170009FED526A66EE677ADFED4D6A20EEA67A11
:1041800027EE067AAAE7DFED4A7A60EEA77A9FED7E
:104190004B6A66EE677AFFEE086A20EE267ADFED5C
:1041A000466A60EEA60A37EE207A27EE067A95E791
:1041B000DFED3F7A60EEA77ADFED406A67EEA67A20
:1041C000B7EE086A20EE060A9FED3B6A20EE867A7B
:1041D00030EE077A26EEC77A80E79FED377A20EE39
:1041E000877AF7EE086AF0EE477A40EE267ADFED3E
:1041F000336A66EEE77ABFEE086A00EE067A26EECC
:10420000C77A6BE79FED2F7AF0EE476AF0EE477AB8
:1042100007E017EE903AF0EE667AF0EE476A07EEA6
:10422000103A77EEA77A9FED266A76EE677A87EEE8
:10423000865A76EEA66A76EE666AC6EE865A37EE3D
:10424000077A36EE477AC7EE067A8DED045ACDED41
:10425000055ACDED067A04AB93E807000AAB03E9F3
:1042600007009DED070ADDED080A9DED091A0AB069
:10427000704717EE903AF0EE667A06EE903AD0E785
:1042800017EE903AF0EE477AB0EE667A06EE903A84
:10429000C7E717EE903AF0EE477A07EE103AC0E71C
:1042A00016EE903AF0EE476A07EE103AB9E700BF13
:1042B000D0B3DD3FD0B3DDBFD0B35D3F55558540B2
:1042C0000000C8420000000084B08DE80F00069B8B
:1042D000DDED017AB6EE006A67EE866A9DED007A42
:1042E00037EE667ADDED026A26EE866A37EE467AAA
:1042F0009FED096A27EE067A83ED007A9FED077A33
:1043000067EE877A66EE876A77EEE67A67EE867AF8
:10431000C3ED017A04B07047ABAA2A3FD0B35D3F2A
:1043200010B52DED048B84B004AC04E90F00B0EEA1
:10433000409A0A9C03F05AFCB0EE408ADDED009AE8
:1043400060EE298AB0EE490A03F088FCDDED017ABF
:1043500020EE277A78EE878AC4ED008A20EE690A7B
:1043600028EE278A30EE080A84ED010A04B0BDEC7D
:10437000048B10BD84B010B52DED068B044609A842
:1043800080E80E00F0EE409A9DED098A03F02EFCC5
:10439000F0EE408A28EE009A9DED0AAAB0EE690A76
:1043A00003F05CFC6AEE007A39EE679A84ED009ABD
:1043B00028EE008A68EE8A8A38EE288A84ED018A1F
:1043C0002046BDEC068BBDE8104004B070470000ED
:1043D00008B510EE100AFCF7B7F89FED0B1B41EC87
:1043E000100B03F075FC51EC100BFCF7D5FB00EE45
:1043F000100AB5EEC00AF1EE10FA00DB08BDDFEDE1
:10440000047A30EE270AF9E700000040FB2119404A
:10441000DA0FC940034B0322C3F88020024A9A6591
:1044200000207047200E002000007F43024B034A0B
:10443000C3F8842000207047200E0020C88E00089A
:10444000024B0422C3F8802000207047200E002079
:1044500038B330B583B00D4629B33A2100F0B6FC2D
:10446000044610B3437813B3013400E001342278DA
:10447000114BD35C13F0080FF8D101A9204601F0CD
:10448000E9FA019BA34215D01B7833B10A4A9B5C21
:1044900013F0080F01D100200AE085ED000A012089
:1044A00006E000207047002002E0002000E000202D
:1044B00003B030BD0020FBE77A8F000800B583B061
:1044C0000023019301A9FFF7C3FF10B1034B019A29
:1044D0005A65002003B05DF804FB00BF200E0020E9
:1044E00000B583B00023019301A9FFF7B1FF10B11C
:1044F000034B019ADA66002003B05DF804FB00BFAD
:10450000200E002000B583B00023019301A9FFF71E
:104510009FFF10B1034B019A9A66002003B05DF82B
:1045200004FB00BF200E002000B583B000230193E0
:1045300001A9FFF78DFF10B1034B019A9A64002087
:1045400003B05DF804FB00BF200E002010B582B060
:10455000044608490020FFF75FFC0023019301A9EE
:104560002046FFF775FF10B1034B019A1A64002033
:1045700002B010BDD48E0008200E0020A0B32DE99B
:10458000F0470F4691468046002405E01749FFF7A3
:1045900043FC002026E001344C451ED204EB4403CA
:1045A00007EB830A57F823603046FBF711FE0546F8
:1045B00002463146404600F016FC0028EBD118F8C0
:1045C00005303A2BE7D1DAF80830002BDED0002195
:1045D00040469847BAF8040004E005490020FFF778
:1045E0001BFC0020BDE8F08700207047E08E00082B
:1045F000F48E000808B503780BB943781BB1092283
:104600000149FFF7BBFF08BD1C00002010B5054C99
:104610002046FFF7EFFFF8220021204600F0CEFBF6
:1046200010BD00BFCC0C002008B5FEF70DFBFEF757
:104630004BFBFEF7EFFB08BD08B5FEF723FBFEF7CB
:10464000F1FB08BD08B52DED028B2D4A1388591CCE
:104650001180142B36D8B0EE408A294B00221A80E4
:10466000284BD3ED007A70EE677A9FED270A27EE8C
:10467000800ADFED267AB4EEE70AF1EE10FA24DDC7
:10468000B0EE677AC0EE077AF7EE006A77EEA67AA8
:10469000FDEEE77AF8EEE77A67EE877A30EE670AA2
:1046A0001B4800F0B2FADFED1B7A80EE277ADFEDCF
:1046B000167A87EE270ADFED187A20EE270A114BCB
:1046C00083ED008ABDEC028B08BDDFED147AB4EEF9
:1046D000E70AF1EE10FAE3D5F1EE406A9FED0B7AAE
:1046E000C6EE877AF7EE006A77EEA67AFDEEE77AF5
:1046F000F8EEE77A67EE877A30EE270AD0E700BF58
:10470000C40D0020C80D00200000C842DA0FC940C7
:10471000C40E00206F12033BEBC91841DA0FC9C069
:1047200084B070B52DED028B8CB005460DF14C0CAC
:104730008CE80E00B0EE408ADDED147ADDED136AF0
:10474000F1EE666ACDED136A9DED157AB1EE477A0A
:104750008DED147AF1EE677ACDED157A244CC4ED27
:10476000006A84ED017AC4ED027A08AE029617ABB6
:1047700093E803008DE803009CE80F00FFF7A4FD19
:1047800004AB0093B0EE480A96E80F00FFF7C8FDAF
:10479000DDED040AC4ED050A059BA36100232B602F
:1047A0006B60AB60EB6094ED128A94ED100A114BD4
:1047B000186800F04FFA85ED000A049BA36384EDAE
:1047C000190ADDED050AB0EE480A0B4B186800F037
:1047D00041FA85ED010A059B236584ED160A2846FA
:1047E0000CB0BDEC028BBDE8704004B0704700BF58
:1047F000200E0020CC0E0020D00E002030B52DED74
:10480000048B85B010EE104A10EE905A11EE100A8B
:104810008DED010ACDED020A8DED031AFBF794FE32
:1048200041EC190B2846FBF78FFE41EC180B204694
:10483000FBF78AFEB0EE492AF0EE692AB0EE481A7C
:10484000F0EE681A41EC100BFEF7DAF905B0BDEC9A
:10485000048B30BD84B010B52DED028B044605A845
:1048600080E80E00DDED058A28EEA87A9DED068A27
:1048700068EE087A77EE277A17EE900AFBF764FE67
:1048800041EC100B03F05AFA51EC100BFCF784F9D1
:1048900007EE900AB1EE007AF4EEC77AF1EE10FA64
:1048A00012DDF0EE476A86EEA77A68EE878AC4EDDD
:1048B000008A28EE078A84ED018A2046BDEC028B2F
:1048C000BDE8104004B07047C4ED008A84ED018A51
:1048D000F3E7000030B52DED028BA1B00368A3F61D
:1048E00049034268A2F65A0208EE102A6F4AD361C1
:1048F00007EE903AB8EEE70ADFED6D7A20EE270A70
:10490000B8EEC88ADFED6B7A28EE278AF1EE408A8E
:1049100078EEC88A684C204600F077F98DED140ACD
:10492000B0EE480A04F1080000F06FF98DED150AA9
:10493000B0EE680A04F1100000F067F98DED160A78
:104940005E4BB3F90030042B0BD8DFE803F0030A09
:104950007C240E005A490020FFF75EFA574B0222D2
:104960001A8021B0BDEC028B30BD504BD3ED107AD4
:10497000F5EE407AF1EE10FA06D1D3ED127AF5EEAB
:10498000407AF1EE10FAECD0484B00221A674B4BFC
:1049900003221A80E5E701210020FFF725FB0068CC
:1049A00000F094F9B0EE408AFFF74CFE3F4C84EDE6
:1049B000110AB1EE0C0A28EE008A424B93ED000A70
:1049C00038EE400AFFF704FDB0EE408A04AD17ABA5
:1049D00093E807008DE8070014AB0ECB2846FFF7DD
:1049E0009FFE84ED1C8A384B1A8801321A800022FF
:1049F0001A80364B1193002310930CAC139B009339
:104A000010AB0ECB9FED320A38EE400A2046FFF77E
:104A1000B1FC0F9B009394E80E002846FFF71AFFA5
:104A200095E80F0084E80F00DDED0D0A9DED0C0AFE
:104A3000FFF70AFB8DED1D0ACDED1E0A8DED1F1A45
:104A4000FFF7DCFE8DE700230893224B0993002338
:104A50000A930B93154B93ED1D7ADFED1F7AB4EE9D
:104A6000E77AF1EE10FA01DD00225A670F4B93ED61
:104A70001D0ADFED1A7A30EE270A83ED1D0A0B9B23
:104A8000009308AB0ECB0CA8FFF774FCDDED0D0A0C
:104A90009DED0C0AFFF7D8FA8DED1A0ACDED1B0A31
:104AA0008DED1C1AFFF7AAFE5BE700BF200E002069
:104AB00052B89E3E3333B33E080E0020D80E00207D
:104AC0006C8F0008CC0D0020C60D00209A99993EED
:104AD000D80FC93FCDCC4C3EDA0FC9406F12833A94
:104AE00070B52DED028B2448244B1860244E00F144
:104AF0001C033360234D244B2B60244CB9EE002A59
:104B0000F1EE001AB7EE001AD4ED1B0A94ED1A0A62
:104B100000F08CF8B9EE002AF1EE001AB7EE001A98
:104B2000D4ED1B0A94ED1A0A306800F07FF8B8EE55
:104B3000082AF0EE081AB7EE001AD4ED1B0A94ED1D
:104B40001A0A286800F072F89FED118A114CB0EE35
:104B5000480A204600F050F8B0EE480A04F1080078
:104B600000F04AF8B0EE480A04F1100000F044F8F2
:104B7000BDEC028B70BD00BFD00D0020CC0E00201C
:104B8000D00E0020D40E0020A80E0020200E002001
:104B90000000A042080E002008B5FFF737FD114BBA
:104BA0001B78042B11D0052B19D0012B00D008BD88
:104BB000FFF796FF9FED0C0A0C4800F01DF8FFF779
:104BC00033FD084B04221A70F1E7094BD3F8842017
:104BD000084B9A42EBD1034B05221A70E7E7FFF727
:104BE0002BFDE4E7880000200000A042C40E002056
:104BF000200E0020C88E0008B7EE007AC7EE007ABB
:104C0000C0ED007A00234360704790ED007A27EEF4
:104C1000000AF7EE007A77EEC77A90ED017A67EE38
:104C2000877A30EE270A80ED010A704780ED000A8E
:104C3000C0ED010A80ED031A002303614361FCEE1D
:104C4000E11A11EE903A0383BCEEC22A12EE103A3A
:104C50004383704730EE600AD0ED000A20EE800AF0
:104C6000D0ED040AD0ED017A67EE807A70EEA70AE3
:104C7000D0ED037A90ED057A67EE877A70EEA70A99
:104C8000C0ED040A70EE800A038B00EE103AF8EED5
:104C9000C07AF4EEE07AF1EE10FA06D5B8EE400AEA
:104CA00070EE600AC0ED050A7047438B00EE103AC3
:104CB000F8EEC07AF4EEE07AF1EE10FA02DDB8EE2A
:104CC000400AEDE7B0EE600AEAE70000002803DBE7
:104CD00090B14FF48A4305E040424FF4454301E070
:104CE0004000803B0028FBDA8030C0F3162000EB48
:104CF000034300EE103A70479FED010A704700BF72
:104D000000000000DFF834D00D480E490E4A0023A1
:104D100002E0D458C4500433C4188C42F9D30B4A6F
:104D20000B4C002301E013600432A242FBD3FDF7D9
:104D3000FBFB00F011F8FCF7B5F97047000002200A
:104D40000000002060020020E897000860020020B8
:104D5000F00E0020FEE7000070B50D4D0D4C641BF9
:104D6000A4100026A64209D10B4D0C4C04F070F89B
:104D7000641BA4100026A64205D170BD55F8043B63
:104D800098470136EEE755F8043B98470136F2E7BD
:104D9000E0970008E0970008E0970008E497000813
:104DA0000A44914200F1FF3300D1704710B511F869
:104DB000014B03F8014F9142F9D110BD0244034663
:104DC000934200D1704703F8011BF9E7C9B20346CB
:104DD00010F8012B1AB18A42F9D118467047002900
:104DE00018BF0023F9E710B57AB1034601398418DA
:104DF00013F8010B11F8012F904201D1A34201D108
:104E0000801A10BD0028F3D1FAE71046F9E770B513
:104E100004460D4645EC104B164601F06BFD51EC77
:104E2000100B7EB1C5F30A53C3F16B03002B09DDF0
:104E30001B0503F17F55002405F5401522462B463E
:104E4000FBF7DAFB70BD00002DE9F04F2DED028B72
:104E50009DB01F4600231893A24B13921B68059325
:104E6000044618468846FBF7B3F94FF0000A05469A
:104E70004FF0000BCDF85C80179B1A782B2A4ED090
:104E80003BD80D2A34D8082A34D8002A3ED0002333
:104E90000A93179E3378302B40F0B080737803F07C
:104EA000DF03582B68D10A9B019318AB029700933C
:104EB0008D4A19AB17A9204600F090FE10F00707A5
:104EC000054605D0062F2CD10136002317960A93EC
:104ED000139B002B40F090850A9BEBB152460BF1DF
:104EE000004343EC102B1DB0BDEC028BBDE8F08FEE
:104EF000202ACCD101331793BEE72D2AC7D1012236
:104F00000A925A1C17925B78002BC2D1139BCDF8E2
:104F10005C80002B40F06E8552465B46E1E7002244
:104F2000EEE7189A3AB135211AA801F0EEFD18996A
:104F3000204601F0ADF9013F042F06D8DFE807F065
:104F40000A0314170A00DDE91AAB2807C0D54BF095
:104F5000004BBDE7DDE91AA3199A23F4801302F28E
:104F6000334243EA025BF0E7DFF880B1EDE76FF030
:104F7000004B4FF0FF3AE8E7179B5A1C17925B78FB
:104F8000302BF9D0002BA3D001234FF0000904935C
:104F9000179B0893CDF81C904F460A221798067865
:104FA000A6F13003D9B209292AD905992A46FFF773
:104FB0001AFF98B3002032463D4605900346652A05
:104FC00001D0452A18D11DB9049A02439ED000256C
:104FD000DDF85C8008F10102179298F801202B2A75
:104FE00075D02D2A7BD04FF0000CA2F13001092999
:104FF00040F28280CDF85C8000269DE00023C4E76B
:10500000082FD8BF079900F10100DABF02FB013376
:10501000079302FB093901371790BFE7179B5A190D
:1050200017925A5D002F37D005903D46A2F130030C
:10503000092B12D90123C2E7179B5A1C17925A78E1
:105040000130302AF8D0A2F13103082B00F2D984C4
:10505000179B0590002008930546303A00F10103A4
:1050600014D00599194405912B4600EB050E0A2131
:10507000734513D12B18082B05F1010505441CDCE1
:1050800007990A2303FB012307930023179A511C56
:10509000179152781846C9E73846D2E7082B04DC46
:1050A000079E4E4307960133E2E703F1010CBCF182
:1050B000100FD8BF01FB09F9F5E7102DDCBF0A235B
:1050C00003FB0929E1E70023059301237CE74FF067
:1050D000000C08F10202179298F8022085E74FF0C1
:1050E000010CF6E77C9100088C9000080000F07F2E
:1050F000179A511C17915278302AF9D0A2F1310138
:1051000008293FF679AFA2F1300E179A0692179A46
:10511000511C17915278A2F13006092E37D9069EFC
:10512000891B082944F61F6602DC7645A8BF76462F
:10513000BCF1000F00D07642002D4DD104990143FF
:105140007FF4C6AE002B7FF4E1AE692A27D024DCC1
:10515000492A24D04E2A7FF4D9AE9F4917A800F0DF
:1051600095FF00283FF4D2AE179B1B78282B2DD13A
:105170009A491AAA17A800F09DFF052826D11B9B63
:10518000DDF868A043F0FF4B4BF4E00BA0E60A21EA
:1051900001FB0E2EAEF1300EB9E76E2ADBE7904927
:1051A00017A800F073FF00283FF4B0AE179B8D499D
:1051B000013B17A8179300F069FF10B9179B013343
:1051C0001793DFF830B24FF0000A81E6864801F00D
:1051D0008BFD5BEC10AB7BE6059B0798F31A002F69
:1051E00008BF2F46102D0693A846A8BF4FF0100801
:1051F000FBF788F9092D82468B4613DD7B4B03EBC9
:10520000C80353E91223FBF7F7F9824648468B4659
:10521000FBF778F902460B4650465946FBF736F83D
:1052200082468B460F2D38DC069B002B3FF450AE98
:1052300024DD162B0BDC6D4901EBC301D1E9000124
:1052400052465B46FBF7D8F982468B4640E6069A03
:10525000C5F12503934220DB644CC5F10F0504EB37
:10526000C50152465B46D1E90001FBF7C5F9069B33
:105270005D1B04EBC504D4E90023E3E7069B16336A
:105280000BDB059B9E1B594B03EBC606D6E900239F
:1052900050465946FBF7DAFAD6E7069BA5EB080815
:1052A0009844B8F1000F74DD18F00F030AD04F498D
:1052B00001EBC30152465B46D1E90001FBF79CF9C3
:1052C00082468B4638F00F084FD0B8F59A7F22DD22
:1052D00000252E46079505952223DFF818B1236097
:1052E0004FF0000A079B002B3FF4F2AD18992046BF
:1052F00000F0CEFF0599204600F0CAFF3146204657
:1053000000F0C6FF0799204600F0C2FF294620465C
:1053100000F0BEFFDCE5364B049300234FEA28186B
:10532000504659469946B8F1010F21DC0BB182462F
:105330008B462F4BABF1547B03EBC90952465B46BE
:10534000D9E90001FBF758F92A4B0A460B402A49D4
:105350008B428246BCD8A1F580118B4286BFDFF814
:105360009CB04FF0FF3A02F1547B0023049384E099
:1053700018F0010F05D0049BD3E90023FBF73CF99B
:105380000123049A083209F101094FEA68080492DE
:10539000C9E7EAD0C8F1000818F00F020AD0134B91
:1053A00003EBC20350465946D3E90023FBF74EFAFC
:1053B00082468B465FEA2818D7D0B8F11F0F1FDD51
:1053C00000252E460795059522234FF0000A4FF041
:1053D000000B236086E700BF89900008A0900008BA
:1053E00080900008839000085F93000850920008A6
:1053F000289200080000F07F0000A07CFFFFEF7FF4
:1054000018F0100318BF6A23DFF8AC9304935046DA
:105410005946002318F0010F04D0D9E90023FBF707
:10542000EBF801235FEA680809F10809F2D10BB132
:1054300082468B46049BC3B1CBF30A52C2F16B0385
:10544000002B594611DD1F2B40F32481342BDEBF86
:10545000C2F14B024FF0FF3303FA02F24FF0000AA1
:10546000CCBF4FF05C7B02EA010B002200235046C8
:105470005946FBF729FB0028A2D1079B0093089906
:105480002B463A46204600F06BFF079000283FF479
:105490001FAF059B9E1B069B002BB4BF334600230A
:1054A0000C93069B002523EAE37312932E46079B79
:1054B0002046596800F0ACFE059000283FF40CAF80
:1054C000079B1A69023203F10C0192000C30FFF7BE
:1054D00067FC4BEC10AB1AAA19A9204601F086FA1A
:1054E0004BEC18AB189000283FF4F6AE0121204693
:1054F00000F0D0FF064600283FF4EEAE199B049959
:10550000002BABBF0C9A129A129FDDF83090ACBF03
:1055100003EB0209D71A1A9AA3EB01089044A14B96
:1055200008F1FF389845C2F1360280F2C780A3EB3C
:1055300008031F2BA2EB03024FF0010100F3B1801F
:1055400001FA03F30D930023089309EB0208049B6F
:10555000C14517441F444B46A8BF4346BB42A8BFA2
:105560003B46002BC2BFA8EB0308FF1AA9EB0309B7
:105570000C9B002B17DD31461A46204601F04AF8F5
:10558000064600283FF4A8AE0146189A204600F0CF
:1055900097FF0B9000283FF49FAE1899204600F02B
:1055A00077FE0B9B1893B8F1000F00F38C80069BDD
:1055B000002B08DD129A0599204601F02BF8059082
:1055C00000283FF489AE002F08DD05993A462046B1
:1055D00001F07AF8059000283FF47EAEB9F1000F93
:1055E00008DD31464A46204601F06EF8064600289E
:1055F0003FF472AE059A1899204601F0F1F805467D
:1056000000283FF469AEC3680B930023C3603146A2
:1056100001F0CAF8002860DA0B9B53EA0A0340F055
:105620008280CBF31303002B7DD12BF000431B0DA5
:105630001B05B3F1D66F76D96B6913B92B69012BB2
:1056400071DD29460122204601F03EF8314605462B
:1056500001F0AAF8002866DD0499534A5B46002948
:1056600000F0818002EA0B01B1F1D66F7BDCB1F171
:105670005C7F7FF7A9AE4D4B504659460022FAF7A2
:10568000BBFF0B46034308BF222382468B4608BF5D
:1056900023602BE64FF0FF3202FA03F303EA0A0A13
:1056A000E3E6C8F17F4808F57F0808F57B4808F174
:1056B000E20801FA08F308930D9146E700230893E6
:1056C00001230D9341E718994246204600F0FCFF64
:1056D000189000287FF46BAFFEE55F466ED10B9A01
:1056E000CBF3130342B3324A934228D1049B514671
:1056F000EBB12D4B3B40B3F1D46F4FF0FF3219D8D3
:105700001B0DC3F16B0302FA03F3994217D1294B26
:105710009F4202D101313FF4DFAD234B3B4003F503
:10572000801B4FF0000A049B002BA4D1DEE54FF054
:10573000FF33EAE71346E8E753EA0A038CD0089BF5
:10574000DBB13B42EFD00B9B049A50465946C3B1A4
:10575000FFF75DFB02460B4651EC180BFAF796FD7E
:1057600082468B46DFE71340A3F580136FEA135B95
:105770006FEA0B5B4FF0FF3AD5E70D9B13EA0A0F78
:10578000E0E7FFF744FB02460B4651EC180BFAF733
:105790007BFD0022002382468B46FBF795F900280B
:1057A000C1D011E602FCFFFF0000F07F000050397D
:1057B000FFFF0F00FFFFEF7FB8900008314628463B
:1057C00001F070F959EC108B10EE100A00224FF026
:1057D00080434946FBF78CF900287AD00B9B002BBD
:1057E0004AD0954B0022CDE90823DFF84C924FF0C8
:1057F0000008924B3B400D930D9A914B9A4240F01A
:10580000B080DDE90801A7F1547B4BEC10ABCDE98A
:10581000080101F06FF8DDE9080153EC102BFAF7ED
:10582000EBFE52465B46FAF731FD0B468349854A4B
:1058300019409142824660D918EE903A02F15472B2
:10584000934204D118EE103A01333FF445ADDFF82E
:1058500000B24FF0FF3A1899204600F019FD059963
:10586000204600F015FD3146204600F011FD294686
:10587000204600F00DFD1AE6BAF1000F1BD1CBF364
:105880001303F3B96C4B002240464946FBF726F957
:10589000D0B9404649466C4B0022FAF7ADFE80462F
:1058A000894609F10043CDF850801593DDE91423B2
:1058B000CDE908239DE7BAF1010F02D1002F3FF493
:1058C00083AD624B00228EE7DFF87C914FF0000839
:1058D000E7E75D4B404649460022FAF78DFE0B9BF9
:1058E0008046894633B901F100430E900F93DDE9FC
:1058F0000E23DDE7CDE90E89F9E703F1547B049B24
:10590000002BA8D12BF000430D9A1B0D1B059A42CA
:10591000A1D140464946FBF7A7F9FAF73FFE0246F8
:105920000B4640464946FAF7AFFC0B9ACBF31303FC
:1059300043EA0A0313438046894655D036A3D3E988
:105940000023FBF7CBF800287FF4D0AC34A3D3E9D5
:10595000002340464946FBF7DFF800283FF47BAFC1
:10596000C4E4049B33B30D9BB3F1D46F22D82EA3B0
:10597000D3E9002340464946FBF7BAF8A0B14946AF
:105980004046FBF7E9F8012838BF0120FAF7BAFDD5
:105990000B9B8046894623BB01F100431090119375
:1059A000DDE91023CDE90823099B0D9A03F1D663A5
:1059B0009B1A0993DDE90801B0EE480AF0EE680A87
:1059C000CDE9080100F096FFDDE9080153EC102B4A
:1059D000FAF712FE53EC182BFAF758FC82468B4666
:1059E0008DE7CDE91089DBE711A3D3E90023FBF7AD
:1059F00075F8B2E700230A93139A179B1360FFF719
:105A00006BBA652A3FF45FAB452A3FF45CAB0123D8
:105A1000FFF794BBAFF300809535A094FFFFDF3F05
:105A200035E5AF350000E03F0000C0FFFFFFDF417C
:105A30009535A094FFFFCF3F0000F03F0000F07FBE
:105A40000000E07FFFFF9F7C0000E03F0000F0BF10
:105A5000FFFFEF7F2DE9F041DFF8AC80264B0A46CF
:105A60002DED028B0146D8F80000FFF7EDF955EC5B
:105A7000104B10EE102A10EE100A2B462946FBF7A9
:105A800055F890B1002D1D4809DA01F045F9B1EE45
:105A9000408AB0EE480ABDEC028BBDE8F081BDEC57
:105AA000028BBDE8F04101F037B920462946FBF7EB
:105AB00073F808EE100ADFED127AB0EEC87AB4EE91
:105AC000677AF1EE10FAE4DD25F000470D4B4FF058
:105AD000FF3220463946FBF729F840B9094B4FF011
