:020000040800F2
:1000000000000220C59600082511000829110008EB
:10001000391100083B1100083D11000800000000E4
:100020000000000000000000000000003F11000878
:1000300041110008000000004311000845110008AC
:1000400015970008159700081597000815970008E0
:1000500015970008159700081597000815970008D0
:1000600015970008159700081597000815970008C0
:1000700015970008159700081597000815970008B0
:1000800015970008159700085111000815970008EA
:100090001597000815970008159700081597000890
:1000A0001597000815970008159700081597000880
:1000B0001597000815970008159700081597000870
:1000C00015970008691100088511000815970008A8
:1000D0001597000815970008159700081597000850
:1000E00015970008159700080000000015970008F4
:1000F0001597000815970008159700081597000830
:10010000159700081597000815970008159700081F
:10011000159700081597000815970008159700080F
:1001200015970008159700081597000815970008FF
:1001300015970008159700081597000815970008EF
:1001400000000000000000000000000000000000AF
:1001500015970008159700081597000815970008CF
:1001600015970008159700081597000815970008BF
:100170001597000815970008159700080000000063
:10018000159700081597000815970008159700089F
:10019000159700081597000815970008159700088F
:1001A0001597000815970008159700080000000033
:1001B000159700081597000815970008159700086F
:1001C00015970008159700080000000000000000C7
:1001D000000000000000000015970008000000006B
:1001E000000000000000000000000000000000000F
:1001F0000000000000000000159700081597000897
:1002000015970008159700080000000015970008D2
:10021000159700081597000815970008159700080E
:100220001597000800000000159700080000000066
:1002300015970008159700080000000015970008A2
:1002400015970008159700081597000815970008DE
:1002500015970008159700081597000815970008CE
:1002600015970008159700081597000815970008BE
:100270001597000815970008159700080000000062
:10028000159700081597000815970008159700089E
:1002900000000000159700081597000800000000F6
:1002A0000000000015970008159700081597000832
:1002B000159700081597000815970008159700086E
:0C02C00015970008159700081597000816
:1002D00010B5054C237833B9044B13B10448AFF380
:1002E00000800123237010BD3002002000000000B8
:1002F00080CC000808B5034B1BB103490348AFF39A
:10030000008008BD000000003402002080CC0008FE
:10031000034613F8012B002AFBD1181A0138704745
:1003200001F0FF01102A2BDB10F0070F08D010F8A6
:10033000013B013A8B422DD010F0070F42B3F6D1AA
:10034000F0B441EA012141EA014122F007047FF0C3
:1003500000070023F0E80256083C85EA010586EA1A
:10036000010685FA47F5A3FA87F586FA47F6A5FA56
:1003700087F68EB9EED1F0BC01F0FF0102F0070262
:1003800032B110F8013B013A83EA010313B1F8D10D
:100390000020704701387047002D06BF35460338EE
:1003A000073815F0010F07D1013015F4807F02BF27
:1003B000013015F4C03F0130F0BC0138704700BF78
:1003C00081F0004102E000BF83F0004330B54FEA06
:1003D00041044FEA430594EA050F08BF90EA020F73
:1003E0001FBF54EA000C55EA020C7FEA645C7FEA06
:1003F000655C00F0E2804FEA5454D4EB5555B8BF29
:100400006D420CDD2C4480EA020281EA030382EA99
:10041000000083EA010180EA020281EA0303362D2B
:1004200088BF30BD11F0004F4FEA01314FF4801CFE
:100430004CEA113102D0404261EB410113F0004F10
:100440004FEA03334CEA133302D0524263EB4303C7
:1004500094EA050F00F0A780A4F10104D5F1200E65
:100460000DDB02FA0EFC22FA05F2801841F10001C0
:1004700003FA0EF2801843FA05F359410EE0A5F194
:1004800020050EF1200E012A03FA0EFC28BF4CF0C5
:10049000020C43FA05F3C01851EBE37101F000457B
:1004A00007D54FF0000EDCF1000C7EEB00006EEB88
:1004B0000101B1F5801F1BD3B1F5001F0CD3490812
:1004C0005FEA30004FEA3C0C04F101044FEA445269
:1004D00012F5800F80F09A80BCF1004F08BF5FEAF0
:1004E000500C50F1000041EB045141EA050130BDD0
:1004F0005FEA4C0C404141EB0101013C28BFB1F5E2
:10050000801FE9D291F0000F04BF01460020B1FA2C
:1005100081F308BF2033A3F10B03B3F120020CDAFF
:100520000C3208DD02F1140CC2F10C0201FA0CF0DD
:1005300021FA02F10CE002F11402D8BFC2F1200C42
:1005400001FA02F120FA0CFCDCBF41EA0C019040F8
:10055000E41AA2BF01EB0451294330BD6FEA040441
:100560001F3C1CDA0C340EDC04F11404C4F120022C
:1005700020FA04F001FA02F340EA030021FA04F33E
:1005800045EA030130BDC4F10C04C4F1200220FA95
:1005900002F001FA04F340EA0300294630BD21FAD3
:1005A00004F0294630BD94F0000F83F4801306BF99
:1005B00081F480110134013D4EE77FEA645C18BF8D
:1005C0007FEA655C29D094EA050F08BF90EA020F24
:1005D00005D054EA000C04BF1946104630BD91EA1C
:1005E000030F1EBF0021002030BD5FEA545C05D11F
:1005F0004000494128BF41F0004130BD14F580045E
:100600003CBF01F5801130BD01F0004545F0FE41D1
:1006100041F470014FF0000030BD7FEA645C1ABF06
:10062000194610467FEA655C1CBF0B46024650EA3D
:10063000013406BF52EA033591EA030F41F4002169
:1006400030BD00BF90F0000F04BF0021704730B5EF
:100650004FF4806404F132044FF000054FF00001C4
:1006600050E700BF90F0000F04BF0021704730B585
:100670004FF4806404F1320410F0004548BF40425A
:100680004FF000013EE700BF42004FEAE2014FEAAF
:1006900031014FEA02701FBF12F07F4393F07F4F8A
:1006A00081F06051704732F07F4208BF704793F08D
:1006B0007F4F04BF41F40021704730B54FF46074A0
:1006C00001F0004521F000411CE700BF50EA0102A3
:1006D00008BF704730B54FF000050AE050EA01024C
:1006E00008BF704730B511F0004502D5404261EBBC
:1006F00041014FF4806404F132045FEA915C3FF4FD
:10070000D8AE4FF003025FEADC0C18BF03325FEA99
:10071000DC0C18BF033202EBDC02C2F1200300FA4A
:1007200003FC20FA02F001FA03FE40EA0E0021FA6F
:1007300002F11444BDE600BF08B502460B4643EC87
:10074000172BB5EEC07BF1EE10FA03D4BDE80840DC
:1007500000F00AB8B1EE477B51EC170B00F004F83B
:10076000404261EB410108BD9FED0B6B41EC170B63
:100770009FED0B5B27EE066BBCEEC66BB8EE464BEF
:10078000A4EE457BFCEEC77B16EE101A17EE900A1E
:10079000704700BFAFF30080000000000000F03D94
:1007A000000000000000F04108B5124A1368013350
:1007B0001360127952B9104AA2FB0312120B41F2D4
:1007C000883101FB123212B90A4B1A6008BD0B4A7C
:1007D000A2FB0312120902EB820291008B42F5D1B7
:1007E0000821074804F01CFE0821064804F018FE02
:1007F000ECE700BF4C0200205917B7D1CDCCCCCCD0
:10080000000402580010025872B6FEE700B59DB011
:100810004C22002109A808F0B1FF2022002101A8E4
:1008200008F0ACFF022004F041FF00230093214BAD
:100830009A6922F440429A619B6903F44043009311
:10084000009B1C4B9B6913F4005FFAD002230993B1
:1008500001210C9140220D92129300221392042048
:100860001490222015901691179318930C23199326
:100870001A924FF440631B9309A802F03BFBA8B9FE
:100880003F23019303210291002303930823049340
:100890004023059306934FF480620792089301A8C2
:1008A00002F018FF20B91DB05DF804FBFFF7ACFFA4
:1008B000FFF7AAFF0048025800B5AFB0B8220021E8
:1008C000684608F05BFF4FF400220023CDE90023C7
:1008D000042302930C23039303230493022305931D
:1008E0000693C0230793684603F07EF910B92FB032
:1008F0005DF804FBFFF788FF70B504F093FFFFF786
:1009000085FFFFF7D9FF012008F0E2F900F048F871
:1009100007F06CF900F052F900F0FEF907F090FAD8
:1009200000F0ECF807F07AF81949002008F000FE12
:1009300008F05AF905460C4600231A4603F108064A
:1009400083B94FF47A7008F0FBF908F04DF9451BB4
:1009500061EB04040F4B1B68ED1A64EBE3742A4649
:100960003346EBE752080C4BA3FB0232D2090B498A
:10097000002008F0DDFD07F07DFB08F07DF8FFF7B3
:1009800013FF08F035F8012004F08CFFF5E700BFF5
:10099000A8CC00083006002073072877B8CC0008E0
:1009A0002DE9F0418CB000240794089409940A942E
:1009B0000B943F4BD3F8E02042F01002C3F8E02044
:1009C000D3F8E02002F010020192019AD3F8E0205F
:1009D00042F08002C3F8E020D3F8E02002F0800269
:1009E0000292029AD3F8E02042F00402C3F8E02019
:1009F000D3F8E02002F004020392039AD3F8E02037
:100A000042F00102C3F8E020D3F8E02002F0010236
:100A10000492049AD3F8E02042F00202C3F8E020E6
:100A2000D3F8E02002F002020592059AD3F8E02004
:100A300042F00802C3F8E020D3F8E03003F00803E6
:100A40000693069BDFF87480224648F28A014046EE
:100A500004F0E0FC174F224640F60801384604F047
:100A6000D9FC154E22460821304604F0D3FC48F24A
:100A70008A0307930125089509940A9407A940461B
:100A800004F0BEFB40F608030793089509940A9406
:100A900007A9384604F0B4FB082307930895099486
:100AA0000A9407A9304604F0ABFB0CB0BDE8F08116
:100AB00000440258000C025800040258001002586A
:100AC00008B501228021024804F0A4FC08BD00BF43
:100AD0000010025808B500228021024804F09AFC58
:100AE00008BD00BF0010025808B5012208210248C5
:100AF00004F090FC08BD00BF000C025810B58CB08B
:100B0000002409940A940B9424222146684608F094
:100B100035FE2648264B03604FF4801343600823BC
:100B20008360012303610422426104764376022339
:100B3000C36180F820408462C4620463C4630464B7
:100B400080F8444001F0D6F920BB0023099309A99D
:100B5000164802F003F900BB164B009306230193DD
:100B60000023029340F2FF72039204220492059341
:100B70008DF8213069460D4800F08EFC80B90E4B8F
:100B800000930C2301936946084800F085FC50B996
:100B90000CB010BDFFF738FED7E7FFF735FEDBE7F7
:100BA000FFF732FEEBE7FFF72FFEF1E75C020020D4
:100BB000002002400000B84F0800900C10B59AB019
:100BC0002422002111A808F0D9FD4022002101A80B
:100BD00008F0D4FD49484A4B03604FF4801343604A
:100BE0000023836001220261042141610376437680
:100BF000C26180F820308362C3620363C36303640D
:100C000080F8443001F076F9002865D13B4C20464D
:100C100002F056F93B4B11930623129300231393D2
:100C200040F2FF7214920422159216938DF86530EB
:100C300011A9204600F030FC002850D1324B01931E
:100C4000092302930123039340F2FF7304930422C8
:100C50000592002306938DF825300A928DF82C30EA
:100C60008DF82D308DF82E309C220C9280220D9222
:100C70008DF8383001A9214801F0F8FB002831D166
:100C8000224B019340F20F13029301A91B4801F07C
:100C9000EDFB50BB1E4B019340F21523029301A9BB
:100CA000164801F0E3FB18BB1A4B019340F21B33CB
:100CB00002930023039301A9104801F0D7FBD0B998
:100CC0000E4C40F2FF720021204601F083FA2046CC
:100CD00001F0D4FA1AB010BDFFF796FD96E7FFF7C2
:100CE00093FDABE7FFF790FDCAE7FFF78DFDD1E776
:100CF000FFF78AFDD8E7FFF787FDE1E7CC02002088
:100D0000002102400040C03A000180210002B025CD
:100D10002000F0141000C01010B59AB02422002159
:100D200011A808F02BFD4022002101A808F026FDA3
:100D30005848594B03604FF4801343600821816089
:100D40000023C360012202614161037642760421DF
:100D5000C16180F8203042628362C36280F838301B
:100D6000436303634FF48052C263036480F84430EA
:100D700001F0C0F8002872D1464C204602F0A0F8DD
:100D800001231193062312930023139340F2FF7261
:100D90001492042215921693189311A9204600F07C
:100DA0007BFB00285ED13D4B11930C23129311A9BC
:100DB000384800F071FB002857D1394B11931223AA
:100DC000129311A9334800F067FB002850D1354B2E
:100DD00011931823129311A92E4800F05DFB0028EF
:100DE00049D101230193092302930023039340F285
:100DF000FF7204920422059206930A928DF82C3019
:100E00008DF82D308DF82E309C220C9280220D9280
:100E10008DF8383001A91F4801F028FB70BB1F4B2B
:100E2000019340F20F13029301A91A4801F01EFB2F
:100E300038BB1B4B019340F21523029301A91548BF
:100E400001F014FB00BB174B019340F21B330293DC
:100E500001A9104801F00AFBC8B91AB010BDFFF78C
:100E6000D3FC89E7FFF7D0FC9DE7FFF7CDFCA4E7B3
:100E7000FFF7CAFCABE7FFF7C7FCB2E7FFF7C4FC1C
:100E8000CDE7FFF7C1FCD4E7FFF7BEFCDBE7FFF7D8
:100E9000BBFCE2E73C030020006002580200300483
:100EA0000004002A0008302E30B58FB000230993CB
:100EB0000A930B930C930D930368614A934208D0F5
:100EC000604A934237D0604A934200F08E800FB060
:100ED00030BD5E4A136801331360012B1DD05C4B9B
:100EE000D3F8E02042F00102C3F8E020D3F8E0306C
:100EF00003F001030293029B6023099303230A93E7
:100F000009A9544804F07CF900221146122004F08B
:100F100009FC122004F03CFCD9E74D4BD3F8D82053
:100F200042F02002C3F8D820D3F8D83003F02003D1
:100F30000193019BD3E7454A136801331360012BEA
:100F400045D0434BD3F8E02042F00102C3F8E02043
:100F5000D3F8E02002F001020492049AD3F8E020D2
:100F600042F00402C3F8E020D3F8E02002F00402CB
:100F70000592059AD3F8E02042F00202C3F8E0207F
:100F8000D3F8E03003F002030693069B0C23099389
:100F900003250A9509A92F4804F032F93023099353
:100FA0000A9500240B9409A92B4804F029F9099506
:100FB0000A950B9409A9294804F022F922462146F2
:100FC000122004F0AFFB122004F0E2FB7FE7204B7D
:100FD000D3F8D82042F02002C3F8D820D3F8D83074
:100FE00003F020030393039BABE7194BD3F8E020F6
:100FF00042F08072C3F8E020D3F8E02002F0807263
:101000000792079AD3F8E02042F00402C3F8E020E8
:10101000D3F8E03003F004030893089B03230993FB
:101020000A9309A90C4804F0EBF84FF080610846D8
:1010300004F04CFC4FF00061084604F047FC46E722
:1010400000200240002102400060025858020020A7
:1010500000440258000002580008025800040258D8
:1010600010B5054C40F2FF720021204601F0B2F8A5
:10107000204601F003F910BD3C03002008B50248EA
:1010800001F0A4F908BD00BF3C03002010B584B0F6
:101090001E4C0921204601F0C9F9019040F20F11C0
:1010A000204601F0C3F9029040F21521204601F0DC
:1010B000BDF9039040F21B31204601F0B7F907EE6D
:1010C000900AF8EE677A9FED127A67EE877AB0EEB3
:1010D000087A67EE877A9FED0F7A67EE877A0E4B74
:1010E000C3ED007A07F080FD002303F1080453B933
:1010F0009FED0A0A01A807F08BFB07F075FD084B6E
:101100001B682346F1E704B010BD00BFCC020020ED
:10111000000080377836B241540200200000000001
:1011200030060020FEE7000008B50249002008F064
:10113000FFF9FEE7D4CC0008FEE7FEE7FEE77047C4
:101140007047704708B504F09BFB07F009FD08BD28
:1011500008B5034800F034F8024800F031F808BD43
:101160005C020020CC02002008B5044804F074FDA5
:101170000349002008F0DCF908BD00BF4804002046
:10118000E0CC000808B5024805F0EEFB08BD00BF42
:101190004804002082B0074BD3F8F42042F002024A
:1011A000C3F8F420D3F8F43003F002030193019B59
:1011B00002B0704700440258704770477047000003
:1011C000F8B5044603681D685E689649964A9342DE
:1011D00018BF8B4240D1954B9F6807F01F0715F051
:1011E000020F10D016F0020F0DD0236E13F0100F67
:1011F00003D1236E43F400632366204601F035F9E2
:10120000236802221A6015F0040F02D016F0040FB2
:1012100005D115F0080F4FD016F0080F4CD0236EF3
:1012200013F0100F03D1236E43F400732366236879
:10123000DA6812F4406F39D17B4A93420ED01A46D5
:1012400093420ED0052F14BF002101214FB141B9A7
:10125000092F06D0D26805E0754BBDE7A2F5807274
:10126000EEE7DA6812F4005F20D11A6812F0080F76
:101270001CD09A6812F0040F10D15A6822F00C02A8
:101280005A60236E23F480732366236E13F4805F09
:101290000CD1236E43F00103236607E0236E43F075
:1012A00010032366636E43F0010363662046FFF775
:1012B00083FF23680C221A6015F0200F02D016F06D
:1012C000200F05D115F0400F63D016F0400F60D00D
:1012D000236E13F0100F03D1236E43F400532366E3
:1012E0002368DA6C12F4C07F19D10121DA6812F494
:1012F000406F16D101204C4A934214D01A469342B3
:1013000014D0062F14BF4FF0000C4FF0010C6FB13A
:10131000BCF1000F0AD1072F08D0D26807E00021E6
:10132000E4E70020E7E7A2F58072E8E7DA6851B366
:1013300012F0007F03D030B312F4005F23D119689C
:1013400011F0400F1FD012F4001F1CD19A6812F048
:10135000080F10D15A6822F060025A60236E23F4FD
:1013600080532366236E13F4807F0CD1236E43F0E9
:101370000103236607E0236E43F010032366636EC8
:1013800043F0010363662046FFF780FE2368602276
:101390001A6015F0800F02D016F0800F36D115F4C8
:1013A000807F02D016F4807F44D115F4007F02D0F4
:1013B00016F4007F4AD115F0100F20D016F0100F50
:1013C0001DD0E36B6BB1002F4ED023681549164A30
:1013D000934218BF8B4245D1144B9B6813F4404F86
:1013E0000AD0236E43F480632366636E43F00203E6
:1013F00063662046FFF7E2FE236810221A6015F4A8
:10140000806F02D016F4806F34D1F8BD236E43F4A0
:10141000803323662046FFF7D0FE236880221A60BF
:10142000BDE700BF0020024000210240002302402F
:1014300000630258236E43F400332366204601F014
:1014400012F823684FF480721A60AEE7236E43F4FB
:1014500080232366204601F007F823684FF40072CA
:101460001A60A8E70B4BB8E72368DB6813F0030F9B
:10147000C2D0B6E7236E43F480432366636E43F025
:101480000803636623684FF480621A60204600F008
:10149000E9FFBAE700630258F0B583B00022019279
:1014A00090F85C20012A00F042830346012280F874
:1014B0005C200268906810F0040F09D01A6E42F0A8
:1014C00020021A660120002283F85C2003B0F0BDE0
:1014D0009B4882420BD00868C0F31304002C52D101
:1014E000C0F3846001248440D0692043D0611D682A
:1014F0004C683035220A920002F00C02A85804F021
:101500001F0E1F2404FA0EF420EA04000C68C4F332
:10151000846C0CFA0EFC40EA0C00A8501C68A2680F
:1015200012F0040200D00122A06810F0080000D0E0
:101530000120024333D01A68906810F0010F40F088
:10154000F2820868CD687E4CA24200F09C81D2F8FD
:10155000C040C0F3130624EA060405F01805794ECE
:1015600026FA05F52840C0F313002043C2F8C00056
:10157000C868754A904200F098810A68002AC0F253
:10158000518200209FE790FAA0F030B1B0FA80F0CD
:1015900000F01F0001248440A6E72020F8E70F6830
:1015A0008D681434780E800000F004002658C7F3CC
:1015B000045E4FF0070C0CFA0EFC26EA0C0C05FA40
:1015C0000EF54CEA0505255018685D4CA04211D077
:1015D0005E4C246804F07044B4F1805F3FD0C4686E
:1015E00014F0100F42D14C69C568C5F382056D0037
:1015F000AC4005E04C69C568C5F3C1056D00AC4061
:101600000D69042D3AD14E4A904200F0A180026E3D
:1016100002F0F8420C68B2EB846F00F02581186884
:10162000426E02F0F8420C68B2EB846F00F0218148
:101630001868826E02F0F8420C68B2EB846F00F01A
:101640001D811868C26E02F0F8420C68B2EB846F1C
:101650007FF471AFC26E22F00042C2666BE74C6944
:10166000C568C5F382056D00AC40C9E74C69C56823
:10167000AD0805F004056D00AC40C1E70E6800F14F
:101680006007DFF8BCC0604529D057F8250000F09E
:10169000004006F0F8463443044347F825401868F4
:1016A000274CA04225D00E6991F82140012C40D052
:1016B0001546603050F8264024F000442C4340F892
:1016C00026401D680C69087E012835D0286920F461
:1016D000F04004F01F04A24002432A612BE757F8B0
:1016E000250006F0F846344344F0004447F825400E
:1016F000D5E70E69CC69603050F8265025F080752A
:101700002C4340F8264018680D6991F82040012CC0
:101710000CD00B4CA0427FF40EAF603050F8254047
:1017200024F00074224340F8252004E74FF00072B3
:10173000EFE74FF00045BCE74FF40062C6E700BF9B
:1017400000600258FFFF0F000000FF470010005C20
:10175000026E046EC4F384640A68C2F31305002D9C
:1017600036D1C2F3846294423AD01C68626E606ED5
:10177000C0F384600A68C2F31305002D3DD1C2F3A3
:101780008462904241D01C68A26EA06EC0F3846057
:101790000A68C2F31305002D44D1C2F3846290425B
:1017A00048D01C68E26EE06EC0F384600A68C2F341
:1017B0001305002D4BD1C2F3846290427FF4BBAE7F
:1017C000964A94424BD0E26E22F00042E266B2E6C4
:1017D00092FAA2F212B1B2FA82F2C4E72022C2E770
:1017E0008E4A904204D0026E22F000420266BCE7AC
:1017F000026E22F000420266B7E792FAA2F212B13C
:10180000B2FA82F2BDE72022BBE7844A944204D0B8
:10181000626E22F000426266B5E7626E22F000421C
:101820006266B0E792FAA2F212B1B2FA82F2B6E7B9
:101830002022B4E7794A944204D0A26E22F00042FA
:10184000A266AEE7A26E22F00042A266A9E792FA73
:10185000A2F212B1B2FA82F2AFE72022ADE7E26E55
:1018600022F00042E26666E6026E22F00042026664
:10187000D5E6426E22F000424266D9E6826E22F040
:1018800000428266DDE6D2F8B060C0F3130426EAB7
:10189000040605F01805624C24FA05F52840C0F34B
:1018A00013003043C2F8B00062E61C680A68C2F355
:1018B0001305002D34D1900E013000F01F000928CF
:1018C0008CBF00200120002861D0002D37D1900E60
:1018D0000130800600F0F840002D3CD1960E013614
:1018E00006F01F070126BE403043002D41D1920E65
:1018F000013202F01F0202EB420212050243886825
:101900001434550EAD0005F004056659C2F30452B7
:101910000727974026EA07069040304360512CE69F
:1019200092FAA2F048B1B0FA80F0013000F01F0046
:1019300009288CBF00200120C5E72020F5E792FA96
:10194000A2F030B1B0FA80F00130800600F0F8402B
:10195000C2E72020F8E792FAA2F646B1B6FA86F678
:10196000013606F01F06012707FA06F6BCE7202617
:10197000F6E792FAA2F242B1B2FA82F2013202F032
:101980001F0202EB42021205B8E72022F6E7CDB9AA
:10199000900E0130800600F0F840FDB9960E013639
:1019A00006F01F070126BE4030432DBB920E0132C8
:1019B00002F01F0202EB42021E3A120542F00072D0
:1019C00002439CE792FAA2F030B1B0FA80F0013005
:1019D000800600F0F840E0E72020F8E792FAA2F64F
:1019E00046B1B6FA86F6013606F01F06012707FA59
:1019F00006F6D9E72026F6E792FAA2F25AB1B2FA31
:101A000082F2013202F01F0202EB42021E3A12057C
:101A100042F00072D4E72022F3E700BF00600258D2
:101A2000FFFF0F0019684348434CA14218BF814291
:101A30000CBF0120002021D1404EB56805F0E077B1
:101A4000F0B13C48806810F0010000D001203A4C11
:101A5000A46814F0010400D0012420430CBF01202D
:101A60000020002859D03648824212D035488242A0
:101A700031D0354882423FD0002024E5334EDCE7A8
:101A80003348806810F0010000D0012080F0010090
:101A9000E7E715F4000FE9D12D4A914201D000206B
:101AA00011E547F40002B16821F0E0710A43B26029
:101AB000284A126892092849A1FB021292090132B0
:101AC0005200019202E0019A013A0192019A002A21
:101AD000F9D10020F7E415F0807FCAD11C4A914269
:101AE00001D00020EFE447F08072B16821F0E0718E
:101AF0000A43B2600020E6E415F4800F15D1144AC1
:101B0000914201D00020DEE447F48002B16821F068
:101B1000E0710A43B2600020D5E41A6E42F0200260
:101B20001A660120CFE40020CDE40020CBE402209F
:101B3000CCE400BF0020024000210240002302400C
:101B4000000052C7000021C3000084CB006302588C
:101B50000060025808000020632D3E0570B5044661
:101B60000068836813F0040300D00123826812F038
:101B7000080200D00122134367D0C36813F0007F2E
:101B800004D0228B40F201139A424AD002290ED08F
:101B900023689A6812F0040F09D09A6812F0020FB5
:101BA00005D198682A4A024042F010029A60012941
:101BB0000ED023689A6812F0080F09D09A6812F0C4
:101BC000020F05D19868224A024042F020029A6032
:101BD000022934D0032934D10C2503F05DFE0646DA
:101BE00023689B682B422ED003F056FE831B052BE7
:101BF000F6D923689B682B42F2D0236E43F0100382
:101C00002366636E43F00103636601201EE0236ECA
:101C100043F010032366636E43F001036366012003
:101C200014E00023026812F0400F04D1094A9342E5
:101C3000EDD80133F6E7402303600121A8E708252A
:101C4000CBE70425C9E7002000E0002070BD00BFFD
:101C5000C0FFFF7FFFDB0C0038B503689A6812F005
:101C6000010F56D1044699682B4A114209D0036EE0
:101C700043F010030366436E43F001034366012003
:101C800048E09968254A0A4042F001029A6003F050
:101C900003FE054623682249224A934218BF8B421D
:101CA0000DD102F50072926802F01F021D498B42AD
:101CB00007D01946994207D032B100202AE01A4ACB
:101CC000F1E7A1F58071F5E723681A6812F0010FBA
:101CD0001DD19A6812F0010F05D199680F4A0A4088
:101CE00042F001029A6003F0D7FD401B0228EBD9B5
:101CF00023681B6813F0010FE6D1236E43F0100335
:101D00002366636E43F001036366012002E0002056
:101D100000E0002038BD00BF3F000080C0FFFF7F13
:101D200000200240002102400063025838B50446FA
:101D30000268936813F0020300D00123916811F048
:101D4000010F37D0002B37D1936803F00D03012B1F
:101D500009D0236E43F010032366636E43F0010342
:101D60006366012027E09168144B0B4043F00203A7
:101D70009360236803221A6003F08EFD05462368F2
:101D80009B6813F0010F13D003F086FD401B02285F
:101D9000F5D923689B6813F0010FF0D0236E43F050
:101DA00010032366636E43F001036366012002E0C3
:101DB000002000E0002038BD0020FCE7C0FFFF7FCE
:101DC00010B5044603684449444A934218BF8B4205
:101DD0001CD1434B9B6813F4403F14BF01230023E5
:101DE00013B301F0C1FD6368B3F5003F16D0B3F53E
:101DF000403F17D0B3F5803F10D03A4B98424ED8B1
:101E00002268936823F44073936010BD364B9B683F
:101E100013F4403F14BF01230023E1E71B0CB0FB88
:101E2000F3F0EAE78008E8E74FF40020002102F031
:101E3000E7FE6368B3F5101F2DD022D8B3F5E01F7D
:101E400027D004D9B3F5001FD7D14009D5E7B3F5A2
:101E5000801F0DD006D9B3F5A01F09D0B3F5C01F60
:101E600006D0CAE7B3F5002F02D0B3F5402F04D156
:101E70009B0C5B00B0FBF3F0BFE7B3F5802FF7D00E
:101E8000BBE7B3F5201F08D0B3F5301FB5D1000A6A
:101E9000B3E70009B1E78009AFE7C009ADE7134B2D
:101EA000984207D82268936823F4407343F4807300
:101EB0009360AAE70E4B984207D82268936823F4F0
:101EC000407343F4007393609FE72268936843F480
:101ED0004073936099E700BF002002400021024058
:101EE0000023024021BCBE000063025841787D01FE
:101EF00081F0FA0230B583B000230193002800F08E
:101F000067810446036EEBB123689A6812F0005FA4
:101F100003D099689C4A0A409A6023689A6812F034
:101F2000805F1CD19968994A0A4042F080529A60B9
:101F3000974B1B689B09974AA2FB03239B0901331C
:101F4000019309E0FEF7B0FF0023636684F85C307C
:101F5000DAE7019B013B0193019B002BF9D1236838
:101F60009A6812F0805F40F0A280226E42F0100268
:101F70002266626E42F00102626601259A6812F0E2
:101F8000040200D00122216E11F0100F40F01881E0
:101F9000002A40F01581216E21F4817141F0020187
:101FA0002166996811F0010F21D17B487B498B4252
:101FB00018BF83420CBF012300237AD1816811F03E
:101FC000010100D001217548806810F0010000D0A7
:101FD000012001430CBF0121002141B1002B71D030
:101FE0006F486368816821F47C110B43836021682A
:101FF0006C4B994268D0627EE36B43EA4232A3683D
:102000001A4394F8203042EA034294F82030012B1E
:1020100074D0A36A23B103F47873E06A03431A43CC
:10202000604B99426FD0C8685F4B03401A43CA6047
:1020300021688B6813F0040300D001238A6812F032
:10204000080200D00122134322D1564B994267D097
:10205000227E236B43EA8232C868544B0340134309
:10206000CB6094F84430012B61D02268136923F0CF
:10207000010313612268136923F07043216C0B4341
:1020800013612268474B9A4202D02046FFF798FE20
:102090002369012B6FD02268136B23F00F031363A6
:1020A000236E23F0030343F0010323668DE0002534
:1020B00064E73C49896811F0010100D0012181F0F9
:1020C00001018AE73A488CE7607EE36B43EA4033DC
:1020D000E0680343A068082808D00C2805D01C2815
:1020E0000AD0182802D1024600E008221A4394F8C8
:1020F000203042EA034288E71022F7E7636A013B97
:1021000042EA434285E7C8682A4B03401A43CA6043
:102110002268136923F04063616B0B43136187E707
:10212000227E94F838305B0043EA823294E72168DB
:102130001C4B994210D00A691F4B1340A26C501ED1
:10214000E26C42EA0042206D0243606D0243134399
:1021500043F001030B618DE70A69184B1340A26C31
:10216000E06C0243206D0243606D0243134343F071
:1021700001030B617EE721680B6B23F00F03E2691B
:10218000013A13430B638BE7C0FFFF5FC0FFFF6F94
:1021900008000020632D3E0500200240002102407F
:1021A000002302400060025803C0F0FFFCBFFFFFA5
:1021B000006302580740F0FF1EF800FC1FF800FC07
:1021C000236E43F0100323660125284603B030BD7B
:1021D0000125FAE770B582B00023019390F85C30D6
:1021E000012B42D004460D461646012380F85C3090
:1021F000FFF79CFD00282FD1226E1D4B134043F0AA
:1022000002032366226891681A4B0B4005F480355F
:1022100006F0804635432B4343F000439360236828
:102220009B68002B06DB236E23F0030343F00103BE
:10223000236615E0019B01330193019A0E4B9A42EC
:10224000EDD3236E23F0120343F010032366002323
:1022500084F85C30012006E0236E43F0100323660F
:10226000002384F85C3002B070BD0220FBE700BFA1
:10227000FDEEFFFFC0FFFE3F00F8C32538B5044662
:1022800003684D494D4A934218BF8B4265D102F510
:102290000072956805F01F059A6812F0080F40F06B
:1022A0008780DA68DB6C13F4C07F01D1002A56DA2C
:1022B00094F85C30012B7DD0012384F85C302046FB
:1022C000FFF7CAFC00286FD1236E13F4807F4CD037
:1022D000636E23F008036366226E394B134043F4A8
:1022E000805323662368354A934241D01A4693426D
:1022F00000D01DB9226E22F48012226660221A607C
:10230000002384F85C302368DA6812F4001F03D0DD
:102310005A6842F480625A606369082B2BD02268A5
:10232000536823F0400353602268536843F020034E
:1023300053602368214A934228D01A46934228D0FA
:10234000062D14BF002201221DB312BB072D20D081
:10235000236E43F4801323662BE01A4A99E7236E19
:1023600043F020032366012023E000236366B3E7E4
:10237000A2F58072BBE72268536823F02003536004
:102380002268536843F040035360D2E7A2F580729D
:10239000D4E7DA6812F0007F0BD199680A4A0A4044
:1023A00042F008029A6004E0002384F85C3000E008
:1023B000022038BD0220FCE700200240002102403C
:1023C000FECFFFFF00630258C0FFFF7F90F85C3034
:1023D000012B26D010B50446012380F85C30022181
:1023E000FFF7BCFB68B92268536823F48C63536021
:1023F00023689B6813F0040F07D0236E23F48053E7
:102400002366002384F85C3010BD2046FFF78EFC65
:102410000028F6D1226E044B134043F001032366DB
:10242000EFE70220704700BFFEEEFFFF40F21523EA
:1024300099420FD040F21B33994207D040F20F135C
:1024400099420BD00368D3F8800070470368D3F833
:102450008C0070470368D3F8880070470368D3F88E
:10246000840070477047704770477047F0B583B07D
:102470000346002201920468006993F85C20012A57
:1024800000F06784012283F85C20A8B14A6A012A1F
:1024900012D0D86E002840F0B880DA6600229A6622
:1024A000CD6A002D00F0AE804A6A013A05F07C0545
:1024B0002A430D6B1543A9E04A68092A00F083807E
:1024C0001C68A26812F0080F21D1B44A94420CD0C3
:1024D0000A68C2F31300002840F0B680C2F3846299
:1024E00001209040E2690243E26191F82920002A2C
:1024F00040F0B6801C68E26822F4401291F82A503D
:1025000091F82800000540EA45500243E2601C684B
:10251000A26812F0040200D00122A06810F00800A6
:1025200000D00120024340F08782C86A18B1086BCE
:10253000002840F0A58091F82900012800F09A8039
:10254000E06820F00070E060002091F83440012C39
:1025500000F0A5801D682C6924F002042C611E681F
:102560000D6814364FEA556C4FEA8C0C0CF0040CD5
:1025700056F80C40C5F3045E072505FA0EF524EA6B
:1025800005048D6805FA0EFE44EA0E0446F80C4078
:102590001F68824CA74200F09E80814C246804F0A2
:1025A0007044B4F1805F00F0F080FC6814F0100F0C
:1025B00040F0FA804C69FD68C5F3820C4FEA4C0C80
:1025C00004FA0CFC8FE0CD6AB5B10868820E5202A5
:1025D00002F4785205F07C052A43086B0243E06C54
:1025E00020F07B4020F46F0020F43F4020F0FF00FB
:1025F0001043E0649A6663E70A68920E520202F49E
:102600007852ECE74A6A551E00E000250868C0F3DE
:1026100084604A6802F01F0200FA02F22A43D86E70
:102620000138D8669D6E2A439A6600287FF448AF29
:10263000E06C20F07B4020F46F0020F43F4020F05D
:10264000FF000243E2643BE792FAA2F232B1B2FA2F
:1026500082F202F01F020120904043E72022F8E7B7
:102660001868C26822F4401291F82A4042EA4452A3
:10267000C2604CE7E06840F00070E060002064E772
:1026800091F82900012805D0E06820F00070E06092
:1026900000205AE71C6E44F020041C6655E71D68B4
:1026A0003E4CA5420CD02E693E4C34408E6B771EBA
:1026B000CE6B46EA0746344344F002042C614EE7F1
:1026C0002C6924F4FF748E6BCF6B3E43344344F08B
:1026D00002042C6143E74C69FD68C5F3C10C4FEA65
:1026E0004C0C04FA0CFC0D69042D68D12B4A97425E
:1026F00000F0B7803A6E3C6EC4F384640D68C5F395
:102700001302002A40F03981C5F38462944200F03C
:102710003C811E68726E746EC4F384640D68C5F3E8
:102720001302002A40F04381C5F38462944200F012
:1027300046811E68B26EB46EC4F384640D68C5F33E
:102740001302002A40F04D81C5F38462944200F0E8
:1027500050811E68F26EF46EC4F384640D68C5F394
:102760001302002A40F05781C5F38462944240F07E
:1027700064810A4A964200F05681F26E02F00042ED
:1027800005F0F8451543F56657E14C69FD68C5F35A
:10279000820C4FEA4C0C04FA0CFCA4E700600258CF
:1027A0000010005C1DFE00FC4C69FD684FEA950CB2
:1027B0000CF0040C4FEA4C0C04FA0CFC93E70C6888
:1027C00007F16006DFF86CE277451CD056F82570FB
:1027D00007F0004704F0F8444CEA04043C4346F890
:1027E00025401C68934DAC4218D00E6991F82150D9
:1027F000012D33D0603454F8265025F000452A438B
:1028000044F8262019E156F8257004F0F8444CEA03
:10281000040444F0004446F82540E2E70F69CD691E
:10282000603454F8276026F08076354344F827500A
:102830001C680E6991F82050012D0CD07D4DAC42E2
:1028400040F0FB80603454F8265025F000752A4390
:1028500044F82620F1E04FF00072EFE74FF000421D
:10286000C8E73A6E3C6EC4F384640A68C2F3130589
:10287000002D36D1C2F3846294423AD01D686A6E4C
:102880006C6EC4F384640A68C2F31306002E3DD153
:10289000C2F38462944241D01D68AA6EAC6EC4F348
:1028A00084640A68C2F31306002E44D1C2F3846222
:1028B000944248D01D68EA6EEC6EC4F384640A68E2
:1028C000C2F31306002E4BD1C2F38462944240F04F
:1028D000B480584A95424BD0EA6E22F00042EA6634
:1028E000ABE092FAA2F212B1B2FA82F2C4E720226D
:1028F000C2E7504A974204D03A6E22F000423A664C
:10290000BCE73A6E22F000423A66B7E792FAA2F2CA
:1029100012B1B2FA82F2BDE72022BBE7454A9542E6
:1029200004D06A6E22F000426A66B5E76A6E22F051
:1029300000426A66B0E792FAA2F212B1B2FA82F2EB
:10294000B6E72022B4E73B4A954204D0AA6E22F0B3
:102950000042AA66AEE7AA6E22F00042AA66A9E784
:1029600092FAA2F212B1B2FA82F2AFE72022ADE7F8
:10297000EA6E22F00042EA665FE095FAA5F212B133
:10298000B2FA82F2C2E62022C0E62A4A974207D073
:102990003A6E02F0004205F0F84515433D66B8E690
:1029A0003A6E05F0F84242F000423A66B1E695FA16
:1029B000A5F212B1B2FA82F2B8E62022B6E61D4ABA
:1029C000964207D0726E02F0004205F0F8451543BA
:1029D0007566AEE6726E05F0F84242F0004272662D
:1029E000A7E695FAA5F212B1B2FA82F2AEE620227B
:1029F000ACE6104A964207D0F26E02F0004205F0B3
:102A0000F8451543F566A4E6F26E05F0F84242F08B
:102A10000042F2669DE695FAA5F212B1B2FA82F290
:102A2000A4E62022A2E6F26E05F0F84242F000424F
:102A3000F26602E00060025800201A68946814F000
:102A4000010F1DD10C68CE68AB4DAA421DD0D2F843
:102A5000C050C4F3130725EA070506F01806A74F70
:102A600027FA06F63440C4F313042C43C2F8C040DE
:102A7000CC68A34A94421AD009680029C0F2D580D4
:102A8000002283F85C2003B0F0BDD2F8B070C4F32C
:102A9000130527EA050706F01806984D25FA06F6ED
:102AA0003440C4F313043C43C2F8B040E0E71D686F
:102AB0000A68C2F31306002E37D1940E013404F0D5
:102AC0001F04092C8CBF00240124002C65D0002E8B
:102AD0003AD1940E0134A40604F0F844002E3FD1FC
:102AE000970E013707F01F0C012707FA0CF73C433C
:102AF000002E44D1920E013202F01F0202EB42027C
:102B0000120522438C681435560EB60006F00406F2
:102B1000AF59C2F304524FF0070C0CFA02FC27EA3B
:102B20000C0794403C43AC51A6E792FAA2F44CB196
:102B3000B4FA84F4013404F01F04092C8CBF00247F
:102B40000124C2E72024F5E792FAA2F434B1B4FAE2
:102B500084F40134A40604F0F844BFE72024F8E725
:102B600092FAA2F74FB1B7FA87F7013707F01F07BC
:102B70004FF0010C0CFA07F7B9E72027F5E792FAB6
:102B8000A2F242B1B2FA82F2013202F01F0202EB6B
:102B900042021205B5E72022F6E7D6B9940E0134B9
:102BA000A40604F0F84406BB970E013707F01F0C8B
:102BB000012707FA0CF73C4336BB920E013202F0B4
:102BC0001F0202EB42021E3A120542F0007222433B
:102BD00098E792FAA2F434B1B4FA84F40134A4066A
:102BE00004F0F844DFE72024F8E792FAA2F74FB1A7
:102BF000B7FA87F7013707F01F074FF0010C0CFAFF
:102C000007F7D8E72027F5E792FAA2F25AB1B2FA0D
:102C100082F2013202F01F0202EB42021E3A12055A
:102C200042F00072D3E72022F3E71C68354D364AA4
:102C3000944218BFAC420CBF0125002531D1A2F54A
:102C40008072926812F0010200D001222E4EB66806
:102C500016F0010600D0012632430CBF01220022EB
:102C6000002A70D035B3294DAA6802F0E077284ECB
:102C7000B14221D0274EB14256D0274EB1427FF407
:102C8000FFAE12F4800F7FF4FBAE1B4A94427FF438
:102C9000F7AE47F48002A96821F0E0710A43AA6008
:102CA000EEE6154A926812F0010200D0012282F08D
:102CB0000102D5E7194DD7E712F4000FDAD10E4A19
:102CC00094427FF4DDAE47F40002A96821F0E07180
:102CD0000A43AA60124A126892091249A1FB021221
:102CE000920901325200019202E0019A013A0192E6
:102CF000019A002AF9D1C3E600600258FFFF0F00D5
:102D00000000FF4700200240002102400023024053
:102D1000000052C7000021C3000084CB00630258AA
:102D200008000020632D3E0512F0807FA5D10A4ADD
:102D300094427FF4A5AE47F08072A96821F0E0715B
:102D40000A43AA609CE61A6E42F020021A6601202D
:102D500096E6022097E600BF0060025890F85C20DB
:102D6000012A00F0A18030B49CB00346012280F813
:102D70005C2000221892199200684C4A904242D07E
:102D800000220092009A002A41D0926812F00402B8
:102D900000D00122846814F0040F76D1002A74D187
:102DA000424C434A904218BFA04239D102F500720A
:102DB000086800283FD0906820F440404C682043C9
:102DC00090601868394D3A4CA04218BFA84229D1EA
:102DD000A86810F0010000D00120354CA46814F060
:102DE000010400D0012420430CBF01200020002852
:102DF00056D094682F4820400C68896821430843C6
:102E00009060002046E002F580720092BAE71A6EE8
:102E100042F020021A66002283F85C2001203CE088
:102E2000254AC5E72548806810F0010000D0012040
:102E300080F00100DBE7916821F44041916019685E
:102E40001A4C1B48814218BFA14215D1A16811F04C
:102E5000010100D001211648806810F0010000D067
:102E6000012001430CBF01210021D9B19068114913
:102E70000140916000200DE01049896811F00101C6
:102E800000D0012181F00101EFE71A6E42F020022B
:102E90001A660120002283F85C201CB030BC704709
:102EA0000020F7E70020F5E70220704700200240ED
:102EB00000210240E0F0FFFF00630258006002586A
:102EC00001688B6813F0040300D001238A6812F0B4
:102ED000080200D00122134307D1CA68044B1340F3
:102EE00043F00043CB60002070470120704700BFD3
:102EF000FFFFDF7F002800F0D78238B50446036863
:102F000013F0010F25D0A04A136903F03803926A29
:102F1000102B15D0182B0FD06368B3F5803F3FD02E
:102F2000002B53D1984B1A6822F480321A601A6829
:102F300022F480221A6038E002F00302022AEBD168
:102F4000914B1B6813F4003F03D06368002B00F023
:102F5000AD82236813F0020F00F088808A4A13695B
:102F6000926A13F038035AD0182B55D0E368002B1F
:102F700000F0A98084490A6822F0190213430B600B
:102F800002F08AFC0546804B1B6813F0040F40F0EA
:102F9000918002F081FC401B0228F4D903208CE2CE
:102FA000794A136843F48033136063682BB302F0EB
:102FB00073FC0546744B1B6813F4003FC9D102F043
:102FC0006BFC401B6428F5D9032076E2B3F5A02FF3
:102FD00009D06D4B1A6822F480321A601A6822F404
:102FE00080221A60E1E7684B1A6842F480221A6076
:102FF0001A6842F480321A60D7E702F04DFC0546A9
:10300000614B1B6813F4003FA3D002F045FC401B4A
:103010006428F5D9032050E212F0030FA6D15A4BD1
:103020001B6813F0040F03D0E368002B00F040820C
:10303000554A136823F01903E1680B43136002F04B
:103040002BFC0546504B1B6813F0040F06D102F011
:1030500023FC401B0228F5D903202EE24A4A53687C
:1030600023F0FE43216943EA01635360236813F0B0
:10307000100F51D0444A136903F03803926A082BA9
:1030800039D0182B33D0E369002B69D03E4A13683E
:1030900043F08003136002F0FFFB05463A4B1B68C8
:1030A00013F4807F53D102F0F7FB401B0228F5D9BF
:1030B000032002E2344A536823F0FE43216943EAC5
:1030C00001635360D2E7304A136823F001031360B1
:1030D00002F0E2FB05462C4B1B6813F0040FC5D031
:1030E00002F0DAFB401B0228F5D90320E5E102F0EB
:1030F0000302012AC7D1244B1B6813F4807F03D03D
:10310000E369802B40F0D6811F4AD36823F07C53BB
:10311000216A43EA0163D360236813F0080F49D0A2
:103120006369002B32D0184A536F43F00103536791
:1031300002F0B2FB0546144B5B6F13F0020F39D15E
:1031400002F0AAFB401B0228F5D90320B5E10E4A84
:10315000D36823F07C53216A43EA0163D360DBE741
:10316000094A136823F08003136002F095FB0546BB
:10317000054B1B6813F4807FCED002F08DFB401B03
:103180000228F5D9032098E1004402589D4A536F64
:1031900023F00103536702F07FFB0546994B5B6FF9
:1031A00013F0020F06D002F077FB401B0228F5D97E
:1031B000032082E1236813F0200F29D0A3699BB17B
:1031C000904A136843F48053136002F065FB054690
:1031D0008C4B1B6813F4005F1AD102F05DFB401B9F
:1031E0000228F5D9032068E1864A136823F4805346
:1031F000136002F051FB0546824B1B6813F4005F1D
:1032000006D002F049FB401B0228F5D9032054E107
:10321000236813F0040F21D1636A002B00F04C8166
:10322000784A126902F03802182A00F0F380022B63
:1032300075D0744A136823F08073136002F02CFB7E
:103240000446704B1B6813F0007F00F0D88002F03A
:1032500023FB001B0228F4D903202EE16A4A1368DD
:1032600043F48073136002F017FB0546664B1B683E
:1032700013F4807F06D102F00FFB401B6428F5D9C0
:1032800003201AE1A368012B0AD00BBB5D4B1A6F18
:1032900022F001021A671A6F22F004021A6704E092
:1032A000584A136F43F001031367A36833B302F066
:1032B000F3FA0546534B1B6F13F0020FACD102F02B
:1032C000EBFA401B41F288339842F3D90320F4E033
:1032D000052B09D04B4B1A6F22F001021A671A6FA7
:1032E00022F004021A67E0E7464B1A6F42F004022C
:1032F0001A671A6F42F001021A67D6E702F0CCFA99
:103300000546404B1B6F13F0020F85D002F0C4FA44
:10331000401B41F288339842F3D90320CDE0394A6B
:10332000136823F08073136002F0B6FA0546354B3C
:103330001B6813F0007F06D002F0AEFA401B022893
:10334000F5D90320B9E02F4B996A304A0A40A16AA7
:10335000E06A41EA00110A439A62226B013AC2F321
:103360000802616B0139490289B20A43A16B013934
:10337000090401F4FE010A43E16B0139090601F079
:10338000FE410A431A63DA6A22F00102DA62596BDB
:103390001F4A0A40A16C42EAC1025A63DA6A22F06B
:1033A0000C02216C0A43DA62DA6A22F00202616CD2
:1033B0000A43DA62DA6A42F48032DA62DA6A42F4A2
:1033C0000032DA62DA6A42F48022DA62DA6A42F0C1
:1033D0000102DA621A6842F080721A6002F05CFA46
:1033E0000446084B1B6813F0007F06D102F054FA24
:1033F000001B0228F5D903205FE000205DE00020DB
:103400005BE000BF00440258004802580CFCFFFF7C
:103410000700FFFF30498A6A086B012B4ED002F08B
:103420000303A16A8B424BD1C2F30512E36A9A42AD
:1034300048D1C0F30802236B013B9A4244D1C0F348
:103440004622636B013B9A4240D1C0F30642A36B14
:10345000013B9A423CD1C0F30660E36B013B9842CA
:1034600038D11D4B5B6BC3F3CC03A26C9A4201D1E4
:10347000002022E0184AD36A23F00103D36202F04D
:103480000BFA054602F008FAA842FBD0124A516B2B
:10349000124B0B40A16C43EAC1035363D36A43F060
:1034A0000103D362002008E001207047012004E0FE
:1034B000012002E0012000E0002038BD0120FCE7EF
:1034C0000120FAE70120F8E70120F6E70120F4E700
:1034D0000120F2E70120F0E7004402580700FFFF57
:1034E000744B1B6903F03803102B00F0DE80182B9F
:1034F00010D00BB1704870476E4B1B6813F0200F53
:1035000000F0D5806B4B1868C0F3C1006B4B23FAF9
:1035100000F0704710B4674A916A01F00301946AA1
:10352000C4F30510D36A03F0010C536BC3F3CC034F
:103530000CFB03F307EE903AF8EE677A14F47C7F05
:1035400000F09380012965D0022900F09180E1B15B
:1035500007EE100AF8EE476A9FED596A86EE267A62
:10356000544B1B6BC3F3080306EE903AF8EE666A01
:103570009FED546A67EE867A76EEA77AF7EE006AD8
:1035800077EEA67A27EE277A60E0136813F0200F13
:1035900023D011461268C2F3C102484BD34007EE54
:1035A000103AF8EE476A07EE100AB8EE476A86EE60
:1035B000867A0B6BC3F3080306EE903AF8EE666A60
:1035C0009FED406A67EE867A76EEA77AF7EE006A9C
:1035D00077EEA67A27EE277A38E007EE100AF8EEA3
:1035E000476A9FED396A86EE267A324B1B6BC3F32E
:1035F000080306EE903AF8EE666A9FED326A67EECF
:10360000867A76EEA77AF7EE006A77EEA67A27EE4C
:10361000277A1BE007EE100AF8EE476A9FED286A4A
:1036200086EE267A234B1B6BC3F3080306EE903A13
:10363000F8EE666A9FED236A67EE867A76EEA77AE1
:10364000F7EE006A77EEA67A27EE277A194B1B6B06
:10365000C3F34623013307EE903AF8EE677AC7EEDC
:10366000276AFCEEE67A17EE900A5DF8044B704785
:1036700007EE100AF8EE476A9FED146A86EE267A86
:103680000C4B1B6BC3F3080306EE903AF8EE666A28
:103690009FED0C6A67EE867A76EEA77AF7EE006AFF
:1036A00077EEA67A27EE277AD0E7094870470348D5
:1036B000704700BF0044025800093D000090D0034D
:1036C0000024744A000000390024744C001B374B5E
:1036D000001BB700002800F0328170B50D4604468B
:1036E0009B4B1B6803F00F038B420BD2984A136865
:1036F00023F00F030B431360136803F00F038B4297
:1037000040F01F81236813F0040F0CD02269914B05
:103710009B6903F070039A4205D98E498B6923F0A7
:1037200070031A438A61236813F0080F0CD0626992
:10373000884BDB6903F070039A4205D98549CB6950
:1037400023F070031A43CA61236813F0100F0CD0E2
:10375000A269804BDB6903F4E0639A4205D97D4995
:10376000CB6923F4E0631A43CA61236813F0200F86
:103770000CD0E269774B1B6A03F070039A4205D9BB
:1037800074490B6A23F070031A430A62236813F02A
:10379000020F0CD0E2686F4B9B6903F00F039A4253
:1037A00005D96C498B6923F00F031A438A6123689A
:1037B00013F0010F41D0674A936923F47063A16845
:1037C0000B4393616368022B0AD0032B27D0012B94
:1037D0002CD0604A126812F0040F06D10120ADE02F
:1037E000126812F4003F00F0AE805A490A6922F0D4
:1037F000070213430B6102F04FF80646554B1B6955
:1038000003F038036268B3EBC20F16D002F044F83D
:10381000801B41F288339842F0D903208EE04D4A54
:10382000126812F0007FE0D1012087E0494A126857
:1038300012F4807FD9D1012080E0236813F0020FB9
:103840000CD0E268434B9B6903F00F039A4205D208
:1038500040498B6923F00F031A438A613C4B1B6874
:1038600003F00F03AB420AD9394A136823F00F0360
:103870002B431360136803F00F03AB4265D1236839
:1038800013F0040F0CD02269324B9B6903F07003D4
:103890009A4205D22F498B6923F070031A438A613B
:1038A000236813F0080F0CD062692A4BDB6903F020
:1038B00070039A4205D22749CB6923F070031A435B
:1038C000CA61236813F0100F0CD0A269214BDB6989
:1038D00003F4E0639A4205D21E49CB6923F4E06306
:1038E0001A43CA61236813F0200F0CD0E269194B08
:1038F0001B6A03F070039A4205D216490B6A23F043
:1039000070031A430A62FFF7EBFD12498B69C3F398
:103910000323114AD35C03F01F03D8408B6903F0E3
:103920000F03D35C03F01F0320FA03F30B4A136069
:103930000B4B18600B4B186801F04CFF70BD012059
:1039400070470120FAE70120F8E70120F6E700BF01
:103950000020005200440258ECCC00080C0000206B
:10396000080000200400002008B5FFF7B9FD0B4A4D
:103970009369C3F303230A49CB5C03F01F0320FAC6
:1039800003F3926902F00F02885C00F01F0023FA33
:1039900000F0044A1060044A136008BD0044025855
:1039A000ECCC00080C0000200800002008B5FFF750
:1039B000DBFF054BDB69C3F30213044AD35C03F05E
:1039C0001F03D84008BD00BF00440258ECCC0008DB
:1039D000404B9B6A03F00303032B79D070B5054677
:1039E0000E463C4A136823F08063136001F054FFD5
:1039F0000446384B1B6813F0006F06D001F04CFFF3
:103A0000031B022BF5D9032070BD324B9A6A22F4B6
:103A10007C32296842EA01329A626A68013AC2F34A
:103A20000802A9680139490289B20A43E9680139E3
:103A3000090401F4FE010A4329690139090601F06C
:103A4000FE410A439A63DA6A22F0C00269690A43B6
:103A5000DA62DA6A22F02002A9690A43DA62DA6AD3
:103A600022F01002DA62D96B1B4A0A40E96942EA85
:103A7000C102DA63DA6A42F01002DA62C6B91A46A3
:103A8000DB6A43F40023D362124A136843F0806375
:103A9000136001F001FF04460E4B1B6813F0006F2A
:103AA00014D101F0F9FE001B0228F5D90320ABE781
:103AB000012E05D0074AD36A43F40013D362E3E72B
:103AC000044AD36A43F48013D362DDE700209BE706
:103AD00001207047004402580700FFFF404B9B6ADB
:103AE00003F00303032B79D070B505460E463C4A1C
:103AF000136823F08053136001F0CEFE0446384B68
:103B00001B6813F0005F06D001F0C6FE031B022BFA
:103B1000F5D9032070BD324B9A6A22F07C72296875
:103B200042EA01529A626A68013AC2F30802A9683D
:103B30000139490289B20A43E9680139090401F4EB
:103B4000FE010A4329690139090601F0FE410A43D1
:103B50001A64DA6A22F4406269690A43DA62DA6A4C
:103B600022F40072A9690A43DA62DA6A22F48072E6
:103B7000DA62596C1B4A0A40E96942EAC1025A6496
:103B8000DA6A42F48072DA62C6B91A46DB6A43F432
:103B90008003D362124A136843F08053136001F02C
:103BA0007BFE04460E4B1B6813F0005F14D101F03E
:103BB00073FE001B0228F5D90320ABE7012E05D0C8
:103BC000074AD36A43F08073D362E3E7044AD36AB7
:103BD00043F40003D362DDE700209BE70120704738
:103BE000004402580700FFFFF8B50446036813F0CD
:103BF000006F30D0436EB3F5001F26D00ED8EBB166
:103C0000B3F5801F07D102210830FFF7E1FE05461A
:103C100045B12E4621E0012635461EE0B3F5401F92
:103C200009D100259F4A136D23F44013616E0B43A5
:103C30001365002611E0012635460EE0994AD36A45
:103C400043F40033D3620025ECE702212830FFF76C
:103C500045FF0546DCE700263546236813F4807FE0
:103C600027D0A36D042B20D8DFE803F00311180838
:103C700008008C4AD36A43F40033D362C5B9894A39
:103C8000136D23F00703A16D0B43136511E00021B1
:103C900004F10800FFF79CFE0546EFE7002104F160
:103CA0002800FFF71BFF0546E8E70126354600E040
:103CB0002E46236813F4806F22D0D4F8A430B3F5D5
:103CC000800F3FD00DD8BBB3B3F5001F06D1002144
:103CD00004F10800FFF77CFE054608E001263546A2
:103CE0000EE0B3F5000F02D0B3F5200F1ED185BB57
:103CF0006C4A936D23F46003D4F8A4100B439365CE
:103D0000236813F4006F39D0D4F8A830B3F1007FE2
:103D10005AD023D8002B51D0B3F1807F1BD1002182
:103D200004F10800FFF754FE05461DE0B3F5C00F8F
:103D3000DDD001263546E3E75A4AD36A43F400331F
:103D4000D362D4E7002104F12800FFF7C7FE05463F
:103D5000CDE72E46D4E7012635460FE0B3F1806F5C
:103D600002D0B3F1A06F23D1002D34D14D4A936D11
:103D700023F0E063D4F8A8100B439365236813F095
:103D8000007F31D0E36C202B42D029D833B1102BE7
:103D900023D1444AD36A43F40033D362002D3ED189
:103DA000404AD36C23F03003E16C0B43D3641BE037
:103DB000B3F1407FD8D001263546DFE7394AD36AD0
:103DC00043F40033D362CFE7002104F12800FFF76A
:103DD00085FE0546C8E72E46D0E70126354603E0B6
:103DE000302BDBD001263546236813F4805F3BD0AF
:103DF000E36DB3F5005F2FD016D83BB3B3F5805F0A
:103E00000FD1002104F10800FFF7E2FD054611E0A3
:103E1000022104F10800FFF7DBFD0546BEE72E4650
:103E2000E2E7012635461FE0B3F5405F02D0B3F567
:103E3000804F08D1BDB91B4A136D23F4E043E16DF7
:103E40000B43136510E0012635460DE0154AD36A91
:103E500043F40033D362EDE7002104F12800FFF7BB
:103E60003DFE0546E6E72E46236813F4005F29D0A1
:103E7000236EB3F5003F44D019D843B1B3F5803F6A
:103E800012D1012104F10800FFF7A2FD0546002D23
:103E90003ED1044A136D23F4E023216E0B431365D6
:103EA00010E000BF00440258012635460AE0B3F591
:103EB000802FECD0B3F5A02FE9D0B3F5403FE6D08A
:103EC00001263546236813F4804F31D0D4F8AC3046
:103ED000B3F1005F45D020D843B1B3F1805F19D171
:103EE000012104F10800FFF773FD0546002D3FD1C5
:103EF0008F4A936D23F0E043D4F8AC100B439365E5
:103F000016E0012104F12800FFF7E8FD0546BEE7B1
:103F10002E46D7E7012635460AE0B3F1804FE5D0BB
:103F2000B3F1A04FE2D0B3F1405FDFD001263546B8
:103F3000236813F4004F09D0E36EB3F1805F19D00A
:103F4000B3F1005F24D0D3B101263546236813F0C6
:103F5000807F33D0A36C032B5BD8DFE803F02722EC
:103F60005327012104F12800FFF7B8FD0546BDE7FE
:103F70002E46DDE76E4AD36A43F40033D36275B947
:103F80006B4A136D23F04053E16E0B431365DDE77D
:103F9000012104F10800FFF71BFD0546EFE72E465F
:103FA000D4E7634AD36A43F40033D362A5BB604AC3
:103FB000D36C23F00303A16C0B43D364236813F485
:103FC000800F2BD1236813F0010F00F0A380A36FA3
:103FD000282B00F29D80DFE803F08B9B9B9B9B9B33
:103FE0009B9B859B9B9B9B9B9B9B949B9B9B9B9B3E
:103FF0009B9B8B9B9B9B9B9B9B9B8B9B9B9B9B9B31
:104000009B9B8B00022104F10800FFF7E1FC0546B1
:10401000CCE701263546D1E72E46CFE7454A13685F
:1040200043F48073136001F037FC0746414B1B6873
:1040300013F4807F05D101F02FFCC01B6428F5D953
:104040000325002D4AD13A4B1B6FD4F8B0205340C2
:1040500013F4407F0CD0364B1A6F22F44072196F64
:1040600041F480311967196F21F4803119671A679B
:10407000D4F8B030B3F5807F15D08DBBD4F8B03014
:1040800003F44072B2F5407F1ED0294A136923F42D
:104090007C53136126490B6FD4F8B020C2F30B0296
:1040A00013430B678EE701F0F7FB0746204B1B6FAE
:1040B00013F0020FE1D101F0EFFBC01B41F2883396
:1040C0009842F3D90325D8E71948026922F47C52B3
:1040D000194901EA131313430361DBE72E4671E725
:1040E0002E466FE7012104F10800FFF771FC054639
:1040F000E5B90F4A536D23F03803A16F0B435365A5
:1041000008E0012104F12800FFF7E8FC0546EFE78D
:1041100001263546236813F0020F1DD0636F052B6F
:104120002ED8DFE803F0110B261111112E46F1E70E
:104130000044025800480258CFFFFF00012104F15B
:104140000800FFF745FC0546EDB9A94A536D23F079
:104150000703616F0B435365236813F0040F23D0EB
:10416000D4F89030052B45D8DFE803F0150F3D1546
:104170001515012104F12800FFF7B0FC0546E3E71F
:1041800001263546E8E72E46E6E7012104F108005E
:10419000FFF71EFC054685BB954A936D23F0070388
:1041A000D4F890100B439365236813F0200F34D09C
:1041B000D4F88C30B3F1005F4ED023D843B1B3F1C3
:1041C000805F1CD1002104F10800FFF701FC0546C7
:1041D000002D48D1864A536D23F0E043D4F88C106B
:1041E0000B43536519E0012104F12800FFF776FC29
:1041F0000546D0E701263546D6E72E46D4E7012608
:1042000035460AE0B3F1804FE2D0B3F1A04FDFD0E2
:10421000B3F1405FDCD001263546236813F0400F30
:1042200031D0D4F89830B3F5006F4DD020D843B1D9
:10423000B3F5806F19D1002104F10800FFF7C8FB26
:104240000546002D47D16A4A936D23F4E053D4F814
:1042500098100B43936516E0022104F12800FFF744
:104260003DFC0546B4E72E46D7E7012635460AE071
:10427000B3F5805FE5D0B3F5A05FE2D0B3F5406F52
:10428000DFD001263546236813F0800F33D0D4F8F1
:104290009C30B3F5804F00F0A18021D843B1B3F535
:1042A000005F1AD1002104F10800FFF791FB0546D9
:1042B000002D40F09A804E4A936D23F46043D4F869
:1042C0009C100B43936516E0022104F12800FFF7D0
:1042D00005FC0546B5E72E46D5E7012635460AE03A
:1042E000B3F5004FE4D0B3F5204FE1D0B3F5C04FA4
:1042F000DED001263546236813F0080F0CD0D4F821
:104300008030B3F5805F75D0394A536D23F4405344
:10431000D4F880100B435365236813F0100F0CD0B2
:10432000D4F89430B3F5807F6DD0314A936D23F487
:104330004073D4F894100B439365236813F4002F53
:104340000BD0D4F8A030B3F5803F75D0B3F5003F63
:1043500068D0002B60D001263546236813F4802FE7
:104360000CD0D4F88430B3F5001F7DD0B3F5401FD6
:1043700070D0B3F5801F68D001263546236813F44A
:10438000803F08D0236D002B77D0B3F5803F00F03D
:10439000828001263546236813F0005F40F0848058
:1043A000236813F4003F00F08C80E36FB3F5807F47
:1043B00000F0DF8040F28280B3F5007F03D0B3F5D8
:1043C000407F40F0D480002D40F0D980084A536DE2
:1043D00023F44073E16F0B43536572E0022104F153
:1043E0002800FFF77BFB054662E72E4683E700BF08
:1043F00000440258022104F12800FFF76FFB002857
:1044000082D0012680E7022104F12800FFF766FB35
:1044100000288AD0012688E7002104F10800FFF770
:10442000D7FA05467DB9724A936D23F44033D4F828
:10443000A0100B43936590E7022104F12800FFF7D9
:104440004DFB0546EEE72E4687E7694AD36A43F4FB
:104450000033D3627DB9664A536D23F44013D4F818
:1044600084100B43536589E7012104F12800FFF70D
:1044700035FB0546EEE72E4680E75D4AD36A43F4F6
:104480000033D36275B95A4AD36C23F48033216D5B
:104490000B43D3647FE7022104F10800FFF798FA89
:1044A0000546EFE72E4676E7022104F12800FFF7E4
:1044B00015FB00283FF474AF012671E7002B82D072
:1044C0000126236813F4801F06D0494A136D23F098
:1044D0000043216F0B431365236813F4001F06D0BC
:1044E000434A136D23F08073A16E0B431365236859
:1044F00013F0804F09D03E4B1A6922F400421A6132
:104500001A69D4F8B4100A431A612368002B06DA3A
:10451000374AD36C23F04053616D0B43D364236857
:1045200013F4000F07D0324A536D23F44003D4F83C
:1045300088100B435365636813F0010F21D1636842
:1045400013F0020F26D1636813F0040F2BD16368B8
:1045500013F0080F30D1636813F0100F35D1636882
:1045600013F0200F3AD106B101263046F8BD0126DE
:10457000A7E71F4AD36A43F40033D36223E72E46EA
:104580009FE7002104F10800FFF722FA0028D6D0A7
:104590000646D4E7012104F10800FFF719FA0028C4
:1045A000D1D00646CFE7022104F10800FFF710FA48
:1045B0000028CCD00646CAE7002104F12800FFF706
:1045C0008DFA0028C7D00646C5E7012104F128006E
:1045D000FFF784FA0028C2D00646C0E7022104F1A2
:1045E0002800FFF77BFA0028BDD00646BBE700BFD6
:1045F0000044025808B5FFF7B7F9054B1B6AC3F32F
:104600000213044AD35C03F01F03D84008BD00BF67
:1046100000440258ECCC000810B5774A916A946ABD
:10462000C4F3053ED36AC3F3001CD36BC3F3CC03BE
:104630000CFB03F314F47C3F00F0D88001F003017D
:1046400007EE903AF8EE677A012965D0022900F06A
:10465000B080E1B107EE10EAB8EE477A9FED676AE5
:10466000C6EE076A644B9B6BC3F3080307EE103A70
:10467000B8EE477A9FED626A67EE867A77EE277A20
:10468000B7EE007A77EE877A66EEA76A60E0136885
:1046900013F0200F23D011461268C2F3C102594B08
:1046A000D34007EE103AB8EE477A06EE90EAB8EE3D
:1046B000666AC7EE066A8B6BC3F3080307EE103A0F
:1046C000B8EE477A9FED4E6A67EE867A77EE277AE4
:1046D000B7EE007A77EE877A66EEA76A38E007EEE3
:1046E00010EAB8EE477A9FED486AC6EE076A424B79
:1046F0009B6BC3F3080307EE103AB8EE477A9FEDC1
:10470000406A67EE867A77EE277AB7EE007A77EE20
:10471000877A66EEA76A1BE007EE10EAB8EE477AE2
:104720009FED366AC6EE076A334B9B6BC3F30803F3
:1047300007EE103AB8EE477A9FED316A67EE867A57
:1047400077EE277AB7EE007A77EE877A66EEA76A79
:10475000294A936BC3F3462307EE103AB8EE477A23
:10476000B7EE006A37EE067AC6EE877AFCEEE77A95
:10477000C0ED007A936BC3F3064307EE103AB8EE30
:10478000477A37EE067AC6EE877AFCEEE77AC0ED16
:10479000017A936BC3F3066307EE903AF8EE677AFB
:1047A00077EE867A86EEA77ABCEEC77A80ED027A3B
:1047B00010BD07EE10EAB8EE477A9FED146AC6EE18
:1047C000076A0D4B9B6BC3F3080307EE103AB8EE74
:1047D000477A9FED0B6A67EE867A77EE277AB7EE17
:1047E000007A77EE877A66EEA76AB1E70023036066
:1047F00043608360DCE700BF004402580024744A31
:10480000000000390090D0030024744C001B374B8B
:1048100010B5774A916A946AC4F3055ED36AC3F30C
:10482000002C536CC3F3CC030CFB03F314F07C7F1C
:1048300000F0D88001F0030107EE903AF8EE677AB5
:10484000012965D0022900F0B080E1B107EE10EA3D
:10485000B8EE477A9FED676AC6EE076A644B1B6C39
:10486000C3F3080307EE103AB8EE477A9FED626A89
:1048700067EE867A77EE277AB7EE007A77EE877A58
:1048800066EEA76A60E0136813F0200F23D011468C
:104890001268C2F3C102594BD34007EE103AB8EE8A
:1048A000477A06EE90EAB8EE666AC7EE066A0B6CC7
:1048B000C3F3080307EE103AB8EE477A9FED4E6A4D
:1048C00067EE867A77EE277AB7EE007A77EE877A08
:1048D00066EEA76A38E007EE10EAB8EE477A9FED79
:1048E000486AC6EE076A424B1B6CC3F3080307EE27
:1048F000103AB8EE477A9FED406A67EE867A77EE17
:10490000277AB7EE007A77EE877A66EEA76A1BE021
:1049100007EE10EAB8EE477A9FED366AC6EE076AF0
:10492000334B1B6CC3F3080307EE103AB8EE477A1B
:104930009FED316A67EE867A77EE277AB7EE007AD6
:1049400077EE877A66EEA76A294A136CC3F346238B
:1049500007EE103AB8EE477AB7EE006A37EE067AFD
:10496000C6EE877AFCEEE77AC0ED007A136CC3F3EB
:10497000064307EE103AB8EE477A37EE067AC6EEEF
:10498000877AFCEEE77AC0ED017A136CC3F3066315
:1049900007EE903AF8EE677A77EE867A86EEA77A97
:1049A000BCEEC77A80ED027A10BD07EE10EAB8EED1
:1049B000477A9FED146AC6EE076A0D4B1B6CC3F372
:1049C000080307EE103AB8EE477A9FED0B6A67EEE0
:1049D000867A77EE277AB7EE007A77EE877A66EEF8
:1049E000A76AB1E70023036043608360DCE700BF90
:1049F000004402580024744A000000390090D0039B
:104A00000024744C001B374B10B5774A916A946AA6
:104A1000C4F3051ED36A03F0010C536BC3F3CC033C
:104A20000CFB03F314F47C7F00F0D88001F0030149
:104A300007EE903AF8EE677A012965D0022900F076
:104A4000B080E1B107EE10EAB8EE477A9FED676AF1
:104A5000C6EE076A644B1B6BC3F3080307EE103AFC
:104A6000B8EE477A9FED626A67EE867A77EE277A2C
:104A7000B7EE007A77EE877A66EEA76A60E0136891
:104A800013F0200F23D011461268C2F3C102594B14
:104A9000D34007EE103AB8EE477A06EE90EAB8EE49
:104AA000666AC7EE066A0B6BC3F3080307EE103A9B
:104AB000B8EE477A9FED4E6A67EE867A77EE277AF0
:104AC000B7EE007A77EE877A66EEA76A38E007EEEF
:104AD00010EAB8EE477A9FED456AC6EE076A424B88
:104AE0001B6BC3F3080307EE103AB8EE477A9FED4D
:104AF000406A67EE867A77EE277AB7EE007A77EE2D
:104B0000877A66EEA76A1BE007EE10EAB8EE477AEE
:104B10009FED396AC6EE076A334B1B6BC3F308037C
:104B200007EE103AB8EE477A9FED316A67EE867A63
:104B300077EE277AB7EE007A77EE877A66EEA76A85
:104B4000294A136BC3F3462307EE103AB8EE477AAF
:104B5000B7EE006A37EE067AC6EE877AFCEEE77AA1
:104B6000C0ED007A136BC3F3064307EE103AB8EEBC
:104B7000477A37EE067AC6EE877AFCEEE77AC0ED22
:104B8000017A136BC3F3066307EE903AF8EE677A87
:104B900077EE867A86EEA77ABCEEC77A80ED027A47
:104BA00010BD07EE10EAB8EE477A9FED146AC6EE24
:104BB000076A0D4B1B6BC3F3080307EE103AB8EE00
:104BC000477A9FED0B6A67EE867A77EE277AB7EE23
:104BD000007A77EE877A66EEA76AB1E70023036072
:104BE00043608360DCE700BF004402580024744C3B
:104BF000000000390090D0030024744A001B374B9A
:104C000000B58BB0A0F580730B4329D0A0F580636D
:104C10000B4379D0A0F500630B4300F0D280A0F5E0
:104C200080530B4300F02A81A0F500530B4300F0A2
:104C30008981A0F500230B4300F0D281A0F58033D9
:104C40000B4300F01582A0F580430B4300F02E8249
:104C5000A0F5004050EA010300F07A820020A8E2AB
:104C6000964B1B6D03F00703042B00F29982DFE8DB
:104C700003F005101B03260091489AE28F4B186839
:104C800010F0007000F0958207A8FFF7BDFE0898AD
:104C90008FE28A4B186810F0006000F08A8204A846
:104CA000FFF7BAFC049884E2844B186810F00050B7
:104CB00000F07F8201A8FFF7ABFD019879E27F4AFF
:104CC000D36C03F04053126812F0040F07D033B9CD
:104CD0007A4B1B68C3F3C1037A48D84069E2774A2C
:104CE000126812F4807F03D0B3F1805F00F05A8223
:104CF000724A126812F4003F00F05682B3F1005F6E
:104D000000F05482002054E26C4B9B6D03F460036E
:104D1000B3F5800F35D016D9B3F5C00F00F0488237
:104D2000B3F5000F20D1654AD36C03F040531268ED
:104D300012F0040F30D07BBB604B1B68C3F3C10380
:104D40006048D84035E28BB1B3F5001F0AD15B4B08
:104D5000186810F0006000F02C8204A8FFF75CFCDB
:104D6000049826E2002024E2002022E2534B186837
:104D700010F0007000F01D8207A8FFF745FE0898AC
:104D800017E24E4B186810F0005000F0128201A894
:104D9000FFF73EFD01980CE2484A126812F4807F4A
:104DA00003D0B3F1805F00F00782444A126812F426
:104DB000003F00F00382B3F1005F00F001820020A9
:104DC000F7E13E4B9B6D03F0E063B3F1007F35D01C
:104DD00016D9B3F1407F00F0F581B3F1806F20D197
:104DE000364AD36C03F04053126812F0040F30D0EF
:104DF0007BBB324B1B68C3F3C1033248D840D8E1B8
:104E00008BB1B3F1807F0AD12C4B186810F0006091
:104E100000F0CF8104A8FFF7FFFB0498C9E1002050
:104E2000C7E10020C5E1254B186810F0007000F0C4
:104E3000C08107A8FFF7E8FD0898BAE11F4B186882
:104E400010F0005000F0B58101A8FFF7E1FC0198D7
:104E5000AFE11A4A126812F4807F03D0B3F1805F89
:104E600000F0B281154A126812F4003F00F0AE81E2
:104E7000B3F1005F00F0AC8100209AE10F4B1B6D95
:104E800003F4E043B3F5005F3CD01DD9B3F5405FB8
:104E900000F0A081B3F5804F27D1084AD36C03F00E
:104EA0004053126812F0040F37D0002B35D1034B5A
:104EB0001B68C3F3C1030348D8407AE10044025899
:104EC0000080BB000090D0038BB1B3F5805F0AD1A6
:104ED0009B4B186810F0006000F06B8104A8FFF78E
:104EE0009BFB049865E1002063E1002061E1944BA5
:104EF000186810F0007000F05C8107A8FFF784FDCF
:104F0000089856E18E4B186810F0005000F051815F
:104F100001A8FFF77DFC01984BE1894A126812F461
:104F2000807F03D0B3F1805F00F05681844A12681D
:104F300012F4003F00F05281B3F1005F00F05081A5
:104F4000002036E17E4B1B6D03F4E023B3F5403FB8
:104F500032D016D8B3F5803F23D0B3F5003F0AD145
:104F6000774B186810F0005000F0238101A8FFF77C
:104F70004FFC02981DE113B9FEF718FD19E100205E
:104F800017E1B3F5802F23D0B3F5A02F07D16C4BD9
:104F9000186810F4003000F00C816A4809E1002024
:104FA00007E1674B186810F0006000F0028104A868
:104FB000FFF732FB0598FCE0614B186810F0040025
:104FC00000F0F7801B68C3F3C1035F48D840F0E0EE
:104FD0005B4B186810F4807000F0EB805B48E8E0F1
:104FE000574B9B6D03F44033B3F5803F10D0B3F5BE
:104FF000003F18D00BB10020DBE0514B186810F0D7
:10500000006000F0D68004A8FFF706FB0498D0E00B
:105010004B4B186810F0005000F0CB8001A8FFF750
:10502000F7FB0398C5E0464AD36C03F0405312687F
:1050300012F0040F07D033B9414B1B68C3F3C1030F
:105040004148D840B5E03E4A126812F4807F03D050
:10505000B3F1805F00F0C680394A126812F4003F55
:1050600000F0C280B3F1005F00F0C0800020A0E03B
:10507000334BDB6C13F4803302D063B9002098E02B
:105080002F4B186810F0007000F0938007A8FFF70E
:10509000BBFC08988DE02A4B186810F0006000F007
:1050A000888004A8FFF7B8FA069882E0244B9B6D2D
:1050B00003F0E043B3F1405F2FD015D8B3F1805F28
:1050C00021D0B3F1005F09D11D4B186810F00050DA
:1050D0006FD001A8FFF79CFB02986AE013B9FFF7B5
:1050E00089FA66E0002064E0B3F1804F20D0B3F18C
:1050F000A04F06D1124B186810F4003059D0114857
:1051000057E0002055E00E4B186810F0006050D0BA
:1051100004A8FFF781FA05984BE0094B186810F0D6
:10512000040046D01B68C3F3C1030748D84040E0E1
:10513000034B186810F480703BD0044839E000BF7E
:1051400000440258001BB7000090D00300093D0046
:10515000274B1B6D03F04053B3F1805F0CD0B3F1CC
:10516000005F13D00BB1002023E0214B186810F42E
:1051700000301ED01F481CE01D4B186810F0007056
:1051800017D007A8FFF740FC089812E0184B1868E2
:1051900010F000600DD004A8FFF73EFA059808E073
:1051A000002006E0144804E0002002E0114800E07E
:1051B00012480BB05DF804FB0F48FAE70020F8E74F
:1051C0000C48F6E70D48F4E70B48F2E70020F0E75B
:1051D0000848EEE70948ECE70748EAE70020E8E777
:1051E0000448E6E70448E4E70020E2E70148E0E796
:1051F00000440258001BB70000093D000080BB00BE
:10520000F0B583B000236BE085685E000324B440F2
:1052100025EA0405CC68B4402C438460446824EA41
:105220000C0C4C68C4F300149C4044EA0C04446029
:1052300068E0DD08083550F8256003F007044FEA00
:10524000840C0F2404FA0CF426EA040E0C6904FA08
:105250000CF444EA0E0440F825406BE0092400E019
:10526000002404FA0EF42C430CF1020C664D45F8B0
:105270002C404FF0B0442568D44325EA02064F681D
:1052800017F4801F01D042EA05064FF0B0452E60AA
:105290006D6804EA05064F6817F4001F01D042EA62
:1052A00005064FF0B0456E60D5F8845004EA050657
:1052B0004F6817F4003F01D042EA05064FF0B045B1
:1052C000C5F88460D5F880502C404E6816F4803FB5
:1052D00001D042EA05044FF0B042C2F880400133E9
:1052E0000A6832FA03F400F08C804FF0010C0CFADB
:1052F00003FC1CEA0202F2D04C6804F00304013CF7
:10530000012C81D94C6804F00304032C0CD0C46830
:105310005D004FF0030C0CFA05FC24EA0C0C8C68C1
:10532000AC4044EA0C04C4604C6804F00304022C52
:105330003FF47FAF04684FEA430E4FF0030C0CFAC2
:105340000EFC24EA0C0C4C6804F0030404FA0EF47E
:1053500044EA0C0404604C6814F4403FBFD02B4C6A
:10536000D4F8F45045F00205C4F8F450D4F8F440F1
:1053700004F002040194019C4FEA930C0CF1020525
:10538000214C54F8255003F003044FEA840E0F24F7
:1053900004FA0EF425EA04051D4CA0423FF460AF68
:1053A00004F58064A0421ED004F58064A0421CD0A5
:1053B00004F58064A0421AD004F58064A04218D09D
:1053C00004F58064A04216D004F58064A04214D095
:1053D00004F58064A04212D004F50064A0423FF4BA
:1053E0003DAF0A243DE701243BE7022439E70324CB
:1053F00037E7042435E7052433E7062431E707249B
:105400002FE703B0F0BD00BF00040058004402586D
:10541000000002580AB18161704709048161704738
:10542000436901EA030221EA030141EA0241816181
:1054300070470000002800F0298108B5024690F866
:105440003530DBB2022B03D080234365012008BD39
:105450000368904890498B4218BF83420CBF0121DA
:10546000002166D03030834263D01830834260D050
:10547000183083425DD0183083425AD018308342AE
:1054800057D01830834254D000F55670834250D024
:10549000183083424DD0183083424AD018308342AE
:1054A00047D01830834244D01830834241D018305E
:1054B00083423ED0183083423BD0196821F00E0160
:1054C00019601368A0F5956073498B4218BF834239
:1054D0006AD072498B4267D018318B4264D0183140
:1054E0008B4261D018318B425ED018318B425BD039
:1054F00018318B4258D001F556718B4254D0183177
:105500008B4251D018318B424ED018318B424BD048
:1055100018318B4248D018318B4245D018318B421C
:1055200042D018318B423FD0196821F00101196037
:105530003EE0042082F8350081BB584A93422DD0CA
:10554000183293422AD01832934227D0183293420D
:1055500024D01832934221D0183293421ED002F543
:10556000567293421AD01832934217D0183293428F
:1055700014D01832934211D0183293420ED0183200
:1055800093420BD01832934208D01832934205D080
:105590001A6822F001021A60002058E71A6822F007
:1055A00001021A60002052E7196821F00101196018
:1055B0001368384838498B4218BF834242D01831AB
:1055C0008B423FD018318B423CD018318B4239D0BE
:1055D00018318B4236D018318B4233D018318B4280
:1055E00030D001F556718B422CD018318B4229D026
:1055F00018318B4226D018318B4223D018318B4280
:1056000020D018318B421DD018318B421AD018315E
:105610008B4217D022498B4214D014318B4211D0C7
:1056200014318B420ED014318B420BD014318B428B
:1056300008D014318B4205D014318B4202D0143182
:105640008B4217D1116E0B6823F480730B60906D41
:10565000D36D03F01F0101238B404360536E916EA5
:105660005960D36E33B1196821F480711960136FDA
:10567000516F5960012382F83530002382F83430AD
:10568000136D2BB1104698470020E0E601207047CB
:105690000020DCE6100002402800024040000240EA
:1056A0000854025890F8350070470000134BDB682F
:1056B00013F0040F07D1114BDB6803F0070383429B
:1056C0001AD00120704710B50C4AD36823F00703A5
:1056D0001843D06000F0E0F80446084B5B6813F410
:1056E000005F07D100F0D8F8001BB0F57A7FF4D93D
:1056F000012000E0002010BD002070470048025843
:105700000649CB6823F4E0631B041B0C000200F481
:10571000E0600343024A1A43CA60704700ED00E0AC
:105720000000FA0500B5174BDB68C3F30223C3F191
:10573000070CBCF1040F28BF4FF0040C03F1040E5A
:10574000BEF1060F14D9033B4FF0FF3E0EFA0CFCDE
:1057500021EA0C0199400EFA03F322EA03031943EC
:10576000002807DB0901C9B2074B19545DF804FB97
:105770000023E9E700F00F000901C9B2034B1954F7
:10578000F4E700BF00ED00E000E400E014ED00E00D
:10579000002807DB00F01F02400901239340024A62
:1057A00042F82030704700BF00E100E00138B0F15E
:1057B000807F0BD24FF0E0235861054AF02182F838
:1057C00023100020986107221A617047012070475A
:1057D00000ED00E0104B1B780BB90120704710B5AD
:1057E00004464FF47A70B0FBF3F30C4A1068B0FB38
:1057F000F3F0FFF7DBFF68B90F2C01D901200AE0B5
:10580000002221464FF0FF30FFF78CFF044B1C6055
:10581000002000E0012010BD000000200800002052
:105820000400002010B50320FFF76AFFFDF758FEC3
:105830000F498B69C3F303230E4AD35C03F01F03A4
:10584000D8408B6903F00F03D35C03F01F0320FAE9
:1058500003F3094A1360094B18600F20FFF7BAFFE2
:1058600010B10124204610BD0446FBF793FCF9E774
:1058700000440258ECCC00080C0000200800002076
:10588000034B1B78034A11680B441360704700BF39
:1058900000000020AC030020014B1868704700BFD7
:1058A000AC03002038B50446FFF7F6FF0546B4F117
:1058B000FF3F02D0044B1B781C44FFF7EDFF401B59
:1058C000A042FAD338BD00BF00000020034A53684D
:1058D00023EA00030B435360704700BF00040058E5
:1058E00003689A6912F0020F01D000229A620368DD
:1058F0009A6912F0010F03D19A6942F001029A618C
:10590000704710B4019CC1F3090141EA02411943F7
:10591000214321F0004102685368640D04F480645F
:1059200044F07F7444F4583444F47F7444F0030426
:1059300023EA0404214351605DF8044B70470000E2
:10594000436B1D4A934217D01C4A934214D011F462
:10595000004F2BD1002311F0010F01D043F0F203CF
:1059600011F0020F01D043F0F403102920D02029B8
:105970000CD143F0200309E011F4004F0BD10023B8
:1059800010290AD020290BD040290CD001680A68C0
:1059900013430B607047B823F2E743F09003F1E73D
:1059A00043F06003F0E743F04003EFE7B823D2E7AA
:1059B00043F09003DBE700BF9D6600087D640008AC
:1059C00011F0010F09D090F8413003F02803282B83
:1059D00001D0F22302E0422300E0002311F0020F85
:1059E00009D043F0440C90F8412002F02802282A04
:1059F00010D043F0F40311F4004F0DD110290ED054
:105A000020290FD0402910D001680A6822EA030338
:105A10000B6070476346EEE743F0B803EEE743F0F0
:105A20009003EDE743F02003ECE743F04003EBE79E
:105A3000002857D010B5044690F84130002B41D0D3
:105A4000242384F841302268136823F00103136093
:105A50006368226823F0706313612268936823F4FB
:105A600000439360E368012B31D0A368226843F4BC
:105A700004439360E368022B2FD0226851681A4BCD
:105A80000B4353602268D36823F40043D360236937
:105A900062691343A169226843EA0123D360E36981
:105AA000216A22680B4313602268136843F00103E4
:105AB000136000206064202384F84130206384F860
:105AC000420010BD80F8403002F0EAF9B8E7A36860
:105AD000226843F400439360CCE723684FF40062EC
