:020000040800F2
:1000000000000220C5540008F5060008F7060008A5
:10001000F9060008FB060008FD06000800000000C5
:10002000000000000000000000000000FF060008C3
:10003000010700080000000003070008050700088A
:1000400015550008155500081555000815550008E8
:1000500015550008155500081555000815550008D8
:1000600015550008155500081555000815550008C8
:1000700015550008155500081555000815550008B8
:1000800015550008155500081555000815550008A8
:100090001555000815550008155500081555000898
:1000A0001555000815550008155500081555000888
:1000B0001555000815550008155500081555000878
:1000C0001555000815550008155500081555000868
:1000D0001555000815550008155500081555000858
:1000E00015550008155500080000000015550008BA
:1000F0001555000815550008155500081555000838
:100100001555000815550008155500081555000827
:100110001555000815550008155500081555000817
:10012000155500080D07000815550008155500085D
:1001300015550008155500081555000815550008F7
:1001400000000000000000000000000000000000AF
:1001500015550008155500081555000815550008D7
:1001600015550008155500081555000815550008C7
:100170001555000815550008155500080000000029
:1001800015550008155500081555000815550008A7
:100190001555000815550008155500081555000897
:1001A00015550008155500081555000800000000F9
:1001B0001555000815550008155500081555000877
:1001C000155500081555000800000000000000004B
:1001D00000000000000000001555000800000000AD
:1001E000000000000000000000000000000000000F
:1001F000000000000000000015550008155500081B
:100200001555000815550008000000001555000898
:100210001555000815550008155500081555000816
:1002200015550008000000001555000800000000EA
:100230001555000815550008000000001555000868
:1002400015550008155500081555000815550008E6
:1002500015550008155500081555000815550008D6
:1002600015550008155500081555000815550008C6
:100270001555000815550008155500080000000028
:1002800015550008155500081555000815550008A6
:10029000000000001555000815550008000000007A
:1002A00000000000155500081555000815550008F8
:1002B0001555000815550008155500081555000876
:0C02C000155500081555000815550008DC
:1002CC0010B5054C237833B9044B13B10448AFF384
:1002DC0000800123237010BD1000002000000000DE
:1002EC007055000808B5034B1BB103490348AFF325
:1002FC00008008BD000000001400002070550008AC
:10030C0072B6FEE700B59DB04C22002109A805F09D
:10031C0021F92022002101A805F01CF9022004F08B
:10032C003FFF00230093214B9A6922F440429A61CB
:10033C009B6903F440430093009B1C4B9B6913F493
:10034C00005FFAD00223099301210C9140220D92F7
:10035C0012930022139204201490222015901691CF
:10036C00179318930C2319931A924FF440631B9311
:10037C0009A801F00FFAA8B93F23019303210291B8
:10038C0000230393082304934023059306934FF40F
:10039C0080620792089301A801F0ECFD20B91DB012
:1003AC005DF804FBFFF7ACFFFFF7AAFF004802580B
:1003BC0008B504F0B1FFFFF7A5FF00F01FF805F03A
:1003CC005FF800F087F840F2FF720021084801F056
:1003DC008DF901228021074803F06CFC08210648A6
:1003EC0003F06EFC642004F0D7FF00F065F9F5E72C
:1003FC003C0000200010025800040258F0B58BB0ED
:10040C000024059406940794089409942E4BD3F871
:10041C00E02042F01002C3F8E020D3F8E02002F014
:10042C0010020092009AD3F8E02042F08002C3F848
:10043C00E020D3F8E02002F080020192019AD3F878
:10044C00E02042F00402C3F8E020D3F8E02002F0F0
:10045C0004020292029AD3F8E02042F00102C3F89F
:10046C00E020D3F8E02002F001020392039AD3F8C3
:10047C00E02042F00202C3F8E020D3F8E03003F0B1
:10048C0002030493049B114F22468821384603F043
:10049C0011FC0F4D22460821284603F00BFC882343
:1004AC000593012606960794089405A9384603F08F
:1004BC00F7FA0823059306960794089405A928468D
:1004CC0003F0EEFA0BB0F0BD0044025800100258D5
:1004DC000004025800B58BB02422002101A805F0BD
:1004EC0039F83148314B03604FF4801343600823D3
:1004FC0083600023C3600122026104214161037601
:10050C004276C16180F820308362C36280F8382063
:10051C00436302634FF48052C263036480F8443037
:10052C0000F074FF002830D10123019306230293BD
:10053C000023039340F2FF72049204220592069367
:10054C0008930DEB0201184800F04EF900BB184B54
:10055C0001930C23029301A9134800F045F9D0B97B
:10056C00144B01931223029301A90F4800F03CF99C
:10057C00A0B9114B01931823029301A90A4800F06A
:10058C0033F970B90BB05DF804FBFFF7B9FECBE79C
:10059C00FFF7B6FEDBE7FFF7B3FEE1E7FFF7B0FED0
:1005AC00E7E7FFF7ADFEEDE73C00002000600258E6
:1005BC00020030040004002A0008302E30B5B7B019
:1005CC000446002131913291339134913591B82206
:1005DC0002A804F0BFFF2268324B9A4201D037B018
:1005EC0030BD4FF400220023CDE9022320230493D5
:1005FC008223059304230693022307930893402335
:10060C00099302A801F040FF002845D1264BD3F8EE
:10061C00E02042F08072C3F8E020D3F8E02002F032
:10062C0080720092009AD3F8E02042F00402C3F8E2
:10063C00E020D3F8E03003F004030193019B032383
:10064C00319332930025339531A9184803F028FAD9
:10065C004FF08061084604F0B3FE4FF0006108468D
:10066C0004F0AEFE1248134B0360732343608560A5
:10067C00C5604FF4806303614FF4805343614FF4C2
:10068C0080438361C5610562456203F037FD30B973
:10069C00074BA3659C63A2E7FFF732FEB6E7FFF7B3
:1006AC002FFEF5E70060025800440258000802587B
:1006BC00AC0000202804024010B50821074803F0C4
:1006CC00FFFA074C04220749204600F0D7FC1420FF
:1006DC0004F062FE204600F0BDFD10BD0010025873
:1006EC003C0000202C000020FEE7FEE7FEE7FEE7C2
:1006FC00FEE770477047704708B504F03BFE08BD35
:10070C0008B5024804F0B0F908BD00BFAC000020E9
:10071C0082B0074BD3F8F42042F00202C3F8F42065
:10072C00D3F8F43003F002030193019B02B070473D
:10073C00004402587047704708B5806BFFF7FBFF09
:10074C0008BD704708B50346806B026E12F0500F5F
:10075C0030D1036E43F40073036603681A6812F019
:10076C00080F14D0DA6812F4406F20D1DB6813F450
:10077C00005F1CD1036E23F480730366036E13F4C5
:10078C00805F14D1036E43F0010303660FE0DB6856
:10079C0013F0030F0BD1036E23F480730366036E07
:1007AC0013F4805F03D1036E43F001030366FFF77C
:1007BC00C1FF08BD026E12F0100F04D1826DD26C15
:1007CC0018469047F5E7FFF7BCFFF2E708B5806BDA
:1007DC00036E43F040030366436E43F00403436629
:1007EC00FFF7AFFF08BD0000F0B583B00022019207
:1007FC0090F85C20012A00F042830346012280F825
:10080C005C200268906810F0040F09D01A6E42F058
:10081C0020021A660120002283F85C2003B0F0BD90
:10082C009B4882420BD00868C0F31304002C52D1B1
:10083C00C0F3846001248440D0692043D0611D68DA
:10084C004C683035220A920002F00C02A85804F0D1
:10085C001F0E1F2404FA0EF420EA04000C68C4F3E3
:10086C00846C0CFA0EFC40EA0C00A8501C68A268C0
:10087C0012F0040200D00122A06810F0080000D091
:10088C000120024333D01A68906810F0010F40F039
:10089C00F2820868CD687E4CA24200F09C81D2F8AE
:1008AC00C040C0F3130624EA060405F01805794E7F
:1008BC0026FA05F52840C0F313002043C2F8C00007
:1008CC00C868754A904200F098810A68002AC0F204
:1008DC00518200209FE790FAA0F030B1B0FA80F07E
:1008EC0000F01F0001248440A6E72020F8E70F68E1
:1008FC008D681434780E800000F004002658C7F37D
:10090C00045E4FF0070C0CFA0EFC26EA0C0C05FAF0
:10091C000EF54CEA0505255018685D4CA04211D027
:10092C005E4C246804F07044B4F1805F3FD0C4681E
:10093C0014F0100F42D14C69C568C5F382056D00E7
:10094C00AC4005E04C69C568C5F3C1056D00AC4011
:10095C000D69042D3AD14E4A904200F0A180026EEE
:10096C0002F0F8420C68B2EB846F00F02581186835
:10097C00426E02F0F8420C68B2EB846F00F02181F9
:10098C001868826E02F0F8420C68B2EB846F00F0CB
:10099C001D811868C26E02F0F8420C68B2EB846FCD
:1009AC007FF471AFC26E22F00042C2666BE74C69F5
:1009BC00C568C5F382056D00AC40C9E74C69C568D4
:1009CC00AD0805F004056D00AC40C1E70E6800F100
:1009DC006007DFF8BCC0604529D057F8250000F04F
:1009EC00004006F0F8463443044347F825401868A5
:1009FC00274CA04225D00E6991F82140012C40D003
:100A0C001546603050F8264024F000442C4340F842
:100A1C0026401D680C69087E012835D0286920F411
:100A2C00F04004F01F04A24002432A612BE757F860
:100A3C00250006F0F846344344F0004447F82540BE
:100A4C00D5E70E69CC69603050F8265025F08075DA
:100A5C002C4340F8264018680D6991F82040012C71
:100A6C000CD00B4CA0427FF40EAF603050F82540F8
:100A7C0024F00074224340F8252004E74FF0007264
:100A8C00EFE74FF00045BCE74FF40062C6E700BF4C
:100A9C0000600258FFFF0F000000FF470010005CD1
:100AAC00026E046EC4F384640A68C2F31305002D4D
:100ABC0036D1C2F3846294423AD01C68626E606E86
:100ACC00C0F384600A68C2F31305002D3DD1C2F354
:100ADC008462904241D01C68A26EA06EC0F3846008
:100AEC000A68C2F31305002D44D1C2F3846290420C
:100AFC0048D01C68E26EE06EC0F384600A68C2F3F2
:100B0C001305002D4BD1C2F3846290427FF4BBAE2F
:100B1C00964A94424BD0E26E22F00042E266B2E674
:100B2C0092FAA2F212B1B2FA82F2C4E72022C2E720
:100B3C008E4A904204D0026E22F000420266BCE75C
:100B4C00026E22F000420266B7E792FAA2F212B1EC
:100B5C00B2FA82F2BDE72022BBE7844A944204D069
:100B6C00626E22F000426266B5E7626E22F00042CD
:100B7C006266B0E792FAA2F212B1B2FA82F2B6E76A
:100B8C002022B4E7794A944204D0A26E22F00042AB
:100B9C00A266AEE7A26E22F00042A266A9E792FA24
:100BAC00A2F212B1B2FA82F2AFE72022ADE7E26E06
:100BBC0022F00042E26666E6026E22F00042026615
:100BCC00D5E6426E22F000424266D9E6826E22F0F1
:100BDC0000428266DDE6D2F8B060C0F3130426EA68
:100BEC00040605F01805624C24FA05F52840C0F3FC
:100BFC0013003043C2F8B00062E61C680A68C2F306
:100C0C001305002D34D1900E013000F01F0009287F
:100C1C008CBF00200120002861D0002D37D1900E10
:100C2C000130800600F0F840002D3CD1960E0136C4
:100C3C0006F01F070126BE403043002D41D1920E15
:100C4C00013202F01F0202EB4202120502438868D5
:100C5C001434550EAD0005F004056659C2F3045268
:100C6C000727974026EA07069040304360512CE650
:100C7C0092FAA2F048B1B0FA80F0013000F01F00F7
:100C8C0009288CBF00200120C5E72020F5E792FA47
:100C9C00A2F030B1B0FA80F00130800600F0F840DC
:100CAC00C2E72020F8E792FAA2F646B1B6FA86F629
:100CBC00013606F01F06012707FA06F6BCE72026C8
:100CCC00F6E792FAA2F242B1B2FA82F2013202F0E3
:100CDC001F0202EB42021205B8E72022F6E7CDB95B
:100CEC00900E0130800600F0F840FDB9960E0136EA
:100CFC0006F01F070126BE4030432DBB920E013279
:100D0C0002F01F0202EB42021E3A120542F0007280
:100D1C0002439CE792FAA2F030B1B0FA80F00130B5
:100D2C00800600F0F840E0E72020F8E792FAA2F6FF
:100D3C0046B1B6FA86F6013606F01F06012707FA09
:100D4C0006F6D9E72026F6E792FAA2F25AB1B2FAE1
:100D5C0082F2013202F01F0202EB42021E3A12052D
:100D6C0042F00072D4E72022F3E700BF0060025883
:100D7C00FFFF0F0019684348434CA14218BF814242
:100D8C000CBF0120002021D1404EB56805F0E07762
:100D9C00F0B13C48806810F0010000D001203A4CC2
:100DAC00A46814F0010400D0012420430CBF0120DE
:100DBC000020002859D03648824212D03548824251
:100DCC0031D0354882423FD0002024E5334EDCE759
:100DDC003348806810F0010000D0012080F0010041
:100DEC00E7E715F4000FE9D12D4A914201D000201C
:100DFC0011E547F40002B16821F0E0710A43B260DA
:100E0C00284A126892092849A1FB02129209013260
:100E1C005200019202E0019A013A0192019A002AD1
:100E2C00F9D10020F7E415F0807FCAD11C4A914219
:100E3C0001D00020EFE447F08072B16821F0E0713E
:100E4C000A43B2600020E6E415F4800F15D1144A71
:100E5C00914201D00020DEE447F48002B16821F019
:100E6C00E0710A43B2600020D5E41A6E42F0200211
:100E7C001A660120CFE40020CDE40020CBE4022050
:100E8C00CCE400BF002002400021024000230240BD
:100E9C00000052C7000021C3000084CB006302583D
:100EAC000060025808000020632D3E0570B5044612
:100EBC000068836813F0040300D00123826812F0E9
:100ECC00080200D00122134367D0C36813F0007FDF
:100EDC0004D0228B40F201139A424AD002290ED040
:100EEC0023689A6812F0040F09D09A6812F0020F66
:100EFC0005D198682A4A024042F010029A600129F2
:100F0C000ED023689A6812F0080F09D09A6812F074
:100F1C00020F05D19868224A024042F020029A60E2
:100F2C00022934D0032934D10C2504F02FFA0646BB
:100F3C0023689B682B422ED004F028FA831B052BC8
:100F4C00F6D923689B682B42F2D0236E43F0100332
:100F5C002366636E43F00103636601201EE0236E7B
:100F6C0043F010032366636E43F0010363660120B4
:100F7C0014E00023026812F0400F04D1094A934296
:100F8C00EDD80133F6E7402303600121A8E70825DB
:100F9C00CBE70425C9E7002000E0002070BD00BFAE
:100FAC00C0FFFF7FFFDB0C0038B503689A6812F0B6
:100FBC00010F56D1044699682B4A114209D0036E91
:100FCC0043F010030366436E43F0010343660120B4
:100FDC0048E09968254A0A4042F001029A6004F000
:100FEC00D5F9054623682249224A934218BF8B4201
:100FFC000DD102F50072926802F01F021D498B425E
:10100C0007D01946994207D032B100202AE01A4A7B
:10101C00F1E7A1F58071F5E723681A6812F0010F6A
:10102C001DD19A6812F0010F05D199680F4A0A4038
:10103C0042F001029A6004F0A9F9401B0228EBD996
:10104C0023681B6813F0010FE6D1236E43F01003E5
:10105C002366636E43F001036366012002E0002007
:10106C0000E0002038BD00BF3F000080C0FFFF7FC4
:10107C00002002400021024000630258F8B50446EB
:10108C000E4617460068464A464B984218BF904297
:10109C001AD103F500739D6805F01F05806810F0E8
:1010AC00040F78D194F85C30012B76D0012384F8AE
:1010BC005C30052D18BF002D08D0092D06D000235B
:1010CC0084F85C30012067E0374BE4E72046FFF7FB
:1010DC006BFF00285BD1226EA0F60273134043F421
:1010EC008073236623682F4A93423CD01A4693425E
:1010FC0000D01DB9236E23F480132366236E13F4E2
:10110C00805F33D0636E23F006036366A36D274ABA
:10111C00DA63A36D264A1A64A36D264ADA6423683F
:10112C001C221A60002384F85C302268536843F058
:10113C00100353602368204A93421AD0226BD9685B
:10114C0021F003010A43DA6021683B463246403104
:10115C00A06D03F09DF922689168184B0B4043F089
:10116C000403936018E0A2F58072C0E70023636665
:10117C00CCE794F83810DA6822F0030242EA410214
:10118C00DA602268D36843F00103D360DCE7002304
:10119C0084F85C3000E00220F8BD0220FCE700BFC0
:1011AC000020024000210240006302585107000851
:1011BC0045070008D907000800600258C0FFFF7FF0
:1011CC0038B504460268936813F0020300D001237B
:1011DC00916811F0010F37D0002B37D1936803F0D1
:1011EC000D03012B09D0236E43F010032366636EAD
:1011FC0043F001036366012027E09168144B0B4018
:10120C0043F002039360236803221A6004F0BEF8D3
:10121C00054623689B6813F0010F13D004F0B6F851
:10122C00401B0228F5D923689B6813F0010FF0D0FE
:10123C00236E43F010032366636E43F00103636671
:10124C00012002E0002000E0002038BD0020FCE777
:10125C00C0FFFF7F38B590F85C30012B37D00446C7
:10126C00012380F85C300321FFF720FE0546D8B936
:10127C002268D36823F00303D360A06D90F8353057
:10128C00DBB2022B15D02268536823F01003536095
:10129C00CDB92046FFF794FF05462DB9226E0D4BB4
:1012AC00134043F001032366002384F85C30284686
:1012BC0038BD03F039FA05460028E4D0236E43F01C
:1012CC0040032366DFE72046FFF77AFFE5E70225B8
:1012DC00EDE700BFFEEEFFFF10B50446036844497E
:1012EC00444A934218BF8B421CD1434B9B6813F466
:1012FC00403F14BF0123002313B300F085FF636844
:10130C00B3F5003F16D0B3F5403F17D0B3F5803F8F
:10131C0010D03A4B98424ED82268936823F440730D
:10132C00936010BD364B9B6813F4403F14BF0123F0
:10133C000023E1E71B0CB0FBF3F0EAE78008E8E7D9
:10134C004FF40020002102F0ABF86368B3F5101FD6
:10135C002DD022D8B3F5E01F27D004D9B3F5001F48
:10136C00D7D14009D5E7B3F5801F0DD006D9B3F519
:10137C00A01F09D0B3F5C01F06D0CAE7B3F5002FE4
:10138C0002D0B3F5402F04D19B0C5B00B0FBF3F003
:10139C00BFE7B3F5802FF7D0BBE7B3F5201F08D01C
:1013AC00B3F5301FB5D1000AB3E70009B1E78009E6
:1013BC00AFE7C009ADE7134B984207D82268936892
:1013CC0023F4407343F480739360AAE70E4B984266
:1013DC0007D82268936823F4407343F40073936036
:1013EC009FE72268936843F44073936099E700BFCA
:1013FC0000200240002102400023024021BCBE001C
:10140C000063025841787D0181F0FA0230B583B057
:10141C0000230193002800F067810446036EEBB1B2
:10142C0023689A6812F0005F03D099689C4A0A40BE
:10143C009A6023689A6812F0805F1CD19968994A67
:10144C000A4042F080529A60974B1B689B09974A5E
:10145C00A2FB03239B090133019309E0FFF7AEF8CC
:10146C000023636684F85C30DAE7019B013B01934F
:10147C00019B002BF9D123689A6812F0805F40F031
:10148C00A280226E42F010022266626E42F00102CD
:10149C00626601259A6812F0040200D00122216EC6
:1014AC0011F0100F40F01881002A40F01581216EC8
:1014BC0021F4817141F002012166996811F0010F4C
:1014CC0021D17B487B498B4218BF83420CBF01233F
:1014DC0000237AD1816811F0010100D001217548F7
:1014EC00806810F0010000D0012001430CBF0121E5
:1014FC00002141B1002B71D06F486368816821F4E1
:10150C007C110B43836021686C4B994268D0627EDE
:10151C00E36B43EA4232A3681A4394F8203042EA60
:10152C00034294F82030012B74D0A36A23B103F446
:10153C007873E06A03431A43604B99426FD0C868D2
:10154C005F4B03401A43CA6021688B6813F0040395
:10155C0000D001238A6812F0080200D00122134344
:10156C0022D1564B994267D0227E236B43EA8232BA
:10157C00C868544B03401343CB6094F84430012BA0
:10158C0061D02268136923F0010313612268136987
:10159C0023F07043216C0B4313612268474B9A4232
:1015AC0002D02046FFF798FE2369012B6FD02268EA
:1015BC00136B23F00F031363236E23F0030343F029
:1015CC00010323668DE0002564E73C49896811F02E
:1015DC00010100D0012181F001018AE73A488CE732
:1015EC00607EE36B43EA4033E0680343A06808285D
:1015FC0008D00C2805D01C280AD0182802D1024685
:10160C0000E008221A4394F8203042EA034288E7AB
:10161C001022F7E7636A013B42EA434285E7C86858
:10162C002A4B03401A43CA602268136923F04063B3
:10163C00616B0B43136187E7227E94F838305B00B3
:10164C0043EA823294E721681C4B994210D00A6914
:10165C001F4B1340A26C501EE26C42EA0042206DFC
:10166C000243606D0243134343F001030B618DE7AA
:10167C000A69184B1340A26CE06C0243206D0243C4
:10168C00606D0243134343F001030B617EE7216855
:10169C000B6B23F00F03E269013A13430B638BE7E7
:1016AC00C0FFFF5FC0FFFF6F08000020632D3E05E9
:1016BC00002002400021024000230240006002583A
:1016CC0003C0F0FFFCBFFFFF006302580740F0FFB0
:1016DC001EF800FC1FF800FC236E43F01003236679
:1016EC000125284603B030BD0125FAE770B582B05C
:1016FC000023019390F85C30012B42D004460D4638
:10170C001646012380F85C30FFF75AFD00282FD1D4
:10171C00226E1D4B134043F002032366226891682E
:10172C001A4B0B4005F4803506F0804635432B43AD
:10173C0043F00043936023689B68002B06DB236E09
:10174C0023F0030343F00103236615E0019B0133EF
:10175C000193019A0E4B9A42EDD3236E23F01203A0
:10176C0043F010032366002384F85C30012006E06C
:10177C00236E43F010032366002384F85C3002B020
:10178C0070BD0220FBE700BFFDEEFFFFC0FFFE3F78
:10179C0000F8C325002800F0D78238B5044603684A
:1017AC0013F0010F25D0A04A136903F03803926A95
:1017BC00102B15D0182B0FD06368B3F5803F3FD09A
:1017CC00002B53D1984B1A6822F480321A601A6895
:1017DC0022F480221A6038E002F00302022AEBD1D4
:1017EC00914B1B6813F4003F03D06368002B00F08F
:1017FC00AD82236813F0020F00F088808A4A1369C7
:10180C00926A13F038035AD0182B55D0E368002B8A
:10181C0000F0A98084490A6822F0190213430B6076
:10182C0003F0B4FD0546804B1B6813F0040F40F029
:10183C00918003F0ABFD401B0228F4D903208CE20D
:10184C00794A136843F48033136063682BB303F055
:10185C009DFD0546744B1B6813F4003FC9D103F082
:10186C0095FD401B6428F5D9032076E2B3F5A02F33
:10187C0009D06D4B1A6822F480321A601A6822F46F
:10188C0080221A60E1E7684B1A6842F480221A60E1
:10189C001A6842F480321A60D7E703F077FD0546E8
:1018AC00614B1B6813F4003FA3D003F06FFD401B8A
:1018BC006428F5D9032050E212F0030FA6D15A4B3D
:1018CC001B6813F0040F03D0E368002B00F0408278
:1018DC00554A136823F01903E1680B43136003F0B6
:1018EC0055FD0546504B1B6813F0040F06D103F051
:1018FC004DFD401B0228F5D903202EE24A4A5368BD
:10190C0023F0FE43216943EA01635360236813F01B
:10191C00100F51D0444A136903F03803926A082B14
:10192C0039D0182B33D0E369002B69D03E4A1368A9
:10193C0043F08003136003F029FD05463A4B1B6806
:10194C0013F4807F53D103F021FD401B0228F5D9FD
:10195C00032002E2344A536823F0FE43216943EA30
:10196C0001635360D2E7304A136823F0010313601C
:10197C0003F00CFD05462C4B1B6813F0040FC5D06F
:10198C0003F004FD401B0228F5D90320E5E102F029
:10199C000302012AC7D1244B1B6813F4807F03D0A8
:1019AC00E369802B40F0D6811F4AD36823F07C5327
:1019BC00216A43EA0163D360236813F0080F49D00E
:1019CC006369002B32D0184A536F43F001035367FD
:1019DC0003F0DCFC0546144B5B6F13F0020F39D19E
:1019EC0003F0D4FC401B0228F5D90320B5E10E4AC4
:1019FC00D36823F07C53216A43EA0163D360DBE7AD
:101A0C00094A136823F08003136003F0BFFC0546FA
:101A1C00054B1B6813F4807FCED003F0B7FC401B42
:101A2C000228F5D9032098E1004402589D4A536FCF
:101A3C0023F00103536703F0A9FC0546994B5B6F38
:101A4C0013F0020F06D003F0A1FC401B0228F5D9BD
:101A5C00032082E1236813F0200F29D0A3699BB1E6
:101A6C00904A136843F48053136003F08FFC0546CF
:101A7C008C4B1B6813F4005F1AD103F087FC401BDE
:101A8C000228F5D9032068E1864A136823F48053B1
:101A9C00136003F07BFC0546824B1B6813F4005F5C
:101AAC0006D003F073FC401B0228F5D9032054E147
:101ABC00236813F0040F21D1636A002B00F04C81D2
:101ACC00784A126902F03802182A00F0F380022BCF
:101ADC0075D0744A136823F08073136003F056FCBE
:101AEC000446704B1B6813F0007F00F0D88003F0A5
:101AFC004DFC001B0228F4D903202EE16A4A13681E
:101B0C0043F48073136003F041FC0546664B1B687D
:101B1C0013F4807F06D103F039FC401B6428F5D9FF
:101B2C0003201AE1A368012B0AD00BBB5D4B1A6F83
:101B3C0022F001021A671A6F22F004021A6704E0FD
:101B4C00584A136F43F001031367A36833B303F0D0
:101B5C001DFC0546534B1B6F13F0020FACD103F069
:101B6C0015FC401B41F288339842F3D90320F4E072
:101B7C00052B09D04B4B1A6F22F001021A671A6F12
:101B8C0022F004021A67E0E7464B1A6F42F0040297
:101B9C001A671A6F42F001021A67D6E703F0F6FBD8
:101BAC000546404B1B6F13F0020F85D003F0EEFB84
:101BBC00401B41F288339842F3D90320CDE0394AD7
:101BCC00136823F08073136003F0E0FB0546354B7C
:101BDC001B6813F0007F06D003F0D8FB401B0228D3
:101BEC00F5D90320B9E02F4B996A304A0A40A16A13
:101BFC00E06A41EA00110A439A62226B013AC2F38D
:101C0C000802616B0139490289B20A43A16B01399F
:101C1C00090401F4FE010A43E16B0139090601F0E4
:101C2C00FE410A431A63DA6A22F00102DA62596B46
:101C3C001F4A0A40A16C42EAC1025A63DA6A22F0D6
:101C4C000C02216C0A43DA62DA6A22F00202616C3D
:101C5C000A43DA62DA6A42F48032DA62DA6A42F40D
:101C6C000032DA62DA6A42F48022DA62DA6A42F02C
:101C7C000102DA621A6842F080721A6003F086FB85
:101C8C000446084B1B6813F0007F06D103F07EFB63
:101C9C00001B0228F5D903205FE000205DE0002046
:101CAC005BE000BF00440258004802580CFCFFFFE8
:101CBC000700FFFF30498A6A086B012B4ED002F0F7
:101CCC000303A16A8B424BD1C2F30512E36A9A4219
:101CDC0048D1C0F30802236B013B9A4244D1C0F3B4
:101CEC004622636B013B9A4240D1C0F30642A36B80
:101CFC00013B9A423CD1C0F30660E36B013B984236
:101D0C0038D11D4B5B6BC3F3CC03A26C9A4201D14F
:101D1C00002022E0184AD36A23F00103D36203F0B7
:101D2C0035FB054603F032FBA842FBD0124A516B3F
:101D3C00124B0B40A16C43EAC1035363D36A43F0CB
:101D4C000103D362002008E001207047012004E069
:101D5C00012002E0012000E0002038BD0120FCE75A
:101D6C000120FAE70120F8E70120F6E70120F4E76B
:101D7C000120F2E70120F0E7004402580700FFFFC2
:101D8C00744B1B6903F03803102B00F0DE80182B0A
:101D9C0010D00BB1704870476E4B1B6813F0200FBE
:101DAC0000F0D5806B4B1868C0F3C1006B4B23FA65
:101DBC0000F0704710B4674A916A01F00301946A0D
:101DCC00C4F30510D36A03F0010C536BC3F3CC03BB
:101DDC000CFB03F307EE903AF8EE677A14F47C7F71
:101DEC0000F09380012965D0022900F09180E1B1C7
:101DFC0007EE100AF8EE476A9FED596A86EE267ACE
:101E0C00544B1B6BC3F3080306EE903AF8EE666A6C
:101E1C009FED546A67EE867A76EEA77AF7EE006A43
:101E2C0077EEA67A27EE277A60E0136813F0200F7E
:101E3C0023D011461268C2F3C102484BD34007EEBF
:101E4C00103AF8EE476A07EE100AB8EE476A86EECB
:101E5C00867A0B6BC3F3080306EE903AF8EE666ACB
:101E6C009FED406A67EE867A76EEA77AF7EE006A07
:101E7C0077EEA67A27EE277A38E007EE100AF8EE0E
:101E8C00476A9FED396A86EE267A324B1B6BC3F399
:101E9C00080306EE903AF8EE666A9FED326A67EE3A
:101EAC00867A76EEA77AF7EE006A77EEA67A27EEB8
:101EBC00277A1BE007EE100AF8EE476A9FED286AB6
:101ECC0086EE267A234B1B6BC3F3080306EE903A7F
:101EDC00F8EE666A9FED236A67EE867A76EEA77A4D
:101EEC00F7EE006A77EEA67A27EE277A194B1B6B72
:101EFC00C3F34623013307EE903AF8EE677AC7EE48
:101F0C00276AFCEEE67A17EE900A5DF8044B7047F0
:101F1C0007EE100AF8EE476A9FED146A86EE267AF1
:101F2C000C4B1B6BC3F3080306EE903AF8EE666A93
:101F3C009FED0C6A67EE867A76EEA77AF7EE006A6A
:101F4C0077EEA67A27EE277AD0E709487047034840
:101F5C00704700BF0044025800093D000090D003B8
:101F6C000024744A000000390024744C20BCBE4B81
:101F7C0040787D01002800F0328170B50D46044692
:101F8C009B4B1B6803F00F038B420BD2984A1368D0
:101F9C0023F00F030B431360136803F00F038B4202
:101FAC0040F01F81236813F0040F0CD02269914B71
:101FBC009B6903F070039A4205D98E498B6923F013
:101FCC0070031A438A61236813F0080F0CD06269FE
:101FDC00884BDB6903F070039A4205D98549CB69BC
:101FEC0023F070031A43CA61236813F0100F0CD04E
:101FFC00A269804BDB6903F4E0639A4205D97D4901
:10200C00CB6923F4E0631A43CA61236813F0200FF1
:10201C000CD0E269774B1B6A03F070039A4205D926
:10202C0074490B6A23F070031A430A62236813F095
:10203C00020F0CD0E2686F4B9B6903F00F039A42BE
:10204C0005D96C498B6923F00F031A438A61236805
:10205C0013F0010F41D0674A936923F47063A168B0
:10206C000B4393616368022B0AD0032B27D0012BFF
:10207C002CD0604A126812F0040F06D10120ADE09A
:10208C00126812F4003F00F0AE805A490A6922F03F
:10209C00070213430B6103F079F90646554B1B6994
:1020AC0003F038036268B3EBC20F16D003F06EF97D
:1020BC00801B41F288339842F0D903208EE04D4AC0
:1020CC00126812F0007FE0D1012087E0494A1268C3
:1020DC0012F4807FD9D1012080E0236813F0020F25
:1020EC000CD0E268434B9B6903F00F039A4205D274
:1020FC0040498B6923F00F031A438A613C4B1B68E0
:10210C0003F00F03AB420AD9394A136823F00F03CB
:10211C002B431360136803F00F03AB4265D12368A4
:10212C0013F0040F0CD02269324B9B6903F070033F
:10213C009A4205D22F498B6923F070031A438A61A6
:10214C00236813F0080F0CD062692A4BDB6903F08B
:10215C0070039A4205D22749CB6923F070031A43C6
:10216C00CA61236813F0100F0CD0A269214BDB69F4
:10217C0003F4E0639A4205D21E49CB6923F4E06371
:10218C001A43CA61236813F0200F0CD0E269194B73
:10219C001B6A03F070039A4205D216490B6A23F0AE
:1021AC0070031A430A62FFF7EBFD12498B69C3F304
:1021BC000323114AD35C03F01F03D8408B6903F04F
:1021CC000F03D35C03F01F0320FA03F30B4A1360D5
:1021DC000B4B18600B4B186803F076F870BD0120A0
:1021EC0070470120FAE70120F8E70120F6E700BF6D
:1021FC000020005200440258905500080C000020AA
:10220C00080000200400002008B5FFF7B9FD0B4AB8
:10221C009369C3F303230A49CB5C03F01F0320FA31
:10222C0003F3926902F00F02885C00F01F0023FA9E
:10223C0000F0044A1060044A136008BD00440258C0
:10224C00905500080C0000200800002008B5FFF78E
:10225C00DBFF054BDB69C3F30213044AD35C03F0C9
:10226C001F03D84008BD00BF004402589055000819
:10227C00404B9B6A03F00303032B79D070B50546E2
:10228C000E463C4A136823F08063136003F07EF81B
:10229C000446384B1B6813F0006F06D003F076F839
:1022AC00031B022BF5D9032070BD324B9A6A22F422
:1022BC007C32296842EA01329A626A68013AC2F3B6
:1022CC000802A9680139490289B20A43E96801394F
:1022DC00090401F4FE010A4329690139090601F0D8
:1022EC00FE410A439A63DA6A22F0C00269690A4322
:1022FC00DA62DA6A22F02002A9690A43DA62DA6A3F
:10230C0022F01002DA62D96B1B4A0A40E96942EAF0
:10231C00C102DA63DA6A42F01002DA62C6B91A460E
:10232C00DB6A43F40023D362124A136843F08063E0
:10233C00136003F02BF804460E4B1B6813F0006F70
:10234C0014D103F023F8001B0228F5D90320ABE7C6
:10235C00012E05D0074AD36A43F40013D362E3E796
:10236C00044AD36A43F48013D362DDE700209BE771
:10237C0001207047004402580700FFFF404B9B6A46
:10238C0003F00303032B79D070B505460E463C4A87
:10239C00136823F08053136002F0F8FF0446384BA7
:1023AC001B6813F0005F06D002F0F0FF031B022B3A
:1023BC00F5D9032070BD324B9A6A22F07C722968E1
:1023CC0042EA01529A626A68013AC2F30802A968A9
:1023DC000139490289B20A43E9680139090401F457
:1023EC00FE010A4329690139090601F0FE410A433D
:1023FC001A64DA6A22F4406269690A43DA62DA6AB8
:10240C0022F40072A9690A43DA62DA6A22F4807251
:10241C00DA62596C1B4A0A40E96942EAC1025A6401
:10242C00DA6A42F48072DA62C6B91A46DB6A43F49D
:10243C008003D362124A136843F08053136002F096
:10244C00A5FF04460E4B1B6813F0005F14D102F07D
:10245C009DFF001B0228F5D90320ABE7012E05D008
:10246C00074AD36A43F08073D362E3E7044AD36A22
:10247C0043F40003D362DDE700209BE701207047A3
:10248C00004402580700FFFFF8B50446036813F038
:10249C00006F30D0436EB3F5001F26D00ED8EBB1D1
:1024AC00B3F5801F07D102210830FFF7E1FE054686
:1024BC0045B12E4621E0012635461EE0B3F5401FFE
:1024CC0009D100259F4A136D23F44013616E0B4311
:1024DC001365002611E0012635460EE0994AD36AB1
:1024EC0043F40033D3620025ECE702212830FFF7D8
:1024FC0045FF0546DCE700263546236813F4807F4C
:10250C0027D0A36D042B20D8DFE803F003111808A3
:10251C0008008C4AD36A43F40033D362C5B9894AA4
:10252C00136D23F00703A16D0B43136511E000211C
:10253C0004F10800FFF79CFE0546EFE7002104F1CB
:10254C002800FFF71BFF0546E8E70126354600E0AB
:10255C002E46236813F4806F22D0D4F8A430B3F540
:10256C00800F3FD00DD8BBB3B3F5001F06D10021AF
:10257C0004F10800FFF77CFE054608E0012635460D
:10258C000EE0B3F5000F02D0B3F5200F1ED185BBC2
:10259C006C4A936D23F46003D4F8A4100B43936539
:1025AC00236813F4006F39D0D4F8A830B3F1007F4E
:1025BC005AD023D8002B51D0B3F1807F1BD10021EE
:1025CC0004F10800FFF754FE05461DE0B3F5C00FFB
:1025DC00DDD001263546E3E75A4AD36A43F400338B
:1025EC00D362D4E7002104F12800FFF7C7FE0546AB
:1025FC00CDE72E46D4E7012635460FE0B3F1806FC8
:10260C0002D0B3F1A06F23D1002D34D14D4A936D7C
:10261C0023F0E063D4F8A8100B439365236813F000
:10262C00007F31D0E36C202B42D029D833B1102B52
:10263C0023D1444AD36A43F40033D362002D3ED1F4
:10264C00404AD36C23F03003E16C0B43D3641BE0A2
:10265C00B3F1407FD8D001263546DFE7394AD36A3B
:10266C0043F40033D362CFE7002104F12800FFF7D5
:10267C0085FE0546C8E72E46D0E70126354603E021
:10268C00302BDBD001263546236813F4805F3BD01A
:10269C00E36DB3F5005F2FD016D83BB3B3F5805F75
:1026AC000FD1002104F10800FFF7E2FD054611E00F
:1026BC00022104F10800FFF7DBFD0546BEE72E46BC
:1026CC00E2E7012635461FE0B3F5405F02D0B3F5D3
:1026DC00804F08D1BDB91B4A136D23F4E043E16D63
:1026EC000B43136510E0012635460DE0154AD36AFD
:1026FC0043F40033D362EDE7002104F12800FFF727
:10270C003DFE0546E6E72E46236813F4005F29D00C
:10271C00236EB3F5003F44D019D843B1B3F5803FD5
:10272C0012D1012104F10800FFF7A2FD0546002D8E
:10273C003ED1044A136D23F4E023216E0B43136541
:10274C0010E000BF00440258012635460AE0B3F5FC
:10275C00802FECD0B3F5A02FE9D0B3F5403FE6D0F5
:10276C0001263546236813F4804F31D0D4F8AC30B1
:10277C00B3F1005F45D020D843B1B3F1805F19D1DC
:10278C00012104F10800FFF773FD0546002D3FD130
:10279C008F4A936D23F0E043D4F8AC100B43936550
:1027AC0016E0012104F12800FFF7E8FD0546BEE71D
:1027BC002E46D7E7012635460AE0B3F1804FE5D027
:1027CC00B3F1A04FE2D0B3F1405FDFD00126354624
:1027DC00236813F4004F09D0E36EB3F1805F19D076
:1027EC00B3F1005F24D0D3B101263546236813F032
:1027FC00807F33D0A36C032B5BD8DFE803F0272258
:10280C005327012104F12800FFF7B8FD0546BDE769
:10281C002E46DDE76E4AD36A43F40033D36275B9B2
:10282C006B4A136D23F04053E16E0B431365DDE7E8
:10283C00012104F10800FFF71BFD0546EFE72E46CA
:10284C00D4E7634AD36A43F40033D362A5BB604A2E
:10285C00D36C23F00303A16C0B43D364236813F4F0
:10286C00800F2BD1236813F0010F00F0A380A36F0E
:10287C00282B00F29D80DFE803F08B9B9B9B9B9B9E
:10288C009B9B859B9B9B9B9B9B9B949B9B9B9B9BA9
:10289C009B9B8B9B9B9B9B9B9B9B8B9B9B9B9B9B9C
:1028AC009B9B8B00022104F10800FFF7E1FC05461D
:1028BC00CCE701263546D1E72E46CFE7454A1368CB
:1028CC0043F48073136002F061FD0746414B1B68B3
:1028DC0013F4807F05D102F059FDC01B6428F5D993
:1028EC000325002D4AD13A4B1B6FD4F8B02053402E
:1028FC0013F4407F0CD0364B1A6F22F44072196FD0
:10290C0041F480311967196F21F4803119671A6706
:10291C00D4F8B030B3F5807F15D08DBBD4F8B0307F
:10292C0003F44072B2F5407F1ED0294A136923F498
:10293C007C53136126490B6FD4F8B020C2F30B0201
:10294C0013430B678EE702F021FD0746204B1B6FEC
:10295C0013F0020FE1D102F019FDC01B41F28833D4
:10296C009842F3D90325D8E71948026922F47C521E
:10297C00194901EA131313430361DBE72E4671E790
:10298C002E466FE7012104F10800FFF771FC0546A4
:10299C00E5B90F4A536D23F03803A16F0B43536510
:1029AC0008E0012104F12800FFF7E8FC0546EFE7F9
:1029BC0001263546236813F0020F1DD0636F052BDB
:1029CC002ED8DFE803F0110B261111112E46F1E77A
:1029DC000044025800480258CFFFFF00012104F1C7
:1029EC000800FFF745FC0546EDB9A94A536D23F0E5
:1029FC000703616F0B435365236813F0040F23D057
:102A0C00D4F89030052B45D8DFE803F0150F3D15B1
:102A1C001515012104F12800FFF7B0FC0546E3E78A
:102A2C0001263546E8E72E46E6E7012104F10800C9
:102A3C00FFF71EFC054685BB954A936D23F00703F3
:102A4C00D4F890100B439365236813F0200F34D007
:102A5C00D4F88C30B3F1005F4ED023D843B1B3F12E
:102A6C00805F1CD1002104F10800FFF701FC054632
:102A7C00002D48D1864A536D23F0E043D4F88C10D6
:102A8C000B43536519E0012104F12800FFF776FC94
:102A9C000546D0E701263546D6E72E46D4E7012673
:102AAC0035460AE0B3F1804FE2D0B3F1A04FDFD04E
:102ABC00B3F1405FDCD001263546236813F0400F9C
:102ACC0031D0D4F89830B3F5006F4DD020D843B145
:102ADC00B3F5806F19D1002104F10800FFF7C8FB92
:102AEC000546002D47D16A4A936D23F4E053D4F880
:102AFC0098100B43936516E0022104F12800FFF7B0
:102B0C003DFC0546B4E72E46D7E7012635460AE0DC
:102B1C00B3F5805FE5D0B3F5A05FE2D0B3F5406FBD
:102B2C00DFD001263546236813F0800F33D0D4F85C
:102B3C009C30B3F5804F00F0A18021D843B1B3F5A0
:102B4C00005F1AD1002104F10800FFF791FB054644
:102B5C00002D40F09A804E4A936D23F46043D4F8D4
:102B6C009C100B43936516E0022104F12800FFF73B
:102B7C0005FC0546B5E72E46D5E7012635460AE0A5
:102B8C00B3F5004FE4D0B3F5204FE1D0B3F5C04F0F
:102B9C00DED001263546236813F0080F0CD0D4F88C
:102BAC008030B3F5805F75D0394A536D23F44053B0
:102BBC00D4F880100B435365236813F0100F0CD01E
:102BCC00D4F89430B3F5807F6DD0314A936D23F4F3
:102BDC004073D4F894100B439365236813F4002FBF
:102BEC000BD0D4F8A030B3F5803F75D0B3F5003FCF
:102BFC0068D0002B60D001263546236813F4802F53
:102C0C000CD0D4F88430B3F5001F7DD0B3F5401F41
:102C1C0070D0B3F5801F68D001263546236813F4B5
:102C2C00803F08D0236D002B77D0B3F5803F00F0A8
:102C3C00828001263546236813F0005F40F08480C3
:102C4C00236813F4003F00F08C80E36FB3F5807FB2
:102C5C0000F0DF8040F28280B3F5007F03D0B3F543
:102C6C00407F40F0D480002D40F0D980084A536D4D
:102C7C0023F44073E16F0B43536572E0022104F1BE
:102C8C002800FFF77BFB054662E72E4683E700BF73
:102C9C0000440258022104F12800FFF76FFB0028C2
:102CAC0082D0012680E7022104F12800FFF766FBA1
:102CBC0000288AD0012688E7002104F10800FFF7DC
:102CCC00D7FA05467DB9724A936D23F44033D4F894
:102CDC00A0100B43936590E7022104F12800FFF745
:102CEC004DFB0546EEE72E4687E7694AD36A43F467
:102CFC000033D3627DB9664A536D23F44013D4F884
:102D0C0084100B43536589E7012104F12800FFF778
:102D1C0035FB0546EEE72E4680E75D4AD36A43F461
:102D2C000033D36275B95A4AD36C23F48033216DC6
:102D3C000B43D3647FE7022104F10800FFF798FAF4
:102D4C000546EFE72E4676E7022104F12800FFF74F
:102D5C0015FB00283FF474AF012671E7002B82D0DD
:102D6C000126236813F4801F06D0494A136D23F003
:102D7C000043216F0B431365236813F4001F06D027
:102D8C00434A136D23F08073A16E0B4313652368C4
:102D9C0013F0804F09D03E4B1A6922F400421A619D
:102DAC001A69D4F8B4100A431A612368002B06DAA6
:102DBC00374AD36C23F04053616D0B43D3642368C3
:102DCC0013F4000F07D0324A536D23F44003D4F8A8
:102DDC0088100B435365636813F0010F21D16368AE
:102DEC0013F0020F26D1636813F0040F2BD1636824
:102DFC0013F0080F30D1636813F0100F35D16368EE
:102E0C0013F0200F3AD106B101263046F8BD012649
:102E1C00A7E71F4AD36A43F40033D36223E72E4655
:102E2C009FE7002104F10800FFF722FA0028D6D012
:102E3C000646D4E7012104F10800FFF719FA00282F
:102E4C00D1D00646CFE7022104F10800FFF710FAB3
:102E5C000028CCD00646CAE7002104F12800FFF771
:102E6C008DFA0028C7D00646C5E7012104F12800D9
:102E7C00FFF784FA0028C2D00646C0E7022104F10D
:102E8C002800FFF77BFA0028BDD00646BBE700BF41
:102E9C000044025808B5FFF7B7F9054B1B6AC3F39A
:102EAC000213044AD35C03F01F03D84008BD00BFD3
:102EBC00004402589055000810B5774A916A946AFC
:102ECC00C4F3053ED36AC3F3001CD36BC3F3CC032A
:102EDC000CFB03F314F47C3F00F0D88001F00301E9
:102EEC0007EE903AF8EE677A012965D0022900F0D6
:102EFC00B080E1B107EE10EAB8EE477A9FED676A51
:102F0C00C6EE076A644B9B6BC3F3080307EE103ADB
:102F1C00B8EE477A9FED626A67EE867A77EE277A8B
:102F2C00B7EE007A77EE877A66EEA76A60E01368F0
:102F3C0013F0200F23D011461268C2F3C102594B73
:102F4C00D34007EE103AB8EE477A06EE90EAB8EEA8
:102F5C00666AC7EE066A8B6BC3F3080307EE103A7A
:102F6C00B8EE477A9FED4E6A67EE867A77EE277A4F
:102F7C00B7EE007A77EE877A66EEA76A38E007EE4E
:102F8C0010EAB8EE477A9FED486AC6EE076A424BE4
:102F9C009B6BC3F3080307EE103AB8EE477A9FED2C
:102FAC00406A67EE867A77EE277AB7EE007A77EE8C
:102FBC00877A66EEA76A1BE007EE10EAB8EE477A4E
:102FCC009FED366AC6EE076A334B9B6BC3F308035F
:102FDC0007EE103AB8EE477A9FED316A67EE867AC3
:102FEC0077EE277AB7EE007A77EE877A66EEA76AE5
:102FFC00294A936BC3F3462307EE103AB8EE477A8F
:10300C00B7EE006A37EE067AC6EE877AFCEEE77A00
:10301C00C0ED007A936BC3F3064307EE103AB8EE9B
:10302C00477A37EE067AC6EE877AFCEEE77AC0ED81
:10303C00017A936BC3F3066307EE903AF8EE677A66
:10304C0077EE867A86EEA77ABCEEC77A80ED027AA6
:10305C0010BD07EE10EAB8EE477A9FED146AC6EE83
:10306C00076A0D4B9B6BC3F3080307EE103AB8EEDF
:10307C00477A9FED0B6A67EE867A77EE277AB7EE82
:10308C00007A77EE877A66EEA76AB1E700230360D1
:10309C0043608360DCE700BF004402580024744A9C
:1030AC00000000390090D0030024744C20BCBE4BAF
:1030BC0010B5774A916A946AC4F3055ED36AC3F378
:1030CC00002C536CC3F3CC030CFB03F314F07C7F88
:1030DC0000F0D88001F0030107EE903AF8EE677A21
:1030EC00012965D0022900F0B080E1B107EE10EAA9
:1030FC00B8EE477A9FED676AC6EE076A644B1B6CA5
:10310C00C3F3080307EE103AB8EE477A9FED626AF4
:10311C0067EE867A77EE277AB7EE007A77EE877AC3
:10312C0066EEA76A60E0136813F0200F23D01146F7
:10313C001268C2F3C102594BD34007EE103AB8EEF5
:10314C00477A06EE90EAB8EE666AC7EE066A0B6C32
:10315C00C3F3080307EE103AB8EE477A9FED4E6AB8
:10316C0067EE867A77EE277AB7EE007A77EE877A73
:10317C0066EEA76A38E007EE10EAB8EE477A9FEDE4
:10318C00486AC6EE076A424B1B6CC3F3080307EE92
:10319C00103AB8EE477A9FED406A67EE867A77EE82
:1031AC00277AB7EE007A77EE877A66EEA76A1BE08D
:1031BC0007EE10EAB8EE477A9FED366AC6EE076A5C
:1031CC00334B1B6CC3F3080307EE103AB8EE477A87
:1031DC009FED316A67EE867A77EE277AB7EE007A42
:1031EC0077EE877A66EEA76A294A136CC3F34623F7
:1031FC0007EE103AB8EE477AB7EE006A37EE067A69
:10320C00C6EE877AFCEEE77AC0ED007A136CC3F356
:10321C00064307EE103AB8EE477A37EE067AC6EE5A
:10322C00877AFCEEE77AC0ED017A136CC3F3066380
:10323C0007EE903AF8EE677A77EE867A86EEA77A02
:10324C00BCEEC77A80ED027A10BD07EE10EAB8EE3C
:10325C00477A9FED146AC6EE076A0D4B1B6CC3F3DD
:10326C00080307EE103AB8EE477A9FED0B6A67EE4B
:10327C00867A77EE277AB7EE007A77EE877A66EE63
:10328C00A76AB1E70023036043608360DCE700BFFB
:10329C00004402580024744A000000390090D00306
:1032AC000024744C20BCBE4B10B5774A916A946ACA
:1032BC00C4F3051ED36A03F0010C536BC3F3CC03A8
:1032CC000CFB03F314F47C7F00F0D88001F00301B5
:1032DC0007EE903AF8EE677A012965D0022900F0E2
:1032EC00B080E1B107EE10EAB8EE477A9FED676A5D
:1032FC00C6EE076A644B1B6BC3F3080307EE103A68
:10330C00B8EE477A9FED626A67EE867A77EE277A97
:10331C00B7EE007A77EE877A66EEA76A60E01368FC
:10332C0013F0200F23D011461268C2F3C102594B7F
:10333C00D34007EE103AB8EE477A06EE90EAB8EEB4
:10334C00666AC7EE066A0B6BC3F3080307EE103A06
:10335C00B8EE477A9FED4E6A67EE867A77EE277A5B
:10336C00B7EE007A77EE877A66EEA76A38E007EE5A
:10337C0010EAB8EE477A9FED456AC6EE076A424BF3
:10338C001B6BC3F3080307EE103AB8EE477A9FEDB8
:10339C00406A67EE867A77EE277AB7EE007A77EE98
:1033AC00877A66EEA76A1BE007EE10EAB8EE477A5A
:1033BC009FED396AC6EE076A334B1B6BC3F30803E8
:1033CC0007EE103AB8EE477A9FED316A67EE867ACF
:1033DC0077EE277AB7EE007A77EE877A66EEA76AF1
:1033EC00294A136BC3F3462307EE103AB8EE477A1B
:1033FC00B7EE006A37EE067AC6EE877AFCEEE77A0D
:10340C00C0ED007A136BC3F3064307EE103AB8EE27
:10341C00477A37EE067AC6EE877AFCEEE77AC0ED8D
:10342C00017A136BC3F3066307EE903AF8EE677AF2
:10343C0077EE867A86EEA77ABCEEC77A80ED027AB2
:10344C0010BD07EE10EAB8EE477A9FED146AC6EE8F
:10345C00076A0D4B1B6BC3F3080307EE103AB8EE6B
:10346C00477A9FED0B6A67EE867A77EE277AB7EE8E
:10347C00007A77EE877A66EEA76AB1E700230360DD
:10348C0043608360DCE700BF004402580024744CA6
:10349C00000000390090D0030024744A20BCBE4BBD
:1034AC0000B58BB0A0F580730B4329D0A0F58063D9
:1034BC000B4379D0A0F500630B4300F0D280A0F54C
:1034CC0080530B4300F02A81A0F500530B4300F00E
:1034DC008981A0F500230B4300F0D281A0F5803345
:1034EC000B4300F01582A0F580430B4300F02E82B5
:1034FC00A0F5004050EA010300F07A820020A8E217
:10350C00964B1B6D03F00703042B00F29982DFE846
:10351C0003F005101B03260091489AE28F4B1868A4
:10352C0010F0007000F0958207A8FFF7BDFE089818
:10353C008FE28A4B186810F0006000F08A8204A8B1
:10354C00FFF7BAFC049884E2844B186810F0005022
:10355C0000F07F8201A8FFF7ABFD019879E27F4A6A
:10356C00D36C03F04053126812F0040F07D033B938
:10357C007A4B1B68C3F3C1037A48D84069E2774A97
:10358C00126812F4807F03D0B3F1805F00F05A828E
:10359C00724A126812F4003F00F05682B3F1005FD9
:1035AC0000F05482002054E26C4B9B6D03F46003DA
:1035BC00B3F5800F35D016D9B3F5C00F00F04882A3
:1035CC00B3F5000F20D1654AD36C03F04053126859
:1035DC0012F0040F30D07BBB604B1B68C3F3C103EC
:1035EC006048D84035E28BB1B3F5001F0AD15B4B74
:1035FC00186810F0006000F02C8204A8FFF75CFC47
:10360C00049826E2002024E2002022E2534B1868A2
:10361C0010F0007000F01D8207A8FFF745FE089817
:10362C0017E24E4B186810F0005000F0128201A8FF
:10363C00FFF73EFD01980CE2484A126812F4807FB5
:10364C0003D0B3F1805F00F00782444A126812F491
:10365C00003F00F00382B3F1005F00F00182002014
:10366C00F7E13E4B9B6D03F0E063B3F1007F35D087
:10367C0016D9B3F1407F00F0F581B3F1806F20D102
:10368C00364AD36C03F04053126812F0040F30D05A
:10369C007BBB324B1B68C3F3C1033248D840D8E123
:1036AC008BB1B3F1807F0AD12C4B186810F00060FD
:1036BC0000F0CF8104A8FFF7FFFB0498C9E10020BC
:1036CC00C7E10020C5E1254B186810F0007000F030
:1036DC00C08107A8FFF7E8FD0898BAE11F4B1868EE
:1036EC0010F0005000F0B58101A8FFF7E1FC019843
:1036FC00AFE11A4A126812F4807F03D0B3F1805FF5
:10370C0000F0B281154A126812F4003F00F0AE814D
:10371C00B3F1005F00F0AC8100209AE10F4B1B6D00
:10372C0003F4E043B3F5005F3CD01DD9B3F5405F23
:10373C0000F0A081B3F5804F27D1084AD36C03F079
:10374C004053126812F0040F37D0002B35D1034BC5
:10375C001B68C3F3C1030348D8407AE10044025804
:10376C000080BB000090D0038BB1B3F5805F0AD111
:10377C009B4B186810F0006000F06B8104A8FFF7F9
:10378C009BFB049865E1002063E1002061E1944B10
:10379C00186810F0007000F05C8107A8FFF784FD3A
:1037AC00089856E18E4B186810F0005000F05181CB
:1037BC0001A8FFF77DFC01984BE1894A126812F4CD
:1037CC00807F03D0B3F1805F00F05681844A126889
:1037DC0012F4003F00F05281B3F1005F00F0508111
:1037EC00002036E17E4B1B6D03F4E023B3F5403F24
:1037FC0032D016D8B3F5803F23D0B3F5003F0AD1B1
:10380C00774B186810F0005000F0238101A8FFF7E7
:10381C004FFC02981DE113B9FEF718FD19E10020C9
:10382C0017E1B3F5802F23D0B3F5A02F07D16C4B44
:10383C00186810F4003000F00C816A4809E100208F
:10384C0007E1674B186810F0006000F0028104A8D3
:10385C00FFF732FB0598FCE0614B186810F0040090
:10386C0000F0F7801B68C3F3C1035F48D840F0E059
:10387C005B4B186810F4807000F0EB805B48E8E05C
:10388C00574B9B6D03F44033B3F5803F10D0B3F529
:10389C00003F18D00BB10020DBE0514B186810F042
:1038AC00006000F0D68004A8FFF706FB0498D0E077
:1038BC004B4B186810F0005000F0CB8001A8FFF7BC
:1038CC00F7FB0398C5E0464AD36C03F040531268EB
:1038DC0012F0040F07D033B9414B1B68C3F3C1037B
:1038EC004148D840B5E03E4A126812F4807F03D0BC
:1038FC00B3F1805F00F0C680394A126812F4003FC1
:10390C0000F0C280B3F1005F00F0C0800020A0E0A6
:10391C00334BDB6C13F4803302D063B9002098E096
:10392C002F4B186810F0007000F0938007A8FFF779
:10393C00BBFC08988DE02A4B186810F0006000F072
:10394C00888004A8FFF7B8FA069882E0244B9B6D98
:10395C0003F0E043B3F1405F2FD015D8B3F1805F93
:10396C0021D0B3F1005F09D11D4B186810F0005045
:10397C006FD001A8FFF79CFB02986AE013B9FFF720
:10398C0089FA66E0002064E0B3F1804F20D0B3F1F7
:10399C00A04F06D1124B186810F4003059D01148C2
:1039AC0057E0002055E00E4B186810F0006050D026
:1039BC0004A8FFF781FA05984BE0094B186810F042
:1039CC00040046D01B68C3F3C1030748D84040E04D
:1039DC00034B186810F480703BD0044839E000BFEA
:1039EC000044025840787D010090D00300093D004E
:1039FC00274B1B6D03F04053B3F1805F0CD0B3F138
:103A0C00005F13D00BB1002023E0214B186810F499
:103A1C0000301ED01F481CE01D4B186810F00070C1
:103A2C0017D007A8FFF740FC089812E0184B18684D
:103A3C0010F000600DD004A8FFF73EFA059808E0DE
:103A4C00002006E0144804E0002002E0114800E0E9
:103A5C0012480BB05DF804FB0F48FAE70020F8E7BA
:103A6C000C48F6E70D48F4E70B48F2E70020F0E7C6
:103A7C000848EEE70948ECE70748EAE70020E8E7E2
:103A8C000448E6E70448E4E70020E2E70148E0E701
:103A9C000044025840787D0100093D000080BB00C5
:103AAC00F0B583B000236BE085685E000324B4405E
:103ABC0025EA0405CC68B4402C438460446824EAAD
:103ACC000C0C4C68C4F300149C4044EA0C04446095
:103ADC0068E0DD08083550F8256003F007044FEA6C
:103AEC00840C0F2404FA0CF426EA040E0C6904FA74
:103AFC000CF444EA0E0440F825406BE0092400E085
:103B0C00002404FA0EF42C430CF1020C664D45F81B
:103B1C002C404FF0B0442568D44325EA02064F6888
:103B2C0017F4801F01D042EA05064FF0B0452E6015
:103B3C006D6804EA05064F6817F4001F01D042EACD
:103B4C0005064FF0B0456E60D5F8845004EA0506C2
:103B5C004F6817F4003F01D042EA05064FF0B0451C
:103B6C00C5F88460D5F880502C404E6816F4803F20
:103B7C0001D042EA05044FF0B042C2F88040013354
:103B8C000A6832FA03F400F08C804FF0010C0CFA46
:103B9C0003FC1CEA0202F2D04C6804F00304013C62
:103BAC00012C81D94C6804F00304032C0CD0C4689C
:103BBC005D004FF0030C0CFA05FC24EA0C0C8C682D
:103BCC00AC4044EA0C04C4604C6804F00304022CBE
:103BDC003FF47FAF04684FEA430E4FF0030C0CFA2E
:103BEC000EFC24EA0C0C4C6804F0030404FA0EF4EA
:103BFC0044EA0C0404604C6814F4403FBFD02B4CD6
:103C0C00D4F8F45045F00205C4F8F450D4F8F4405C
:103C1C0004F002040194019C4FEA930C0CF1020590
:103C2C00214C54F8255003F003044FEA840E0F2462
:103C3C0004FA0EF425EA04051D4CA0423FF460AFD3
:103C4C0004F58064A0421ED004F58064A0421CD010
:103C5C0004F58064A0421AD004F58064A04218D008
:103C6C0004F58064A04216D004F58064A04214D000
:103C7C0004F58064A04212D004F50064A0423FF425
:103C8C003DAF0A243DE701243BE7022439E7032436
:103C9C0037E7042435E7052433E7062431E7072406
:103CAC002FE703B0F0BD00BF0004005800440258D9
:103CBC00000002580AB181617047090481617047A4
:103CCC00436901EA030221EA030141EA02418161ED
:103CDC0070470000F0B4876D0468664E664DAC42C8
:103CEC0018BFB44242D01835AC423FD01835AC4264
:103CFC003CD01835AC4239D01835AC4236D01835DA
:103D0C00AC4233D01835AC4230D005F55675AC42C8
:103D1C002CD01835AC4229D01835AC4226D01835E9
:103D2C00AC4223D01835AC4220D01835AC421DD053
:103D3C001835AC421AD01835AC4217D04F4DAC42A6
:103D4C0014D01435AC4211D01435AC420ED014350D
:103D5C00AC420BD01435AC4208D01435AC4205D073
:103D6C001435AC4202D01435AC4207D1446E856E8A
:103D7C006560C46E14B1046F456F656004683D4E98
:103D8C003D4DAC4218BFB44252D01835AC424FD066
:103D9C001835AC424CD01835AC4249D01835AC4231
:103DAC0046D01835AC4243D01835AC4240D005F55E
:103DBC005675AC423CD01835AC4239D01835AC42B3
:103DCC0036D01835AC4233D01835AC4230D018351B
:103DDC00AC422DD01835AC422AD01835AC4227D085
:103DEC00264E274DAC4218BFB44211D0254DAC42E3
:103DFC000ED01435AC420BD01435AC4208D014356F
:103E0C00AC4205D01435AC4202D01435AC4224D1AE
:103E1C00C46D04F01F050124AC407C600468636031
:103E2C008368402B20D0036899600368DA6014E043
:103E3C00C46D04F01F0C3F2404FA0CF4BC6005683C
:103E4C002C6824F480242C60046863608368402B05
:103E5C0005D0036899600368DA60F0BC70470368AA
:103E6C009A600368D960F8E703689A600368D960C0
:103E7C00F3E700BF1000024028000240085402582B
:103E8C001C5402583054025803682749274A93425D
:103E9C0018BF8B422FD0183293422CD01832934239
:103EAC0029D01832934226D01832934223D018329C
:103EBC00934220D0183293421DD002F55672934291
:103ECC0019D01832934216D01832934213D01832AC
:103EDC00934210D0183293420DD0183293420AD02C
:103EEC001832934207D01832934204D023F0FF03C8
:103EFC008365806D704710B4D9B210390C4AA2FB9F
:103F0C000142C2F302120B4CA25CC2655F2907D9B5
:103F1C00094A1A4004328265806D5DF8044B704783
:103F2C00054A1A408265F7E710000240280002405B
:103F3C00ABAAAAAA8855000800FCFFFF83699BB9AD
:103F4C00836A012B0AD0022B02D00BB100207047E0
:103F5C00C36A13F0807F2AD100207047C36AB3F183
:103F6C00C07F26D000207047B3F5005F0AD0836A6B
:103F7C00022B26D9032B26D1C36A13F0807F24D1C0
:103F8C0000207047836A032B03D8DFE803F0140486
:103F9C00140A00207047C36A13F0807F0DD10020F3
:103FAC007047C36AB3F1C07F09D00020704701206D
:103FBC007047012070470120704701207047012095
:103FCC0070470120704700207047012070470000A7
:103FDC0003682249224A934218BF8B4228D01432DC
:103FEC00934225D01432934222D0143293421FD0E4
:103FFC00143293421CD01432934219D0143293428F
:10400C0016D0DAB2103A1749A1FB0212120916495E
:10401C001944A8291FD9154B13449B000366144B54
:10402C00436602F01F02012303FA02F28266704714
:10403C00DBB2083B0F4AA2FB03230F4A02EB13121D
:10404C00920002660D4A4266C3F30413012202FA7F
:10405C0003F3836670470832DDE700BF085402584B
:10406C001C540258ABAAAAAAF0FBFDBF0082001098
:10407C0080080240CDCCCCCC00960016805802585B
:10408C0001794A1E072A2CD830B40368154D164CFA
:10409C00A34218BFAB4218D01434A34215D0143429
:1040AC00A34212D01434A3420FD01434A3420CD028
:1040BC001434A34209D01434A34206D00B4B0B4446
:1040CC009B00C3660A4B036705E00A4B0B449B003D
:1040DC00C366094B0367012303FA02F2426730BC43
:1040EC0070477047085402581C5402583F82001005
:1040FC00400902403F9600164059025870B50446DC
:10410C0001F044F9002C00F0B381054623685349B3
:10411C00534A934218BF8B420CBF0122002250D04D
:10412C0030318B424DD018318B424AD018318B42F2
:10413C0047D018318B4244D018318B4241D01831C2
:10414C008B423ED001F556718B423AD018318B42DE
:10415C0037D018318B4234D018318B4231D01831D2
:10416C008B422ED018318B422BD018318B4228D059
:10417C0018318B4225D03B493B4A934218BF8B42A6
:10418C0000F02E81394A934200F02A811432934276
:10419C0000F026811432934200F0228114329342B3
:1041AC0000F01E811432934200F01A8114329342B3
:1041BC0000F0168140236365032384F83530012019
:1041CC004AE0022184F83510002184F834107ABBBF
:1041DC00274A93422CD01832934229D0183293425A
:1041EC0026D01832934223D01832934220D0183262
:1041FC0093421DD002F55672934219D01832934255
:10420C0016D01832934213D01832934210D0183271
:10421C0093420DD0183293420AD01832934207D0F1
:10422C001832934204D01A6822F001021A6003E09B
:10423C001A6822F001021A6023681A6812F0010F42
:10424C0018D001F0A3F8431B052BF5D92023636587
:10425C00032384F83530012070BD00BF10000240EC
:10426C0028000240085402581C540258305402587A
:10427C00400002401A687F481040A168E2680A4377
:10428C0021690A4361690A43A1690A43E1690A4346
:10429C00216A0A430243616A042900F0968061682E
:1042AC00A1F12905A1F13F00032888BF052D0AD9EA
:1042BC00A1F14700012806D9A1F14F00032802D92A
:1042CC007439032901D842F480121A602668756982
:1042DC0025F00705636A1D43042B08D1A36A1D430F
:1042EC00E36A23B12046FFF729FE002872D17561DD
:1042FC002046FFF7C9FDE36D03F01F023F239340F7
:10430C00836023685C495D4A934218BF8B4242D05C
:10431C00183293423FD0183293423CD01832934219
:10432C0039D01832934236D01832934233D01832E7
:10433C00934230D002F5567293422CD018329342ED
:10434C0029D01832934226D01832934223D01832F7
:10435C00934220D0183293421DD0183293421AD077
:10436C001832934217D0464A934214D014329342D7
:10437C0011D0143293420ED0143293420BD014321B
:10438C00934208D01432934205D01432934202D097
:10439C001432934213D12046FFF71AFEA368802BE8
:1043AC0059D0236E22791A60636EA26E5A606368CC
:1043BC00013B072B52D90023E36623676367002078
:1043CC006065012384F8353046E7E16A206B0143D0
:1043DC000A4364E740236365012084F835003BE71A
:1043EC00022284F83520002284F834201A682549EA
:1043FC001140A268402A2CD0802A27D00022E068E5
:10440C0042EAD002206942EAD002606942EAD00254
:10441C00A06942EAD002E06942EAD002206A42EA8C
:10442C0010120A431A602268174B1344174AA2FB56
:10443C0003231B099B00E3652046FFF725FDE26D76
:10444C0002F01F0101228A4042605AE74FF4804279
:10445C00D5E71022D3E700236360A2E72046FFF7DD
:10446C000FFEE36E00221A60236F626F5A60A6E79C
:10447C000120F1E63F8010FE1000024028000240AF
:10448C00085402580F00FEFFF8ABFDA7CDCCCCCCE6
:10449C00002800F03E8170B5044690F834000128E5
:1044AC0000F03981012084F8340094F83500C0B252
:1044BC00012807D04FF400636365002384F834307F
:1044CC00012070BD022084F8350000206065206852
:1044DC00924E934DA84218BFB0422FD01835A84227
:1044EC002CD01835A84229D01835A84226D018351A
:1044FC00A84223D01835A84220D01835A8421DD088
:10450C0005F55675A84219D01835A84216D018359D
:10451C00A84213D01835A84210D01835A8420DD097
:10452C001835A8420AD01835A84207D01835A84229
:10453C0004D0056825F00105056003E0056825F049
:10454C00010505602046FFF7C5FB23687349744AD3
:10455C00934218BF8B4238D01832934235D0183260
:10456C00934232D0183293422FD0183293422CD02F
:10457C001832934229D01832934226D002F5567243
:10458C00934222D0183293421FD0183293421CD03F
:10459C001832934219D01832934216D018329342E3
:1045AC0013D01832934210D0183293420DD01A689F
:1045BC0022F00E0242F00A021A60236C93B12268B8
:1045CC00136843F0040313600CE01A6822F01E0217
:1045DC0042F016021A60236C23B12268136843F070
:1045EC000803136023684D494D4A934218BF8B4210
:1045FC0042D0183293423FD0183293423CD01832FA
:10460C00934239D01832934236D01832934233D079
:10461C001832934230D002F5567293422CD0183295
:10462C00934229D01832934226D01832934223D089
:10463C001832934220D0183293421DD01832934234
:10464C001AD01832934217D0364A934214D01432EF
:10465C00934211D0143293420ED0143293420BD0A9
:10466C001432934208D01432934205D01432934240
:10467C0002D0143293420ED1236E1A6812F4803F8A
:10468C0003D01A6842F480721A60E36E1BB11A6888
:10469C0042F480721A6023682049214A934218BF61
:1046AC008B4230D0183293422DD0183293422AD0FC
:1046BC001832934227D01832934224D018329342A6
:1046CC0021D0183293421ED002F5567293421AD062
:1046DC001832934217D01832934214D018329342A6
:1046EC0011D0183293420ED0183293420BD018329C
:1046FC00934208D01832934205D01A6842F0010256
:10470C001A600020DDE61A6842F001021A600020EF
:10471C00D7E6012070470220D3E600BF100002400C
:10472C00280002400854025870B5044600F02EFED2
:10473C00002C00F09181054694F83530DBB2022B49
:10474C0006D080236365002384F83430012070BDCB
:10475C0023688C498C4A934218BF8B4230D0183254
:10476C0093422DD0183293422AD01832934227D03C
:10477C001832934224D01832934221D018329342EB
:10478C001ED002F5567293421AD01832934217D0AB
:10479C001832934214D01832934211D018329342EB
:1047AC000ED0183293420BD01832934208D01832E4
:1047BC00934205D01A6822F00E021A60266809E0AE
:1047CC001A6822F01E021A602268536923F08003D3
:1047DC005361266823686B496B4A934218BF8B421E
:1047EC0042D0183293423FD0183293423CD0183208
:1047FC00934239D01832934236D01832934233D088
:10480C001832934230D002F5567293422CD01832A3
:10481C00934229D01832934226D01832934223D097
:10482C001832934220D0183293421DD01832934242
:10483C001AD01832934217D0544A934214D01432DF
:10484C00934211D0143293420ED0143293420BD0B7
:10485C001432934208D01432934205D0143293424E
:10486C0002D01432934204D1226E136823F4807365
:10487C00136023684349444A934218BF8B422FD09C
:10488C00183293422CD01832934229D018329342CA
:10489C0026D01832934223D01832934220D01832AB
:1048AC0093421DD002F55672934219D0183293429E
:1048BC0016D01832934213D01832934210D01832BB
:1048CC0093420DD0183293420AD01832934207D03B
:1048DC001832934204D01A6822F001021A6003E0E5
:1048EC001A6822F001021A60336813F0010F0ED01F
:1048FC0000F04CFD431B052BF6D9202363650323E5
:10490C0084F83530002384F8343001201FE7236805
:10491C001C491D4A934218BF8B4239D0183293421E
:10492C0036D01832934233D01832934230D01832EA
:10493C0093422DD0183293422AD01832934227D06A
:10494C0002F55672934223D01832934220D018327B
:10495C0093421DD0183293421AD01832934217D07A
:10496C001832934214D01832934211D01832934219
:10497C000ED0A16DE36D03F01F02012393404B6039
:10498C000DE000BF100002402800024008540258FD
:10499C00A16DE36D03F01F023F2393408B602368EE
:1049AC002E492F4A934218BF8B4242D01832934261
:1049BC003FD0183293423CD01832934239D018323F
:1049CC00934236D01832934233D01832934230D0BF
:1049DC0002F5567293422CD01832934229D01832D9
:1049EC00934226D01832934223D01832934220D0CF
:1049FC00183293421DD0183293421AD01832934277
:104A0C0017D0184A934214D01432934211D0143256
:104A1C0093420ED0143293420BD01432934208D0EE
:104A2C001432934205D01432934202D01432934282
:104A3C000BD1636EA26E5A60E36E33B11A6822F426
:104A4C0080721A60236F626F5A60012384F83530CC
:104A5C00002084F834007AE6012078E61000024049
:104A6C002800024008540258F0B583B004460023D5
:104A7C0001937D4B1D687D4BA3FB0535AD0A876DFE
:104A8C003E68D7F800C0036879497A48834218BF5A
:104A9C008B420CBF0120002061D0774A93425ED03C
:104AAC00183293425BD01832934258D0183293424A
:104ABC0055D01832934252D0183293424FD002F54F
:104ACC00567293424BD01832934248D018329342CC
:104ADC0045D01832934242D0183293423FD018320C
:104AEC0093423CD01832934239D01832934236D08C
:104AFC006249634A934218BF8B4212D0614A934277
:104B0C000FD0143293420CD01432934209D0143289
:104B1C00934206D01432934203D01432934240F0A5
:104B2C0061821A68E16D01F01F010420884010EACF
:104B3C000C0F00F0A78212F0040F00F0A382786033
:104B4C0012F4004F00F05A8212F4803F40F0508271
:104B5C00A36C002B00F046822046984742E2E26D9F
:104B6C0002F01F0108228A40324241D070BB424AF7
:104B7C0093422BD01832934228D01832934225D02E
:104B8C001832934222D0183293421FD018329342DB
:104B9C001CD002F55672934218D01832934215D09D
:104BAC001832934212D0183293420FD018329342DB
:104BBC000CD01832934209D01832934206D01832D6
:104BCC00934203D01A68C2F3C00202E01A68C2F31F
:104BDC0080026AB11A6822F004021A60E36D03F0D5
:104BEC001F0208239340BB60636D43F001036365B0
:104BFC00E26D02F01F0226FA02F313F0010F47D008
:104C0C0023681B481B498B4218BF83423CD0183188
:104C1C008B4239D018318B4236D018318B4233D07D
:104C2C0018318B4230D018318B422DD018318B4239
:104C3C002AD001F556718B4226D018318B4223D0E5
:104C4C0018318B4220D018318B421DD018318B4239
:104C5C001AD018318B4217D018318B4214D018311E
:104C6C008B4211D01B6813E008000020B5814E1B4D
:104C7C001000024028000240400002400854025834
:104C8C001C540258305402585B6913F0800F3BD10E
:104C9C00E36D03F01F03042202FA03F3334240D006
:104CAC002268964896498A4218BF824235D01831FC
:104CBC008A4232D018318A422FD018318A422CD0F5
:104CCC0018318A4229D018318A4226D018318A42AA
:104CDC0023D001F556718A421FD018318A421CD05C
:104CEC0018318A4219D018318A4216D018318A42AA
:104CFC0013D018318A4210D018318A420DD0183195
:104D0C008A420AD013680CE0012303FA02F2BA605B
:104D1C00636D43F002036365BAE7126812F0020F89
:104D2C003DD1E36D03F01F03102202FA03F333426B
:104D3C005FD02268714872498A4218BF824234D0CF
:104D4C0018318A4231D018318A422ED018318A4219
:104D5C002BD018318A4228D018318A4225D01831EC
:104D6C008A4222D001F556718A421ED018318A42ED
:104D7C001BD018318A4218D018318A4215D01831FC
:104D8C008A4212D018318A420FD018318A420CD084
:104D9C0018318A4209D01268C2F3800208E0BB6065
:104DAC00636D43F004036365BBE71268C2F3C00292
:104DBC00FAB1BB6023681A6812F4802F0DD01B68FF
:104DCC0013F4002F04D1236C9BB12046984710E0BC
:104DDC00A36C73B1204698470BE01A6812F4807FDD
:104DEC0003D11A6822F008021A60236C0BB120461A
:104DFC009847E36D03F01F03202202FA03F33342BA
:104E0C0000F0928022683D483D498A4218BF824298
:104E1C002ED018318A422BD018318A4228D0183122
:104E2C008A4225D018318A4222D018318A421FD0AA
:104E3C0018318A421CD001F556718A4218D01831AB
:104E4C008A4215D018318A4212D018318A420FD0BA
:104E5C0018318A420CD018318A4209D018318A4252
:104E6C0006D018318A4203D01268C2F3400202E025
:104E7C001268C2F30012002A56D0BB6094F8353089
:104E8C00DBB2042B0ED023681A6812F4802F39D0B1
:104E9C001B6813F4002F2CD1636C002B44D02046DC
:104EAC00984741E02268136823F0160313602268C8
:104EBC00536923F080035361236CB3B122681368E8
:104ECC0023F008031360E36D03F01F023F239340AC
:104EDC00BB60012384F83530002384F83430236D13
:104EEC00002B7FD0204698477CE0A36C002BE5D1AB
:104EFC00E9E7E36BC3B12046984715E01000024088
:104F0C00280002401A6812F4807F09D11A6822F036
:104F1C0010021A60012384F83530002384F83430F1
:104F2C00E36B0BB120469847636D002B5AD0636D31
:104F3C0013F0010F52D0042384F8353023689649BE
:104F4C00964A934218BF8B422FD0183293422CD0E2
:104F5C001832934229D01832934226D018329342F9
:104F6C0023D01832934220D0183293421DD002F530
:104F7C005672934219D01832934216D0183293427B
:104F8C0013D01832934210D0183293420DD01832ED
:104F9C0093420AD01832934207D01832934204D06D
:104FAC001A6822F001021A6003E01A6822F001026A
:104FBC001A60019B01330193AB4204D823681B6830
:104FCC0013F0010FF5D123681B6813F0010F0BD000
:104FDC00032384F83530002384F83430E36C0BB1B0
:104FEC002046984703B0F0BD012384F83530F2E732
:104FFC00236C002BF6D020469847F3E712F0200FD5
:10500C003AD123686449654A934218BF8B422FD02A
:10501C00183293422CD01832934229D01832934232
:10502C0026D01832934223D01832934220D0183213
:10503C0093421DD002F55672934219D01832934206
:10504C0016D01832934213D01832934210D0183223
:10505C0093420DD0183293420AD01832934207D0A3
:10506C001832934204D01A6822F004021A6003E04A
:10507C001A6822F008021A60236C002BB2D020466A
:10508C009847AFE70220884010EA0C0F60D012F06E
:10509C00020F5DD0786012F4004F0ED012F4803FF6
:1050AC0005D1636C002B9DD0204698479AE7E36BA3
:1050BC00002B97D02046984794E712F0200F40D150
:1050CC0023683549354A934218BF8B422FD018328A
:1050DC0093422CD01832934229D01832934226D0C6
:1050EC001832934223D01832934220D01832934274
:1050FC001DD002F55672934219D01832934216D035
:10510C001832934213D01832934210D01832934273
:10511C000DD0183293420AD01832934207D018326D
:10512C00934204D01A6822F00A021A6003E01A684B
:10513C0022F014021A60012384F83530002384F81D
:10514C003430E36B002B3FF44DAF2046984749E7D2
:10515C00082000FA01F111EA0C0F3FF443AF12F0F2
:10516C00080F3FF43FAF1A6822F00E021A60E36D8D
:10517C0003F01F03012202FA03F37B60626584F8DB
:10518C003520002384F83430E36C002B3FF42AAF35
:10519C002046984726E700BF100002402800024036
:1051AC00134BDB6813F0040F07D1114BDB6803F0D2
:1051BC00070383421AD00120704710B50C4AD368FC
:1051CC0023F007031843D06000F0E0F80446084BC6
:1051DC005B6813F4005F07D100F0D8F8001BB0F542
:1051EC007A7FF4D9012000E0002010BD0020704728
:1051FC00004802580649CB6823F4E0631B041B0CDF
:10520C00000200F4E0600343024A1A43CA6070478C
:10521C0000ED00E00000FA0500B5174BDB68C3F3A6
:10522C000223C3F1070CBCF1040F28BF4FF0040C90
:10523C0003F1040EBEF1060F14D9033B4FF0FF3EF1
:10524C000EFA0CFC21EA0C0199400EFA03F322EA47
:10525C0003031943002807DB0901C9B2074B195492
:10526C005DF804FB0023E9E700F00F000901C9B267
:10527C00034B1954F4E700BF00ED00E000E400E03C
:10528C0014ED00E0002807DB00F01F0240090123A9
:10529C009340024A42F82030704700BF00E100E022
:1052AC000138B0F1807F0BD24FF0E0235861054AF2
:1052BC00F02182F823100020986107221A617047B0
:1052CC000120704700ED00E0104B1B780BB901205A
:1052DC00704710B504464FF47A70B0FBF3F30C4AE8
:1052EC001068B0FBF3F0FFF7DBFF68B90F2C01D9A6
:1052FC0001200AE0002221464FF0FF30FFF78CFF1F
:10530C00044B1C60002000E0012010BD00000020B8
:10531C00080000200400002010B50320FFF76AFFEE
:10532C00FCF72EFD0F498B69C3F303230E4AD35CA4
:10533C0003F01F03D8408B6903F00F03D35C03F019
:10534C001F0320FA03F3094A1360094B18600F205E
:10535C00FFF7BAFF10B10124204610BD0446FBF73D
:10536C00D7F9F9E700440258905500080C000020CA
:10537C0008000020034B1B78034A11680B44136090
:10538C00704700BF0000002024010020014B18686A
:10539C00704700BF2401002038B50446FFF7F6FF24
:1053AC000546B4F1FF3F02D0044B1B781C44FFF7B9
:1053BC00EDFF401BA042FAD338BD00BF0000002017
:1053CC00034A536823EA00030B435360704700BF42
:1053DC0000040058224AD2F8883043F47003C2F813
:1053EC008830204B1B6803F00F03062B06D81D4A90
:1053FC00136823F00F0343F0070313601A4B1A686A
:10540C0042F001021A6000221A611968174A0A4018
:10541C001A60144B1B6813F0080F06D0114A13685E
:10542C0023F00F0343F0070313600F4B00229A6124
:10543C00DA611A620E4999620E49D9620E491963F2
:10544C005A639963DA6319645A64196821F48021E8
:10545C0019601A66094B43F2D2021A60704700BFFA
:10546C0000ED00E000200052004402587FEDF6EA07
:10547C00000202020000FF01800201010040005204
:10548C0000B583B00B4BD3F8D82042F00202C3F81E
:10549C00D820D3F8D83003F002030193019B0022EB
:1054AC0011463920FFF7B8FE3920FFF7EBFE03B0A9
:1054BC005DF804FB00440258DFF834D0FFF78AFF94
:1054CC000C480D490D4A002302E0D458C450043353
:1054DC00C4188C42F9D30A4A0A4C002301E0136029
:1054EC000432A242FBD300F011F8FAF761FF7047C7
:1054FC00000002200000002010000020A855000829
:10550C001000002028010020FEE7000070B50D4DB2
:10551C000D4C641BA4100026A64209D10B4D0C4C5B
:10552C0000F020F8641BA4100026A64205D170BD23
:10553C0055F8043B98470136EEE755F8043B98477D
:10554C000136F2E7A0550008A0550008A055000848
:10555C00A455000802440346934200D1704703F857
:10556C00011BF9E7F8B500BFF8BC08BC9E467047B4
:0C557C00F8B500BFF8BC08BC9E467047A4
:1055880000061016000610160000000001020304B1
:085598000102030406070809E3
:0455A000F10200080C
:0455A400CD0200082C
:1055A80001000000100000000090D0030090D0031C
:04000005080054C5D6
:00000001FF
