:020000040800F2
:1000000000000220D9110008490400084B04000830
:100010004D0400084F0400085104000800000000CF
:100020000000000000000000000000005304000871
:100030005504000800000000570400085904000897
:1000400029120008291200082912000829120008A4
:100050002912000829120008291200082912000894
:100060002912000829120008291200082912000884
:100070002912000829120008291200082912000874
:100080002912000829120008291200082912000864
:100090002912000829120008291200082912000854
:1000A0002912000829120008291200082912000844
:1000B0002912000829120008291200082912000834
:1000C0002912000829120008291200082912000824
:1000D0002912000829120008291200082912000814
:1000E0002912000829120008000000002912000847
:1000F00029120008291200082912000829120008F4
:1001000029120008291200082912000829120008E3
:1001100029120008291200082912000829120008D3
:1001200029120008291200082912000829120008C3
:1001300029120008291200082912000829120008B3
:1001400000000000000000000000000000000000AF
:100150002912000829120008291200082912000893
:100160002912000829120008291200082912000883
:1001700029120008291200082912000800000000B6
:100180002912000829120008291200082912000863
:100190002912000829120008291200082912000853
:1001A0002912000829120008291200080000000086
:1001B0002912000829120008291200082912000833
:1001C00029120008291200080000000000000000A9
:1001D00000000000000000002912000800000000DC
:1001E000000000000000000000000000000000000F
:1001F0000000000000000000291200082912000879
:100200002912000829120008000000002912000825
:1002100029120008291200082912000829120008D2
:100220002912000800000000291200080000000048
:1002300029120008291200080000000029120008F5
:1002400029120008291200082912000829120008A2
:100250002912000829120008291200082912000892
:100260002912000829120008291200082912000882
:1002700029120008291200082912000800000000B5
:100280002912000829120008291200082912000862
:1002900000000000291200082912000800000000D8
:1002A0000000000029120008291200082912000885
:1002B0002912000829120008291200082912000832
:0C02C00029120008291200082912000869
:1002CC0010B5054C237833B9044B13B10448AFF384
:1002DC0000800123237010BD1000002000000000DE
:1002EC008412000808B5034B1BB103490348AFF354
:1002FC00008008BD000000001400002084120008DB
:10030C0082B0074BD3F8E02042F08002C3F8E02023
:10031C00D3F8E03003F080030193019B02B07047E7
:10032C000044025810B584B0002400940194029447
:10033C00039400F0FDF801238DF800308DF8014096
:10034C0001941F228DF8082087228DF809208DF842
:10035C000A408DF80B408DF80C308DF80D308DF86F
:10036C000E408DF80F40684600F000F9042000F0B4
:10037C00EDF804B010BD72B6FEE7000000B59DB0FC
:10038C004C22002109A800F06FFF2022002101A8B7
:10039C0000F06AFF022000F031FE00230093214B95
:1003AC009A6922F440429A619B6903F4404300939A
:1003BC00009B1C4B9B6913F4005FFAD0022309933A
:1003CC0001210C9140220D921293002213920420D1
:1003DC001490222015901691179318930C231993AF
:1003EC001A924FF440631B9309A800F0EFF8A8B9D8
:1003FC003F230193032102910023039308230493C9
:10040C004023059306934FF480620792089301A84A
:10041C0000F0AAFC20B91DB05DF804FBFFF7ABFFA0
:10042C00FFF7A9FF0048025808B5FFF77BFF00F063
:10043C0037FEFFF7A3FFFFF763FFFEE7FEE7FEE7DC
:10044C00FEE7FEE7FEE770477047704708B500F01F
:10045C0055FE08BD82B0074BD3F8F42042F00202DF
:10046C00C3F8F420D3F8F43003F002030193019B9A
:10047C0002B07047004402580649CB6823F4E0638D
:10048C001B041B0C000200F4E0600343024A1A43F5
:10049C00CA60704700ED00E00000FA0500B5174B8C
:1004AC00DB68C3F30223C3F1070CBCF1040F28BFB4
:1004BC004FF0040C03F1040EBEF1060F14D9033BEC
:1004CC004FF0FF3E0EFA0CFC21EA0C0199400EFA9B
:1004DC0003F322EA03031943002807DB0901C9B21D
:1004EC00074B19545DF804FB0023E9E700F00F00FB
:1004FC000901C9B2034B1954F4E700BF00ED00E049
:10050C0000E400E014ED00E00138B0F1807F0BD284
:10051C004FF0E0235861054AF02182F823100020A7
:10052C00986107221A6170470120704700ED00E0C6
:10053C00BFF35F8F044B5A6A22F480325A62002256
:10054C00C3F89420704700BF00ED00E040F00100BC
:10055C00054BC3F894005A6A42F480325A62BFF3D6
:10056C004F8FBFF36F8F704700ED00E04278164B52
:10057C00C3F898200378FBB14368134AC2F89C3047
:10058C00017BC37A1B0643EA0173817A43EAC143B8
:10059C00417B43EA8143817B43EA4143C17B43EA8C
:1005AC000143417A43EA0123017A43EA410301788A
:1005BC000B43C2F8A0307047034B0022C3F89C20B9
:1005CC00C3F8A020704700BF00ED00E0002800F049
:1005DC00B68238B50446036813F0010F25D0A04A43
:1005EC00136903F03803926A102B15D0182B0FD017
:1005FC006368B3F5803F3FD0002B53D1984B1A68FA
:10060C0022F480321A601A6822F480221A6038E0D0
:10061C0002F00302022AEBD1914B1B6813F4003F4A
:10062C0003D06368002B00F08C82236813F0020F58
:10063C0000F088808A4A1369926A13F038035AD002
:10064C00182B55D0E368002B00F0A98084490A6868
:10065C0022F0190213430B6000F05CFD0546804B41
:10066C001B6813F0040F40F0918000F053FD401B09
:10067C000228F4D903206BE2794A136843F48033DF
:10068C00136063682BB300F045FD0546744B1B6883
:10069C0013F4003FC9D100F03DFD401B6428F5D98F
:1006AC00032055E2B3F5A02F09D06D4B1A6822F444
:1006BC0080321A601A6822F480221A60E1E7684BD3
:1006CC001A6842F480221A601A6842F480321A6066
:1006DC00D7E700F01FFD0546614B1B6813F4003F84
:1006EC00A3D000F017FD401B6428F5D903202FE29E
:1006FC0012F0030FA6D15A4B1B6813F0040F03D052
:10070C00E368002B00F01F82554A136823F019038D
:10071C00E1680B43136000F0FDFC0546504B1B6871
:10072C0013F0040F06D100F0F5FC401B0228F5D99C
:10073C0003200DE24A4A536823F0FE43216943EA41
:10074C0001635360236813F0100F51D0444A1369AE
:10075C0003F03803926A082B39D0182B33D0E36995
:10076C00002B69D03E4A136843F08003136000F0FD
:10077C00D1FC05463A4B1B6813F4807F53D100F033
:10078C00C9FC401B0228F5D90320E1E1344A536827
:10079C0023F0FE43216943EA01635360D2E7304AF8
:1007AC00136823F00103136000F0B4FC05462C4BD6
:1007BC001B6813F0040FC5D000F0ACFC401B0228E2
:1007CC00F5D90320C4E102F00302012AC7D1244B5E
:1007DC001B6813F4807F03D0E369802B40F0B58154
:1007EC001F4AD36823F07C53216A43EA0163D36028
:1007FC00236813F0080F49D06369002B32D0184AD4
:10080C00536F43F00103536700F084FC0546144B0F
:10081C005B6F13F0020F39D100F07CFC401B0228F7
:10082C00F5D9032094E10E4AD36823F07C53216A56
:10083C0043EA0163D360DBE7094A136823F08003C2
:10084C00136000F067FC0546054B1B6813F4807FB2
:10085C00CED000F05FFC401B0228F5D9032077E1D5
:10086C00004402589D4A536F23F00103536700F074
:10087C0051FC0546994B5B6F13F0020F06D000F04C
:10088C0049FC401B0228F5D9032061E1236813F0D1
:10089C00200F29D0A3699BB1904A136843F480536D
:1008AC00136000F037FC05468C4B1B6813F4005F9B
:1008BC001AD100F02FFC401B0228F5D9032047E188
:1008CC00864A136823F48053136000F023FC05461A
:1008DC00824B1B6813F4005F06D000F01BFC401B1E
:1008EC000228F5D9032033E1236813F0040F21D13A
:1008FC00636A002B00F02B81784A126902F03802EF
:10090C00182A00F0F380022B75D0744A136823F078
:10091C008073136000F0FEFB0446704B1B6813F0F1
:10092C00007F00F0D88000F0F5FB001B0228F4D902
:10093C0003200DE16A4A136843F48073136000F0DE
:10094C00E9FB0546664B1B6813F4807F06D100F06B
:10095C00E1FB401B6428F5D90320F9E0A368012BC7
:10096C000AD00BBB5D4B1A6F22F001021A671A6F8B
:10097C0022F004021A6704E0584A136F43F0010393
:10098C001367A36833B300F0C5FB0546534B1B6FCD
:10099C0013F0020FACD100F0BDFB401B41F28833C9
:1009AC009842F3D90320D3E0052B09D04B4B1A6F97
:1009BC0022F001021A671A6F22F004021A67E0E7AC
:1009CC00464B1A6F42F004021A671A6F42F001028A
:1009DC001A67D6E700F09EFB0546404B1B6F13F0E1
:1009EC00020F85D000F096FB401B41F288339842F1
:1009FC00F3D90320ACE0394A136823F080731360F9
:100A0C0000F088FB0546354B1B6813F0007F06D0C1
:100A1C0000F080FB401B0228F5D9032098E02F4BF7
:100A2C00996A304A0A40A16AE06A41EA00110A4315
:100A3C009A62226B013AC2F30802616B01394902D6
:100A4C0089B20A43A16B0139090401F4FE010A437E
:100A5C00E16B0139090601F0FE410A431A63DA6AB7
:100A6C0022F00102DA62596B1F4A0A40A16C42EA79
:100A7C00C1025A63DA6A22F00C02216C0A43DA6270
:100A8C00DA6A22F00202616C0A43DA62DA6A42F430
:100A9C008032DA62DA6A42F40032DA62DA6A42F4FA
:100AAC008022DA62DA6A42F00102DA621A6842F0F3
:100ABC0080721A6000F02EFB0446084B1B6813F082
:100ACC00007F06D100F026FB001B0228F5D903207D
:100ADC003EE000203CE000203AE000BF0044025819
:100AEC00004802580CFCFFFF0700FFFF20498A6AF0
:100AFC00086B012B2DD002F00303A16A8B422AD183
:100B0C00C2F30512E36A9A4227D1C0F30802236BA1
:100B1C00013B9A4223D1C0F34622636B013B9A42BC
:100B2C001FD1C0F30642A36B013B9A421BD1C0F309
:100B3C000660E36B013B984217D1002008E00120CE
:100B4C007047012004E0012002E0012000E00020B9
:100B5C0038BD0120FCE70120FAE70120F8E701206D
:100B6C00F6E70120F4E70120F2E70120F0E700BFEF
:100B7C0000440258744B1B6903F03803102B00F02F
:100B8C00DE80182B10D00BB1704870476E4B1B6871
:100B9C0013F0200F00F0D5806B4B1868C0F3C10028
:100BAC006B4B23FA00F0704710B4674A916A01F05E
:100BBC000301946AC4F30510D36A03F0010C536B60
:100BCC00C3F3CC030CFB03F307EE903AF8EE677A11
:100BDC0014F47C7F00F09380012965D0022900F089
:100BEC009180E1B107EE100AF8EE476A9FED596A61
:100BFC0086EE267A544B1B6BC3F3080306EE903A31
:100C0C00F8EE666A9FED546A67EE867A76EEA77AFE
:100C1C00F7EE006A77EEA67A27EE277A60E0136883
:100C2C0013F0200F23D011461268C2F3C102484BB7
:100C3C00D34007EE103AF8EE476A07EE100AB8EE0A
:100C4C00476A86EE867A0B6BC3F3080306EE903A7E
:100C5C00F8EE666A9FED406A67EE867A76EEA77AC2
:100C6C00F7EE006A77EEA67A27EE277A38E007EEE1
:100C7C00100AF8EE476A9FED396A86EE267A324BF7
:100C8C001B6BC3F3080306EE903AF8EE666A9FED11
:100C9C00326A67EE867A76EEA77AF7EE006A77EE1E
:100CAC00A67A27EE277A1BE007EE100AF8EE476AC1
:100CBC009FED286A86EE267A234B1B6BC3F3080341
:100CCC0006EE903AF8EE666A9FED236A67EE867A36
:100CDC0076EEA77AF7EE006A77EEA67A27EE277AF9
:100CEC00194B1B6BC3F34623013307EE903AF8EE16
:100CFC00677AC7EE276AFCEEE67A17EE900A5DF883
:100D0C00044B704707EE100AF8EE476A9FED146A21
:100D1C0086EE267A0C4B1B6BC3F3080306EE903A57
:100D2C00F8EE666A9FED0C6A67EE867A76EEA77A25
:100D3C00F7EE006A77EEA67A27EE277AD0E7094815
:100D4C0070470348704700BF0044025800093D003B
:100D5C000090D0030024744A000000390024744C25
:100D6C0020BCBE4B40787D01002800F0328170B56C
:100D7C000D4604469B4B1B6803F00F038B420BD2B2
:100D8C00984A136823F00F030B431360136803F0A6
:100D9C000F038B4240F01F81236813F0040F0CD01B
:100DAC002269914B9B6903F070039A4205D98E49D5
:100DBC008B6923F070031A438A61236813F0080FC0
:100DCC000CD06269884BDB6903F070039A4205D939
:100DDC008549CB6923F070031A43CA61236813F069
:100DEC00100F0CD0A269804BDB6903F4E0639A42CC
:100DFC0005D97D49CB6923F4E0631A43CA612368A2
:100E0C0013F0200F0CD0E269774B1B6A03F07003D0
:100E1C009A4205D974490B6A23F070031A430A628B
:100E2C00236813F0020F0CD0E2686F4B9B6903F040
:100E3C000F039A4205D96C498B6923F00F031A43AF
:100E4C008A61236813F0010F41D0674A936923F438
:100E5C007063A1680B4393616368022B0AD0032B68
:100E6C0027D0012B2CD0604A126812F0040F06D147
:100E7C000120ADE0126812F4003F00F0AE805A4938
:100E8C000A6922F0070213430B6100F043F906468E
:100E9C00554B1B6903F038036268B3EBC20F16D0D5
:100EAC0000F038F9801B41F288339842F0D90320C6
:100EBC008EE04D4A126812F0007FE0D1012087E0ED
:100ECC00494A126812F4807FD9D1012080E023684E
:100EDC0013F0020F0CD0E268434B9B6903F00F0335
:100EEC009A4205D240498B6923F00F031A438A6159
:100EFC003C4B1B6803F00F03AB420AD9394A136809
:100F0C0023F00F032B431360136803F00F03AB4262
:100F1C0065D1236813F0040F0CD02269324B9B6906
:100F2C0003F070039A4205D22F498B6923F07003AA
:100F3C001A438A61236813F0080F0CD062692A4B9C
:100F4C00DB6903F070039A4205D22749CB6923F081
:100F5C0070031A43CA61236813F0100F0CD0A269F6
:100F6C00214BDB6903F4E0639A4205D21E49CB693D
:100F7C0023F4E0631A43CA61236813F0200F0CD0EA
:100F8C00E269194B1B6A03F070039A4205D21649A9
:100F9C000B6A23F070031A430A62FFF7EBFD124948
:100FAC008B69C3F30323114AD35C03F01F03D840AE
:100FBC008B6903F00F03D35C03F01F0320FA03F3D8
:100FCC000B4A13600B4B18600B4B186800F040F881
:100FDC0070BD012070470120FAE70120F8E70120DD
:100FEC00F6E700BF00200052004402589C12000893
:100FFC000C0000200800002004000020134BDB68CC
:10100C0013F0040F07D1114BDB6803F00703834285
:10101C001AD00120704710B50C4AD36823F007038F
:10102C001843D06000F076F80446084B5B6813F464
:10103C00005F07D100F06EF8001BB0F57A7FF4D991
:10104C00012000E0002010BD00207047004802582D
:10105C00104B1B780BB90120704710B504464FF4A8
:10106C007A70B0FBF3F30C4A1068B0FBF3F0FFF7A7
:10107C004BFA68B90F2C01D901200AE00022214655
:10108C004FF0FF30FFF70AFA044B1C60002000E021
:10109C00012010BD000000200800002004000020EA
:1010AC0010B50320FFF7E8F9FFF764FD0F498B69D2
:1010BC00C3F303230E4AD35C03F01F03D8408B69A0
:1010CC0003F00F03D35C03F01F0320FA03F3094A68
:1010DC001360094B18600F20FFF7BAFF10B1012401
:1010EC00204610BD0446FFF7B5F9F9E70044025855
:1010FC009C1200080C00002008000020034B1B78F9
:10110C00034A11680B441360704700BF00000020B5
:10111C002C000020014B1868704700BF2C000020E9
:10112C00224AD2F8883043F47003C2F88830204B3E
:10113C001B6803F00F03062B06D81D4A136823F017
:10114C000F0343F0070313601A4B1A6842F00102B5
:10115C001A6000221A611968174A0A401A60144B67
:10116C001B6813F0080F06D0114A136823F00F0305
:10117C0043F0070313600F4B00229A61DA611A6285
:10118C000E4999620E49D9620E4919635A639963E3
:10119C00DA6319645A64196821F4802119601A669B
:1011AC00094B43F2D2021A60704700BF00ED00E019
:1011BC0000200052004402587FEDF6EA00020202C1
:1011CC000000FF018002010100400052DFF834D022
:1011DC00FFF7A6FF0C480D490D4A002302E0D45836
:1011EC00C4500433C4188C42F9D30A4A0A4C002365
:1011FC0001E013600432A242FBD300F011F8FFF7B8
:10120C0013F970470000022000000020100000209D
:10121C00B41200081000002030000020FEE700008F
:10122C0070B50D4D0D4C641BA4100026A64209D1BF
:10123C000B4D0C4C00F020F8641BA4100026A642A9
:10124C0005D170BD55F8043B98470136EEE755F8CB
:10125C00043B98470136F2E7AC120008AC120008C8
:10126C00AC120008B012000802440346934200D1AD
:10127C00704703F8011BF9E7F8B500BFF8BC08BCD0
:10128C009E467047F8B500BFF8BC08BC9E46704738
:10129C000000000001020304010203040607080910
:0412AC00F102000843
:0412B000CD02000863
:1012B40001000000100000000090D0030090D00353
:04000005080011D905
:00000001FF
