:020000040800F2
:1000000000000220F94B0008DD060008DF060008AA
:10001000E1060008E3060008E5060008000000000D
:10002000000000000000000000000000E7060008DB
:10003000E906000800000000EB060008ED060008D5
:10004000494C0008494C0008494C0008494C00083C
:10005000494C0008494C0008494C0008494C00082C
:10006000494C0008494C0008494C0008494C00081C
:10007000494C0008494C0008494C0008494C00080C
:10008000494C0008494C0008494C0008494C0008FC
:10009000494C0008494C0008494C0008494C0008EC
:1000A000494C0008494C0008494C0008494C0008DC
:1000B000494C0008494C0008494C0008494C0008CC
:1000C000494C0008494C0008494C0008494C0008BC
:1000D000494C0008494C0008494C0008494C0008AC
:1000E000494C0008494C000800000000494C000839
:1000F000494C0008494C0008494C0008494C00088C
:10010000494C0008494C0008494C0008494C00087B
:10011000494C0008494C0008494C0008494C00086B
:10012000494C0008494C0008494C0008494C00085B
:10013000494C0008494C0008494C0008494C00084B
:1001400000000000000000000000000000000000AF
:10015000494C0008494C0008494C0008494C00082B
:10016000494C0008494C0008494C0008494C00081B
:10017000494C0008494C0008494C000800000000A8
:10018000494C0008494C0008494C0008494C0008FB
:10019000494C0008494C0008494C0008494C0008EB
:1001A000494C0008494C0008494C00080000000078
:1001B000494C0008494C0008494C0008494C0008CB
:1001C000494C0008494C00080000000000000000F5
:1001D0000000000000000000494C00080000000082
:1001E000000000000000000000000000000000000F
:1001F0000000000000000000494C0008494C0008C5
:10020000494C0008494C000800000000494C000817
:10021000494C0008494C0008494C0008494C00086A
:10022000494C000800000000494C00080000000094
:10023000494C0008494C000800000000494C0008E7
:10024000494C0008494C0008494C0008494C00083A
:10025000494C0008494C0008494C0008494C00082A
:10026000494C0008494C0008494C0008494C00081A
:10027000494C0008494C0008494C000800000000A7
:10028000494C0008494C0008494C0008494C0008FA
:1002900000000000494C0008494C00080000000024
:1002A00000000000494C0008494C0008494C000877
:1002B000494C0008494C0008494C0008494C0008CA
:0C02C000494C0008494C0008494C00085B
:1002CC0010B5054C237833B9044B13B10448AFF384
:1002DC0000800123237010BD1000002000000000DE
:1002EC00A44C000808B5034B1BB103490348AFF3FA
:1002FC00008008BD0000000014000020A44C000881
:10030C0072B6FEE700B59DB04C22002109A804F09E
:10031C00BBFC2022002101A804F0B6FC022003F053
:10032C00CBFC00230093214B9A6922F440429A6142
:10033C009B6903F440430093009B1C4B9B6913F493
:10034C00005FFAD00223099301210C9140220D92F7
:10035C0012930022139204201490222015901691CF
:10036C00179318930C2319931A924FF440631B9311
:10037C0009A801F001FAA8B93F23019303210291C6
:10038C0000230393082304934023059306934FF40F
:10039C0080620792089301A801F0DEFD20B91DB020
:1003AC005DF804FBFFF7ACFFFFF7AAFF004802580B
:1003BC0008B503F02FFDFFF7A5FF00F023F800F0C0
:1003CC0099F804F06FFB40F2FF7200210A4801F02B
:1003DC007FF901228021094803F05EFC08210748BF
:1003EC0003F060FC0821064803F05CFC642003F079
:1003FC0051FD00F04FF9F1E73400002000100258D5
:10040C0000040258F0B58BB00024059406940794B0
:10041C0008940994334BD3F8E02042F01002C3F84F
:10042C00E020D3F8E02002F010020092009AD3F8FA
:10043C00E02042F08002C3F8E020D3F8E02002F084
:10044C0080020192019AD3F8E02042F00402C3F832
:10045C00E020D3F8E02002F004020292029AD3F8D2
:10046C00E02042F00102C3F8E020D3F8E02002F0D3
:10047C0001020392039AD3F8E02042F00202C3F87F
:10048C00E020D3F8E03003F002030493049B164FF2
:10049C0022468821384603F0FFFB144D22460821E2
:1004AC00284603F0F9FB882305930126069607944A
:1004BC00089405A9384603F0E5FA102305930323A5
:1004CC000693079405A90A4803F0DCFA0823059360
:1004DC0006960794089405A9284603F0D3FA0BB0A6
:1004EC00F0BD00BF0044025800100258000402582E
:1004FC000008025800B58BB02422002101A804F09A
:10050C00C3FB3048304B03604FF480134360082327
:10051C0083600023C36001210161042242610376E0
:10052C004176C26180F820308362C36280F8383033
:10053C0043630363C363036480F8443000F058FFE3
:10054C00002830D101230193062302930023039347
:10055C0040F2FF72049204220592069308930DEB6D
:10056C000201184800F06CF900BB184B01930C23E6
:10057C00029301A9134800F063F9D0B9144B01930D
:10058C001223029301A90F4800F05AF9A0B9114B9C
:10059C0001931823029301A90A4800F051F970B98C
:1005AC000BB05DF804FBFFF7ABFECBE7FFF7A8FE43
:1005BC00DBE7FFF7A5FEE1E7FFF7A2FEE7E7FFF7B2
:1005CC009FFEEDE73400002000600258020030046A
:1005DC000004002A0008302E10B5B6B004460021E5
:1005EC0031913291339134913591B82202A804F0B3
:1005FC004BFB2268244B9A4201D036B010BD4FF40D
:10060C0000220023CDE90223042304930C23059339
:10061C0003230693022307930893C023099302A88C
:10062C0001F024FF60BB194BD3F8E02042F080723C
:10063C00C3F8E020D3F8E02002F080720092009A18
:10064C00D3F8E02042F00402C3F8E020D3F8E03005
:10065C0003F004030193019B032331933293002392
:10066C00339331A90A4803F00DFA4FF08061084624
:10067C0003F024FC4FF00061084603F01FFCBCE7BC
:10068C00FFF73EFECFE700BF00600258004402585F
:10069C000008025838B50C4800F01CFD00240CE092
:1006AC00094DFF21284600F031F8284600F0C4F827
:1006BC00064B23F814000134E4B2032CF0D90248A1
:1006CC0000F0DAFD38BD00BF340000202C00002003
:1006DC00FEE7FEE7FEE7FEE7FEE770477047704770
:1006EC0008B503F0C5FB08BD82B0074BD3F8F42066
:1006FC0042F00202C3F8F420D3F8F43003F0020302
:10070C000193019B02B07047004402582DE9F0415F
:10071C0004460E4603684549454A934218BF8B422E
:10072C0013D102F50072976807F01F076569082D51
:10073C0012D0052F18BF002F09D0092F07D09368AE
:10074C0013F4404F2DD1042506E03A4AEBE7DB6861
:10075C0013F0010F1FD1042503F096FB804623688C
:10076C001A682A4223D1B6F1FF3FF8D003F08CFB74
:10077C00A0EB0800B04201D8002EF0D123681B6812
:10078C002B42ECD1236E43F004032366002384F840
:10079C005C30032045E0236E43F0200323660120E8
:1007AC003FE0236E43F020032366012039E0226EE4
:1007BC0042F400722266DA6812F4406F11D1627E44
:1007CC007AB91A6812F0080F0BD0226E22F48072DC
:1007DC002266226E12F4805F03D1226E42F0010277
:1007EC002266134A93420CD01A4693420CD0052F22
:1007FC0014BF002101213FB131B9092F04D0D268B7
:10080C0003E0A2F58072F0E7DA68082D06D012F446
:10081C00804F08D10C221A60002002E008221A60D6
:10082C000020BDE8F0810020FBE700BF0020024063
:10083C0000210240006302580368186C70470000E6
:10084C00F0B583B00022019290F85C20012A00F0F0
:10085C0042830346012280F85C200268906810F005
:10086C00040F09D01A6E42F020021A6601200022F1
:10087C0083F85C2003B0F0BD9B4882420BD0086823
:10088C00C0F31304002C52D1C0F3846001248440C3
:10089C00D0692043D0611D684C683035220A920023
:1008AC0002F00C02A85804F01F0E1F2404FA0EF4D8
:1008BC0020EA04000C68C4F3846C0CFA0EFC40EAC9
:1008CC000C00A8501C68A26812F0040200D001228F
:1008DC00A06810F0080000D00120024333D01A6841
:1008EC00906810F0010F40F0F2820868CD687E4CE1
:1008FC00A24200F09C81D2F8C040C0F3130624EA57
:10090C00060405F01805794E26FA05F52840C0F3C3
:10091C0013002043C2F8C000C868754A904200F02A
:10092C0098810A68002AC0F2518200209FE790FA51
:10093C00A0F030B1B0FA80F000F01F000124844028
:10094C00A6E72020F8E70F688D681434780E800035
:10095C0000F004002658C7F3045E4FF0070C0CFAA5
:10096C000EFC26EA0C0C05FA0EF54CEA0505255092
:10097C0018685D4CA04211D05E4C246804F07044A1
:10098C00B4F1805F3FD0C46814F0100F42D14C69B1
:10099C00C568C5F382056D00AC4005E04C69C568BF
:1009AC00C5F3C1056D00AC400D69042D3AD14E4A1A
:1009BC00904200F0A180026E02F0F8420C68B2EB9B
:1009CC00846F00F025811868426E02F0F8420C68C2
:1009DC00B2EB846F00F021811868826E02F0F8424D
:1009EC000C68B2EB846F00F01D811868C26E02F0C7
:1009FC00F8420C68B2EB846F7FF471AFC26E22F0D8
:100A0C000042C2666BE74C69C568C5F382056D0090
:100A1C00AC40C9E74C69C568AD0805F004056D002C
:100A2C00AC40C1E70E6800F16007DFF8BCC0604560
:100A3C0029D057F8250000F0004006F0F846344362
:100A4C00044347F825401868274CA04225D00E696E
:100A5C0091F82140012C40D01546603050F82640CA
:100A6C0024F000442C4340F826401D680C69087E95
:100A7C00012835D0286920F4F04004F01F04A2406E
:100A8C0002432A612BE757F8250006F0F846344359
:100A9C0044F0004447F82540D5E70E69CC69603036
:100AAC0050F8265025F080752C4340F826401868E5
:100ABC000D6991F82040012C0CD00B4CA0427FF416
:100ACC000EAF603050F8254024F00074224340F8FB
:100ADC00252004E74FF00072EFE74FF00045BCE72C
:100AEC004FF40062C6E700BF00600258FFFF0F0022
:100AFC000000FF470010005C026E046EC4F38464B7
:100B0C000A68C2F31305002D36D1C2F384629442F5
:100B1C003AD01C68626E606EC0F384600A68C2F3DF
:100B2C001305002D3DD1C2F38462904241D01C6864
:100B3C00A26EA06EC0F384600A68C2F31305002D88
:100B4C0044D1C2F38462904248D01C68E26EE06EDD
:100B5C00C0F384600A68C2F31305002D4BD1C2F3B5
:100B6C00846290427FF4BBAE964A94424BD0E26EC4
:100B7C0022F00042E266B2E692FAA2F212B1B2FAA6
:100B8C0082F2C4E72022C2E78E4A904204D0026E61
:100B9C0022F000420266BCE7026E22F000420266BE
:100BAC00B7E792FAA2F212B1B2FA82F2BDE72022B2
:100BBC00BBE7844A944204D0626E22F00042626623
:100BCC00B5E7626E22F000426266B0E792FAA2F2DA
:100BDC0012B1B2FA82F2B6E72022B4E7794A944213
:100BEC0004D0A26E22F00042A266AEE7A26E22F002
:100BFC000042A266A9E792FAA2F212B1B2FA82F20C
:100C0C00AFE72022ADE7E26E22F00042E26666E634
:100C1C00026E22F000420266D5E6426E22F00042DD
:100C2C004266D9E6826E22F000428266DDE6D2F898
:100C3C00B060C0F3130426EA040605F01805624CF4
:100C4C0024FA05F52840C0F313003043C2F8B00075
:100C5C0062E61C680A68C2F31305002D34D1900EAD
:100C6C00013000F01F0009288CBF00200120002853
:100C7C0061D0002D37D1900E0130800600F0F84085
:100C8C00002D3CD1960E013606F01F070126BE4002
:100C9C003043002D41D1920E013202F01F0202EBC3
:100CAC0042021205024388681434550EAD0005F05B
:100CBC0004056659C2F304520727974026EA070633
:100CCC009040304360512CE692FAA2F048B1B0FA51
:100CDC0080F0013000F01F0009288CBF002001209B
:100CEC00C5E72020F5E792FAA2F030B1B0FA80F017
:100CFC000130800600F0F840C2E72020F8E792FAB5
:100D0C00A2F646B1B6FA86F6013606F01F060127A2
:100D1C0007FA06F6BCE72026F6E792FAA2F242B1F1
:100D2C00B2FA82F2013202F01F0202EB4202120509
:100D3C00B8E72022F6E7CDB9900E0130800600F01E
:100D4C00F840FDB9960E013606F01F070126BE408D
:100D5C0030432DBB920E013202F01F0202EB420215
:100D6C001E3A120542F0007202439CE792FAA2F07E
:100D7C0030B1B0FA80F00130800600F0F840E0E7C6
:100D8C002020F8E792FAA2F646B1B6FA86F60136BA
:100D9C0006F01F06012707FA06F6D9E72026F6E724
:100DAC0092FAA2F25AB1B2FA82F2013202F01F02A6
:100DBC0002EB42021E3A120542F00072D4E72022E6
:100DCC00F3E700BF00600258FFFF0F0019684348AB
:100DDC00434CA14218BF81420CBF0120002021D1FD
:100DEC00404EB56805F0E077F0B13C48806810F0F3
:100DFC00010000D001203A4CA46814F0010400D08A
:100E0C00012420430CBF01200020002859D0364873
:100E1C00824212D03548824231D0354882423FD08E
:100E2C00002024E5334EDCE73348806810F00100E5
:100E3C0000D0012080F00100E7E715F4000FE9D1A4
:100E4C002D4A914201D0002011E547F40002B1680F
:100E5C0021F0E0710A43B260284A126892092849CD
:100E6C00A1FB0212920901325200019202E0019A96
:100E7C00013A0192019A002AF9D10020F7E415F009
:100E8C00807FCAD11C4A914201D00020EFE447F088
:100E9C008072B16821F0E0710A43B2600020E6E490
:100EAC0015F4800F15D1144A914201D00020DEE4D4
:100EBC0047F48002B16821F0E0710A43B26000206F
:100ECC00D5E41A6E42F020021A660120CFE400200D
:100EDC00CDE40020CBE40220CCE400BF0020024093
:100EEC000021024000230240000052C7000021C331
:100EFC00000084CB006302580060025808000020F8
:100F0C00632D3E0570B504460068836813F0040336
:100F1C0000D00123826812F0080200D00122134392
:100F2C0067D0C36813F0007F04D0228B40F201130A
:100F3C009A424AD002290ED023689A6812F0040F04
:100F4C0009D09A6812F0020F05D198682A4A02401B
:100F5C0042F010029A6001290ED023689A6812F0B0
:100F6C00080F09D09A6812F0020F05D19868224A2E
:100F7C00024042F020029A60022934D0032934D175
:100F8C000C2502F081FF064623689B682B422ED06D
:100F9C0002F07AFF831B052BF6D923689B682B4242
:100FAC00F2D0236E43F010032366636E43F001030B
:100FBC00636601201EE0236E43F010032366636E0C
:100FCC0043F001036366012014E00023026812F071
:100FDC00400F04D1094A9342EDD80133F6E7402380
:100FEC0003600121A8E70825CBE70425C9E7002009
:100FFC0000E0002070BD00BFC0FFFF7FFFDB0C00D6
:10100C0038B503689A6812F0010F56D104469968F6
:10101C002B4A114209D0036E43F010030366436E52
:10102C0043F001034366012048E09968254A0A40D1
:10103C0042F001029A6002F027FF0546236822491C
:10104C00224A934218BF8B420DD102F5007292686E
:10105C0002F01F021D498B4207D01946994207D056
:10106C0032B100202AE01A4AF1E7A1F58071F5E7C8
:10107C0023681A6812F0010F1DD19A6812F0010F43
:10108C0005D199680F4A0A4042F001029A6002F0B9
:10109C00FBFE401B0228EBD923681B6813F0010FE1
:1010AC00E6D1236E43F010032366636E43F0010315
:1010BC006366012002E0002000E0002038BD00BF84
:1010CC003F000080C0FFFF7F002002400021024053
:1010DC000063025838B5044603683E493E4A9342C1
:1010EC0018BF8B4252D102F50072956805F01F05AE
:1010FC009B6813F0040F69D194F85C30012B67D016
:10110C00012384F85C302046FFF77AFF002859D180
:10111C00226EA0F60273134043F480732366236897
:10112C002D4A934234D01A46934200D01DB9226EF8
:10113C0022F480122266226E12F4805F2BD0626E33
:10114C0022F0060262661C221A60002384F85C30CE
:10115C002368214A934221D01A46934221D0052D6F
:10116C0014BF00210121E5B1D9B9092D19D0236E85
:10117C0043F480132366D36813F0007F27D0236ECB
:10118C0023F4405343F48053236620E0134AACE726
:10119C00A2F58072C8E700226266D4E7A2F58072DD
:1011AC00DBE7DA6812F0007F05D0226E22F44052A1
:1011BC0042F4805222669968094A0A4042F00402BD
:1011CC009A6004E0002384F85C3000E0022038BD13
:1011DC000220FCE70020024000210240006302587C
:1011EC00C0FFFF7F38B504460268936813F0020312
:1011FC0000D00123916811F0010F37D0002B37D1AB
:10120C00936803F00D03012B09D0236E43F01003F8
:10121C002366636E43F001036366012027E0916847
:10122C00144B0B4043F002039360236803221A60B3
:10123C0002F02AFE054623689B6813F0010F13D0B9
:10124C0002F022FE401B0228F5D923689B6813F09C
:10125C00010FF0D0236E43F010032366636E43F04E
:10126C0001036366012002E0002000E0002038BD8D
:10127C000020FCE7C0FFFF7F90F85C30012B18D0FA
:10128C0010B50446012380F85C300321FFF73AFEC9
:10129C0018B1002384F85C3010BD2046FFF7A2FF84
:1012AC000028F6D1226E044B134043F00103236651
:1012BC00EFE70220704700BFFEEEFFFF10B50446BB
:1012CC0003684449444A934218BF8B421CD1434B98
:1012DC009B6813F4403F14BF0123002313B300F0A9
:1012EC0085FF6368B3F5003F16D0B3F5403F17D0C8
:1012FC00B3F5803F10D03A4B98424ED82268936891
:10130C0023F44073936010BD364B9B6813F4403F3D
:10131C0014BF01230023E1E71B0CB0FBF3F0EAE759
:10132C008008E8E74FF40020002102F0ABF8636876
:10133C00B3F5101F2DD022D8B3F5E01F27D004D958
:10134C00B3F5001FD7D14009D5E7B3F5801F0DD0F9
:10135C0006D9B3F5A01F09D0B3F5C01F06D0CAE754
:10136C00B3F5002F02D0B3F5402F04D19B0C5B00DA
:10137C00B0FBF3F0BFE7B3F5802FF7D0BBE7B3F5C5
:10138C00201F08D0B3F5301FB5D1000AB3E7000910
:10139C00B1E78009AFE7C009ADE7134B984207D816
:1013AC002268936823F4407343F480739360AAE734
:1013BC000E4B984207D82268936823F4407343F489
:1013CC00007393609FE72268936843F440739360C3
:1013DC0099E700BF00200240002102400023024098
:1013EC0021BCBE000063025841787D0181F0FA02F5
:1013FC0030B583B000230193002800F067810446C8
:10140C00036EEBB123689A6812F0005F03D0996801
:10141C009C4A0A409A6023689A6812F0805F1CD13B
:10142C009968994A0A4042F080529A60974B1B681F
:10143C009B09974AA2FB03239B090133019309E003
:10144C00FFF7CAF80023636684F85C30DAE7019B87
:10145C00013B0193019B002BF9D123689A6812F090
:10146C00805F40F0A280226E42F010022266626E13
:10147C0042F00102626601259A6812F0040200D063
:10148C000122216E11F0100F40F01881002A40F05B
:10149C001581216E21F4817141F002012166996858
:1014AC0011F0010F21D17B487B498B4218BF83423D
:1014BC000CBF012300237AD1816811F0010100D007
:1014CC0001217548806810F0010000D00120014313
:1014DC000CBF0121002141B1002B71D06F48636812
:1014EC00816821F47C110B43836021686C4B994219
:1014FC0068D0627EE36B43EA4232A3681A4394F8E5
:10150C00203042EA034294F82030012B74D0A36AB5
:10151C0023B103F47873E06A03431A43604B994296
:10152C006FD0C8685F4B03401A43CA6021688B6850
:10153C0013F0040300D001238A6812F0080200D0D3
:10154C000122134322D1564B994267D0227E236B42
:10155C0043EA8232C868544B03401343CB6094F87F
:10156C004430012B61D02268136923F0010313610D
:10157C002268136923F07043216C0B4313612268BA
:10158C00474B9A4202D02046FFF798FE2369012B65
:10159C006FD02268136B23F00F031363236E23F0B9
:1015AC00030343F0010323668DE0002564E73C4907
:1015BC00896811F0010100D0012181F001018AE755
:1015CC003A488CE7607EE36B43EA4033E0680343C0
:1015DC00A068082808D00C2805D01C280AD0182888
:1015EC0002D1024600E008221A4394F8203042EA65
:1015FC00034288E71022F7E7636A013B42EA434261
:10160C0085E7C8682A4B03401A43CA6022681369ED
:10161C0023F04063616B0B43136187E7227E94F8E0
:10162C0038305B0043EA823294E721681C4B9942C4
:10163C0010D00A691F4B1340A26C501EE26C42EA98
:10164C000042206D0243606D0243134343F00103DB
:10165C000B618DE70A69184B1340A26CE06C0243D6
:10166C00206D0243606D0243134343F001030B6191
:10167C007EE721680B6B23F00F03E269013A1343F9
:10168C000B638BE7C0FFFF5FC0FFFF6F08000020FC
:10169C00632D3E0500200240002102400023024041
:1016AC000060025803C0F0FFFCBFFFFF006302584C
:1016BC000740F0FF1EF800FC1FF800FC236E43F0FF
:1016CC00100323660125284603B030BD0125FAE737
:1016DC0070B582B00023019390F85C30012B42D09E
:1016EC0004460D461646012380F85C30FFF77AFD60
:1016FC0000282FD1226E1D4B134043F002032366AA
:10170C00226891681A4B0B4005F4803506F0804630
:10171C0035432B4343F00043936023689B68002BB5
:10172C0006DB236E23F0030343F00103236615E06D
:10173C00019B01330193019A0E4B9A42EDD3236E18
:10174C0023F0120343F010032366002384F85C306B
:10175C00012006E0236E43F010032366002384F877
:10176C005C3002B070BD0220FBE700BFFDEEFFFF56
:10177C00C0FFFE3F00F8C325002800F0D78238B523
:10178C000446036813F0010F25D0A04A136903F037
:10179C003803926A102B15D0182B0FD06368B3F551
:1017AC00803F3FD0002B53D1984B1A6822F48032E3
:1017BC001A601A6822F480221A6038E002F00302E0
:1017CC00022AEBD1914B1B6813F4003F03D06368E2
:1017DC00002B00F0AD82236813F0020F00F088801C
:1017EC008A4A1369926A13F038035AD0182B55D0D1
:1017FC00E368002B00F0A98084490A6822F01902E2
:10180C0013430B6002F040FB0546804B1B6813F042
:10181C00040F40F0918002F037FB401B0228F4D9F2
:10182C0003208CE2794A136843F4803313606368B5
:10183C002BB302F029FB0546744B1B6813F4003FD5
:10184C00C9D102F021FB401B6428F5D9032076E2B4
:10185C00B3F5A02F09D06D4B1A6822F480321A60B0
:10186C001A6822F480221A60E1E7684B1A6842F485
:10187C0080221A601A6842F480321A60D7E702F0AC
:10188C0003FB0546614B1B6813F4003FA3D002F029
:10189C00FBFA401B6428F5D9032050E212F0030F29
:1018AC00A6D15A4B1B6813F0040F03D0E368002B2E
:1018BC0000F04082554A136823F01903E1680B438A
:1018CC00136002F0E1FA0546504B1B6813F0040F4D
:1018DC0006D102F0D9FA401B0228F5D903202EE2DA
:1018EC004A4A536823F0FE43216943EA016353607B
:1018FC00236813F0100F51D0444A136903F03803D6
:10190C00926A082B39D0182B33D0E369002B69D09D
:10191C003E4A136843F08003136002F0B5FA0546A3
:10192C003A4B1B6813F4807F53D102F0ADFA401B85
:10193C000228F5D9032002E2344A536823F0FE430F
:10194C00216943EA01635360D2E7304A136823F0FC
:10195C000103136002F098FA05462C4B1B6813F038
:10196C00040FC5D002F090FA401B0228F5D90320D1
:10197C00E5E102F00302012AC7D1244B1B6813F4E2
:10198C00807F03D0E369802B40F0D6811F4AD36857
:10199C0023F07C53216A43EA0163D360236813F07C
:1019AC00080F49D06369002B32D0184A536F43F0AB
:1019BC000103536702F068FA0546144B5B6F13F092
:1019CC00020F39D102F060FA401B0228F5D903202E
:1019DC00B5E10E4AD36823F07C53216A43EA0163D4
:1019EC00D360DBE7094A136823F08003136002F02D
:1019FC004BFA0546054B1B6813F4807FCED002F0E2
:101A0C0043FA401B0228F5D9032098E10044025800
:101A1C009D4A536F23F00103536702F035FA0546D4
:101A2C00994B5B6F13F0020F06D002F02DFA401B9E
:101A3C000228F5D9032082E1236813F0200F29D066
:101A4C00A3699BB1904A136843F48053136002F06E
:101A5C001BFA05468C4B1B6813F4005F1AD102F07D
:101A6C0013FA401B0228F5D9032068E1864A136853
:101A7C0023F48053136002F007FA0546824B1B686F
:101A8C0013F4005F06D002F0FFF9401B0228F5D9D1
:101A9C00032054E1236813F0040F21D1636A002B57
:101AAC0000F04C81784A126902F03802182A00F0D2
:101ABC00F380022B75D0744A136823F08073136083
:101ACC0002F0E2F90446704B1B6813F0007F00F043
:101ADC00D88002F0D9F9001B0228F4D903202EE19A
:101AEC006A4A136843F48073136002F0CDF905461B
:101AFC00664B1B6813F4807F06D102F0C5F9401BBE
:101B0C006428F5D903201AE1A368012B0AD00BBB7A
:101B1C005D4B1A6F22F001021A671A6F22F0040251
:101B2C001A6704E0584A136F43F001031367A36864
:101B3C0033B302F0A9F90546534B1B6F13F0020F98
:101B4C00ACD102F0A1F9401B41F288339842F3D991
:101B5C000320F4E0052B09D04B4B1A6F22F0010245
:101B6C001A671A6F22F004021A67E0E7464B1A6FE5
:101B7C0042F004021A671A6F42F001021A67D6E7A4
:101B8C0002F082F90546404B1B6F13F0020F85D013
:101B9C0002F07AF9401B41F288339842F3D90320C2
:101BAC00CDE0394A136823F08073136002F06CF9AE
:101BBC000546354B1B6813F0007F06D002F064F924
:101BCC00401B0228F5D90320B9E02F4B996A304A03
:101BDC000A40A16AE06A41EA00110A439A62226B48
:101BEC00013AC2F30802616B0139490289B20A4316
:101BFC00A16B0139090401F4FE010A43E16B0139BF
:101C0C00090601F0FE410A431A63DA6A22F0010266
:101C1C00DA62596B1F4A0A40A16C42EAC1025A634C
:101C2C00DA6A22F00C02216C0A43DA62DA6A22F0D8
:101C3C000202616C0A43DA62DA6A42F48032DA62D6
:101C4C00DA6A42F40032DA62DA6A42F48022DA6248
:101C5C00DA6A42F00102DA621A6842F080721A60A3
:101C6C0002F012F90446084B1B6813F0007F06D1F2
:101C7C0002F00AF9001B0228F5D903205FE00020CE
:101C8C005DE000205BE000BF0044025800480258B1
:101C9C000CFCFFFF0700FFFF30498A6A086B012B21
:101CAC004ED002F00303A16A8B424BD1C2F3051252
:101CBC00E36A9A4248D1C0F30802236B013B9A4273
:101CCC0044D1C0F34622636B013B9A4240D1C0F32E
:101CDC000642A36B013B9A423CD1C0F30660E36B16
:101CEC00013B984238D11D4B5B6BC3F3CC03A26C08
:101CFC009A4201D1002022E0184AD36A23F0010352
:101D0C00D36202F0C1F8054602F0BEF8A842FBD03F
:101D1C00124A516B124B0B40A16C43EAC103536343
:101D2C00D36A43F00103D362002008E0012070471E
:101D3C00012004E0012002E0012000E0002038BD79
:101D4C000120FCE70120FAE70120F8E70120F6E783
:101D5C000120F4E70120F2E70120F0E700440258EB
:101D6C000700FFFF744B1B6903F03803102B00F0C6
:101D7C00DE80182B10D00BB1704870476E4B1B686F
:101D8C0013F0200F00F0D5806B4B1868C0F3C10026
:101D9C006B4B23FA00F0704710B4674A916A01F05C
:101DAC000301946AC4F30510D36A03F0010C536B5E
:101DBC00C3F3CC030CFB03F307EE903AF8EE677A0F
:101DCC0014F47C7F00F09380012965D0022900F087
:101DDC009180E1B107EE100AF8EE476A9FED596A5F
:101DEC0086EE267A544B1B6BC3F3080306EE903A2F
:101DFC00F8EE666A9FED546A67EE867A76EEA77AFD
:101E0C00F7EE006A77EEA67A27EE277A60E0136881
:101E1C0013F0200F23D011461268C2F3C102484BB5
:101E2C00D34007EE103AF8EE476A07EE100AB8EE08
:101E3C00476A86EE867A0B6BC3F3080306EE903A7C
:101E4C00F8EE666A9FED406A67EE867A76EEA77AC0
:101E5C00F7EE006A77EEA67A27EE277A38E007EEDF
:101E6C00100AF8EE476A9FED396A86EE267A324BF5
:101E7C001B6BC3F3080306EE903AF8EE666A9FED0F
:101E8C00326A67EE867A76EEA77AF7EE006A77EE1C
:101E9C00A67A27EE277A1BE007EE100AF8EE476ABF
:101EAC009FED286A86EE267A234B1B6BC3F308033F
:101EBC0006EE903AF8EE666A9FED236A67EE867A34
:101ECC0076EEA77AF7EE006A77EEA67A27EE277AF7
:101EDC00194B1B6BC3F34623013307EE903AF8EE14
:101EEC00677AC7EE276AFCEEE67A17EE900A5DF881
:101EFC00044B704707EE100AF8EE476A9FED146A20
:101F0C0086EE267A0C4B1B6BC3F3080306EE903A55
:101F1C00F8EE666A9FED0C6A67EE867A76EEA77A23
:101F2C00F7EE006A77EEA67A27EE277AD0E7094813
:101F3C0070470348704700BF0044025800093D0039
:101F4C000090D0030024744A000000390024744C23
:101F5C00001B374B001BB700002800F0328170B516
:101F6C000D4604469B4B1B6803F00F038B420BD2B0
:101F7C00984A136823F00F030B431360136803F0A4
:101F8C000F038B4240F01F81236813F0040F0CD019
:101F9C002269914B9B6903F070039A4205D98E49D3
:101FAC008B6923F070031A438A61236813F0080FBE
:101FBC000CD06269884BDB6903F070039A4205D937
:101FCC008549CB6923F070031A43CA61236813F067
:101FDC00100F0CD0A269804BDB6903F4E0639A42CA
:101FEC0005D97D49CB6923F4E0631A43CA612368A0
:101FFC0013F0200F0CD0E269774B1B6A03F07003CF
:10200C009A4205D974490B6A23F070031A430A6289
:10201C00236813F0020F0CD0E2686F4B9B6903F03E
:10202C000F039A4205D96C498B6923F00F031A43AD
:10203C008A61236813F0010F41D0674A936923F436
:10204C007063A1680B4393616368022B0AD0032B66
:10205C0027D0012B2CD0604A126812F0040F06D145
:10206C000120ADE0126812F4003F00F0AE805A4936
:10207C000A6922F0070213430B6101F005FF0646C3
:10208C00554B1B6903F038036268B3EBC20F16D0D3
:10209C0001F0FAFE801B41F288339842F0D90320FC
:1020AC008EE04D4A126812F0007FE0D1012087E0EB
:1020BC00494A126812F4807FD9D1012080E023684C
:1020CC0013F0020F0CD0E268434B9B6903F00F0333
:1020DC009A4205D240498B6923F00F031A438A6157
:1020EC003C4B1B6803F00F03AB420AD9394A136807
:1020FC0023F00F032B431360136803F00F03AB4261
:10210C0065D1236813F0040F0CD02269324B9B6904
:10211C0003F070039A4205D22F498B6923F07003A8
:10212C001A438A61236813F0080F0CD062692A4B9A
:10213C00DB6903F070039A4205D22749CB6923F07F
:10214C0070031A43CA61236813F0100F0CD0A269F4
:10215C00214BDB6903F4E0639A4205D21E49CB693B
:10216C0023F4E0631A43CA61236813F0200F0CD0E8
:10217C00E269194B1B6A03F070039A4205D21649A7
:10218C000B6A23F070031A430A62FFF7EBFD124946
:10219C008B69C3F30323114AD35C03F01F03D840AC
:1021AC008B6903F00F03D35C03F01F0320FA03F3D6
:1021BC000B4A13600B4B18600B4B186801F002FEB6
:1021CC0070BD012070470120FAE70120F8E70120DB
:1021DC00F6E700BF0020005200440258BC4C000837
:1021EC000C000020080000200400002008B5FFF7B8
:1021FC00B9FD0B4A9369C3F303230A49CB5C03F083
:10220C001F0320FA03F3926902F00F02885C00F0BE
:10221C001F0023FA00F0044A1060044A136008BD42
:10222C0000440258BC4C00080C00002008000020A0
:10223C0008B5FFF7DBFF054BDB69C3F30213044A58
:10224C00D35C03F01F03D84008BD00BF0044025804
:10225C00BC4C0008404B9B6A03F00303032B79D062
:10226C0070B505460E463C4A136823F08063136034
:10227C0001F00AFE0446384B1B6813F0006F06D0C1
:10228C0001F002FE031B022BF5D9032070BD324B6B
:10229C009A6A22F47C32296842EA01329A626A68AC
:1022AC00013AC2F30802A9680139490289B20A430A
:1022BC00E9680139090401F4FE010A43296901396D
:1022CC00090601F0FE410A439A63DA6A22F0C00261
:1022DC0069690A43DA62DA6A22F02002A9690A43C0
:1022EC00DA62DA6A22F01002DA62D96B1B4A0A400F
:1022FC00E96942EAC102DA63DA6A42F01002DA6290
:10230C00C6B91A46DB6A43F40023D362124A136837
:10231C0043F08063136001F0B7FD04460E4B1B685D
:10232C0013F0006F14D101F0AFFD001B0228F5D99A
:10233C000320ABE7012E05D0074AD36A43F4001300
:10234C00D362E3E7044AD36A43F48013D362DDE734
:10235C0000209BE701207047004402580700FFFF54
:10236C00404B9B6A03F00303032B79D070B50546F1
:10237C000E463C4A136823F08053136001F084FD31
:10238C000446384B1B6813F0005F06D001F07CFD4F
:10239C00031B022BF5D9032070BD324B9A6A22F035
:1023AC007C72296842EA01529A626A68013AC2F365
:1023BC000802A9680139490289B20A43E96801395E
:1023CC00090401F4FE010A4329690139090601F0E7
:1023DC00FE410A431A64DA6A22F4406269690A43CC
:1023EC00DA62DA6A22F40072A9690A43DA62DA6AFA
:1023FC0022F48072DA62596C1B4A0A40E96942EA9B
:10240C00C1025A64DA6A42F48072DA62C6B91A46B8
:10241C00DB6A43F48003D362124A136843F080539F
:10242C00136001F031FD04460E4B1B6813F0005F86
:10243C0014D101F029FD001B0228F5D90320ABE7CC
:10244C00012E05D0074AD36A43F08073D362E3E7C9
:10245C00044AD36A43F40003D362DDE700209BE710
:10246C0001207047004402580700FFFFF8B50446EE
:10247C00036813F0006F30D0436EB3F5001F26D005
:10248C000ED8EBB1B3F5801F07D102210830FFF74E
:10249C00E1FE054645B12E4621E0012635461EE0FB
:1024AC00B3F5401F09D100259F4A136D23F4401347
:1024BC00616E0B431365002611E0012635460EE0D4
:1024CC00994AD36A43F40033D3620025ECE7022126
:1024DC002830FFF745FF0546DCE700263546236824
:1024EC0013F4807F27D0A36D042B20D8DFE803F0F2
:1024FC000311180808008C4AD36A43F40033D362E2
:10250C00C5B9894A136D23F00703A16D0B431365FD
:10251C0011E0002104F10800FFF79CFE0546EFE7EF
:10252C00002104F12800FFF71BFF0546E8E7012610
:10253C00354600E02E46236813F4806F22D0D4F881
:10254C00A430B3F5800F3FD00DD8BBB3B3F5001F4B
:10255C0006D1002104F10800FFF77CFE054608E0D7
:10256C00012635460EE0B3F5000F02D0B3F5200F6F
:10257C001ED185BB6C4A936D23F46003D4F8A41070
:10258C000B439365236813F4006F39D0D4F8A8304B
:10259C00B3F1007F5AD023D8002B51D0B3F1807FF8
:1025AC001BD1002104F10800FFF754FE05461DE085
:1025BC00B3F5C00FDDD001263546E3E75A4AD36A9E
:1025CC0043F40033D362D4E7002104F12800FFF771
:1025DC00C7FE0546CDE72E46D4E7012635460FE06B
:1025EC00B3F1806F02D0B3F1A06F23D1002D34D1A1
:1025FC004D4A936D23F0E063D4F8A8100B43936518
:10260C00236813F0007F31D0E36C202B42D029D803
:10261C0033B1102B23D1444AD36A43F40033D36231
:10262C00002D3ED1404AD36C23F03003E16C0B43B8
:10263C00D3641BE0B3F1407FD8D001263546DFE7E9
:10264C00394AD36A43F40033D362CFE7002104F153
:10265C002800FFF785FE0546C8E72E46D0E7012681
:10266C00354603E0302BDBD001263546236813F4C6
:10267C00805F3BD0E36DB3F5005F2FD016D83BB332
:10268C00B3F5805F0FD1002104F10800FFF7E2FDE4
:10269C00054611E0022104F10800FFF7DBFD0546B9
:1026AC00BEE72E46E2E7012635461FE0B3F5405F54
:1026BC0002D0B3F5804F08D1BDB91B4A136D23F47A
:1026CC00E043E16D0B43136510E0012635460DE048
:1026DC00154AD36A43F40033D362EDE7002104F1C9
:1026EC002800FFF73DFE0546E6E72E46236813F467
:1026FC00005F29D0236EB3F5003F44D019D843B105
:10270C00B3F5803F12D1012104F10800FFF7A2FDBF
:10271C000546002D3ED1044A136D23F4E023216EAF
:10272C000B43136510E000BF0044025801263546E8
:10273C000AE0B3F5802FECD0B3F5A02FE9D0B3F5B8
:10274C00403FE6D001263546236813F4804F31D044
:10275C00D4F8AC30B3F1005F45D020D843B1B3F11D
:10276C00805F19D1012104F10800FFF773FD0546C4
:10277C00002D3FD18F4A936D23F0E043D4F8AC1079
:10278C000B43936516E0012104F12800FFF7E8FDE7
:10279C000546BEE72E46D7E7012635460AE0B3F1DB
:1027AC00804FE5D0B3F1A04FE2D0B3F1405FDFD062
:1027BC0001263546236813F4004F09D0E36EB3F1BC
:1027CC00805F19D0B3F1005F24D0D3B10126354618
:1027DC00236813F0807F33D0A36C032B5BD8DFE826
:1027EC0003F027225327012104F12800FFF7B8FD3D
:1027FC000546BDE72E46DDE76E4AD36A43F4003347
:10280C00D36275B96B4A136D23F04053E16E0B43E1
:10281C001365DDE7012104F10800FFF71BFD0546F8
:10282C00EFE72E46D4E7634AD36A43F40033D3620E
:10283C00A5BB604AD36C23F00303A16C0B43D36498
:10284C00236813F4800F2BD1236813F0010F00F0D1
:10285C00A380A36F282B00F29D80DFE803F08B9BF5
:10286C009B9B9B9B9B9B859B9B9B9B9B9B9B949BC9
:10287C009B9B9B9B9B9B8B9B9B9B9B9B9B9B8B9BBC
:10288C009B9B9B9B9B9B8B00022104F10800FFF7F9
:10289C00E1FC0546CCE701263546D1E72E46CFE7CD
:1028AC00454A136843F48073136001F0EDFA074650
:1028BC00414B1B6813F4807F05D101F0E5FAC01B76
:1028CC006428F5D90325002D4AD13A4B1B6FD4F857
:1028DC00B020534013F4407F0CD0364B1A6F22F4C7
:1028EC004072196F41F480311967196F21F48031EE
:1028FC0019671A67D4F8B030B3F5807F15D08DBB4B
:10290C00D4F8B03003F44072B2F5407F1ED0294A9F
:10291C00136923F47C53136126490B6FD4F8B02050
:10292C00C2F30B0213430B678EE701F0ADFA0746B7
:10293C00204B1B6F13F0020FE1D101F0A5FAC01B65
:10294C0041F288339842F3D90325D8E71948026934
:10295C0022F47C52194901EA131313430361DBE798
:10296C002E4671E72E466FE7012104F10800FFF7B0
:10297C0071FC0546E5B90F4A536D23F03803A16F7E
:10298C000B43536508E0012104F12800FFF7E8FC34
:10299C000546EFE701263546236813F0020F1DD0DC
:1029AC00636F052B2ED8DFE803F0110B26111111E4
:1029BC002E46F1E70044025800480258CFFFFF00B2
:1029CC00012104F10800FFF745FC0546EDB9A94AC1
:1029DC00536D23F00703616F0B435365236813F0AA
:1029EC00040F23D0D4F89030052B45D8DFE803F042
:1029FC00150F3D151515012104F12800FFF7B0FC4A
:102A0C000546E3E701263546E8E72E46E6E70121D1
:102A1C0004F10800FFF71EFC054685BB954A936D33
:102A2C0023F00703D4F890100B439365236813F03D
:102A3C00200F34D0D4F88C30B3F1005F4ED023D8B3
:102A4C0043B1B3F1805F1CD1002104F10800FFF702
:102A5C0001FC0546002D48D1864A536D23F0E04316
:102A6C00D4F88C100B43536519E0012104F12800B4
:102A7C00FFF776FC0546D0E701263546D6E72E460D
:102A8C00D4E7012635460AE0B3F1804FE2D0B3F12A
:102A9C00A04FDFD0B3F1405FDCD001263546236870
:102AAC0013F0400F31D0D4F89830B3F5006F4DD0FF
:102ABC0020D843B1B3F5806F19D1002104F108007F
:102ACC00FFF7C8FB0546002D47D16A4A936D23F4E6
:102ADC00E053D4F898100B43936516E0022104F1EF
:102AEC002800FFF73DFC0546B4E72E46D7E7012644
:102AFC0035460AE0B3F5805FE5D0B3F5A05FE2D0D0
:102B0C00B3F5406FDFD001263546236813F0800FF4
:102B1C0033D0D4F89C30B3F5804F00F0A18021D88D
:102B2C0043B1B3F5005F1AD1002104F10800FFF79F
:102B3C0091FB0546002D40F09A804E4A936D23F48C
:102B4C006043D4F89C100B43936516E0022104F10A
:102B5C002800FFF705FC0546B5E72E46D5E701260C
:102B6C0035460AE0B3F5004FE4D0B3F5204FE1D081
:102B7C00B3F5C04FDED001263546236813F0080F9D
:102B8C000CD0D4F88030B3F5805F75D0394A536DD2
:102B9C0023F44053D4F880100B435365236813F08F
:102BAC00100F0CD0D4F89430B3F5807F6DD0314A2F
:102BBC00936D23F44073D4F894100B4393652368FE
:102BCC0013F4002F0BD0D4F8A030B3F5803F75D0A0
:102BDC00B3F5003F68D0002B60D001263546236842
:102BEC0013F4802F0CD0D4F88430B3F5001F7DD0B3
:102BFC00B3F5401F70D0B3F5801F68D00126354661
:102C0C00236813F4803F08D0236D002B77D0B3F5E5
:102C1C00803F00F0828001263546236813F0005F68
:102C2C0040F08480236813F4003F00F08C80E36F45
:102C3C00B3F5807F00F0DF8040F28280B3F5007F37
:102C4C0003D0B3F5407F40F0D480002D40F0D98004
:102C5C00084A536D23F44073E16F0B43536572E0E4
:102C6C00022104F12800FFF77BFB054662E72E46A4
:102C7C0083E700BF00440258022104F12800FFF74B
:102C8C006FFB002882D0012680E7022104F1280086
:102C9C00FFF766FB00288AD0012688E7002104F1A3
:102CAC000800FFF7D7FA05467DB9724A936D23F4F5
:102CBC004033D4F8A0100B43936590E7022104F144
:102CCC002800FFF74DFB0546EEE72E4687E7694ADD
:102CDC00D36A43F40033D3627DB9664A536D23F44F
:102CEC004013D4F884100B43536589E7012104F198
:102CFC002800FFF735FB0546EEE72E4680E75D4AD8
:102D0C00D36A43F40033D36275B95A4AD36C23F4B3
:102D1C008033216D0B43D3647FE7022104F108005B
:102D2C00FFF798FA0546EFE72E4676E7022104F105
:102D3C002800FFF715FB00283FF474AF012671E75C
:102D4C00002B82D00126236813F4801F06D0494A39
:102D5C00136D23F00043216F0B431365236813F4A9
:102D6C00001F06D0434A136D23F08073A16E0B43F2
:102D7C001365236813F0804F09D03E4B1A6922F477
:102D8C0000421A611A69D4F8B4100A431A61236814
:102D9C00002B06DA374AD36C23F04053616D0B439A
:102DAC00D364236813F4000F07D0324A536D23F415
:102DBC004003D4F888100B435365636813F0010F7C
:102DCC0021D1636813F0020F26D1636813F0040F4E
:102DDC002BD1636813F0080F30D1636813F0100F18
:102DEC0035D1636813F0200F3AD106B10126304675
:102DFC00F8BD0126A7E71F4AD36A43F40033D36218
:102E0C0023E72E469FE7002104F10800FFF722FA82
:102E1C000028D6D00646D4E7012104F10800FFF7BC
:102E2C0019FA0028D1D00646CFE7022104F1080098
:102E3C00FFF710FA0028CCD00646CAE7002104F1AF
:102E4C002800FFF78DFA0028C7D00646C5E70121F8
:102E5C0004F12800FFF784FA0028C2D00646C0E728
:102E6C00022104F12800FFF77BFA0028BDD00646AA
:102E7C00BBE700BF0044025808B5FFF7B7F9054B94
:102E8C001B6AC3F30213044AD35C03F01F03D8403C
:102E9C0008BD00BF00440258BC4C000810B5774A6E
:102EAC00916A946AC4F3053ED36AC3F3001CD36BD6
:102EBC00C3F3CC030CFB03F314F47C3F00F0D88079
:102ECC0001F0030107EE903AF8EE677A012965D01C
:102EDC00022900F0B080E1B107EE10EAB8EE477AB3
:102EEC009FED676AC6EE076A644B9B6BC3F30803DE
:102EFC0007EE103AB8EE477A9FED626A67EE867A73
:102F0C0077EE277AB7EE007A77EE877A66EEA76AC5
:102F1C0060E0136813F0200F23D011461268C2F33F
:102F2C00C102594BD34007EE103AB8EE477A06EE81
:102F3C0090EAB8EE666AC7EE066A8B6BC3F30803B9
:102F4C0007EE103AB8EE477A9FED4E6A67EE867A36
:102F5C0077EE277AB7EE007A77EE877A66EEA76A75
:102F6C0038E007EE10EAB8EE477A9FED486AC6EEF5
:102F7C00076A424B9B6BC3F3080307EE103AB8EE9B
:102F8C00477A9FED406A67EE867A77EE277AB7EE3E
:102F9C00007A77EE877A66EEA76A1BE007EE10EAF6
:102FAC00B8EE477A9FED366AC6EE076A334B9B6BD9
:102FBC00C3F3080307EE103AB8EE477A9FED316A77
:102FCC0067EE867A77EE277AB7EE007A77EE877A15
:102FDC0066EEA76A294A936BC3F3462307EE103AB1
:102FEC00B8EE477AB7EE006A37EE067AC6EE877A05
:102FFC00FCEEE77AC0ED007A936BC3F3064307EE61
:10300C00103AB8EE477A37EE067AC6EE877AFCEEBF
:10301C00E77AC0ED017A936BC3F3066307EE903A3F
:10302C00F8EE677A77EE867A86EEA77ABCEEC77AE8
:10303C0080ED027A10BD07EE10EAB8EE477A9FEDEC
:10304C00146AC6EE076A0D4B9B6BC3F3080307EEBD
:10305C00103AB8EE477A9FED0B6A67EE867A77EEF8
:10306C00277AB7EE007A77EE877A66EEA76AB1E731
:10307C000023036043608360DCE700BF0044025818
:10308C000024744A000000390090D0030024744CD2
:10309C00001B374B10B5774A916A946AC4F3055EEE
:1030AC00D36AC3F3002C536CC3F3CC030CFB03F3B4
:1030BC0014F07C7F00F0D88001F0030107EE903A09
:1030CC00F8EE677A012965D0022900F0B080E1B1F1
:1030DC0007EE10EAB8EE477A9FED676AC6EE076A0C
:1030EC00644B1B6CC3F3080307EE103AB8EE477A37
:1030FC009FED626A67EE867A77EE277AB7EE007AF2
:10310C0077EE877A66EEA76A60E0136813F0200FFB
:10311C0023D011461268C2F3C102594BD34007EEBB
:10312C00103AB8EE477A06EE90EAB8EE666AC7EE49
:10313C00066A0B6CC3F3080307EE103AB8EE477A35
:10314C009FED4E6A67EE867A77EE277AB7EE007AB5
:10315C0077EE877A66EEA76A38E007EE10EAB8EEEB
:10316C00477A9FED486AC6EE076A424B1B6CC3F365
:10317C00080307EE103AB8EE477A9FED406A67EE07
:10318C00867A77EE277AB7EE007A77EE877A66EE54
:10319C00A76A1BE007EE10EAB8EE477A9FED366A95
:1031AC00C6EE076A334B1B6CC3F3080307EE103AE9
:1031BC00B8EE477A9FED316A67EE867A77EE277A1A
:1031CC00B7EE007A77EE877A66EEA76A294A136C17
:1031DC00C3F3462307EE103AB8EE477AB7EE006A0F
:1031EC0037EE067AC6EE877AFCEEE77AC0ED007A07
:1031FC00136CC3F3064307EE103AB8EE477A37EE7A
:10320C00067AC6EE877AFCEEE77AC0ED017A136C8B
:10321C00C3F3066307EE903AF8EE677A77EE867A98
:10322C0086EEA77ABCEEC77A80ED027A10BD07EE67
:10323C0010EAB8EE477A9FED146AC6EE076A0D4B9A
:10324C001B6CC3F3080307EE103AB8EE477A9FEDF8
:10325C000B6A67EE867A77EE277AB7EE007A77EE0E
:10326C00877A66EEA76AB1E7002303604360836048
:10327C00DCE700BF004402580024744A0000003907
:10328C000090D0030024744C001B374B10B5774AC8
:10329C00916A946AC4F3051ED36A03F0010C536B54
:1032AC00C3F3CC030CFB03F314F47C7F00F0D88045
:1032BC0001F0030107EE903AF8EE677A012965D028
:1032CC00022900F0B080E1B107EE10EAB8EE477ABF
:1032DC009FED676AC6EE076A644B1B6BC3F308036A
:1032EC0007EE103AB8EE477A9FED626A67EE867A7F
:1032FC0077EE277AB7EE007A77EE877A66EEA76AD2
:10330C0060E0136813F0200F23D011461268C2F34B
:10331C00C102594BD34007EE103AB8EE477A06EE8D
:10332C0090EAB8EE666AC7EE066A0B6BC3F3080345
:10333C0007EE103AB8EE477A9FED4E6A67EE867A42
:10334C0077EE277AB7EE007A77EE877A66EEA76A81
:10335C0038E007EE10EAB8EE477A9FED456AC6EE04
:10336C00076A424B1B6BC3F3080307EE103AB8EE27
:10337C00477A9FED406A67EE867A77EE277AB7EE4A
:10338C00007A77EE877A66EEA76A1BE007EE10EA02
:10339C00B8EE477A9FED396AC6EE076A334B1B6B62
:1033AC00C3F3080307EE103AB8EE477A9FED316A83
:1033BC0067EE867A77EE277AB7EE007A77EE877A21
:1033CC0066EEA76A294A136BC3F3462307EE103A3D
:1033DC00B8EE477AB7EE006A37EE067AC6EE877A11
:1033EC00FCEEE77AC0ED007A136BC3F3064307EEED
:1033FC00103AB8EE477A37EE067AC6EE877AFCEECC
:10340C00E77AC0ED017A136BC3F3066307EE903ACB
:10341C00F8EE677A77EE867A86EEA77ABCEEC77AF4
:10342C0080ED027A10BD07EE10EAB8EE477A9FEDF8
:10343C00146AC6EE076A0D4B1B6BC3F3080307EE49
:10344C00103AB8EE477A9FED0B6A67EE867A77EE04
:10345C00277AB7EE007A77EE877A66EEA76AB1E73D
:10346C000023036043608360DCE700BF0044025824
:10347C000024744C000000390090D0030024744ADE
:10348C00001B374B00B58BB0A0F580730B4329D0D4
:10349C00A0F580630B4379D0A0F500630B4300F0DB
:1034AC00D280A0F580530B4300F02A81A0F5005385
:1034BC000B4300F08981A0F500230B4300F0D2816F
:1034CC00A0F580330B4300F01582A0F580430B432D
:1034DC0000F02E82A0F5004050EA010300F07A8241
:1034EC000020A8E2964B1B6D03F00703042B00F29F
:1034FC009982DFE803F005101B03260091489AE23D
:10350C008F4B186810F0007000F0958207A8FFF739
:10351C00BDFE08988FE28A4B186810F0006000F02E
:10352C008A8204A8FFF7BAFC049884E2844B1868DA
:10353C0010F0005000F07F8201A8FFF7ABFD01985E
:10354C0079E27F4AD36C03F04053126812F0040FF7
:10355C0007D033B97A4B1B68C3F3C1037A48D84000
:10356C0069E2774A126812F4807F03D0B3F1805F6E
:10357C0000F05A82724A126812F4003F00F0568230
:10358C00B3F1005F00F05482002054E26C4B9B6D51
:10359C0003F46003B3F5800F35D016D9B3F5C00F23
:1035AC0000F04882B3F5000F20D1654AD36C03F0CC
:1035BC004053126812F0040F30D07BBB604B1B6879
:1035CC00C3F3C1036048D84035E28BB1B3F5001F9B
:1035DC000AD15B4B186810F0006000F02C8204A834
:1035EC00FFF75CFC049826E2002024E2002022E293
:1035FC00534B186810F0007000F01D8207A8FFF7FD
:10360C0045FE089817E24E4B186810F0005000F079
:10361C00128201A8FFF73EFD01980CE2484A12689D
:10362C0012F4807F03D0B3F1805F00F00782444A2C
:10363C00126812F4003F00F00382B3F1005F00F057
:10364C0001820020F7E13E4B9B6D03F0E063B3F188
:10365C00007F35D016D9B3F1407F00F0F581B3F17E
:10366C00806F20D1364AD36C03F04053126812F0AD
:10367C00040F30D07BBB324B1B68C3F3C103324801
:10368C00D840D8E18BB1B3F1807F0AD12C4B1868AC
:10369C0010F0006000F0CF8104A8FFF7FFFB049846
:1036AC00C9E10020C7E10020C5E1254B186810F0E6
:1036BC00007000F0C08107A8FFF7E8FD0898BAE198
:1036CC001F4B186810F0005000F0B58101A8FFF7EF
:1036DC00E1FC0198AFE11A4A126812F4807F03D022
:1036EC00B3F1805F00F0B281154A126812F4003F0A
:1036FC0000F0AE81B3F1005F00F0AC8100209AE1E4
:10370C000F4B1B6D03F4E043B3F5005F3CD01DD9A8
:10371C00B3F5405F00F0A081B3F5804F27D1084A84
:10372C00D36C03F04053126812F0040F37D0002B07
:10373C0035D1034B1B68C3F3C1030348D8407AE16E
:10374C00004402580080BB000090D0038BB1B3F54D
:10375C00805F0AD19B4B186810F0006000F06B8101
:10376C0004A8FFF79BFB049865E1002063E10020AF
:10377C0061E1944B186810F0007000F05C8107A8B0
:10378C00FFF784FD089856E18E4B186810F0005036
:10379C0000F0518101A8FFF77DFC01984BE1894AAB
:1037AC00126812F4807F03D0B3F1805F00F0568171
:1037BC00844A126812F4003F00F05281B3F1005FAA
:1037CC0000F05081002036E17E4B1B6D03F4E023AA
:1037DC00B3F5403F32D016D8B3F5803F23D0B3F5C4
:1037EC00003F0AD1774B186810F0005000F023818D
:1037FC0001A8FFF74FFC02981DE113B9FEF718FD65
:10380C0019E1002017E1B3F5802F23D0B3F5A02FD9
:10381C0007D16C4B186810F4003000F00C816A482A
:10382C0009E1002007E1674B186810F0006000F018
:10383C00028104A8FFF732FB0598FCE0614B186885
:10384C0010F0040000F0F7801B68C3F3C1035F485D
:10385C00D840F0E05B4B186810F4807000F0EB80FF
:10386C005B48E8E0574B9B6D03F44033B3F5803F66
:10387C0010D0B3F5003F18D00BB10020DBE0514B5A
:10388C00186810F0006000F0D68004A8FFF706FB63
:10389C000498D0E04B4B186810F0005000F0CB802F
:1038AC0001A8FFF7F7FB0398C5E0464AD36C03F079
:1038BC004053126812F0040F07D033B9414B1B6808
:1038CC00C3F3C1034148D840B5E03E4A126812F434
:1038DC00807F03D0B3F1805F00F0C680394A126854
:1038EC0012F4003F00F0C280B3F1005F00F0C08022
:1038FC000020A0E0334BDB6C13F4803302D063B9AF
:10390C00002098E02F4B186810F0007000F09380A6
:10391C0007A8FFF7BBFC08988DE02A4B186810F03D
:10392C00006000F0888004A8FFF7B8FA069882E0DF
:10393C00244B9B6D03F0E043B3F1405F2FD015D8BF
:10394C00B3F1805F21D0B3F1005F09D11D4B186832
:10395C0010F000506FD001A8FFF79CFB02986AE0B2
:10396C0013B9FFF789FA66E0002064E0B3F1804FE9
:10397C0020D0B3F1A04F06D1124B186810F40030D0
:10398C0059D0114857E0002055E00E4B186810F044
:10399C00006050D004A8FFF781FA05984BE0094B62
:1039AC00186810F0040046D01B68C3F3C103074825
:1039BC00D84040E0034B186810F480703BD00448AA
:1039CC0039E000BF00440258001BB7000090D00340
:1039DC0000093D00274B1B6D03F04053B3F1805F92
:1039EC000CD0B3F1005F13D00BB1002023E0214BBE
:1039FC00186810F400301ED01F481CE01D4B1868CE
:103A0C0010F0007017D007A8FFF740FC089812E0E0
:103A1C00184B186810F000600DD004A8FFF73EFAA0
:103A2C00059808E0002006E0144804E0002002E0BD
:103A3C00114800E012480BB05DF804FB0F48FAE7A0
:103A4C000020F8E70C48F6E70D48F4E70B48F2E7DE
:103A5C000020F0E70848EEE70948ECE70748EAE7FA
:103A6C000020E8E70448E6E70448E4E70020E2E742
:103A7C000148E0E700440258001BB70000093D0074
:103A8C000080BB00F0B583B000236BE085685E005E
:103A9C000324B44025EA0405CC68B4402C4384606C
:103AAC00446824EA0C0C4C68C4F300149C4044EAAF
:103ABC000C04446068E0DD08083550F8256003F01C
:103ACC0007044FEA840C0F2404FA0CF426EA040EC3
:103ADC000C6904FA0CF444EA0E0440F825406BE03F
:103AEC00092400E0002404FA0EF42C430CF1020C1F
:103AFC00664D45F82C404FF0B0442568D44325EA78
:103B0C0002064F6817F4801F01D042EA05064FF0F9
:103B1C00B0452E606D6804EA05064F6817F4001F67
:103B2C0001D042EA05064FF0B0456E60D5F88450DE
:103B3C0004EA05064F6817F4003F01D042EA050677
:103B4C004FF0B045C5F88460D5F880502C404E68D5
:103B5C0016F4803F01D042EA05044FF0B042C2F89F
:103B6C00804001330A6832FA03F400F08C804FF085
:103B7C00010C0CFA03FC1CEA0202F2D04C6804F0B3
:103B8C000304013C012C81D94C6804F00304032C80
:103B9C000CD0C4685D004FF0030C0CFA05FC24EA51
:103BAC000C0C8C68AC4044EA0C04C4604C6804F007
:103BBC000304022C3FF47FAF04684FEA430E4FF02E
:103BCC00030C0CFA0EFC24EA0C0C4C6804F00304F5
:103BDC0004FA0EF444EA0C0404604C6814F4403FFC
:103BEC00BFD02B4CD4F8F45045F00205C4F8F45077
:103BFC00D4F8F44004F002040194019C4FEA930CB5
:103C0C000CF10205214C54F8255003F003044FEA43
:103C1C00840E0F2404FA0EF425EA04051D4CA04270
:103C2C003FF460AF04F58064A0421ED004F58064BC
:103C3C00A0421CD004F58064A0421AD004F5806424
:103C4C00A04218D004F58064A04216D004F580641C
:103C5C00A04214D004F58064A04212D004F5006494
:103C6C00A0423FF43DAF0A243DE701243BE7022488
:103C7C0039E7032437E7042435E7052433E7062422
:103C8C0031E707242FE703B0F0BD00BF0004005854
:103C9C0000440258000002580AB1816170470904BF
:103CAC0081617047436901EA030221EA030141EA99
:103CBC000241816170470000134BDB6813F0040F65
:103CCC0007D1114BDB6803F0070383421AD00120A4
:103CDC00704710B50C4AD36823F007031843D06023
:103CEC0000F0D2F80446084B5B6813F4005F07D170
:103CFC0000F0CAF8001BB0F57A7FF4D9012000E07F
:103D0C00002010BD00207047004802580649CB68BF
:103D1C0023F4E0631B041B0C000200F4E06003437B
:103D2C00024A1A43CA60704700ED00E00000FA0531
:103D3C0000B5174BDB68C3F30223C3F1070CBCF1CE
:103D4C00040F28BF4FF0040C03F1040EBEF1060F54
:103D5C0014D9033B4FF0FF3E0EFA0CFC21EA0C0188
:103D6C0099400EFA03F322EA03031943002807DBF8
:103D7C000901C9B2074B19545DF804FB0023E9E7AC
:103D8C0000F00F000901C9B2034B1954F4E700BF4E
:103D9C0000ED00E000E400E014ED00E00138B0F1CB
:103DAC00807F0BD24FF0E0235861054AF02182F856
:103DBC0023100020986107221A6170470120704778
:103DCC0000ED00E0104B1B780BB90120704710B5CB
:103DDC0004464FF47A70B0FBF3F30C4A1068B0FB56
:103DEC00F3F0FFF7DBFF68B90F2C01D901200AE0D3
:103DFC00002221464FF0FF30FFF79AFF044B1C6066
:103E0C00002000E0012010BD000000200800002070
:103E1C000400002010B50320FFF778FFFDF7A2FF88
:103E2C000F498B69C3F303230E4AD35C03F01F03C2
:103E3C00D8408B6903F00F03D35C03F01F0320FA07
:103E4C0003F3094A1360094B18600F20FFF7BAFF00
:103E5C0010B10124204610BD0446FCF745FCF9E7DF
:103E6C0000440258BC4C00080C0000200800002044
:103E7C00034B1B78034A11680B441360704700BF57
:103E8C0000000020A4000020014B1868704700BF00
:103E9C00A400002038B50446FFF7F6FF0546B4F140
:103EAC00FF3F02D0044B1B781C44FFF7EDFF401B77
:103EBC00A042FAD338BD00BF00000020034A53686B
:103ECC0023EA00030B435360704700BF0004005803
:103EDC00F0B4036A23F001030362036A4668846941
:103EEC001F4A22400D68154323F002038C682343BC
:103EFC001C4A1D4CA04218BF90420CBF012200224C
:103F0C000CD004F58044A04214BF00240124174FA8
:103F1C00B84203D014B9164CA04205D123F00803C3
:103F2C00CC68234323F004035AB9124A904214BFBD
:103F3C00002201220D4CA04203D012B90C4A90422F
:103F4C0007D126F4407C4A6942EA0C0C8E6946EA99
:103F5C000C06466085614A6842630362F0BC704798
:103F6C008CFFFEFF000001400004014000400140B6
:103F7C00004801400044014070B4036A23F480738C
:103F8C000362036A4568C4691A4A22400E681643E4
:103F9C0023F400738A6843EA0223174A174CA042A1
:103FAC0018BF90420CBF0122002206D123F40063FB
:103FBC00CC6843EA042323F480635AB9104A904234
:103FCC0014BF002201220F4CA04203D012B90E4A9A
:103FDC00904207D125F4405C4A694CEA021C8D6979
:103FEC004CEA05154560C6614A68C263036270BC41
:103FFC00704700BF8CFFFEFF000001400004014031
:10400C0000440140004001400048014070B4036A84
:10401C0023F480530362036A4468C569144A2A4036
:10402C000D6842EA052223F400538D6843EA0533F8
:10403C00104E114DA84218BFB0420DD005F5804569
:10404C00A84214BF0025012506F58046B04203D0D6
:10405C0015B90A4DA84204D124F480444D6944EAB0
:10406C0085144460C2614A680264036270BC704784
:10407C00FF8CFFFE0000014000040140004801409D
:10408C0070B4036A23F480330362036A4268456D9B
:10409C00144C2C400D682C4323F400338D6843EAF8
:1040AC000543114E114DA84218BFB0420DD005F575
:1040BC008045A84214BF0025012506F58046B04274
:1040CC0003D015B90A4DA84204D122F480324D69AF
:1040DC0042EA0522426044654A688265036270BC0C
:1040EC00704700BF8FFFFEFF00000140000401403D
:1040FC000048014070B4036A23F480130362036A1E
:10410C004468456D144A2A400D6842EA052223F49E
:10411C0000138D6843EA0553104E114DA84218BF89
:10412C00B0420DD005F58045A84214BF00250125ED
:10413C0006F58046B04203D015B90A4DA84204D109
:10414C0024F480244D6944EA8524446042654A681D
:10415C00C265036270BC7047FF8FFFFE0000014018
:10416C00000401400048014010B4036A046A24F0C2
:10417C0001040462846924F0F00C4CEA021223F06E
:10418C000A030B43826103625DF8044B704710B461
:10419C00046A24F0100404628469036A24F4704CE9
:1041AC004CEA023223F0A00343EA0113826103625A
:1041BC005DF8044B704700008268034B13400B43BF
:1041CC0043F00703836070478FFFCFFF7047704742
:1041DC0030B503683E4A904214BF4FF0000E4FF0CA
:1041EC00010EB0F1804F14BF72464EF00102AAB915
:1041FC00384CA04214BF00240124374DA8420DD0E6
:10420C0064B904F1804404F58234A04214BF002444
:10421C00012405F50065A84200D01CB123F0700301
:10422C004C68234362BB2B4A904214BF00220122EC
:10423C00294CA04224D01ABB02F1804202F58232F2
:10424C00904214BF0022012204F50064A04217D052
:10425C00B2B9224A904214BF0022012204F59A34CA
:10426C00A0420DD062B91E4A904214BF0022012216
:10427C0004F50064A04203D012B91A4A904204D14A
:10428C0023F4407CCB6843EA0C0323F080034A6997
:10429C00134303608A68C2620A688262124A9042BF
:1042AC0014BF73464EF0010363B90C4B984214BF14
:1042BC000023012302F57052904203D013B90B4B2B
:1042CC00984201D10B6903630123436130BD00BFE8
:1042DC000000014000080040000400400044014080
:1042EC0000E0004000E400400004014000480140B0
:1042FC0060B310B5044690F83D3013B3022384F834
:10430C003D30214651F8040BFFF762FF012384F87E
:10431C00483084F83E3084F83F3084F8403084F8DC
:10432C00413084F8423084F8433084F8443084F8C7
:10433C00453084F8463084F8473084F83D3000200E
:10434C0010BD80F83C3000F033FBD7E701207047FC
:10435C0060B310B5044690F83D3013B3022384F8D3
:10436C003D30214651F8040BFFF732FF012384F84E
:10437C00483084F83E3084F83F3084F8403084F87C
:10438C00413084F8423084F8433084F8443084F867
:10439C00453084F8463084F8473084F83D300020AE
:1043AC0010BD80F83C30FFF711FFD7E701207047B4
:1043BC0060B310B5044690F83D3013B3022384F873
:1043CC003D30214651F8040BFFF702FF012384F81E
:1043DC00483084F83E3084F83F3084F8403084F81C
:1043EC00413084F8423084F8433084F8443084F807
:1043FC00453084F8463084F8473084F83D3000204E
:10440C0010BD80F83C30FFF7E2FED7E70120704783
:10441C0070B4036A23F010030362036A456884696D
:10442C001A4A22400E6842EA062623F020038A68C4
:10443C0043EA0213164A174CA04218BF90420CBF15
:10444C000122002206D123F08003CC6843EA041336
:10445C0023F040035AB9104A904214BF00220122A3
:10446C000E4CA04203D012B90D4A904207D125F44C
:10447C00406C4A694CEA820C8D694CEA85054560B2
:10448C0086614A688263036270BC7047FF8CFFFED2
:10449C000000014000040140004401400040014084
:1044AC000048014090F83C30012B36D010B5044642
:1044BC00012380F83C30142A2AD8DFE802F00B29BB
:1044CC00292910292929152929291A2929291F2996
:1044DC00292924000068FFF7FBFC002019E0006884
:1044EC00FFF796FF002014E00068FFF745FD002061
:1044FC000FE00068FFF78AFD00200AE00068FFF774
:10450C00BFFD002005E00068FFF7F4FD002000E08F
:10451C000120002384F83C3010BD0220704738B5D0
:10452C0090F83C30012B00F0958004460D46012399
:10453C0080F83C30142A00F28880DFE802F00B8609
:10454C0086861F86868634868686488686865D861F
:10455C00868671000068FFF7BBFC2268936943F004
:10456C00080393612268936923F004039361226822
:10457C00936929690B439361002067E00068FFF79A
:10458C0047FF2268936943F400639361226893693F
:10459C0023F48063936122689369296943EA0123B8
:1045AC009361002052E00068FFF7E6FC2268D369B3
:1045BC0043F00803D3612268D36923F00403D36169
:1045CC002268D36929690B43D36100203EE000685F
:1045DC00FFF71CFD2268D36943F40063D3612268A2
:1045EC00D36923F48063D3612268D369296943EAD0
:1045FC000123D361002029E00068FFF741FD226808
:10460C00536D43F0080353652268536D23F0040384
:10461C0053652268536D29690B435365002015E0DF
:10462C000068FFF767FD2268536D43F40063536520
:10463C002268536D23F4806353652268536D296996
:10464C0043EA01235365002000E00120002384F895
:10465C003C3038BD0220FCE710B4846824F47F4C55
:10466C0042EA03220A4342EA0C0282605DF8044BE0
:10467C007047000090F83C30012B00F08F8010B593
:10468C000446012380F83C30022380F83D30026858
:10469C009068434B034093600B68702B55D031D816
:1046AC00502B6CD00CD9602B2AD1CA684968206871
:1046BC00FFF76DFD60212068FFF77EFD002035E0DF
:1046CC00402B0AD1CA6849682068FFF74DFD40218C
:1046DC002068FFF771FD002028E05BD8202B07D065
:1046EC0003D9302B04D0012020E00BB1102B05D1C5
:1046FC0019462068FFF760FD002017E0012015E047
:10470C00012013E0B3F5005F2CD00BD9254A93425E
:10471C00EED012D9244A9342EAD010329342E7D019
:10472C00012003E0B3F5805F36D10020012384F82B
:10473C003D30002384F83C3010BDB3F5801FD7D03A
:10474C00B3F1101FD4D00120F0E7CB684A68896818
:10475C002068FFF781FF2268936843F0770393602A
:10476C000020E3E7CB684A6889682068FFF774FF8C
:10477C002268936843F4804393600020D6E7CA68AC
:10478C0049682068FFF7F0FC50212068FFF714FD02
:10479C000020CBE70120C9E70120C7E702207047C2
:1047AC008800CEFF200010003000100090F83C3044
:1047BC00012B4DD070B4012380F83C30022380F8DB
:1047CC003D3003685A689C68224E234DAB4218BF9B
:1047DC00B34203D122F470024D682A4322F07002D6
:1047EC000D682A435A6003681A4AB3F1804F18BF08
:1047FC0093421FD0A2F57C4293421BD002F58062FB
:10480C00934217D002F58062934213D002F578429E
:10481C0093420FD0A2F56C4293420BD002F5943226
:10482C00934207D0A2F5C042934203D002F58062B6
:10483C00934204D124F080048A6814439C600123C1
:10484C0080F83D30002380F83C30184670BC70472F
:10485C0002207047000001400004014090F83C30F9
:10486C00012B48D030B4012380F83C30CB6823F4C2
:10487C0040738A68134323F480634A68134323F418
:10488C0000630A68134323F480530A69134323F427
:10489C0000534A69134323F480430A6B134323F4F4
:1048AC0070238A6943EA02430268144C144DAA42ED
:1048BC0018BFA2420CBF0124002403D123F0805363
:1048CC00CD692B4384B123F470038C6A43EA0453FF
:1048DC0023F080730C6A234323F000734C6A234348
:1048EC0023F00053C96A0B435364002380F83C3017
:1048FC00184630BC70470220704700BF00000140D2
:10490C0000040140224AD2F8883043F47003C2F804
:10491C008830204B1B6803F00F03062B06D81D4A6A
:10492C00136823F00F0343F0070313601A4B1A6844
:10493C0042F001021A6000221A611968174A0A40F3
:10494C001A60144B1B6813F0080F06D0114A136839
:10495C0023F00F0343F0070313600F4B00229A61FF
:10496C00DA611A620E4999620E49D9620E491963CD
:10497C005A639963DA6319645A64196821F48021C3
:10498C0019601A66094B43F2D2021A60704700BFD5
:10499C0000ED00E000200052004402587FEDF6EAE2
:1049AC00000202020000FF018002010100400052DF
:1049BC0002680A4B9A4200D0704782B0084BD3F879
:1049CC00F02042F00202C3F8F020D3F8F03003F0EC
:1049DC0002030193019B02B0704700BF0004014029
:1049EC000044025870B588B00023039304930593D8
:1049FC0006930793026803F1804303F582339A42CE
:104A0C0001D008B070BD234BD3F8E02042F0010276
:104A1C00C3F8E020D3F8E02002F001020092009AE3
:104A2C00D3F8E02042F00202C3F8E020D3F8E020F3
:104A3C0002F002020192019AD3F8E02042F0040243
:104A4C00C3F8E020D3F8E03003F004030293029B98
:104A5C0080230393022604960325079503A90E4889
:104A6C00FFF710F84FF44043039304960024059489
:104A7C000694079503A90948FFF704F84FF47073DF
:104A8C000393049605940694079503A90448FEF72E
:104A9C00F9FFB6E70044025800000258000402581F
:104AAC000008025810B59CB00024189419941A945C
:104ABC001B941594169417940E940F9410941194AF
:104ACC001294139414943422214601A800F0DCF8BB
:104ADC004448454B0360446084604FF6FF73C360E9
:104AEC00046144618461FFF703FC00285CD14FF43E
:104AFC008053189318A93B48FFF7BCFD002856D1EA
:104B0C003848FFF755FC002854D13648FFF720FCF5
:104B1C00002852D1002315931693179315A93148E9
:104B2C00FFF744FE00284BD160230E9300220F9216
:104B3C00109211921292139214920EA92948FFF717
:104B4C00EEFC00283FD104220EA92648FFF7E7FC13
:104B5C0000283BD108220EA92248FFF7E0FC0028D0
:104B6C0037D100230E930C220EA91E48FFF79AFC96
:104B7C00002831D1002301930293039304930593EE
:104B8C004FF400520692079309934FF000720A9269
:104B9C000B930D9301A91348FFF760FEF8B9114868
:104BAC00FFF720FF1CB010BDFBF7AAFB9FE7FBF73C
:104BBC00A7FBA5E7FBF7A4FBA7E7FBF7A1FBA9E77E
:104BCC00FBF79EFBB0E7FBF79BFBBCE7FBF798FB07
:104BDC00C0E7FBF795FBC4E7FBF792FBCAE7FBF7D3
:104BEC008FFBDCE7A800002000040140DFF834D084
:104BFC00FFF788FE0C480D490D4A002302E0D458FB
:104C0C00C4500433C4188C42F9D30A4A0A4C00230A
:104C1C0001E013600432A242FBD300F011F8FBF761
:104C2C00C7FB70470000022000000020100000208D
:104C3C00D44C000810000020F4000020FEE7000017
:104C4C0070B50D4D0D4C641BA4100026A64209D165
:104C5C000B4D0C4C00F020F8641BA4100026A6424F
:104C6C0005D170BD55F8043B98470136EEE755F871
:104C7C00043B98470136F2E7CC4C0008CC4C0008BA
:104C8C00CC4C0008D04C000802440346934200D19F
:104C9C00704703F8011BF9E7F8B500BFF8BC08BC76
:104CAC009E467047F8B500BFF8BC08BC9E467047DE
:104CBC0000000000010203040102030406070809B6
:044CCC00F1020008E9
:044CD000CD02000809
:104CD40001000000100000000090D0030090D003F9
:0400000508004BF9AB
:00000001FF
